{
  "contractName": "MultiSigWallet",
  "abi": [
    {
      "inputs": [
        {
          "internalType": "string",
          "name": "_name",
          "type": "string"
        },
        {
          "internalType": "address[]",
          "name": "_members",
          "type": "address[]"
        },
        {
          "internalType": "uint256",
          "name": "_threshold",
          "type": "uint256"
        },
        {
          "internalType": "address",
          "name": "_address",
          "type": "address"
        }
      ],
      "stateMutability": "nonpayable",
      "type": "constructor"
    },
    {
      "anonymous": false,
      "inputs": [
        {
          "indexed": false,
          "internalType": "uint256",
          "name": "batchId",
          "type": "uint256"
        },
        {
          "indexed": false,
          "internalType": "uint256[]",
          "name": "certIds",
          "type": "uint256[]"
        }
      ],
      "name": "BatchAdded",
      "type": "event"
    },
    {
      "anonymous": false,
      "inputs": [
        {
          "indexed": false,
          "internalType": "address",
          "name": "confirmer",
          "type": "address"
        },
        {
          "indexed": false,
          "internalType": "uint256",
          "name": "batchId",
          "type": "uint256"
        }
      ],
      "name": "BatchConfirmed",
      "type": "event"
    },
    {
      "anonymous": false,
      "inputs": [
        {
          "indexed": false,
          "internalType": "address",
          "name": "creator",
          "type": "address"
        },
        {
          "indexed": false,
          "internalType": "uint256",
          "name": "groupId",
          "type": "uint256"
        },
        {
          "indexed": false,
          "internalType": "uint256",
          "name": "batchId",
          "type": "uint256"
        },
        {
          "indexed": false,
          "internalType": "string",
          "name": "name",
          "type": "string"
        },
        {
          "components": [
            {
              "internalType": "uint256",
              "name": "id",
              "type": "uint256"
            },
            {
              "internalType": "address",
              "name": "schoolId",
              "type": "address"
            },
            {
              "internalType": "string",
              "name": "studentId",
              "type": "string"
            },
            {
              "internalType": "string",
              "name": "subjectId",
              "type": "string"
            },
            {
              "internalType": "address[]",
              "name": "issuers",
              "type": "address[]"
            },
            {
              "internalType": "string",
              "name": "semester",
              "type": "string"
            },
            {
              "internalType": "string",
              "name": "grade",
              "type": "string"
            },
            {
              "internalType": "string",
              "name": "gradeType",
              "type": "string"
            },
            {
              "internalType": "uint256",
              "name": "batchId",
              "type": "uint256"
            }
          ],
          "indexed": false,
          "internalType": "struct Cert[]",
          "name": "certs",
          "type": "tuple[]"
        }
      ],
      "name": "BatchPending",
      "type": "event"
    },
    {
      "anonymous": false,
      "inputs": [
        {
          "indexed": false,
          "internalType": "uint256",
          "name": "certId",
          "type": "uint256"
        },
        {
          "indexed": false,
          "internalType": "address",
          "name": "schoolId",
          "type": "address"
        },
        {
          "indexed": false,
          "internalType": "string",
          "name": "studentId",
          "type": "string"
        },
        {
          "indexed": false,
          "internalType": "string",
          "name": "subjectId",
          "type": "string"
        },
        {
          "indexed": false,
          "internalType": "string",
          "name": "semester",
          "type": "string"
        },
        {
          "indexed": false,
          "internalType": "string",
          "name": "grade",
          "type": "string"
        },
        {
          "indexed": false,
          "internalType": "string",
          "name": "gradeType",
          "type": "string"
        },
        {
          "indexed": false,
          "internalType": "uint256",
          "name": "batchId",
          "type": "uint256"
        }
      ],
      "name": "CertAdded",
      "type": "event"
    },
    {
      "anonymous": false,
      "inputs": [
        {
          "indexed": false,
          "internalType": "address",
          "name": "confirmer",
          "type": "address"
        },
        {
          "indexed": false,
          "internalType": "uint256",
          "name": "certId",
          "type": "uint256"
        }
      ],
      "name": "CertConfirmed",
      "type": "event"
    },
    {
      "anonymous": false,
      "inputs": [
        {
          "indexed": false,
          "internalType": "address",
          "name": "creator",
          "type": "address"
        },
        {
          "indexed": false,
          "internalType": "uint256",
          "name": "certId",
          "type": "uint256"
        },
        {
          "indexed": false,
          "internalType": "address",
          "name": "schoolId",
          "type": "address"
        },
        {
          "indexed": false,
          "internalType": "string",
          "name": "studentId",
          "type": "string"
        },
        {
          "indexed": false,
          "internalType": "string",
          "name": "subjectId",
          "type": "string"
        },
        {
          "indexed": false,
          "internalType": "string",
          "name": "semester",
          "type": "string"
        },
        {
          "indexed": false,
          "internalType": "string",
          "name": "grade",
          "type": "string"
        },
        {
          "indexed": false,
          "internalType": "string",
          "name": "gradeType",
          "type": "string"
        },
        {
          "indexed": false,
          "internalType": "uint256",
          "name": "batchId",
          "type": "uint256"
        }
      ],
      "name": "CertPending",
      "type": "event"
    },
    {
      "anonymous": false,
      "inputs": [
        {
          "indexed": false,
          "internalType": "address",
          "name": "from",
          "type": "address"
        },
        {
          "indexed": false,
          "internalType": "uint256",
          "name": "value",
          "type": "uint256"
        }
      ],
      "name": "Deposit",
      "type": "event"
    },
    {
      "anonymous": false,
      "inputs": [
        {
          "indexed": false,
          "internalType": "uint256",
          "name": "groupId",
          "type": "uint256"
        },
        {
          "indexed": false,
          "internalType": "string",
          "name": "name",
          "type": "string"
        },
        {
          "indexed": false,
          "internalType": "address[]",
          "name": "members",
          "type": "address[]"
        },
        {
          "indexed": false,
          "internalType": "uint256",
          "name": "threshold",
          "type": "uint256"
        }
      ],
      "name": "GroupAdded",
      "type": "event"
    },
    {
      "anonymous": false,
      "inputs": [
        {
          "indexed": false,
          "internalType": "address",
          "name": "confirmer",
          "type": "address"
        },
        {
          "indexed": false,
          "internalType": "uint256",
          "name": "groupId",
          "type": "uint256"
        }
      ],
      "name": "GroupConfirmed",
      "type": "event"
    },
    {
      "anonymous": false,
      "inputs": [
        {
          "indexed": false,
          "internalType": "address",
          "name": "creator",
          "type": "address"
        },
        {
          "indexed": false,
          "internalType": "uint256",
          "name": "groupId",
          "type": "uint256"
        },
        {
          "indexed": false,
          "internalType": "string",
          "name": "name",
          "type": "string"
        },
        {
          "indexed": false,
          "internalType": "address[]",
          "name": "members",
          "type": "address[]"
        },
        {
          "indexed": false,
          "internalType": "uint256",
          "name": "threshold",
          "type": "uint256"
        }
      ],
      "name": "GroupPending",
      "type": "event"
    },
    {
      "anonymous": false,
      "inputs": [
        {
          "indexed": false,
          "internalType": "string",
          "name": "schoolName",
          "type": "string"
        },
        {
          "indexed": false,
          "internalType": "address[]",
          "name": "members",
          "type": "address[]"
        },
        {
          "indexed": false,
          "internalType": "uint256",
          "name": "threshold",
          "type": "uint256"
        },
        {
          "indexed": false,
          "internalType": "address",
          "name": "certsAddress",
          "type": "address"
        }
      ],
      "name": "WalletActivated",
      "type": "event"
    },
    {
      "stateMutability": "payable",
      "type": "fallback",
      "payable": true
    },
    {
      "stateMutability": "payable",
      "type": "receive",
      "payable": true
    },
    {
      "inputs": [
        {
          "internalType": "address",
          "name": "_member",
          "type": "address"
        }
      ],
      "name": "isMember",
      "outputs": [
        {
          "internalType": "bool",
          "name": "",
          "type": "bool"
        }
      ],
      "stateMutability": "view",
      "type": "function",
      "constant": true
    },
    {
      "inputs": [
        {
          "internalType": "address",
          "name": "_member",
          "type": "address"
        },
        {
          "internalType": "uint256",
          "name": "_groupId",
          "type": "uint256"
        }
      ],
      "name": "isMemberOfGroup",
      "outputs": [
        {
          "internalType": "bool",
          "name": "",
          "type": "bool"
        }
      ],
      "stateMutability": "view",
      "type": "function",
      "constant": true
    },
    {
      "inputs": [
        {
          "internalType": "string",
          "name": "_name",
          "type": "string"
        },
        {
          "internalType": "address[]",
          "name": "_members",
          "type": "address[]"
        },
        {
          "internalType": "uint256",
          "name": "_threshold",
          "type": "uint256"
        }
      ],
      "name": "addGroup",
      "outputs": [
        {
          "internalType": "uint256",
          "name": "",
          "type": "uint256"
        }
      ],
      "stateMutability": "nonpayable",
      "type": "function"
    },
    {
      "inputs": [
        {
          "internalType": "uint256",
          "name": "_groupId",
          "type": "uint256"
        }
      ],
      "name": "confirmGroup",
      "outputs": [],
      "stateMutability": "nonpayable",
      "type": "function"
    },
    {
      "inputs": [
        {
          "internalType": "uint256",
          "name": "_groupId",
          "type": "uint256"
        }
      ],
      "name": "getGroup",
      "outputs": [
        {
          "components": [
            {
              "internalType": "uint256",
              "name": "id",
              "type": "uint256"
            },
            {
              "internalType": "string",
              "name": "name",
              "type": "string"
            },
            {
              "internalType": "address[]",
              "name": "members",
              "type": "address[]"
            },
            {
              "internalType": "uint256",
              "name": "threshold",
              "type": "uint256"
            },
            {
              "internalType": "address[]",
              "name": "confirmedBy",
              "type": "address[]"
            }
          ],
          "internalType": "struct MultiSigWallet.Group",
          "name": "",
          "type": "tuple"
        }
      ],
      "stateMutability": "view",
      "type": "function",
      "constant": true
    },
    {
      "inputs": [
        {
          "internalType": "uint256",
          "name": "_groupId",
          "type": "uint256"
        },
        {
          "internalType": "uint256",
          "name": "_certId",
          "type": "uint256"
        }
      ],
      "name": "isCertConfirmed",
      "outputs": [
        {
          "internalType": "bool",
          "name": "",
          "type": "bool"
        }
      ],
      "stateMutability": "view",
      "type": "function",
      "constant": true
    },
    {
      "inputs": [
        {
          "internalType": "uint256",
          "name": "_groupId",
          "type": "uint256"
        },
        {
          "internalType": "uint256",
          "name": "_batchId",
          "type": "uint256"
        }
      ],
      "name": "isBatchConfirmed",
      "outputs": [
        {
          "internalType": "bool",
          "name": "",
          "type": "bool"
        }
      ],
      "stateMutability": "view",
      "type": "function",
      "constant": true
    },
    {
      "inputs": [
        {
          "internalType": "uint256",
          "name": "_groupId",
          "type": "uint256"
        },
        {
          "components": [
            {
              "internalType": "uint256",
              "name": "id",
              "type": "uint256"
            },
            {
              "internalType": "address",
              "name": "schoolId",
              "type": "address"
            },
            {
              "internalType": "string",
              "name": "studentId",
              "type": "string"
            },
            {
              "internalType": "string",
              "name": "subjectId",
              "type": "string"
            },
            {
              "internalType": "address[]",
              "name": "issuers",
              "type": "address[]"
            },
            {
              "internalType": "string",
              "name": "semester",
              "type": "string"
            },
            {
              "internalType": "string",
              "name": "grade",
              "type": "string"
            },
            {
              "internalType": "string",
              "name": "gradeType",
              "type": "string"
            },
            {
              "internalType": "uint256",
              "name": "batchId",
              "type": "uint256"
            }
          ],
          "internalType": "struct Cert",
          "name": "_cert",
          "type": "tuple"
        }
      ],
      "name": "submitCert",
      "outputs": [
        {
          "internalType": "uint256",
          "name": "",
          "type": "uint256"
        }
      ],
      "stateMutability": "nonpayable",
      "type": "function"
    },
    {
      "inputs": [
        {
          "internalType": "uint256",
          "name": "_groupId",
          "type": "uint256"
        },
        {
          "internalType": "string",
          "name": "_batchName",
          "type": "string"
        },
        {
          "components": [
            {
              "internalType": "uint256",
              "name": "id",
              "type": "uint256"
            },
            {
              "internalType": "address",
              "name": "schoolId",
              "type": "address"
            },
            {
              "internalType": "string",
              "name": "studentId",
              "type": "string"
            },
            {
              "internalType": "string",
              "name": "subjectId",
              "type": "string"
            },
            {
              "internalType": "address[]",
              "name": "issuers",
              "type": "address[]"
            },
            {
              "internalType": "string",
              "name": "semester",
              "type": "string"
            },
            {
              "internalType": "string",
              "name": "grade",
              "type": "string"
            },
            {
              "internalType": "string",
              "name": "gradeType",
              "type": "string"
            },
            {
              "internalType": "uint256",
              "name": "batchId",
              "type": "uint256"
            }
          ],
          "internalType": "struct Cert[]",
          "name": "_certs",
          "type": "tuple[]"
        }
      ],
      "name": "submitBatch",
      "outputs": [
        {
          "internalType": "uint256",
          "name": "",
          "type": "uint256"
        }
      ],
      "stateMutability": "nonpayable",
      "type": "function"
    },
    {
      "inputs": [
        {
          "internalType": "uint256",
          "name": "_groupId",
          "type": "uint256"
        },
        {
          "internalType": "uint256",
          "name": "_certId",
          "type": "uint256"
        }
      ],
      "name": "confirmCert",
      "outputs": [],
      "stateMutability": "nonpayable",
      "type": "function"
    },
    {
      "inputs": [
        {
          "internalType": "uint256",
          "name": "_groupId",
          "type": "uint256"
        },
        {
          "internalType": "uint256",
          "name": "_batchId",
          "type": "uint256"
        }
      ],
      "name": "confirmBatch",
      "outputs": [],
      "stateMutability": "nonpayable",
      "type": "function"
    }
  ],
  "bytecode": "0x60806040526000600b556000600c556000600d553480156200002057600080fd5b506040516200448b3803806200448b83398181016040528101906200004691906200058b565b60008351116200005557600080fd5b600082116200006357600080fd5b82518211156200007257600080fd5b83600190805190602001906200008a92919062000134565b508260029080519060200190620000a3929190620001c5565b5081600381905550806000806101000a81548173ffffffffffffffffffffffffffffffffffffffff021916908373ffffffffffffffffffffffffffffffffffffffff1602179055507fa3c3c713368877193c2424d165fa22a1f3fcb383cf273be9c287d3cb847152e38484848460405162000122949392919062000788565b60405180910390a15050505062000848565b828054620001429062000812565b90600052602060002090601f016020900481019282620001665760008555620001b2565b82601f106200018157805160ff1916838001178555620001b2565b82800160010185558215620001b2579182015b82811115620001b157825182559160200191906001019062000194565b5b509050620001c1919062000254565b5090565b82805482825590600052602060002090810192821562000241579160200282015b82811115620002405782518260006101000a81548173ffffffffffffffffffffffffffffffffffffffff021916908373ffffffffffffffffffffffffffffffffffffffff16021790555091602001919060010190620001e6565b5b50905062000250919062000254565b5090565b5b808211156200026f57600081600090555060010162000255565b5090565b6000604051905090565b600080fd5b600080fd5b600080fd5b600080fd5b6000601f19601f8301169050919050565b7f4e487b7100000000000000000000000000000000000000000000000000000000600052604160045260246000fd5b620002dc8262000291565b810181811067ffffffffffffffff82111715620002fe57620002fd620002a2565b5b80604052505050565b60006200031362000273565b9050620003218282620002d1565b919050565b600067ffffffffffffffff821115620003445762000343620002a2565b5b6200034f8262000291565b9050602081019050919050565b60005b838110156200037c5780820151818401526020810190506200035f565b838111156200038c576000848401525b50505050565b6000620003a9620003a38462000326565b62000307565b905082815260208101848484011115620003c857620003c76200028c565b5b620003d58482856200035c565b509392505050565b600082601f830112620003f557620003f462000287565b5b81516200040784826020860162000392565b91505092915050565b600067ffffffffffffffff8211156200042e576200042d620002a2565b5b602082029050602081019050919050565b600080fd5b600073ffffffffffffffffffffffffffffffffffffffff82169050919050565b6000620004718262000444565b9050919050565b620004838162000464565b81146200048f57600080fd5b50565b600081519050620004a38162000478565b92915050565b6000620004c0620004ba8462000410565b62000307565b90508083825260208201905060208402830185811115620004e657620004e56200043f565b5b835b81811015620005135780620004fe888262000492565b845260208401935050602081019050620004e8565b5050509392505050565b600082601f83011262000535576200053462000287565b5b815162000547848260208601620004a9565b91505092915050565b6000819050919050565b620005658162000550565b81146200057157600080fd5b50565b60008151905062000585816200055a565b92915050565b60008060008060808587031215620005a857620005a76200027d565b5b600085015167ffffffffffffffff811115620005c957620005c862000282565b5b620005d787828801620003dd565b945050602085015167ffffffffffffffff811115620005fb57620005fa62000282565b5b62000609878288016200051d565b93505060406200061c8782880162000574565b92505060606200062f8782880162000492565b91505092959194509250565b600081519050919050565b600082825260208201905092915050565b600062000664826200063b565b62000670818562000646565b9350620006828185602086016200035c565b6200068d8162000291565b840191505092915050565b600081519050919050565b600082825260208201905092915050565b6000819050602082019050919050565b620006cf8162000464565b82525050565b6000620006e38383620006c4565b60208301905092915050565b6000602082019050919050565b6000620007098262000698565b620007158185620006a3565b93506200072283620006b4565b8060005b83811015620007595781516200073d8882620006d5565b97506200074a83620006ef565b92505060018101905062000726565b5085935050505092915050565b620007718162000550565b82525050565b620007828162000464565b82525050565b60006080820190508181036000830152620007a4818762000657565b90508181036020830152620007ba8186620006fc565b9050620007cb604083018562000766565b620007da606083018462000777565b95945050505050565b7f4e487b7100000000000000000000000000000000000000000000000000000000600052602260045260246000fd5b600060028204905060018216806200082b57607f821691505b60208210811415620008425762000841620007e3565b5b50919050565b613c3380620008586000396000f3fe6080604052600436106100a05760003560e01c8063963c6eff11610064578063963c6eff1461024c578063a230c52414610275578063ceb60654146102b2578063dc595dc4146102ef578063e52b0bcd14610318578063fff897c914610355576100ea565b8063018c890a1461012f5780632650b0051461016c5780633e0aad1d146101a957806345dfb294146101e65780635da1546b1461020f576100ea565b366100ea5760003411156100e8577fe1fffcc4923d04b559f4d29a8bfc6cda04eb5b0d3c460751c2402c5c5cc9109c33346040516100df9291906128af565b60405180910390a15b005b600034111561012d577fe1fffcc4923d04b559f4d29a8bfc6cda04eb5b0d3c460751c2402c5c5cc9109c33346040516101249291906128af565b60405180910390a15b005b34801561013b57600080fd5b5061015660048036038101906101519190612918565b610392565b6040516101639190612973565b60405180910390f35b34801561017857600080fd5b50610193600480360381019061018e91906129ba565b6103cb565b6040516101a09190612973565b60405180910390f35b3480156101b557600080fd5b506101d060048036038101906101cb9190612918565b6104ca565b6040516101dd9190612973565b60405180910390f35b3480156101f257600080fd5b5061020d600480360381019061020891906129fa565b610503565b005b34801561021b57600080fd5b5061023660048036038101906102319190612c35565b6107e0565b6040516102439190612cc0565b60405180910390f35b34801561025857600080fd5b50610273600480360381019061026e9190612918565b610a09565b005b34801561028157600080fd5b5061029c60048036038101906102979190612cdb565b610b70565b6040516102a99190612973565b60405180910390f35b3480156102be57600080fd5b506102d960048036038101906102d491906129fa565b610c1f565b6040516102e69190612ee1565b60405180910390f35b3480156102fb57600080fd5b5061031660048036038101906103119190612918565b610e0e565b005b34801561032457600080fd5b5061033f600480360381019061033a9190613095565b611092565b60405161034c9190612cc0565b60405180910390f35b34801561036157600080fd5b5061037c600480360381019061037791906131d2565b611283565b6040516103899190612cc0565b60405180910390f35b60008061039f8484611579565b905060008151905060046000868152602001908152602001600020600301548110159250505092915050565b600080600460008481526020019081526020016000206002018054905014156103f757600090506104c4565b60005b60046000848152602001908152602001600020600201805490508110156104be578373ffffffffffffffffffffffffffffffffffffffff1660046000858152602001908152602001600020600201828154811061045a5761045961325d565b5b9060005260206000200160009054906101000a900473ffffffffffffffffffffffffffffffffffffffff1673ffffffffffffffffffffffffffffffffffffffff1614156104ab5760019150506104c4565b80806104b6906132bb565b9150506103fa565b50600090505b92915050565b6000806104d784846116f9565b905060008151905060046000868152602001908152602001600020600301548110159250505092915050565b61050c33610b70565b61051557600080fd5b6000151561052282611879565b15151461052e57600080fd5b6000600460008381526020019081526020016000206004018054806020026020016040519081016040528092919081815260200182805480156105c657602002820191906000526020600020905b8160009054906101000a900473ffffffffffffffffffffffffffffffffffffffff1673ffffffffffffffffffffffffffffffffffffffff168152602001906001019080831161057c575b505050505090506000805b82518110156106a4573373ffffffffffffffffffffffffffffffffffffffff168382815181106106045761060361325d565b5b602002602001015173ffffffffffffffffffffffffffffffffffffffff16141561063457600061063357600080fd5b5b600073ffffffffffffffffffffffffffffffffffffffff1683828151811061065f5761065e61325d565b5b602002602001015173ffffffffffffffffffffffffffffffffffffffff161461069157818061068d906132bb565b9250505b808061069c906132bb565b9150506105d1565b50336004600085815260200190815260200160002060040182815481106106ce576106cd61325d565b5b9060005260206000200160006101000a81548173ffffffffffffffffffffffffffffffffffffffff021916908373ffffffffffffffffffffffffffffffffffffffff1602179055507f40212d9d89b8b595d3e8beccd8d17412912ffefafb3f51257d1953e11571f90433846040516107479291906128af565b60405180910390a161075883611879565b156107db577ff310f10bdd8e03d060d72e9cc4ff7cb137a11f2a168f021b8a77bc8ac577e37a83600460008681526020019081526020016000206001016004600087815260200190815260200160002060020160046000888152602001908152602001600020600301546040516107d29493929190613508565b60405180910390a15b505050565b60006107eb33610b70565b6107f457600080fd5b600083511161080257600080fd5b6000821161080f57600080fd5b825182111561081d57600080fd5b6000600d6000815480929190610832906132bb565b91905055905060006040518060a0016040528083815260200187815260200186815260200185815260200160028054905067ffffffffffffffff81111561087c5761087b612a42565b5b6040519080825280602002602001820160405280156108aa5781602001602082028036833780820191505090505b5081525090503381608001516000815181106108c9576108c861325d565b5b602002602001019073ffffffffffffffffffffffffffffffffffffffff16908173ffffffffffffffffffffffffffffffffffffffff1681525050806004600084815260200190815260200160002060008201518160000155602082015181600101908051906020019061093d92919061264a565b50604082015181600201908051906020019061095a9291906126d0565b506060820151816003015560808201518160040190805190602001906109819291906126d0565b509050507f27efe2927956a250c8a9a9e3d43c2fdea8859582d25981ad6139be4e6a42627333838888886040516109bc9594939291906135f2565b60405180910390a17f40212d9d89b8b595d3e8beccd8d17412912ffefafb3f51257d1953e11571f90433836040516109f59291906128af565b60405180910390a181925050509392505050565b81610a1381611879565b610a1c57600080fd5b610a2633826103cb565b610a2f57600080fd5b6000151560076000858152602001908152602001600020600084815260200190815260200160002060003373ffffffffffffffffffffffffffffffffffffffff1673ffffffffffffffffffffffffffffffffffffffff16815260200190815260200160002060009054906101000a900460ff16151514610aae57600080fd5b600160076000858152602001908152602001600020600084815260200190815260200160002060003373ffffffffffffffffffffffffffffffffffffffff1673ffffffffffffffffffffffffffffffffffffffff16815260200190815260200160002060006101000a81548160ff0219169083151502179055507fdb4c18c6330144ac69190ae22c093ee67b6b5427be568026f0e999f1903d28623383604051610b599291906128af565b60405180910390a1610b6b838361195b565b505050565b600080600090505b600280549050811015610c14578273ffffffffffffffffffffffffffffffffffffffff1660028281548110610bb057610baf61325d565b5b9060005260206000200160009054906101000a900473ffffffffffffffffffffffffffffffffffffffff1673ffffffffffffffffffffffffffffffffffffffff161415610c01576001915050610c1a565b8080610c0c906132bb565b915050610b78565b50600090505b919050565b610c2761275a565b600460008381526020019081526020016000206040518060a001604052908160008201548152602001600182018054610c5f90613333565b80601f0160208091040260200160405190810160405280929190818152602001828054610c8b90613333565b8015610cd85780601f10610cad57610100808354040283529160200191610cd8565b820191906000526020600020905b815481529060010190602001808311610cbb57829003601f168201915b5050505050815260200160028201805480602002602001604051908101604052809291908181526020018280548015610d6657602002820191906000526020600020905b8160009054906101000a900473ffffffffffffffffffffffffffffffffffffffff1673ffffffffffffffffffffffffffffffffffffffff1681526020019060010190808311610d1c575b505050505081526020016003820154815260200160048201805480602002602001604051908101604052809291908181526020018280548015610dfe57602002820191906000526020600020905b8160009054906101000a900473ffffffffffffffffffffffffffffffffffffffff1673ffffffffffffffffffffffffffffffffffffffff1681526020019060010190808311610db4575b5050505050815250509050919050565b81610e1881611879565b610e2157600080fd5b610e2b33826103cb565b610e3457600080fd5b60001515600a6000858152602001908152602001600020600084815260200190815260200160002060003373ffffffffffffffffffffffffffffffffffffffff1673ffffffffffffffffffffffffffffffffffffffff16815260200190815260200160002060009054906101000a900460ff16151514610eb357600080fd5b6001600a6000858152602001908152602001600020600084815260200190815260200160002060003373ffffffffffffffffffffffffffffffffffffffff1673ffffffffffffffffffffffffffffffffffffffff16815260200190815260200160002060006101000a81548160ff02191690831515021790555060005b6008600084815260200190815260200160002080549050811015611049576000600860008581526020019081526020016000208281548110610f7557610f7461325d565b5b90600052602060002001549050600160076000878152602001908152602001600020600083815260200190815260200160002060003373ffffffffffffffffffffffffffffffffffffffff1673ffffffffffffffffffffffffffffffffffffffff16815260200190815260200160002060006101000a81548160ff0219169083151502179055507fdb4c18c6330144ac69190ae22c093ee67b6b5427be568026f0e999f1903d2862338260405161102d9291906128af565b60405180910390a1508080611041906132bb565b915050610f30565b507f740142560d3de320dade4304fa969e81237e4cb90e15f367c2f340a464f687c6338360405161107b9291906128af565b60405180910390a161108d8383611f11565b505050565b60008261109e81611879565b6110a757600080fd5b6110b133826103cb565b6110ba57600080fd5b600b60008154809291906110cd906132bb565b919050558360000181815250508260056000856000015181526020019081526020016000206000820151816000015560208201518160010160006101000a81548173ffffffffffffffffffffffffffffffffffffffff021916908373ffffffffffffffffffffffffffffffffffffffff160217905550604082015181600201908051906020019061115f92919061264a565b50606082015181600301908051906020019061117c92919061264a565b5060808201518160040190805190602001906111999291906126d0565b5060a08201518160050190805190602001906111b692919061264a565b5060c08201518160060190805190602001906111d392919061264a565b5060e08201518160070190805190602001906111f092919061264a565b5061010082015181600801559050507f4873141f96aa21df0c9aef8e00c668d83fa841996b4dd75908ca2b1a9b51fcfa3384600001518560200151866040015187606001518860a001518960c001518a60e001518b610100015160405161125f99989796959493929190613653565b60405180910390a1611275848460000151610a09565b826000015191505092915050565b60008361128f81611879565b61129857600080fd5b6112a233826103cb565b6112ab57600080fd5b6000600c60008154809291906112c0906132bb565b919050559050835167ffffffffffffffff8111156112e1576112e0612a42565b5b60405190808252806020026020018201604052801561130f5781602001602082028036833780820191505090505b50600860008381526020019081526020016000209080519060200190611336929190612789565b5060005b845181101561152357600b6000815480929190611356906132bb565b9190505585828151811061136d5761136c61325d565b5b6020026020010151600001818152505060008582815181106113925761139161325d565b5b60200260200101516000015190508582815181106113b3576113b261325d565b5b6020026020010151600560008381526020019081526020016000206000820151816000015560208201518160010160006101000a81548173ffffffffffffffffffffffffffffffffffffffff021916908373ffffffffffffffffffffffffffffffffffffffff160217905550604082015181600201908051906020019061143b92919061264a565b50606082015181600301908051906020019061145892919061264a565b5060808201518160040190805190602001906114759291906126d0565b5060a082015181600501908051906020019061149292919061264a565b5060c08201518160060190805190602001906114af92919061264a565b5060e08201518160070190805190602001906114cc92919061264a565b506101008201518160080155905050806008600085815260200190815260200160002083815481106115015761150061325d565b5b906000526020600020018190555050808061151b906132bb565b91505061133a565b507fdfd25a0376a4794d704ff912b5361a6145338914192a898b728294505934eaad338783888860405161155b9594939291906138ad565b60405180910390a161156d8682610e0e565b80925050509392505050565b6060806000805b6002805490508110156116ed57600a600087815260200190815260200160002060008681526020019081526020016000206000600283815481106115c7576115c661325d565b5b9060005260206000200160009054906101000a900473ffffffffffffffffffffffffffffffffffffffff1673ffffffffffffffffffffffffffffffffffffffff1673ffffffffffffffffffffffffffffffffffffffff16815260200190815260200160002060009054906101000a900460ff16156116da57600281815481106116535761165261325d565b5b9060005260206000200160009054906101000a900473ffffffffffffffffffffffffffffffffffffffff168383815181106116915761169061325d565b5b602002602001019073ffffffffffffffffffffffffffffffffffffffff16908173ffffffffffffffffffffffffffffffffffffffff168152505081806116d6906132bb565b9250505b80806116e5906132bb565b915050611580565b50819250505092915050565b6060806000805b60028054905081101561186d576007600087815260200190815260200160002060008681526020019081526020016000206000600283815481106117475761174661325d565b5b9060005260206000200160009054906101000a900473ffffffffffffffffffffffffffffffffffffffff1673ffffffffffffffffffffffffffffffffffffffff1673ffffffffffffffffffffffffffffffffffffffff16815260200190815260200160002060009054906101000a900460ff161561185a57600281815481106117d3576117d261325d565b5b9060005260206000200160009054906101000a900473ffffffffffffffffffffffffffffffffffffffff168383815181106118115761181061325d565b5b602002602001019073ffffffffffffffffffffffffffffffffffffffff16908173ffffffffffffffffffffffffffffffffffffffff16815250508180611856906132bb565b9250505b8080611865906132bb565b915050611700565b50819250505092915050565b6000806000905060005b600460008581526020019081526020016000206004018054905081101561194c57600073ffffffffffffffffffffffffffffffffffffffff166004600086815260200190815260200160002060040182815481106118e4576118e361325d565b5b9060005260206000200160009054906101000a900473ffffffffffffffffffffffffffffffffffffffff1673ffffffffffffffffffffffffffffffffffffffff1614611939578180611935906132bb565b9250505b8080611944906132bb565b915050611883565b50600354811015915050919050565b8161196581611879565b61196e57600080fd5b61197833826103cb565b61198157600080fd5b600015156006600084815260200190815260200160002060009054906101000a900460ff161515146119b257600080fd5b6119bc83836104ca565b6119c557600080fd5b6119cf83836116f9565b6005600084815260200190815260200160002060040190805190602001906119f89291906126d0565b5060006005600084815260200190815260200160002060405180610120016040529081600082015481526020016001820160009054906101000a900473ffffffffffffffffffffffffffffffffffffffff1673ffffffffffffffffffffffffffffffffffffffff1673ffffffffffffffffffffffffffffffffffffffff168152602001600282018054611a8a90613333565b80601f0160208091040260200160405190810160405280929190818152602001828054611ab690613333565b8015611b035780601f10611ad857610100808354040283529160200191611b03565b820191906000526020600020905b815481529060010190602001808311611ae657829003601f168201915b50505050508152602001600382018054611b1c90613333565b80601f0160208091040260200160405190810160405280929190818152602001828054611b4890613333565b8015611b955780601f10611b6a57610100808354040283529160200191611b95565b820191906000526020600020905b815481529060010190602001808311611b7857829003601f168201915b5050505050815260200160048201805480602002602001604051908101604052809291908181526020018280548015611c2357602002820191906000526020600020905b8160009054906101000a900473ffffffffffffffffffffffffffffffffffffffff1673ffffffffffffffffffffffffffffffffffffffff1681526020019060010190808311611bd9575b50505050508152602001600582018054611c3c90613333565b80601f0160208091040260200160405190810160405280929190818152602001828054611c6890613333565b8015611cb55780601f10611c8a57610100808354040283529160200191611cb5565b820191906000526020600020905b815481529060010190602001808311611c9857829003601f168201915b50505050508152602001600682018054611cce90613333565b80601f0160208091040260200160405190810160405280929190818152602001828054611cfa90613333565b8015611d475780601f10611d1c57610100808354040283529160200191611d47565b820191906000526020600020905b815481529060010190602001808311611d2a57829003601f168201915b50505050508152602001600782018054611d6090613333565b80601f0160208091040260200160405190810160405280929190818152602001828054611d8c90613333565b8015611dd95780601f10611dae57610100808354040283529160200191611dd9565b820191906000526020600020905b815481529060010190602001808311611dbc57829003601f168201915b50505050508152602001600882015481525050905060008054906101000a900473ffffffffffffffffffffffffffffffffffffffff1673ffffffffffffffffffffffffffffffffffffffff166317ad2566826040518263ffffffff1660e01b8152600401611e4791906139f6565b600060405180830381600087803b158015611e6157600080fd5b505af1158015611e75573d6000803e3d6000fd5b5050505060016006600085815260200190815260200160002060006101000a81548160ff0219169083151502179055507f012fe3d3ca255015a52721402d10577d852b821c22e21458ffb15d4510e6ee5981600001518260200151836040015184606001518560a001518660c001518760e00151886101000151604051611f03989796959493929190613a18565b60405180910390a150505050565b81611f1b81611879565b611f2457600080fd5b611f2e33826103cb565b611f3757600080fd5b600015156009600084815260200190815260200160002060009054906101000a900460ff16151514611f6857600080fd5b611f728383610392565b611f7b57600080fd5b6000611f878484611579565b90506000600860008581526020019081526020016000208054905067ffffffffffffffff811115611fbb57611fba612a42565b5b604051908082528060200260200182016040528015611ff457816020015b611fe16127d6565b815260200190600190039081611fd95790505b50905060005b600860008681526020019081526020016000208054905081101561249a57600060086000878152602001908152602001600020828154811061203f5761203e61325d565b5b90600052602060002001549050836005600083815260200190815260200160002060040190805190602001906120769291906126d0565b506005600082815260200190815260200160002060405180610120016040529081600082015481526020016001820160009054906101000a900473ffffffffffffffffffffffffffffffffffffffff1673ffffffffffffffffffffffffffffffffffffffff1673ffffffffffffffffffffffffffffffffffffffff16815260200160028201805461210690613333565b80601f016020809104026020016040519081016040528092919081815260200182805461213290613333565b801561217f5780601f106121545761010080835404028352916020019161217f565b820191906000526020600020905b81548152906001019060200180831161216257829003601f168201915b5050505050815260200160038201805461219890613333565b80601f01602080910402602001604051908101604052809291908181526020018280546121c490613333565b80156122115780601f106121e657610100808354040283529160200191612211565b820191906000526020600020905b8154815290600101906020018083116121f457829003601f168201915b505050505081526020016004820180548060200260200160405190810160405280929190818152602001828054801561229f57602002820191906000526020600020905b8160009054906101000a900473ffffffffffffffffffffffffffffffffffffffff1673ffffffffffffffffffffffffffffffffffffffff1681526020019060010190808311612255575b505050505081526020016005820180546122b890613333565b80601f01602080910402602001604051908101604052809291908181526020018280546122e490613333565b80156123315780601f1061230657610100808354040283529160200191612331565b820191906000526020600020905b81548152906001019060200180831161231457829003601f168201915b5050505050815260200160068201805461234a90613333565b80601f016020809104026020016040519081016040528092919081815260200182805461237690613333565b80156123c35780601f10612398576101008083540402835291602001916123c3565b820191906000526020600020905b8154815290600101906020018083116123a657829003601f168201915b505050505081526020016007820180546123dc90613333565b80601f016020809104026020016040519081016040528092919081815260200182805461240890613333565b80156124555780601f1061242a57610100808354040283529160200191612455565b820191906000526020600020905b81548152906001019060200180831161243857829003601f168201915b5050505050815260200160088201548152505083838151811061247b5761247a61325d565b5b6020026020010181905250508080612492906132bb565b915050611ffa565b5060008054906101000a900473ffffffffffffffffffffffffffffffffffffffff1673ffffffffffffffffffffffffffffffffffffffff1663cb6f5efe826040518263ffffffff1660e01b81526004016124f49190613ab9565b600060405180830381600087803b15801561250e57600080fd5b505af1158015612522573d6000803e3d6000fd5b5050505060016009600086815260200190815260200160002060006101000a81548160ff02191690831515021790555060005b81518110156125f75760008282815181106125735761257261325d565b5b602002602001015190507f012fe3d3ca255015a52721402d10577d852b821c22e21458ffb15d4510e6ee5981600001518260200151836040015184606001518560a001518660c001518760e001518861010001516040516125db989796959493929190613a18565b60405180910390a15080806125ef906132bb565b915050612555565b507fe47cac1314b5cc61524399d90ee5c2a07026dd8d02aa2293817f2120275d1639846008600087815260200190815260200160002060405161263b929190613bcd565b60405180910390a15050505050565b82805461265690613333565b90600052602060002090601f01602090048101928261267857600085556126bf565b82601f1061269157805160ff19168380011785556126bf565b828001600101855582156126bf579182015b828111156126be5782518255916020019190600101906126a3565b5b5090506126cc9190612838565b5090565b828054828255906000526020600020908101928215612749579160200282015b828111156127485782518260006101000a81548173ffffffffffffffffffffffffffffffffffffffff021916908373ffffffffffffffffffffffffffffffffffffffff160217905550916020019190600101906126f0565b5b5090506127569190612838565b5090565b6040518060a0016040528060008152602001606081526020016060815260200160008152602001606081525090565b8280548282559060005260206000209081019282156127c5579160200282015b828111156127c45782518255916020019190600101906127a9565b5b5090506127d29190612838565b5090565b60405180610120016040528060008152602001600073ffffffffffffffffffffffffffffffffffffffff168152602001606081526020016060815260200160608152602001606081526020016060815260200160608152602001600081525090565b5b80821115612851576000816000905550600101612839565b5090565b600073ffffffffffffffffffffffffffffffffffffffff82169050919050565b600061288082612855565b9050919050565b61289081612875565b82525050565b6000819050919050565b6128a981612896565b82525050565b60006040820190506128c46000830185612887565b6128d160208301846128a0565b9392505050565b6000604051905090565b600080fd5b600080fd5b6128f581612896565b811461290057600080fd5b50565b600081359050612912816128ec565b92915050565b6000806040838503121561292f5761292e6128e2565b5b600061293d85828601612903565b925050602061294e85828601612903565b9150509250929050565b60008115159050919050565b61296d81612958565b82525050565b60006020820190506129886000830184612964565b92915050565b61299781612875565b81146129a257600080fd5b50565b6000813590506129b48161298e565b92915050565b600080604083850312156129d1576129d06128e2565b5b60006129df858286016129a5565b92505060206129f085828601612903565b9150509250929050565b600060208284031215612a1057612a0f6128e2565b5b6000612a1e84828501612903565b91505092915050565b600080fd5b600080fd5b6000601f19601f8301169050919050565b7f4e487b7100000000000000000000000000000000000000000000000000000000600052604160045260246000fd5b612a7a82612a31565b810181811067ffffffffffffffff82111715612a9957612a98612a42565b5b80604052505050565b6000612aac6128d8565b9050612ab88282612a71565b919050565b600067ffffffffffffffff821115612ad857612ad7612a42565b5b612ae182612a31565b9050602081019050919050565b82818337600083830152505050565b6000612b10612b0b84612abd565b612aa2565b905082815260208101848484011115612b2c57612b2b612a2c565b5b612b37848285612aee565b509392505050565b600082601f830112612b5457612b53612a27565b5b8135612b64848260208601612afd565b91505092915050565b600067ffffffffffffffff821115612b8857612b87612a42565b5b602082029050602081019050919050565b600080fd5b6000612bb1612bac84612b6d565b612aa2565b90508083825260208201905060208402830185811115612bd457612bd3612b99565b5b835b81811015612bfd5780612be988826129a5565b845260208401935050602081019050612bd6565b5050509392505050565b600082601f830112612c1c57612c1b612a27565b5b8135612c2c848260208601612b9e565b91505092915050565b600080600060608486031215612c4e57612c4d6128e2565b5b600084013567ffffffffffffffff811115612c6c57612c6b6128e7565b5b612c7886828701612b3f565b935050602084013567ffffffffffffffff811115612c9957612c986128e7565b5b612ca586828701612c07565b9250506040612cb686828701612903565b9150509250925092565b6000602082019050612cd560008301846128a0565b92915050565b600060208284031215612cf157612cf06128e2565b5b6000612cff848285016129a5565b91505092915050565b612d1181612896565b82525050565b600081519050919050565b600082825260208201905092915050565b60005b83811015612d51578082015181840152602081019050612d36565b83811115612d60576000848401525b50505050565b6000612d7182612d17565b612d7b8185612d22565b9350612d8b818560208601612d33565b612d9481612a31565b840191505092915050565b600081519050919050565b600082825260208201905092915050565b6000819050602082019050919050565b612dd481612875565b82525050565b6000612de68383612dcb565b60208301905092915050565b6000602082019050919050565b6000612e0a82612d9f565b612e148185612daa565b9350612e1f83612dbb565b8060005b83811015612e50578151612e378882612dda565b9750612e4283612df2565b925050600181019050612e23565b5085935050505092915050565b600060a083016000830151612e756000860182612d08565b5060208301518482036020860152612e8d8282612d66565b91505060408301518482036040860152612ea78282612dff565b9150506060830151612ebc6060860182612d08565b5060808301518482036080860152612ed48282612dff565b9150508091505092915050565b60006020820190508181036000830152612efb8184612e5d565b905092915050565b600080fd5b600080fd5b60006101208284031215612f2457612f23612f03565b5b612f2f610120612aa2565b90506000612f3f84828501612903565b6000830152506020612f53848285016129a5565b602083015250604082013567ffffffffffffffff811115612f7757612f76612f08565b5b612f8384828501612b3f565b604083015250606082013567ffffffffffffffff811115612fa757612fa6612f08565b5b612fb384828501612b3f565b606083015250608082013567ffffffffffffffff811115612fd757612fd6612f08565b5b612fe384828501612c07565b60808301525060a082013567ffffffffffffffff81111561300757613006612f08565b5b61301384828501612b3f565b60a08301525060c082013567ffffffffffffffff81111561303757613036612f08565b5b61304384828501612b3f565b60c08301525060e082013567ffffffffffffffff81111561306757613066612f08565b5b61307384828501612b3f565b60e08301525061010061308884828501612903565b6101008301525092915050565b600080604083850312156130ac576130ab6128e2565b5b60006130ba85828601612903565b925050602083013567ffffffffffffffff8111156130db576130da6128e7565b5b6130e785828601612f0d565b9150509250929050565b600067ffffffffffffffff82111561310c5761310b612a42565b5b602082029050602081019050919050565b600061313061312b846130f1565b612aa2565b9050808382526020820190506020840283018581111561315357613152612b99565b5b835b8181101561319a57803567ffffffffffffffff81111561317857613177612a27565b5b8086016131858982612f0d565b85526020850194505050602081019050613155565b5050509392505050565b600082601f8301126131b9576131b8612a27565b5b81356131c984826020860161311d565b91505092915050565b6000806000606084860312156131eb576131ea6128e2565b5b60006131f986828701612903565b935050602084013567ffffffffffffffff81111561321a576132196128e7565b5b61322686828701612b3f565b925050604084013567ffffffffffffffff811115613247576132466128e7565b5b613253868287016131a4565b9150509250925092565b7f4e487b7100000000000000000000000000000000000000000000000000000000600052603260045260246000fd5b7f4e487b7100000000000000000000000000000000000000000000000000000000600052601160045260246000fd5b60006132c682612896565b91507fffffffffffffffffffffffffffffffffffffffffffffffffffffffffffffffff8214156132f9576132f861328c565b5b600182019050919050565b7f4e487b7100000000000000000000000000000000000000000000000000000000600052602260045260246000fd5b6000600282049050600182168061334b57607f821691505b6020821081141561335f5761335e613304565b5b50919050565b600082825260208201905092915050565b60008190508160005260206000209050919050565b6000815461339881613333565b6133a28186613365565b945060018216600081146133bd57600181146133cf57613402565b60ff1983168652602086019350613402565b6133d885613376565b60005b838110156133fa578154818901526001820191506020810190506133db565b808801955050505b50505092915050565b600081549050919050565b600082825260208201905092915050565b60008190508160005260206000209050919050565b60008160001c9050919050565b600073ffffffffffffffffffffffffffffffffffffffff82169050919050565b600061347c6134778361343c565b613449565b9050919050565b600061348f8254613469565b9050919050565b6000600182019050919050565b60006134ae8261340b565b6134b88185613416565b93506134c383613427565b8060005b838110156134fb576134d882613483565b6134e28882612dda565b97506134ed83613496565b9250506001810190506134c7565b5085935050505092915050565b600060808201905061351d60008301876128a0565b818103602083015261352f818661338b565b9050818103604083015261354381856134a3565b905061355260608301846128a0565b95945050505050565b600061356682612d17565b6135708185613365565b9350613580818560208601612d33565b61358981612a31565b840191505092915050565b600061359f82612d9f565b6135a98185613416565b93506135b483612dbb565b8060005b838110156135e55781516135cc8882612dda565b97506135d783612df2565b9250506001810190506135b8565b5085935050505092915050565b600060a0820190506136076000830188612887565b61361460208301876128a0565b8181036040830152613626818661355b565b9050818103606083015261363a8185613594565b905061364960808301846128a0565b9695505050505050565b600061012082019050613669600083018c612887565b613676602083018b6128a0565b613683604083018a612887565b8181036060830152613695818961355b565b905081810360808301526136a9818861355b565b905081810360a08301526136bd818761355b565b905081810360c08301526136d1818661355b565b905081810360e08301526136e5818561355b565b90506136f56101008301846128a0565b9a9950505050505050505050565b600081519050919050565b600082825260208201905092915050565b6000819050602082019050919050565b6000610120830160008301516137486000860182612d08565b50602083015161375b6020860182612dcb565b50604083015184820360408601526137738282612d66565b9150506060830151848203606086015261378d8282612d66565b915050608083015184820360808601526137a78282612dff565b91505060a083015184820360a08601526137c18282612d66565b91505060c083015184820360c08601526137db8282612d66565b91505060e083015184820360e08601526137f58282612d66565b91505061010083015161380c610100860182612d08565b508091505092915050565b6000613823838361372f565b905092915050565b6000602082019050919050565b600061384382613703565b61384d818561370e565b93508360208202850161385f8561371f565b8060005b8581101561389b578484038952815161387c8582613817565b94506138878361382b565b925060208a01995050600181019050613863565b50829750879550505050505092915050565b600060a0820190506138c26000830188612887565b6138cf60208301876128a0565b6138dc60408301866128a0565b81810360608301526138ee818561355b565b905081810360808301526139028184613838565b90509695505050505050565b6000610120830160008301516139276000860182612d08565b50602083015161393a6020860182612dcb565b50604083015184820360408601526139528282612d66565b9150506060830151848203606086015261396c8282612d66565b915050608083015184820360808601526139868282612dff565b91505060a083015184820360a08601526139a08282612d66565b91505060c083015184820360c08601526139ba8282612d66565b91505060e083015184820360e08601526139d48282612d66565b9150506101008301516139eb610100860182612d08565b508091505092915050565b60006020820190508181036000830152613a10818461390e565b905092915050565b600061010082019050613a2e600083018b6128a0565b613a3b602083018a612887565b8181036040830152613a4d818961355b565b90508181036060830152613a61818861355b565b90508181036080830152613a75818761355b565b905081810360a0830152613a89818661355b565b905081810360c0830152613a9d818561355b565b9050613aac60e08301846128a0565b9998505050505050505050565b60006020820190508181036000830152613ad38184613838565b905092915050565b600081549050919050565b600082825260208201905092915050565b60008190508160005260206000209050919050565b6000613b188383612d08565b60208301905092915050565b6000819050919050565b6000613b41613b3c8361343c565b613b24565b9050919050565b6000613b548254613b2e565b9050919050565b6000600182019050919050565b6000613b7382613adb565b613b7d8185613ae6565b9350613b8883613af7565b8060005b83811015613bc057613b9d82613b48565b613ba78882613b0c565b9750613bb283613b5b565b925050600181019050613b8c565b5085935050505092915050565b6000604082019050613be260008301856128a0565b8181036020830152613bf48184613b68565b9050939250505056fea26469706673582212204912880cb43838b062d78f701dde477e143bb0da0892a8dc3b917a0bb033481a64736f6c634300080a0033",
  "immutableReferences": {},
  "source": "// SPDX-License-Identifier: MIT\r\npragma solidity >=0.4.22 <0.9.0;\r\n\r\n\r\nstruct Cert {\r\n    uint id;\r\n    address schoolId;\r\n    string studentId;\r\n    string subjectId;\r\n    address[] issuers;\r\n    string semester;\r\n    string grade;\r\n    string gradeType;\r\n    uint batchId;\r\n}\r\n\r\ninterface Certs {\r\n    function addCert(Cert memory _cert) external;\r\n    function addCerts(Cert[] memory _certs) external;\r\n}\r\n\r\ncontract MultiSigWallet {\r\n\r\n    struct Group {\r\n        uint id;\r\n        string name;\r\n        address[] members;\r\n        uint threshold;\r\n        address[] confirmedBy;\r\n    }\r\n\r\n    Certs holder;\r\n    string schoolName;\r\n    address[] members;\r\n    uint threshold;\r\n\r\n    mapping(uint => Group) groups;\r\n\r\n    mapping(uint => Cert) certs; // certId => cert\r\n    mapping(uint => bool) certExecuted; // certId => executed\r\n    mapping(uint => mapping(uint => mapping(address => bool))) certConfirmed; // groupId => certId => member => confirmed\r\n\r\n    mapping(uint => uint[]) batches; // batchId => [certIds]\r\n    mapping(uint => bool) batchExecuted; // batchId => executed\r\n    mapping(uint => mapping(uint => mapping(address => bool))) batchConfirmed; // groupId => batchId => member => confirmed\r\n\r\n    uint certCount = 0;\r\n    uint batchCount = 0;\r\n    uint groupCount = 0;\r\n\r\n    function isMember(address _member) public view returns (bool) {\r\n        for (uint i = 0; i < members.length; i++) {\r\n            if (members[i] == _member) {\r\n                return true;\r\n            }\r\n        }\r\n        return false;\r\n    }\r\n\r\n    function isMemberOfGroup(address _member, uint _groupId) public view returns (bool) {\r\n        if (groups[_groupId].members.length == 0) {\r\n            return false;\r\n        }\r\n        for (uint i = 0; i < groups[_groupId].members.length; i++) {\r\n            if (groups[_groupId].members[i] == _member) {\r\n                return true;\r\n            }\r\n        }\r\n        return false;\r\n    }\r\n\r\n    modifier onlyMembers {\r\n        require(isMember(msg.sender));\r\n        _;\r\n    }\r\n\r\n    modifier onlyGroup(uint _groupId) {\r\n        require(isGroupConfirmed(_groupId));\r\n        require(isMemberOfGroup(msg.sender, _groupId));\r\n        _;\r\n    }\r\n\r\n    event WalletActivated(\r\n        string schoolName,\r\n        address[] members,\r\n        uint threshold,\r\n        address certsAddress\r\n    );\r\n\r\n    event GroupPending(\r\n        address creator,\r\n        uint groupId,\r\n        string name,\r\n        address[] members,\r\n        uint threshold\r\n    );\r\n\r\n    event GroupConfirmed(\r\n        address confirmer,\r\n        uint groupId\r\n    );\r\n\r\n    event GroupAdded(\r\n        uint groupId,\r\n        string name,\r\n        address[] members,\r\n        uint threshold\r\n    );\r\n\r\n    event CertPending(\r\n        address creator,\r\n        uint certId,\r\n        address schoolId,\r\n        string studentId,\r\n        string subjectId,\r\n        string semester,\r\n        string grade,\r\n        string gradeType,\r\n        uint batchId\r\n    );\r\n\r\n    event CertConfirmed(\r\n        address confirmer,\r\n        uint certId\r\n    );\r\n\r\n    event CertAdded(\r\n        uint certId,\r\n        address schoolId,\r\n        string studentId,\r\n        string subjectId,\r\n        string semester,\r\n        string grade,\r\n        string gradeType,\r\n        uint batchId\r\n    );\r\n\r\n    event BatchPending(\r\n        address creator,\r\n        uint groupId,\r\n        uint batchId,\r\n        string name,\r\n        Cert[] certs\r\n    );\r\n\r\n    event BatchConfirmed(\r\n        address confirmer,\r\n        uint batchId\r\n    );\r\n\r\n    event BatchAdded(\r\n        uint batchId,\r\n        uint[] certIds\r\n    );\r\n\r\n    event Deposit(address from, uint value);\r\n\r\n    fallback() external payable {\r\n        if (msg.value > 0) {\r\n            emit Deposit(msg.sender, msg.value);\r\n        }\r\n    }\r\n\r\n    receive() external payable {\r\n        if (msg.value > 0) {\r\n            emit Deposit(msg.sender, msg.value);\r\n        }\r\n    }\r\n\r\n    constructor(string memory _name, address[] memory _members, uint _threshold, address _address) {\r\n        require(_members.length > 0);\r\n        require(_threshold > 0);\r\n        require(_threshold <= _members.length);\r\n        schoolName = _name;\r\n        members = _members;\r\n        threshold = _threshold;\r\n        holder = Certs(_address);\r\n        emit WalletActivated(_name, _members, _threshold, _address);\r\n    }\r\n\r\n    function isGroupConfirmed(uint _groupId) private view returns (bool) {\r\n        uint confirmedCount = 0;\r\n        for (uint i = 0; i < groups[_groupId].confirmedBy.length; i++) {\r\n            if (groups[_groupId].confirmedBy[i] != address(0)) {\r\n                confirmedCount++;\r\n            }\r\n        }\r\n        return confirmedCount >= threshold;\r\n    }\r\n\r\n    function addGroup(string memory _name, address[] memory _members, uint _threshold) onlyMembers public returns (uint) {\r\n        require(_members.length > 0);\r\n        require(_threshold > 0);\r\n        require(_threshold <= _members.length);\r\n        uint groupId = groupCount++;\r\n        Group memory group = Group({\r\n            id: groupId,\r\n            name: _name,\r\n            members: _members,\r\n            threshold: _threshold,\r\n            confirmedBy: new address[](members.length)\r\n        });\r\n        group.confirmedBy[0] = msg.sender;\r\n        groups[groupId] = group;\r\n        emit GroupPending(msg.sender, groupId, _name, _members, _threshold);\r\n        emit GroupConfirmed(msg.sender, groupId);\r\n        return groupId;\r\n    }\r\n\r\n    function confirmGroup(uint _groupId) onlyMembers public {\r\n        require(isGroupConfirmed(_groupId) == false);\r\n        address[] memory groupConfirmers = groups[_groupId].confirmedBy;\r\n        uint confirmerCount = 0;\r\n        for (uint i = 0; i < groupConfirmers.length; i++) {\r\n            if (groupConfirmers[i] == msg.sender) {\r\n                require(false);\r\n            }\r\n            if (groupConfirmers[i] != address(0)) {\r\n                confirmerCount++;\r\n            }\r\n        }\r\n        groups[_groupId].confirmedBy[confirmerCount] = msg.sender;\r\n        emit GroupConfirmed(msg.sender, _groupId);\r\n        if (isGroupConfirmed(_groupId)) {\r\n            emit GroupAdded(\r\n                _groupId,\r\n                groups[_groupId].name,\r\n                groups[_groupId].members,\r\n                groups[_groupId].threshold\r\n            );\r\n        }\r\n    }\r\n\r\n    function getGroup(uint _groupId) public view returns (Group memory) {\r\n        return groups[_groupId];\r\n    }\r\n\r\n    function getCertConfirmers(uint _groupId, uint _certId) private view returns (address[] memory) {\r\n        address[] memory confirmers;\r\n        uint count = 0;\r\n        for (uint i = 0; i < members.length; i++) {\r\n            if (certConfirmed[_groupId][_certId][members[i]]) {\r\n                confirmers[count] = members[i];\r\n                count++;\r\n            }\r\n        }\r\n        return confirmers;\r\n    }\r\n\r\n    function getBatchConfirmers(uint _groupId, uint _batchId) private view returns (address[] memory) {\r\n        address[] memory confirmers;\r\n        uint count = 0;\r\n        for (uint i = 0; i < members.length; i++) {\r\n            if (batchConfirmed[_groupId][_batchId][members[i]]) {\r\n                confirmers[count] = members[i];\r\n                count++;\r\n            }\r\n        }\r\n        return confirmers;\r\n    }\r\n\r\n    function isCertConfirmed(uint _groupId, uint _certId) public view returns (bool) {\r\n        address[] memory confirmers = getCertConfirmers(_groupId, _certId);\r\n        uint count = confirmers.length;\r\n        return count >= groups[_groupId].threshold;\r\n    }\r\n\r\n    function isBatchConfirmed(uint _groupId, uint _batchId) public view returns (bool) {\r\n        address[] memory confirmers = getBatchConfirmers(_groupId, _batchId);\r\n        uint count = confirmers.length;\r\n        return count >= groups[_groupId].threshold;\r\n    }\r\n\r\n    function submitCert(uint _groupId, Cert memory _cert) onlyGroup(_groupId) public returns (uint) {\r\n        _cert.id = certCount++;\r\n        certs[_cert.id] = _cert;\r\n        emit CertPending(\r\n            msg.sender,\r\n            _cert.id,\r\n            _cert.schoolId,\r\n            _cert.studentId,\r\n            _cert.subjectId,\r\n            _cert.semester,\r\n            _cert.grade,\r\n            _cert.gradeType,\r\n            _cert.batchId\r\n        );\r\n        confirmCert(_groupId, _cert.id);\r\n        return _cert.id;\r\n    }\r\n\r\n    function submitBatch(uint _groupId, string memory _batchName, Cert[] memory _certs) onlyGroup(_groupId) public returns (uint) {\r\n        uint batchId = batchCount++;\r\n        batches[batchId] = new uint[](_certs.length);\r\n        for (uint i = 0; i < _certs.length; i++) {\r\n            _certs[i].id = certCount++;\r\n            uint certId = _certs[i].id;\r\n            certs[certId] = _certs[i];\r\n            batches[batchId][i] = certId;\r\n        }\r\n        emit BatchPending(\r\n            msg.sender,\r\n            _groupId,\r\n            batchId,\r\n            _batchName,\r\n            _certs\r\n        );\r\n        confirmBatch(_groupId, batchId);\r\n        return batchId;\r\n    }\r\n\r\n    function confirmCert(uint _groupId, uint _certId) onlyGroup(_groupId) public {\r\n        require(certConfirmed[_groupId][_certId][msg.sender] == false);\r\n        certConfirmed[_groupId][_certId][msg.sender] = true;\r\n        emit CertConfirmed(msg.sender, _certId);\r\n        executeCert(_groupId, _certId);\r\n    }\r\n\r\n    function confirmBatch(uint _groupId, uint _batchId) onlyGroup(_groupId) public {\r\n        require(batchConfirmed[_groupId][_batchId][msg.sender] == false);\r\n        batchConfirmed[_groupId][_batchId][msg.sender] = true;\r\n        for (uint i = 0; i < batches[_batchId].length; i++) {\r\n            uint certId = batches[_batchId][i];\r\n            certConfirmed[_groupId][certId][msg.sender] = true;\r\n            emit CertConfirmed(msg.sender, certId);\r\n        }\r\n        emit BatchConfirmed(msg.sender, _batchId);\r\n        executeBatch(_groupId, _batchId);\r\n    }\r\n\r\n    function executeCert(uint _groupId, uint _certId) onlyGroup(_groupId) private {\r\n        require(certExecuted[_certId] == false);\r\n        require(isCertConfirmed(_groupId, _certId));\r\n        certs[_certId].issuers = getCertConfirmers(_groupId, _certId);\r\n        Cert memory cert = certs[_certId];\r\n        holder.addCert(cert);\r\n        certExecuted[_certId] = true;\r\n        emit CertAdded(\r\n            cert.id,\r\n            cert.schoolId,\r\n            cert.studentId,\r\n            cert.subjectId,\r\n            cert.semester,\r\n            cert.grade,\r\n            cert.gradeType,\r\n            cert.batchId\r\n        );\r\n    }\r\n\r\n    function executeBatch(uint _groupId, uint _batchId) onlyGroup(_groupId) private {\r\n        require(batchExecuted[_batchId] == false);\r\n        require(isBatchConfirmed(_groupId, _batchId));\r\n        address[] memory confirmers = getBatchConfirmers(_groupId, _batchId);\r\n        Cert[] memory batchCerts = new Cert[](batches[_batchId].length);\r\n        for (uint i = 0; i < batches[_batchId].length; i++) {\r\n            uint certId = batches[_batchId][i];\r\n            certs[certId].issuers = confirmers;\r\n            batchCerts[i] = certs[certId];\r\n        }\r\n        holder.addCerts(batchCerts);\r\n        batchExecuted[_batchId] = true;\r\n        for (uint i = 0; i < batchCerts.length; i++) {\r\n            Cert memory cert = batchCerts[i];\r\n            emit CertAdded(\r\n                cert.id,\r\n                cert.schoolId,\r\n                cert.studentId,\r\n                cert.subjectId,\r\n                cert.semester,\r\n                cert.grade,\r\n                cert.gradeType,\r\n                cert.batchId\r\n            );\r\n        }\r\n        emit BatchAdded(\r\n            _batchId,\r\n            batches[_batchId]\r\n        );\r\n    }\r\n}",
  "sourcePath": "/home/vi/code/dcerts-manager/issuer-wallet/contracts/MultiSigWallet.sol",
  "compiler": {
    "name": "solc",
    "version": "0.8.10+commit.fc410830.Emscripten.clang"
  },
  "schemaVersion": "3.4.3",
  "updatedAt": "2022-01-29T03:01:41.763Z",
  "networkType": "ethereum",
  "devdoc": {
    "kind": "dev",
    "methods": {},
    "version": 1
  },
  "userdoc": {
    "kind": "user",
    "methods": {},
    "version": 1
  }
}