{
  "contractName": "MultiSigWallet",
  "abi": [
    {
      "inputs": [
        {
          "internalType": "string",
          "name": "_name",
          "type": "string"
        },
        {
          "internalType": "address[]",
          "name": "_members",
          "type": "address[]"
        },
        {
          "internalType": "uint256",
          "name": "_threshold",
          "type": "uint256"
        },
        {
          "internalType": "address",
          "name": "_address",
          "type": "address"
        }
      ],
      "stateMutability": "nonpayable",
      "type": "constructor"
    },
    {
      "anonymous": false,
      "inputs": [
        {
          "indexed": false,
          "internalType": "uint256",
          "name": "batchId",
          "type": "uint256"
        },
        {
          "indexed": false,
          "internalType": "uint256[]",
          "name": "certIds",
          "type": "uint256[]"
        }
      ],
      "name": "BatchAdded",
      "type": "event"
    },
    {
      "anonymous": false,
      "inputs": [
        {
          "indexed": false,
          "internalType": "address",
          "name": "confirmer",
          "type": "address"
        },
        {
          "indexed": false,
          "internalType": "uint256",
          "name": "batchId",
          "type": "uint256"
        }
      ],
      "name": "BatchConfirmed",
      "type": "event"
    },
    {
      "anonymous": false,
      "inputs": [
        {
          "indexed": false,
          "internalType": "address",
          "name": "creator",
          "type": "address"
        },
        {
          "indexed": false,
          "internalType": "uint256",
          "name": "batchId",
          "type": "uint256"
        },
        {
          "indexed": false,
          "internalType": "uint256[]",
          "name": "certIds",
          "type": "uint256[]"
        }
      ],
      "name": "BatchPending",
      "type": "event"
    },
    {
      "anonymous": false,
      "inputs": [
        {
          "indexed": false,
          "internalType": "uint256",
          "name": "certId",
          "type": "uint256"
        },
        {
          "indexed": false,
          "internalType": "address",
          "name": "schoolId",
          "type": "address"
        },
        {
          "indexed": false,
          "internalType": "string",
          "name": "studentId",
          "type": "string"
        },
        {
          "indexed": false,
          "internalType": "string",
          "name": "subjectId",
          "type": "string"
        },
        {
          "indexed": false,
          "internalType": "string",
          "name": "semester",
          "type": "string"
        },
        {
          "indexed": false,
          "internalType": "string",
          "name": "grade",
          "type": "string"
        },
        {
          "indexed": false,
          "internalType": "string",
          "name": "gradeType",
          "type": "string"
        },
        {
          "indexed": false,
          "internalType": "uint256",
          "name": "batchId",
          "type": "uint256"
        }
      ],
      "name": "CertAdded",
      "type": "event"
    },
    {
      "anonymous": false,
      "inputs": [
        {
          "indexed": false,
          "internalType": "address",
          "name": "confirmer",
          "type": "address"
        },
        {
          "indexed": false,
          "internalType": "uint256",
          "name": "certId",
          "type": "uint256"
        }
      ],
      "name": "CertConfirmed",
      "type": "event"
    },
    {
      "anonymous": false,
      "inputs": [
        {
          "indexed": false,
          "internalType": "address",
          "name": "creator",
          "type": "address"
        },
        {
          "indexed": false,
          "internalType": "uint256",
          "name": "certId",
          "type": "uint256"
        },
        {
          "indexed": false,
          "internalType": "address",
          "name": "schoolId",
          "type": "address"
        },
        {
          "indexed": false,
          "internalType": "string",
          "name": "studentId",
          "type": "string"
        },
        {
          "indexed": false,
          "internalType": "string",
          "name": "subjectId",
          "type": "string"
        },
        {
          "indexed": false,
          "internalType": "string",
          "name": "semester",
          "type": "string"
        },
        {
          "indexed": false,
          "internalType": "string",
          "name": "grade",
          "type": "string"
        },
        {
          "indexed": false,
          "internalType": "string",
          "name": "gradeType",
          "type": "string"
        },
        {
          "indexed": false,
          "internalType": "uint256",
          "name": "batchId",
          "type": "uint256"
        }
      ],
      "name": "CertPending",
      "type": "event"
    },
    {
      "anonymous": false,
      "inputs": [
        {
          "indexed": false,
          "internalType": "address",
          "name": "from",
          "type": "address"
        },
        {
          "indexed": false,
          "internalType": "uint256",
          "name": "value",
          "type": "uint256"
        }
      ],
      "name": "Deposit",
      "type": "event"
    },
    {
      "anonymous": false,
      "inputs": [
        {
          "indexed": false,
          "internalType": "uint256",
          "name": "groupId",
          "type": "uint256"
        },
        {
          "indexed": false,
          "internalType": "string",
          "name": "name",
          "type": "string"
        },
        {
          "indexed": false,
          "internalType": "address[]",
          "name": "members",
          "type": "address[]"
        },
        {
          "indexed": false,
          "internalType": "uint256",
          "name": "threshold",
          "type": "uint256"
        }
      ],
      "name": "GroupAdded",
      "type": "event"
    },
    {
      "anonymous": false,
      "inputs": [
        {
          "indexed": false,
          "internalType": "address",
          "name": "confirmer",
          "type": "address"
        },
        {
          "indexed": false,
          "internalType": "uint256",
          "name": "groupId",
          "type": "uint256"
        }
      ],
      "name": "GroupConfirmed",
      "type": "event"
    },
    {
      "anonymous": false,
      "inputs": [
        {
          "indexed": false,
          "internalType": "address",
          "name": "creator",
          "type": "address"
        },
        {
          "indexed": false,
          "internalType": "uint256",
          "name": "groupId",
          "type": "uint256"
        },
        {
          "indexed": false,
          "internalType": "string",
          "name": "name",
          "type": "string"
        },
        {
          "indexed": false,
          "internalType": "address[]",
          "name": "members",
          "type": "address[]"
        },
        {
          "indexed": false,
          "internalType": "uint256",
          "name": "threshold",
          "type": "uint256"
        }
      ],
      "name": "GroupPending",
      "type": "event"
    },
    {
      "anonymous": false,
      "inputs": [
        {
          "indexed": false,
          "internalType": "string",
          "name": "schoolName",
          "type": "string"
        },
        {
          "indexed": false,
          "internalType": "address[]",
          "name": "members",
          "type": "address[]"
        },
        {
          "indexed": false,
          "internalType": "uint256",
          "name": "threshold",
          "type": "uint256"
        },
        {
          "indexed": false,
          "internalType": "address",
          "name": "certsAddress",
          "type": "address"
        }
      ],
      "name": "WalletActivated",
      "type": "event"
    },
    {
      "stateMutability": "payable",
      "type": "fallback",
      "payable": true
    },
    {
      "stateMutability": "payable",
      "type": "receive",
      "payable": true
    },
    {
      "inputs": [
        {
          "internalType": "address",
          "name": "_member",
          "type": "address"
        }
      ],
      "name": "isMember",
      "outputs": [
        {
          "internalType": "bool",
          "name": "",
          "type": "bool"
        }
      ],
      "stateMutability": "view",
      "type": "function",
      "constant": true
    },
    {
      "inputs": [
        {
          "internalType": "address",
          "name": "_member",
          "type": "address"
        },
        {
          "internalType": "uint256",
          "name": "_groupId",
          "type": "uint256"
        }
      ],
      "name": "isMemberOfGroup",
      "outputs": [
        {
          "internalType": "bool",
          "name": "",
          "type": "bool"
        }
      ],
      "stateMutability": "view",
      "type": "function",
      "constant": true
    },
    {
      "inputs": [
        {
          "internalType": "uint256",
          "name": "_groupId",
          "type": "uint256"
        },
        {
          "internalType": "string",
          "name": "_name",
          "type": "string"
        },
        {
          "internalType": "address[]",
          "name": "_members",
          "type": "address[]"
        },
        {
          "internalType": "uint256",
          "name": "_threshold",
          "type": "uint256"
        }
      ],
      "name": "addGroup",
      "outputs": [
        {
          "internalType": "uint256",
          "name": "",
          "type": "uint256"
        }
      ],
      "stateMutability": "nonpayable",
      "type": "function"
    },
    {
      "inputs": [
        {
          "internalType": "uint256",
          "name": "_groupId",
          "type": "uint256"
        }
      ],
      "name": "confirmGroup",
      "outputs": [],
      "stateMutability": "nonpayable",
      "type": "function"
    },
    {
      "inputs": [
        {
          "internalType": "uint256",
          "name": "_groupId",
          "type": "uint256"
        }
      ],
      "name": "getGroup",
      "outputs": [
        {
          "components": [
            {
              "internalType": "uint256",
              "name": "id",
              "type": "uint256"
            },
            {
              "internalType": "string",
              "name": "name",
              "type": "string"
            },
            {
              "internalType": "address[]",
              "name": "members",
              "type": "address[]"
            },
            {
              "internalType": "uint256",
              "name": "threshold",
              "type": "uint256"
            },
            {
              "internalType": "address[]",
              "name": "confirmedBy",
              "type": "address[]"
            }
          ],
          "internalType": "struct MultiSigWallet.Group",
          "name": "",
          "type": "tuple"
        }
      ],
      "stateMutability": "view",
      "type": "function",
      "constant": true
    },
    {
      "inputs": [
        {
          "internalType": "uint256",
          "name": "_groupId",
          "type": "uint256"
        },
        {
          "internalType": "uint256",
          "name": "_certId",
          "type": "uint256"
        }
      ],
      "name": "isCertConfirmed",
      "outputs": [
        {
          "internalType": "bool",
          "name": "",
          "type": "bool"
        }
      ],
      "stateMutability": "view",
      "type": "function",
      "constant": true
    },
    {
      "inputs": [
        {
          "internalType": "uint256",
          "name": "_groupId",
          "type": "uint256"
        },
        {
          "internalType": "uint256",
          "name": "_batchId",
          "type": "uint256"
        }
      ],
      "name": "isBatchConfirmed",
      "outputs": [
        {
          "internalType": "bool",
          "name": "",
          "type": "bool"
        }
      ],
      "stateMutability": "view",
      "type": "function",
      "constant": true
    },
    {
      "inputs": [
        {
          "internalType": "uint256",
          "name": "_groupId",
          "type": "uint256"
        },
        {
          "components": [
            {
              "internalType": "uint256",
              "name": "id",
              "type": "uint256"
            },
            {
              "internalType": "address",
              "name": "schoolId",
              "type": "address"
            },
            {
              "internalType": "string",
              "name": "studentId",
              "type": "string"
            },
            {
              "internalType": "string",
              "name": "subjectId",
              "type": "string"
            },
            {
              "internalType": "address[]",
              "name": "issuers",
              "type": "address[]"
            },
            {
              "internalType": "string",
              "name": "semester",
              "type": "string"
            },
            {
              "internalType": "string",
              "name": "grade",
              "type": "string"
            },
            {
              "internalType": "string",
              "name": "gradeType",
              "type": "string"
            },
            {
              "internalType": "uint256",
              "name": "batchId",
              "type": "uint256"
            }
          ],
          "internalType": "struct Cert",
          "name": "_cert",
          "type": "tuple"
        }
      ],
      "name": "submitCert",
      "outputs": [
        {
          "internalType": "uint256",
          "name": "",
          "type": "uint256"
        }
      ],
      "stateMutability": "nonpayable",
      "type": "function"
    },
    {
      "inputs": [
        {
          "internalType": "uint256",
          "name": "_groupId",
          "type": "uint256"
        },
        {
          "components": [
            {
              "internalType": "uint256",
              "name": "id",
              "type": "uint256"
            },
            {
              "internalType": "address",
              "name": "schoolId",
              "type": "address"
            },
            {
              "internalType": "string",
              "name": "studentId",
              "type": "string"
            },
            {
              "internalType": "string",
              "name": "subjectId",
              "type": "string"
            },
            {
              "internalType": "address[]",
              "name": "issuers",
              "type": "address[]"
            },
            {
              "internalType": "string",
              "name": "semester",
              "type": "string"
            },
            {
              "internalType": "string",
              "name": "grade",
              "type": "string"
            },
            {
              "internalType": "string",
              "name": "gradeType",
              "type": "string"
            },
            {
              "internalType": "uint256",
              "name": "batchId",
              "type": "uint256"
            }
          ],
          "internalType": "struct Cert[]",
          "name": "_certs",
          "type": "tuple[]"
        }
      ],
      "name": "submitBatch",
      "outputs": [
        {
          "internalType": "uint256",
          "name": "",
          "type": "uint256"
        }
      ],
      "stateMutability": "nonpayable",
      "type": "function"
    },
    {
      "inputs": [
        {
          "internalType": "uint256",
          "name": "_groupId",
          "type": "uint256"
        },
        {
          "internalType": "uint256",
          "name": "_certId",
          "type": "uint256"
        }
      ],
      "name": "confirmCert",
      "outputs": [],
      "stateMutability": "nonpayable",
      "type": "function"
    },
    {
      "inputs": [
        {
          "internalType": "uint256",
          "name": "_groupId",
          "type": "uint256"
        },
        {
          "internalType": "uint256",
          "name": "_batchId",
          "type": "uint256"
        }
      ],
      "name": "confirmBatch",
      "outputs": [],
      "stateMutability": "nonpayable",
      "type": "function"
    }
  ],
  "bytecode": "0x60806040526000600b553480156200001657600080fd5b50604051620043de380380620043de83398181016040528101906200003c919062000581565b60008351116200004b57600080fd5b600082116200005957600080fd5b82518211156200006857600080fd5b8360019080519060200190620000809291906200012a565b50826002908051906020019062000099929190620001bb565b5081600381905550806000806101000a81548173ffffffffffffffffffffffffffffffffffffffff021916908373ffffffffffffffffffffffffffffffffffffffff1602179055507fa3c3c713368877193c2424d165fa22a1f3fcb383cf273be9c287d3cb847152e3848484846040516200011894939291906200077e565b60405180910390a1505050506200083e565b828054620001389062000808565b90600052602060002090601f0160209004810192826200015c5760008555620001a8565b82601f106200017757805160ff1916838001178555620001a8565b82800160010185558215620001a8579182015b82811115620001a75782518255916020019190600101906200018a565b5b509050620001b791906200024a565b5090565b82805482825590600052602060002090810192821562000237579160200282015b82811115620002365782518260006101000a81548173ffffffffffffffffffffffffffffffffffffffff021916908373ffffffffffffffffffffffffffffffffffffffff16021790555091602001919060010190620001dc565b5b5090506200024691906200024a565b5090565b5b80821115620002655760008160009055506001016200024b565b5090565b6000604051905090565b600080fd5b600080fd5b600080fd5b600080fd5b6000601f19601f8301169050919050565b7f4e487b7100000000000000000000000000000000000000000000000000000000600052604160045260246000fd5b620002d28262000287565b810181811067ffffffffffffffff82111715620002f457620002f362000298565b5b80604052505050565b60006200030962000269565b9050620003178282620002c7565b919050565b600067ffffffffffffffff8211156200033a576200033962000298565b5b620003458262000287565b9050602081019050919050565b60005b838110156200037257808201518184015260208101905062000355565b8381111562000382576000848401525b50505050565b60006200039f62000399846200031c565b620002fd565b905082815260208101848484011115620003be57620003bd62000282565b5b620003cb84828562000352565b509392505050565b600082601f830112620003eb57620003ea6200027d565b5b8151620003fd84826020860162000388565b91505092915050565b600067ffffffffffffffff82111562000424576200042362000298565b5b602082029050602081019050919050565b600080fd5b600073ffffffffffffffffffffffffffffffffffffffff82169050919050565b600062000467826200043a565b9050919050565b62000479816200045a565b81146200048557600080fd5b50565b60008151905062000499816200046e565b92915050565b6000620004b6620004b08462000406565b620002fd565b90508083825260208201905060208402830185811115620004dc57620004db62000435565b5b835b81811015620005095780620004f4888262000488565b845260208401935050602081019050620004de565b5050509392505050565b600082601f8301126200052b576200052a6200027d565b5b81516200053d8482602086016200049f565b91505092915050565b6000819050919050565b6200055b8162000546565b81146200056757600080fd5b50565b6000815190506200057b8162000550565b92915050565b600080600080608085870312156200059e576200059d62000273565b5b600085015167ffffffffffffffff811115620005bf57620005be62000278565b5b620005cd87828801620003d3565b945050602085015167ffffffffffffffff811115620005f157620005f062000278565b5b620005ff8782880162000513565b935050604062000612878288016200056a565b9250506060620006258782880162000488565b91505092959194509250565b600081519050919050565b600082825260208201905092915050565b60006200065a8262000631565b6200066681856200063c565b93506200067881856020860162000352565b620006838162000287565b840191505092915050565b600081519050919050565b600082825260208201905092915050565b6000819050602082019050919050565b620006c5816200045a565b82525050565b6000620006d98383620006ba565b60208301905092915050565b6000602082019050919050565b6000620006ff826200068e565b6200070b818562000699565b93506200071883620006aa565b8060005b838110156200074f578151620007338882620006cb565b97506200074083620006e5565b9250506001810190506200071c565b5085935050505092915050565b620007678162000546565b82525050565b62000778816200045a565b82525050565b600060808201905081810360008301526200079a81876200064d565b90508181036020830152620007b08186620006f2565b9050620007c160408301856200075c565b620007d060608301846200076d565b95945050505050565b7f4e487b7100000000000000000000000000000000000000000000000000000000600052602260045260246000fd5b600060028204905060018216806200082157607f821691505b60208210811415620008385762000837620007d9565b5b50919050565b613b90806200084e6000396000f3fe6080604052600436106100a05760003560e01c806345dfb2941161006457806345dfb29414610260578063963c6eff14610289578063a230c524146102b2578063ceb60654146102ef578063dc595dc41461032c578063e52b0bcd14610355576100ea565b8063018c890a1461012f5780630e5d75781461016c5780632650b005146101a95780632d381edc146101e65780633e0aad1d14610223576100ea565b366100ea5760003411156100e8577fe1fffcc4923d04b559f4d29a8bfc6cda04eb5b0d3c460751c2402c5c5cc9109c33346040516100df92919061284a565b60405180910390a15b005b600034111561012d577fe1fffcc4923d04b559f4d29a8bfc6cda04eb5b0d3c460751c2402c5c5cc9109c333460405161012492919061284a565b60405180910390a15b005b34801561013b57600080fd5b50610156600480360381019061015191906128b3565b610392565b604051610163919061290e565b60405180910390f35b34801561017857600080fd5b50610193600480360381019061018e9190612b63565b6103cb565b6040516101a09190612c02565b60405180910390f35b3480156101b557600080fd5b506101d060048036038101906101cb9190612c1d565b6105df565b6040516101dd919061290e565b60405180910390f35b3480156101f257600080fd5b5061020d60048036038101906102089190612ed0565b6106de565b60405161021a9190612c02565b60405180910390f35b34801561022f57600080fd5b5061024a600480360381019061024591906128b3565b6109a7565b604051610257919061290e565b60405180910390f35b34801561026c57600080fd5b5061028760048036038101906102829190612f2c565b6109e0565b005b34801561029557600080fd5b506102b060048036038101906102ab91906128b3565b610cba565b005b3480156102be57600080fd5b506102d960048036038101906102d49190612f59565b610e21565b6040516102e6919061290e565b60405180910390f35b3480156102fb57600080fd5b5061031660048036038101906103119190612f2c565b610ed0565b604051610323919061315f565b60405180910390f35b34801561033857600080fd5b50610353600480360381019061034e91906128b3565b6110bf565b005b34801561036157600080fd5b5061037c60048036038101906103779190613181565b611343565b6040516103899190612c02565b60405180910390f35b60008061039f8484611514565b905060008151905060046000868152602001908152602001600020600301548110159250505092915050565b60006103d633610e21565b6103df57600080fd5b60008351116103ed57600080fd5b600082116103fa57600080fd5b825182111561040857600080fd5b600085905060006040518060a0016040528083815260200187815260200186815260200185815260200160028054905067ffffffffffffffff81111561045157610450612944565b5b60405190808252806020026020018201604052801561047f5781602001602082028036833780820191505090505b50815250905033816080015160008151811061049e5761049d6131dd565b5b602002602001019073ffffffffffffffffffffffffffffffffffffffff16908173ffffffffffffffffffffffffffffffffffffffff168152505080600460008481526020019081526020016000206000820151816000015560208201518160010190805190602001906105129291906125e5565b50604082015181600201908051906020019061052f92919061266b565b5060608201518160030155608082015181600401908051906020019061055692919061266b565b509050507f27efe2927956a250c8a9a9e3d43c2fdea8859582d25981ad6139be4e6a42627333838888886040516105919594939291906132c5565b60405180910390a17f40212d9d89b8b595d3e8beccd8d17412912ffefafb3f51257d1953e11571f90433836040516105ca92919061284a565b60405180910390a18192505050949350505050565b6000806004600084815260200190815260200160002060020180549050141561060b57600090506106d8565b60005b60046000848152602001908152602001600020600201805490508110156106d2578373ffffffffffffffffffffffffffffffffffffffff1660046000858152602001908152602001600020600201828154811061066e5761066d6131dd565b5b9060005260206000200160009054906101000a900473ffffffffffffffffffffffffffffffffffffffff1673ffffffffffffffffffffffffffffffffffffffff1614156106bf5760019150506106d8565b80806106ca90613355565b91505061060e565b50600090505b92915050565b6000826106ea81611694565b6106f357600080fd5b6106fd33826105df565b61070657600080fd5b6000600b600081548092919061071b90613355565b919050559050835167ffffffffffffffff81111561073c5761073b612944565b5b60405190808252806020026020018201604052801561076a5781602001602082028036833780820191505090505b506008600083815260200190815260200160002090805190602001906107919291906126f5565b5060005b84518110156109445760008582815181106107b3576107b26131dd565b5b60200260200101516000015190508582815181106107d4576107d36131dd565b5b6020026020010151600560008381526020019081526020016000206000820151816000015560208201518160010160006101000a81548173ffffffffffffffffffffffffffffffffffffffff021916908373ffffffffffffffffffffffffffffffffffffffff160217905550604082015181600201908051906020019061085c9291906125e5565b5060608201518160030190805190602001906108799291906125e5565b50608082015181600401908051906020019061089692919061266b565b5060a08201518160050190805190602001906108b39291906125e5565b5060c08201518160060190805190602001906108d09291906125e5565b5060e08201518160070190805190602001906108ed9291906125e5565b50610100820151816008015590505080600860008581526020019081526020016000208381548110610922576109216131dd565b5b906000526020600020018190555050808061093c90613355565b915050610795565b507f630333f4aaa81bb38574f4d6c8010c72299a4da179064a21b56ece1d2e03f5dd33826008600085815260200190815260200160002060405161098a9392919061349d565b60405180910390a161099c85826110bf565b809250505092915050565b6000806109b48484611776565b905060008151905060046000868152602001908152602001600020600301548110159250505092915050565b6109e933610e21565b6109f257600080fd5b600015156109ff82611694565b151514610a0b57600080fd5b600060046000838152602001908152602001600020600401805480602002602001604051908101604052809291908181526020018280548015610aa357602002820191906000526020600020905b8160009054906101000a900473ffffffffffffffffffffffffffffffffffffffff1673ffffffffffffffffffffffffffffffffffffffff1681526020019060010190808311610a59575b505050505090506000805b8251811015610b7d573373ffffffffffffffffffffffffffffffffffffffff16838281518110610ae157610ae06131dd565b5b602002602001015173ffffffffffffffffffffffffffffffffffffffff161415610b0d57505050610cb7565b600073ffffffffffffffffffffffffffffffffffffffff16838281518110610b3857610b376131dd565b5b602002602001015173ffffffffffffffffffffffffffffffffffffffff1614610b6a578180610b6690613355565b9250505b8080610b7590613355565b915050610aae565b5033600460008581526020019081526020016000206004018281548110610ba757610ba66131dd565b5b9060005260206000200160006101000a81548173ffffffffffffffffffffffffffffffffffffffff021916908373ffffffffffffffffffffffffffffffffffffffff1602179055507f40212d9d89b8b595d3e8beccd8d17412912ffefafb3f51257d1953e11571f9043384604051610c2092919061284a565b60405180910390a1610c3183611694565b15610cb4577ff310f10bdd8e03d060d72e9cc4ff7cb137a11f2a168f021b8a77bc8ac577e37a8360046000868152602001908152602001600020600101600460008781526020019081526020016000206002016004600088815260200190815260200160002060030154604051610cab94939291906136b0565b60405180910390a15b50505b50565b81610cc481611694565b610ccd57600080fd5b610cd733826105df565b610ce057600080fd5b6000151560076000858152602001908152602001600020600084815260200190815260200160002060003373ffffffffffffffffffffffffffffffffffffffff1673ffffffffffffffffffffffffffffffffffffffff16815260200190815260200160002060009054906101000a900460ff16151514610d5f57600080fd5b600160076000858152602001908152602001600020600084815260200190815260200160002060003373ffffffffffffffffffffffffffffffffffffffff1673ffffffffffffffffffffffffffffffffffffffff16815260200190815260200160002060006101000a81548160ff0219169083151502179055507fdb4c18c6330144ac69190ae22c093ee67b6b5427be568026f0e999f1903d28623383604051610e0a92919061284a565b60405180910390a1610e1c83836118f6565b505050565b600080600090505b600280549050811015610ec5578273ffffffffffffffffffffffffffffffffffffffff1660028281548110610e6157610e606131dd565b5b9060005260206000200160009054906101000a900473ffffffffffffffffffffffffffffffffffffffff1673ffffffffffffffffffffffffffffffffffffffff161415610eb2576001915050610ecb565b8080610ebd90613355565b915050610e29565b50600090505b919050565b610ed8612742565b600460008381526020019081526020016000206040518060a001604052908160008201548152602001600182018054610f109061350a565b80601f0160208091040260200160405190810160405280929190818152602001828054610f3c9061350a565b8015610f895780601f10610f5e57610100808354040283529160200191610f89565b820191906000526020600020905b815481529060010190602001808311610f6c57829003601f168201915b505050505081526020016002820180548060200260200160405190810160405280929190818152602001828054801561101757602002820191906000526020600020905b8160009054906101000a900473ffffffffffffffffffffffffffffffffffffffff1673ffffffffffffffffffffffffffffffffffffffff1681526020019060010190808311610fcd575b5050505050815260200160038201548152602001600482018054806020026020016040519081016040528092919081815260200182805480156110af57602002820191906000526020600020905b8160009054906101000a900473ffffffffffffffffffffffffffffffffffffffff1673ffffffffffffffffffffffffffffffffffffffff1681526020019060010190808311611065575b5050505050815250509050919050565b816110c981611694565b6110d257600080fd5b6110dc33826105df565b6110e557600080fd5b60001515600a6000858152602001908152602001600020600084815260200190815260200160002060003373ffffffffffffffffffffffffffffffffffffffff1673ffffffffffffffffffffffffffffffffffffffff16815260200190815260200160002060009054906101000a900460ff1615151461116457600080fd5b6001600a6000858152602001908152602001600020600084815260200190815260200160002060003373ffffffffffffffffffffffffffffffffffffffff1673ffffffffffffffffffffffffffffffffffffffff16815260200190815260200160002060006101000a81548160ff02191690831515021790555060005b60086000848152602001908152602001600020805490508110156112fa576000600860008581526020019081526020016000208281548110611226576112256131dd565b5b90600052602060002001549050600160076000878152602001908152602001600020600083815260200190815260200160002060003373ffffffffffffffffffffffffffffffffffffffff1673ffffffffffffffffffffffffffffffffffffffff16815260200190815260200160002060006101000a81548160ff0219169083151502179055507fdb4c18c6330144ac69190ae22c093ee67b6b5427be568026f0e999f1903d286233826040516112de92919061284a565b60405180910390a15080806112f290613355565b9150506111e1565b507f740142560d3de320dade4304fa969e81237e4cb90e15f367c2f340a464f687c6338360405161132c92919061284a565b60405180910390a161133e8383611eac565b505050565b60008261134f81611694565b61135857600080fd5b61136233826105df565b61136b57600080fd5b8260056000856000015181526020019081526020016000206000820151816000015560208201518160010160006101000a81548173ffffffffffffffffffffffffffffffffffffffff021916908373ffffffffffffffffffffffffffffffffffffffff16021790555060408201518160020190805190602001906113f09291906125e5565b50606082015181600301908051906020019061140d9291906125e5565b50608082015181600401908051906020019061142a92919061266b565b5060a08201518160050190805190602001906114479291906125e5565b5060c08201518160060190805190602001906114649291906125e5565b5060e08201518160070190805190602001906114819291906125e5565b5061010082015181600801559050507f4873141f96aa21df0c9aef8e00c668d83fa841996b4dd75908ca2b1a9b51fcfa3384600001518560200151866040015187606001518860a001518960c001518a60e001518b61010001516040516114f099989796959493929190613703565b60405180910390a1611506848460000151610cba565b826000015191505092915050565b6060806000805b60028054905081101561168857600a60008781526020019081526020016000206000868152602001908152602001600020600060028381548110611562576115616131dd565b5b9060005260206000200160009054906101000a900473ffffffffffffffffffffffffffffffffffffffff1673ffffffffffffffffffffffffffffffffffffffff1673ffffffffffffffffffffffffffffffffffffffff16815260200190815260200160002060009054906101000a900460ff161561167557600281815481106115ee576115ed6131dd565b5b9060005260206000200160009054906101000a900473ffffffffffffffffffffffffffffffffffffffff1683838151811061162c5761162b6131dd565b5b602002602001019073ffffffffffffffffffffffffffffffffffffffff16908173ffffffffffffffffffffffffffffffffffffffff1681525050818061167190613355565b9250505b808061168090613355565b91505061151b565b50819250505092915050565b6000806000905060005b600460008581526020019081526020016000206004018054905081101561176757600073ffffffffffffffffffffffffffffffffffffffff166004600086815260200190815260200160002060040182815481106116ff576116fe6131dd565b5b9060005260206000200160009054906101000a900473ffffffffffffffffffffffffffffffffffffffff1673ffffffffffffffffffffffffffffffffffffffff161461175457818061175090613355565b9250505b808061175f90613355565b91505061169e565b50600354811015915050919050565b6060806000805b6002805490508110156118ea576007600087815260200190815260200160002060008681526020019081526020016000206000600283815481106117c4576117c36131dd565b5b9060005260206000200160009054906101000a900473ffffffffffffffffffffffffffffffffffffffff1673ffffffffffffffffffffffffffffffffffffffff1673ffffffffffffffffffffffffffffffffffffffff16815260200190815260200160002060009054906101000a900460ff16156118d757600281815481106118505761184f6131dd565b5b9060005260206000200160009054906101000a900473ffffffffffffffffffffffffffffffffffffffff1683838151811061188e5761188d6131dd565b5b602002602001019073ffffffffffffffffffffffffffffffffffffffff16908173ffffffffffffffffffffffffffffffffffffffff168152505081806118d390613355565b9250505b80806118e290613355565b91505061177d565b50819250505092915050565b8161190081611694565b61190957600080fd5b61191333826105df565b61191c57600080fd5b600015156006600084815260200190815260200160002060009054906101000a900460ff1615151461194d57600080fd5b61195783836109a7565b61196057600080fd5b61196a8383611776565b60056000848152602001908152602001600020600401908051906020019061199392919061266b565b5060006005600084815260200190815260200160002060405180610120016040529081600082015481526020016001820160009054906101000a900473ffffffffffffffffffffffffffffffffffffffff1673ffffffffffffffffffffffffffffffffffffffff1673ffffffffffffffffffffffffffffffffffffffff168152602001600282018054611a259061350a565b80601f0160208091040260200160405190810160405280929190818152602001828054611a519061350a565b8015611a9e5780601f10611a7357610100808354040283529160200191611a9e565b820191906000526020600020905b815481529060010190602001808311611a8157829003601f168201915b50505050508152602001600382018054611ab79061350a565b80601f0160208091040260200160405190810160405280929190818152602001828054611ae39061350a565b8015611b305780601f10611b0557610100808354040283529160200191611b30565b820191906000526020600020905b815481529060010190602001808311611b1357829003601f168201915b5050505050815260200160048201805480602002602001604051908101604052809291908181526020018280548015611bbe57602002820191906000526020600020905b8160009054906101000a900473ffffffffffffffffffffffffffffffffffffffff1673ffffffffffffffffffffffffffffffffffffffff1681526020019060010190808311611b74575b50505050508152602001600582018054611bd79061350a565b80601f0160208091040260200160405190810160405280929190818152602001828054611c039061350a565b8015611c505780601f10611c2557610100808354040283529160200191611c50565b820191906000526020600020905b815481529060010190602001808311611c3357829003601f168201915b50505050508152602001600682018054611c699061350a565b80601f0160208091040260200160405190810160405280929190818152602001828054611c959061350a565b8015611ce25780601f10611cb757610100808354040283529160200191611ce2565b820191906000526020600020905b815481529060010190602001808311611cc557829003601f168201915b50505050508152602001600782018054611cfb9061350a565b80601f0160208091040260200160405190810160405280929190818152602001828054611d279061350a565b8015611d745780601f10611d4957610100808354040283529160200191611d74565b820191906000526020600020905b815481529060010190602001808311611d5757829003601f168201915b50505050508152602001600882015481525050905060008054906101000a900473ffffffffffffffffffffffffffffffffffffffff1673ffffffffffffffffffffffffffffffffffffffff166317ad2566826040518263ffffffff1660e01b8152600401611de2919061389b565b600060405180830381600087803b158015611dfc57600080fd5b505af1158015611e10573d6000803e3d6000fd5b5050505060016006600085815260200190815260200160002060006101000a81548160ff0219169083151502179055507f012fe3d3ca255015a52721402d10577d852b821c22e21458ffb15d4510e6ee5981600001518260200151836040015184606001518560a001518660c001518760e00151886101000151604051611e9e9897969594939291906138bd565b60405180910390a150505050565b81611eb681611694565b611ebf57600080fd5b611ec933826105df565b611ed257600080fd5b600015156009600084815260200190815260200160002060009054906101000a900460ff16151514611f0357600080fd5b611f0d8383610392565b611f1657600080fd5b6000611f228484611514565b90506000600860008581526020019081526020016000208054905067ffffffffffffffff811115611f5657611f55612944565b5b604051908082528060200260200182016040528015611f8f57816020015b611f7c612771565b815260200190600190039081611f745790505b50905060005b6008600086815260200190815260200160002080549050811015612435576000600860008781526020019081526020016000208281548110611fda57611fd96131dd565b5b906000526020600020015490508360056000838152602001908152602001600020600401908051906020019061201192919061266b565b506005600082815260200190815260200160002060405180610120016040529081600082015481526020016001820160009054906101000a900473ffffffffffffffffffffffffffffffffffffffff1673ffffffffffffffffffffffffffffffffffffffff1673ffffffffffffffffffffffffffffffffffffffff1681526020016002820180546120a19061350a565b80601f01602080910402602001604051908101604052809291908181526020018280546120cd9061350a565b801561211a5780601f106120ef5761010080835404028352916020019161211a565b820191906000526020600020905b8154815290600101906020018083116120fd57829003601f168201915b505050505081526020016003820180546121339061350a565b80601f016020809104026020016040519081016040528092919081815260200182805461215f9061350a565b80156121ac5780601f10612181576101008083540402835291602001916121ac565b820191906000526020600020905b81548152906001019060200180831161218f57829003601f168201915b505050505081526020016004820180548060200260200160405190810160405280929190818152602001828054801561223a57602002820191906000526020600020905b8160009054906101000a900473ffffffffffffffffffffffffffffffffffffffff1673ffffffffffffffffffffffffffffffffffffffff16815260200190600101908083116121f0575b505050505081526020016005820180546122539061350a565b80601f016020809104026020016040519081016040528092919081815260200182805461227f9061350a565b80156122cc5780601f106122a1576101008083540402835291602001916122cc565b820191906000526020600020905b8154815290600101906020018083116122af57829003601f168201915b505050505081526020016006820180546122e59061350a565b80601f01602080910402602001604051908101604052809291908181526020018280546123119061350a565b801561235e5780601f106123335761010080835404028352916020019161235e565b820191906000526020600020905b81548152906001019060200180831161234157829003601f168201915b505050505081526020016007820180546123779061350a565b80601f01602080910402602001604051908101604052809291908181526020018280546123a39061350a565b80156123f05780601f106123c5576101008083540402835291602001916123f0565b820191906000526020600020905b8154815290600101906020018083116123d357829003601f168201915b50505050508152602001600882015481525050838381518110612416576124156131dd565b5b602002602001018190525050808061242d90613355565b915050611f95565b5060008054906101000a900473ffffffffffffffffffffffffffffffffffffffff1673ffffffffffffffffffffffffffffffffffffffff1663cb6f5efe826040518263ffffffff1660e01b815260040161248f9190613b08565b600060405180830381600087803b1580156124a957600080fd5b505af11580156124bd573d6000803e3d6000fd5b5050505060016009600086815260200190815260200160002060006101000a81548160ff02191690831515021790555060005b815181101561259257600082828151811061250e5761250d6131dd565b5b602002602001015190507f012fe3d3ca255015a52721402d10577d852b821c22e21458ffb15d4510e6ee5981600001518260200151836040015184606001518560a001518660c001518760e001518861010001516040516125769897969594939291906138bd565b60405180910390a150808061258a90613355565b9150506124f0565b507fe47cac1314b5cc61524399d90ee5c2a07026dd8d02aa2293817f2120275d163984600860008781526020019081526020016000206040516125d6929190613b2a565b60405180910390a15050505050565b8280546125f19061350a565b90600052602060002090601f016020900481019282612613576000855561265a565b82601f1061262c57805160ff191683800117855561265a565b8280016001018555821561265a579182015b8281111561265957825182559160200191906001019061263e565b5b50905061266791906127d3565b5090565b8280548282559060005260206000209081019282156126e4579160200282015b828111156126e35782518260006101000a81548173ffffffffffffffffffffffffffffffffffffffff021916908373ffffffffffffffffffffffffffffffffffffffff1602179055509160200191906001019061268b565b5b5090506126f191906127d3565b5090565b828054828255906000526020600020908101928215612731579160200282015b82811115612730578251825591602001919060010190612715565b5b50905061273e91906127d3565b5090565b6040518060a0016040528060008152602001606081526020016060815260200160008152602001606081525090565b60405180610120016040528060008152602001600073ffffffffffffffffffffffffffffffffffffffff168152602001606081526020016060815260200160608152602001606081526020016060815260200160608152602001600081525090565b5b808211156127ec5760008160009055506001016127d4565b5090565b600073ffffffffffffffffffffffffffffffffffffffff82169050919050565b600061281b826127f0565b9050919050565b61282b81612810565b82525050565b6000819050919050565b61284481612831565b82525050565b600060408201905061285f6000830185612822565b61286c602083018461283b565b9392505050565b6000604051905090565b600080fd5b600080fd5b61289081612831565b811461289b57600080fd5b50565b6000813590506128ad81612887565b92915050565b600080604083850312156128ca576128c961287d565b5b60006128d88582860161289e565b92505060206128e98582860161289e565b9150509250929050565b60008115159050919050565b612908816128f3565b82525050565b600060208201905061292360008301846128ff565b92915050565b600080fd5b600080fd5b6000601f19601f8301169050919050565b7f4e487b7100000000000000000000000000000000000000000000000000000000600052604160045260246000fd5b61297c82612933565b810181811067ffffffffffffffff8211171561299b5761299a612944565b5b80604052505050565b60006129ae612873565b90506129ba8282612973565b919050565b600067ffffffffffffffff8211156129da576129d9612944565b5b6129e382612933565b9050602081019050919050565b82818337600083830152505050565b6000612a12612a0d846129bf565b6129a4565b905082815260208101848484011115612a2e57612a2d61292e565b5b612a398482856129f0565b509392505050565b600082601f830112612a5657612a55612929565b5b8135612a668482602086016129ff565b91505092915050565b600067ffffffffffffffff821115612a8a57612a89612944565b5b602082029050602081019050919050565b600080fd5b612aa981612810565b8114612ab457600080fd5b50565b600081359050612ac681612aa0565b92915050565b6000612adf612ada84612a6f565b6129a4565b90508083825260208201905060208402830185811115612b0257612b01612a9b565b5b835b81811015612b2b5780612b178882612ab7565b845260208401935050602081019050612b04565b5050509392505050565b600082601f830112612b4a57612b49612929565b5b8135612b5a848260208601612acc565b91505092915050565b60008060008060808587031215612b7d57612b7c61287d565b5b6000612b8b8782880161289e565b945050602085013567ffffffffffffffff811115612bac57612bab612882565b5b612bb887828801612a41565b935050604085013567ffffffffffffffff811115612bd957612bd8612882565b5b612be587828801612b35565b9250506060612bf68782880161289e565b91505092959194509250565b6000602082019050612c17600083018461283b565b92915050565b60008060408385031215612c3457612c3361287d565b5b6000612c4285828601612ab7565b9250506020612c538582860161289e565b9150509250929050565b600067ffffffffffffffff821115612c7857612c77612944565b5b602082029050602081019050919050565b600080fd5b600080fd5b60006101208284031215612caa57612ca9612c89565b5b612cb56101206129a4565b90506000612cc58482850161289e565b6000830152506020612cd984828501612ab7565b602083015250604082013567ffffffffffffffff811115612cfd57612cfc612c8e565b5b612d0984828501612a41565b604083015250606082013567ffffffffffffffff811115612d2d57612d2c612c8e565b5b612d3984828501612a41565b606083015250608082013567ffffffffffffffff811115612d5d57612d5c612c8e565b5b612d6984828501612b35565b60808301525060a082013567ffffffffffffffff811115612d8d57612d8c612c8e565b5b612d9984828501612a41565b60a08301525060c082013567ffffffffffffffff811115612dbd57612dbc612c8e565b5b612dc984828501612a41565b60c08301525060e082013567ffffffffffffffff811115612ded57612dec612c8e565b5b612df984828501612a41565b60e083015250610100612e0e8482850161289e565b6101008301525092915050565b6000612e2e612e2984612c5d565b6129a4565b90508083825260208201905060208402830185811115612e5157612e50612a9b565b5b835b81811015612e9857803567ffffffffffffffff811115612e7657612e75612929565b5b808601612e838982612c93565b85526020850194505050602081019050612e53565b5050509392505050565b600082601f830112612eb757612eb6612929565b5b8135612ec7848260208601612e1b565b91505092915050565b60008060408385031215612ee757612ee661287d565b5b6000612ef58582860161289e565b925050602083013567ffffffffffffffff811115612f1657612f15612882565b5b612f2285828601612ea2565b9150509250929050565b600060208284031215612f4257612f4161287d565b5b6000612f508482850161289e565b91505092915050565b600060208284031215612f6f57612f6e61287d565b5b6000612f7d84828501612ab7565b91505092915050565b612f8f81612831565b82525050565b600081519050919050565b600082825260208201905092915050565b60005b83811015612fcf578082015181840152602081019050612fb4565b83811115612fde576000848401525b50505050565b6000612fef82612f95565b612ff98185612fa0565b9350613009818560208601612fb1565b61301281612933565b840191505092915050565b600081519050919050565b600082825260208201905092915050565b6000819050602082019050919050565b61305281612810565b82525050565b60006130648383613049565b60208301905092915050565b6000602082019050919050565b60006130888261301d565b6130928185613028565b935061309d83613039565b8060005b838110156130ce5781516130b58882613058565b97506130c083613070565b9250506001810190506130a1565b5085935050505092915050565b600060a0830160008301516130f36000860182612f86565b506020830151848203602086015261310b8282612fe4565b91505060408301518482036040860152613125828261307d565b915050606083015161313a6060860182612f86565b5060808301518482036080860152613152828261307d565b9150508091505092915050565b6000602082019050818103600083015261317981846130db565b905092915050565b600080604083850312156131985761319761287d565b5b60006131a68582860161289e565b925050602083013567ffffffffffffffff8111156131c7576131c6612882565b5b6131d385828601612c93565b9150509250929050565b7f4e487b7100000000000000000000000000000000000000000000000000000000600052603260045260246000fd5b600082825260208201905092915050565b600061322882612f95565b613232818561320c565b9350613242818560208601612fb1565b61324b81612933565b840191505092915050565b600082825260208201905092915050565b60006132728261301d565b61327c8185613256565b935061328783613039565b8060005b838110156132b857815161329f8882613058565b97506132aa83613070565b92505060018101905061328b565b5085935050505092915050565b600060a0820190506132da6000830188612822565b6132e7602083018761283b565b81810360408301526132f9818661321d565b9050818103606083015261330d8185613267565b905061331c608083018461283b565b9695505050505050565b7f4e487b7100000000000000000000000000000000000000000000000000000000600052601160045260246000fd5b600061336082612831565b91507fffffffffffffffffffffffffffffffffffffffffffffffffffffffffffffffff82141561339357613392613326565b5b600182019050919050565b600081549050919050565b600082825260208201905092915050565b60008190508160005260206000209050919050565b60006133db8383612f86565b60208301905092915050565b60008160001c9050919050565b6000819050919050565b600061341161340c836133e7565b6133f4565b9050919050565b600061342482546133fe565b9050919050565b6000600182019050919050565b60006134438261339e565b61344d81856133a9565b9350613458836133ba565b8060005b838110156134905761346d82613418565b61347788826133cf565b97506134828361342b565b92505060018101905061345c565b5085935050505092915050565b60006060820190506134b26000830186612822565b6134bf602083018561283b565b81810360408301526134d18184613438565b9050949350505050565b7f4e487b7100000000000000000000000000000000000000000000000000000000600052602260045260246000fd5b6000600282049050600182168061352257607f821691505b60208210811415613536576135356134db565b5b50919050565b60008190508160005260206000209050919050565b6000815461355e8161350a565b613568818661320c565b945060018216600081146135835760018114613595576135c8565b60ff19831686526020860193506135c8565b61359e8561353c565b60005b838110156135c0578154818901526001820191506020810190506135a1565b808801955050505b50505092915050565b600081549050919050565b60008190508160005260206000209050919050565b600073ffffffffffffffffffffffffffffffffffffffff82169050919050565b600061362461361f836133e7565b6135f1565b9050919050565b60006136378254613611565b9050919050565b6000600182019050919050565b6000613656826135d1565b6136608185613256565b935061366b836135dc565b8060005b838110156136a3576136808261362b565b61368a8882613058565b97506136958361363e565b92505060018101905061366f565b5085935050505092915050565b60006080820190506136c5600083018761283b565b81810360208301526136d78186613551565b905081810360408301526136eb818561364b565b90506136fa606083018461283b565b95945050505050565b600061012082019050613719600083018c612822565b613726602083018b61283b565b613733604083018a612822565b8181036060830152613745818961321d565b90508181036080830152613759818861321d565b905081810360a083015261376d818761321d565b905081810360c0830152613781818661321d565b905081810360e0830152613795818561321d565b90506137a561010083018461283b565b9a9950505050505050505050565b6000610120830160008301516137cc6000860182612f86565b5060208301516137df6020860182613049565b50604083015184820360408601526137f78282612fe4565b915050606083015184820360608601526138118282612fe4565b9150506080830151848203608086015261382b828261307d565b91505060a083015184820360a08601526138458282612fe4565b91505060c083015184820360c086015261385f8282612fe4565b91505060e083015184820360e08601526138798282612fe4565b915050610100830151613890610100860182612f86565b508091505092915050565b600060208201905081810360008301526138b581846137b3565b905092915050565b6000610100820190506138d3600083018b61283b565b6138e0602083018a612822565b81810360408301526138f2818961321d565b90508181036060830152613906818861321d565b9050818103608083015261391a818761321d565b905081810360a083015261392e818661321d565b905081810360c0830152613942818561321d565b905061395160e083018461283b565b9998505050505050505050565b600081519050919050565b600082825260208201905092915050565b6000819050602082019050919050565b6000610120830160008301516139a36000860182612f86565b5060208301516139b66020860182613049565b50604083015184820360408601526139ce8282612fe4565b915050606083015184820360608601526139e88282612fe4565b91505060808301518482036080860152613a02828261307d565b91505060a083015184820360a0860152613a1c8282612fe4565b91505060c083015184820360c0860152613a368282612fe4565b91505060e083015184820360e0860152613a508282612fe4565b915050610100830151613a67610100860182612f86565b508091505092915050565b6000613a7e838361398a565b905092915050565b6000602082019050919050565b6000613a9e8261395e565b613aa88185613969565b935083602082028501613aba8561397a565b8060005b85811015613af65784840389528151613ad78582613a72565b9450613ae283613a86565b925060208a01995050600181019050613abe565b50829750879550505050505092915050565b60006020820190508181036000830152613b228184613a93565b905092915050565b6000604082019050613b3f600083018561283b565b8181036020830152613b518184613438565b9050939250505056fea264697066735822122046b84e58b6ed6e71976bf3fe904e1c89d754517b656bd20591b5e074dfc1c39864736f6c634300080a0033",
  "immutableReferences": {},
  "source": "// SPDX-License-Identifier: MIT\r\npragma solidity >=0.4.22 <0.9.0;\r\n\r\n\r\nstruct Cert {\r\n    uint id;\r\n    address schoolId;\r\n    string studentId;\r\n    string subjectId;\r\n    address[] issuers;\r\n    string semester;\r\n    string grade;\r\n    string gradeType;\r\n    uint batchId;\r\n}\r\n\r\ninterface Certs {\r\n    function addCert(Cert memory _cert) external;\r\n    function addCerts(Cert[] memory _certs) external;\r\n}\r\n\r\ncontract MultiSigWallet {\r\n\r\n    struct Group {\r\n        uint id;\r\n        string name;\r\n        address[] members;\r\n        uint threshold;\r\n        address[] confirmedBy;\r\n    }\r\n\r\n    Certs holder;\r\n    string schoolName;\r\n    address[] members;\r\n    uint threshold;\r\n\r\n    mapping(uint => Group) groups;\r\n\r\n    mapping(uint => Cert) certs; // certId => cert\r\n    mapping(uint => bool) certExecuted; // certId => executed\r\n    mapping(uint => mapping(uint => mapping(address => bool))) certConfirmed; // groupId => certId => member => confirmed\r\n\r\n    mapping(uint => uint[]) batches; // batchId => [certIds]\r\n    mapping(uint => bool) batchExecuted; // batchId => executed\r\n    mapping(uint => mapping(uint => mapping(address => bool))) batchConfirmed; // groupId => batchId => member => confirmed\r\n\r\n    uint batchCount = 0;\r\n\r\n    function isMember(address _member) public view returns (bool) {\r\n        for (uint i = 0; i < members.length; i++) {\r\n            if (members[i] == _member) {\r\n                return true;\r\n            }\r\n        }\r\n        return false;\r\n    }\r\n\r\n    function isMemberOfGroup(address _member, uint _groupId) public view returns (bool) {\r\n        if (groups[_groupId].members.length == 0) {\r\n            return false;\r\n        }\r\n        for (uint i = 0; i < groups[_groupId].members.length; i++) {\r\n            if (groups[_groupId].members[i] == _member) {\r\n                return true;\r\n            }\r\n        }\r\n        return false;\r\n    }\r\n\r\n    modifier onlyMembers {\r\n        require(isMember(msg.sender));\r\n        _;\r\n    }\r\n\r\n    modifier onlyGroup(uint _groupId) {\r\n        require(isGroupConfirmed(_groupId));\r\n        require(isMemberOfGroup(msg.sender, _groupId));\r\n        _;\r\n    }\r\n\r\n    event WalletActivated(\r\n        string schoolName,\r\n        address[] members,\r\n        uint threshold,\r\n        address certsAddress\r\n    );\r\n\r\n    event GroupPending(\r\n        address creator,\r\n        uint groupId,\r\n        string name,\r\n        address[] members,\r\n        uint threshold\r\n    );\r\n\r\n    event GroupConfirmed(\r\n        address confirmer,\r\n        uint groupId\r\n    );\r\n\r\n    event GroupAdded(\r\n        uint groupId,\r\n        string name,\r\n        address[] members,\r\n        uint threshold\r\n    );\r\n\r\n    event CertPending(\r\n        address creator,\r\n        uint certId,\r\n        address schoolId,\r\n        string studentId,\r\n        string subjectId,\r\n        string semester,\r\n        string grade,\r\n        string gradeType,\r\n        uint batchId\r\n    );\r\n\r\n    event CertConfirmed(\r\n        address confirmer,\r\n        uint certId\r\n    );\r\n\r\n    event CertAdded(\r\n        uint certId,\r\n        address schoolId,\r\n        string studentId,\r\n        string subjectId,\r\n        string semester,\r\n        string grade,\r\n        string gradeType,\r\n        uint batchId\r\n    );\r\n\r\n    event BatchPending(\r\n        address creator,\r\n        uint batchId,\r\n        uint[] certIds\r\n    );\r\n\r\n    event BatchConfirmed(\r\n        address confirmer,\r\n        uint batchId\r\n    );\r\n\r\n    event BatchAdded(\r\n        uint batchId,\r\n        uint[] certIds\r\n    );\r\n\r\n    event Deposit(address from, uint value);\r\n\r\n    fallback() external payable {\r\n        if (msg.value > 0) {\r\n            emit Deposit(msg.sender, msg.value);\r\n        }\r\n    }\r\n\r\n    receive() external payable {\r\n        if (msg.value > 0) {\r\n            emit Deposit(msg.sender, msg.value);\r\n        }\r\n    }\r\n\r\n    constructor(string memory _name, address[] memory _members, uint _threshold, address _address) {\r\n        require(_members.length > 0);\r\n        require(_threshold > 0);\r\n        require(_threshold <= _members.length);\r\n        schoolName = _name;\r\n        members = _members;\r\n        threshold = _threshold;\r\n        holder = Certs(_address);\r\n        emit WalletActivated(_name, _members, _threshold, _address);\r\n    }\r\n\r\n    function isGroupConfirmed(uint _groupId) private view returns (bool) {\r\n        uint confirmedCount = 0;\r\n        for (uint i = 0; i < groups[_groupId].confirmedBy.length; i++) {\r\n            if (groups[_groupId].confirmedBy[i] != address(0)) {\r\n                confirmedCount++;\r\n            }\r\n        }\r\n        return confirmedCount >= threshold;\r\n    }\r\n\r\n    function addGroup(uint _groupId, string memory _name, address[] memory _members, uint _threshold) onlyMembers public returns (uint) {\r\n        require(_members.length > 0);\r\n        require(_threshold > 0);\r\n        require(_threshold <= _members.length);\r\n        uint groupId = _groupId;\r\n        Group memory group = Group({\r\n            id: groupId,\r\n            name: _name,\r\n            members: _members,\r\n            threshold: _threshold,\r\n            confirmedBy: new address[](members.length)\r\n        });\r\n        group.confirmedBy[0] = msg.sender;\r\n        groups[groupId] = group;\r\n        emit GroupPending(msg.sender, groupId, _name, _members, _threshold);\r\n        emit GroupConfirmed(msg.sender, groupId);\r\n        return groupId;\r\n    }\r\n\r\n    function confirmGroup(uint _groupId) onlyMembers public {\r\n        require(isGroupConfirmed(_groupId) == false);\r\n        address[] memory groupConfirmers = groups[_groupId].confirmedBy;\r\n        uint confirmedCount = 0;\r\n        for (uint i = 0; i < groupConfirmers.length; i++) {\r\n            if (groupConfirmers[i] == msg.sender) {\r\n                return;\r\n            }\r\n            if (groupConfirmers[i] != address(0)) {\r\n                confirmedCount++;\r\n            }\r\n        }\r\n        groups[_groupId].confirmedBy[confirmedCount] = msg.sender;\r\n        emit GroupConfirmed(msg.sender, _groupId);\r\n        if (isGroupConfirmed(_groupId)) {\r\n            emit GroupAdded(\r\n                _groupId,\r\n                groups[_groupId].name,\r\n                groups[_groupId].members,\r\n                groups[_groupId].threshold\r\n            );\r\n        }\r\n    }\r\n\r\n    function getGroup(uint _groupId) public view returns (Group memory) {\r\n        return groups[_groupId];\r\n    }\r\n\r\n    function getCertConfirmers(uint _groupId, uint _certId) private view returns (address[] memory) {\r\n        address[] memory confirmers;\r\n        uint count = 0;\r\n        for (uint i = 0; i < members.length; i++) {\r\n            if (certConfirmed[_groupId][_certId][members[i]]) {\r\n                confirmers[count] = members[i];\r\n                count++;\r\n            }\r\n        }\r\n        return confirmers;\r\n    }\r\n\r\n    function getBatchConfirmers(uint _groupId, uint _batchId) private view returns (address[] memory) {\r\n        address[] memory confirmers;\r\n        uint count = 0;\r\n        for (uint i = 0; i < members.length; i++) {\r\n            if (batchConfirmed[_groupId][_batchId][members[i]]) {\r\n                confirmers[count] = members[i];\r\n                count++;\r\n            }\r\n        }\r\n        return confirmers;\r\n    }\r\n\r\n    function isCertConfirmed(uint _groupId, uint _certId) public view returns (bool) {\r\n        address[] memory confirmers = getCertConfirmers(_groupId, _certId);\r\n        uint count = confirmers.length;\r\n        return count >= groups[_groupId].threshold;\r\n    }\r\n\r\n    function isBatchConfirmed(uint _groupId, uint _batchId) public view returns (bool) {\r\n        address[] memory confirmers = getBatchConfirmers(_groupId, _batchId);\r\n        uint count = confirmers.length;\r\n        return count >= groups[_groupId].threshold;\r\n    }\r\n\r\n    function submitCert(uint _groupId, Cert memory _cert) onlyGroup(_groupId) public returns (uint) {\r\n        certs[_cert.id] = _cert;\r\n        emit CertPending(\r\n            msg.sender,\r\n            _cert.id,\r\n            _cert.schoolId,\r\n            _cert.studentId,\r\n            _cert.subjectId,\r\n            _cert.semester,\r\n            _cert.grade,\r\n            _cert.gradeType,\r\n            _cert.batchId\r\n        );\r\n        confirmCert(_groupId, _cert.id);\r\n        return _cert.id;\r\n    }\r\n\r\n    function submitBatch(uint _groupId, Cert[] memory _certs) onlyGroup(_groupId) public returns (uint) {\r\n        uint batchId = batchCount++;\r\n        batches[batchId] = new uint[](_certs.length);\r\n        for (uint i = 0; i < _certs.length; i++) {\r\n            uint certId = _certs[i].id;\r\n            certs[certId] = _certs[i];\r\n            batches[batchId][i] = certId;\r\n        }\r\n        emit BatchPending(\r\n            msg.sender,\r\n            batchId,\r\n            batches[batchId]\r\n        );\r\n        confirmBatch(_groupId, batchId);\r\n        return batchId;\r\n    }\r\n\r\n    function confirmCert(uint _groupId, uint _certId) onlyGroup(_groupId) public {\r\n        require(certConfirmed[_groupId][_certId][msg.sender] == false);\r\n        certConfirmed[_groupId][_certId][msg.sender] = true;\r\n        emit CertConfirmed(msg.sender, _certId);\r\n        executeCert(_groupId, _certId);\r\n    }\r\n\r\n    function confirmBatch(uint _groupId, uint _batchId) onlyGroup(_groupId) public {\r\n        require(batchConfirmed[_groupId][_batchId][msg.sender] == false);\r\n        batchConfirmed[_groupId][_batchId][msg.sender] = true;\r\n        for (uint i = 0; i < batches[_batchId].length; i++) {\r\n            uint certId = batches[_batchId][i];\r\n            certConfirmed[_groupId][certId][msg.sender] = true;\r\n            emit CertConfirmed(msg.sender, certId);\r\n        }\r\n        emit BatchConfirmed(msg.sender, _batchId);\r\n        executeBatch(_groupId, _batchId);\r\n    }\r\n\r\n    function executeCert(uint _groupId, uint _certId) onlyGroup(_groupId) private {\r\n        require(certExecuted[_certId] == false);\r\n        require(isCertConfirmed(_groupId, _certId));\r\n        certs[_certId].issuers = getCertConfirmers(_groupId, _certId);\r\n        Cert memory cert = certs[_certId];\r\n        holder.addCert(cert);\r\n        certExecuted[_certId] = true;\r\n        emit CertAdded(\r\n            cert.id,\r\n            cert.schoolId,\r\n            cert.studentId,\r\n            cert.subjectId,\r\n            cert.semester,\r\n            cert.grade,\r\n            cert.gradeType,\r\n            cert.batchId\r\n        );\r\n    }\r\n\r\n    function executeBatch(uint _groupId, uint _batchId) onlyGroup(_groupId) private {\r\n        require(batchExecuted[_batchId] == false);\r\n        require(isBatchConfirmed(_groupId, _batchId));\r\n        address[] memory confirmers = getBatchConfirmers(_groupId, _batchId);\r\n        Cert[] memory batchCerts = new Cert[](batches[_batchId].length);\r\n        for (uint i = 0; i < batches[_batchId].length; i++) {\r\n            uint certId = batches[_batchId][i];\r\n            certs[certId].issuers = confirmers;\r\n            batchCerts[i] = certs[certId];\r\n        }\r\n        holder.addCerts(batchCerts);\r\n        batchExecuted[_batchId] = true;\r\n        for (uint i = 0; i < batchCerts.length; i++) {\r\n            Cert memory cert = batchCerts[i];\r\n            emit CertAdded(\r\n                cert.id,\r\n                cert.schoolId,\r\n                cert.studentId,\r\n                cert.subjectId,\r\n                cert.semester,\r\n                cert.grade,\r\n                cert.gradeType,\r\n                cert.batchId\r\n            );\r\n        }\r\n        emit BatchAdded(\r\n            _batchId,\r\n            batches[_batchId]\r\n        );\r\n    }\r\n}",
  "sourcePath": "/home/vi/code/dcerts-manager/issuer-wallet/contracts/MultiSigWallet.sol",
  "compiler": {
    "name": "solc",
    "version": "0.8.10+commit.fc410830.Emscripten.clang"
  },
  "schemaVersion": "3.4.3",
  "updatedAt": "2022-01-19T12:24:58.966Z",
  "networkType": "ethereum",
  "devdoc": {
    "kind": "dev",
    "methods": {},
    "version": 1
  },
  "userdoc": {
    "kind": "user",
    "methods": {},
    "version": 1
  }
}