{
  "contractName": "MultiSigWallet",
  "abi": [
    {
      "inputs": [
        {
          "internalType": "string",
          "name": "_name",
          "type": "string"
        },
        {
          "internalType": "address[]",
          "name": "_members",
          "type": "address[]"
        },
        {
          "internalType": "uint256",
          "name": "_threshold",
          "type": "uint256"
        },
        {
          "internalType": "address",
          "name": "_address",
          "type": "address"
        }
      ],
      "stateMutability": "nonpayable",
      "type": "constructor"
    },
    {
      "anonymous": false,
      "inputs": [
        {
          "indexed": false,
          "internalType": "uint256",
          "name": "batchId",
          "type": "uint256"
        },
        {
          "indexed": false,
          "internalType": "string",
          "name": "regNo",
          "type": "string"
        },
        {
          "indexed": false,
          "internalType": "uint256[]",
          "name": "certIds",
          "type": "uint256[]"
        }
      ],
      "name": "BatchAdded",
      "type": "event"
    },
    {
      "anonymous": false,
      "inputs": [
        {
          "indexed": false,
          "internalType": "address",
          "name": "confirmer",
          "type": "address"
        },
        {
          "indexed": false,
          "internalType": "uint256",
          "name": "batchId",
          "type": "uint256"
        },
        {
          "indexed": false,
          "internalType": "string",
          "name": "regNo",
          "type": "string"
        }
      ],
      "name": "BatchConfirmed",
      "type": "event"
    },
    {
      "anonymous": false,
      "inputs": [
        {
          "indexed": false,
          "internalType": "address",
          "name": "creator",
          "type": "address"
        },
        {
          "indexed": false,
          "internalType": "uint256",
          "name": "groupId",
          "type": "uint256"
        },
        {
          "indexed": false,
          "internalType": "uint256",
          "name": "batchId",
          "type": "uint256"
        },
        {
          "indexed": false,
          "internalType": "string",
          "name": "regNo",
          "type": "string"
        },
        {
          "components": [
            {
              "internalType": "uint256",
              "name": "id",
              "type": "uint256"
            },
            {
              "internalType": "address",
              "name": "schoolId",
              "type": "address"
            },
            {
              "internalType": "string",
              "name": "regNo",
              "type": "string"
            },
            {
              "internalType": "uint256",
              "name": "batchId",
              "type": "uint256"
            },
            {
              "internalType": "string",
              "name": "conferredOn",
              "type": "string"
            },
            {
              "internalType": "string",
              "name": "dateOfBirth",
              "type": "string"
            },
            {
              "internalType": "string",
              "name": "yearOfGraduation",
              "type": "string"
            },
            {
              "internalType": "string",
              "name": "majorIn",
              "type": "string"
            },
            {
              "internalType": "string",
              "name": "degreeOf",
              "type": "string"
            },
            {
              "internalType": "string",
              "name": "degreeClassification",
              "type": "string"
            },
            {
              "internalType": "string",
              "name": "modeOfStudy",
              "type": "string"
            },
            {
              "internalType": "string",
              "name": "createdIn",
              "type": "string"
            },
            {
              "internalType": "string",
              "name": "createdAt",
              "type": "string"
            },
            {
              "internalType": "address[]",
              "name": "issuers",
              "type": "address[]"
            }
          ],
          "indexed": false,
          "internalType": "struct Cert[]",
          "name": "certs",
          "type": "tuple[]"
        }
      ],
      "name": "BatchPending",
      "type": "event"
    },
    {
      "anonymous": false,
      "inputs": [
        {
          "indexed": false,
          "internalType": "uint256",
          "name": "certId",
          "type": "uint256"
        },
        {
          "indexed": false,
          "internalType": "string",
          "name": "regNo",
          "type": "string"
        },
        {
          "indexed": false,
          "internalType": "uint256",
          "name": "batchId",
          "type": "uint256"
        }
      ],
      "name": "CertAdded",
      "type": "event"
    },
    {
      "anonymous": false,
      "inputs": [
        {
          "indexed": false,
          "internalType": "address",
          "name": "confirmer",
          "type": "address"
        },
        {
          "indexed": false,
          "internalType": "uint256",
          "name": "certId",
          "type": "uint256"
        },
        {
          "indexed": false,
          "internalType": "string",
          "name": "regNo",
          "type": "string"
        },
        {
          "indexed": false,
          "internalType": "uint256",
          "name": "batchId",
          "type": "uint256"
        }
      ],
      "name": "CertConfirmed",
      "type": "event"
    },
    {
      "anonymous": false,
      "inputs": [
        {
          "indexed": false,
          "internalType": "address",
          "name": "creator",
          "type": "address"
        },
        {
          "indexed": false,
          "internalType": "uint256",
          "name": "certId",
          "type": "uint256"
        },
        {
          "indexed": false,
          "internalType": "string",
          "name": "regNo",
          "type": "string"
        },
        {
          "indexed": false,
          "internalType": "uint256",
          "name": "batchId",
          "type": "uint256"
        }
      ],
      "name": "CertPending",
      "type": "event"
    },
    {
      "anonymous": false,
      "inputs": [
        {
          "indexed": false,
          "internalType": "address",
          "name": "from",
          "type": "address"
        },
        {
          "indexed": false,
          "internalType": "uint256",
          "name": "value",
          "type": "uint256"
        }
      ],
      "name": "Deposit",
      "type": "event"
    },
    {
      "anonymous": false,
      "inputs": [
        {
          "indexed": false,
          "internalType": "uint256",
          "name": "groupId",
          "type": "uint256"
        },
        {
          "indexed": false,
          "internalType": "string",
          "name": "name",
          "type": "string"
        },
        {
          "indexed": false,
          "internalType": "address[]",
          "name": "members",
          "type": "address[]"
        },
        {
          "indexed": false,
          "internalType": "uint256",
          "name": "threshold",
          "type": "uint256"
        }
      ],
      "name": "GroupAdded",
      "type": "event"
    },
    {
      "anonymous": false,
      "inputs": [
        {
          "indexed": false,
          "internalType": "address",
          "name": "confirmer",
          "type": "address"
        },
        {
          "indexed": false,
          "internalType": "uint256",
          "name": "groupId",
          "type": "uint256"
        }
      ],
      "name": "GroupConfirmed",
      "type": "event"
    },
    {
      "anonymous": false,
      "inputs": [
        {
          "indexed": false,
          "internalType": "address",
          "name": "creator",
          "type": "address"
        },
        {
          "indexed": false,
          "internalType": "uint256",
          "name": "groupId",
          "type": "uint256"
        },
        {
          "indexed": false,
          "internalType": "string",
          "name": "name",
          "type": "string"
        },
        {
          "indexed": false,
          "internalType": "address[]",
          "name": "members",
          "type": "address[]"
        },
        {
          "indexed": false,
          "internalType": "uint256",
          "name": "threshold",
          "type": "uint256"
        }
      ],
      "name": "GroupPending",
      "type": "event"
    },
    {
      "anonymous": false,
      "inputs": [
        {
          "indexed": false,
          "internalType": "string",
          "name": "schoolName",
          "type": "string"
        },
        {
          "indexed": false,
          "internalType": "address[]",
          "name": "members",
          "type": "address[]"
        },
        {
          "indexed": false,
          "internalType": "uint256",
          "name": "threshold",
          "type": "uint256"
        },
        {
          "indexed": false,
          "internalType": "address",
          "name": "certsAddress",
          "type": "address"
        }
      ],
      "name": "WalletActivated",
      "type": "event"
    },
    {
      "stateMutability": "payable",
      "type": "fallback",
      "payable": true
    },
    {
      "stateMutability": "payable",
      "type": "receive",
      "payable": true
    },
    {
      "inputs": [
        {
          "internalType": "address",
          "name": "_member",
          "type": "address"
        }
      ],
      "name": "isMember",
      "outputs": [
        {
          "internalType": "bool",
          "name": "",
          "type": "bool"
        }
      ],
      "stateMutability": "view",
      "type": "function",
      "constant": true
    },
    {
      "inputs": [
        {
          "internalType": "address",
          "name": "_member",
          "type": "address"
        },
        {
          "internalType": "uint256",
          "name": "_groupId",
          "type": "uint256"
        }
      ],
      "name": "isMemberOfGroup",
      "outputs": [
        {
          "internalType": "bool",
          "name": "",
          "type": "bool"
        }
      ],
      "stateMutability": "view",
      "type": "function",
      "constant": true
    },
    {
      "inputs": [
        {
          "internalType": "string",
          "name": "_name",
          "type": "string"
        },
        {
          "internalType": "address[]",
          "name": "_members",
          "type": "address[]"
        },
        {
          "internalType": "uint256",
          "name": "_threshold",
          "type": "uint256"
        }
      ],
      "name": "addGroup",
      "outputs": [
        {
          "internalType": "uint256",
          "name": "",
          "type": "uint256"
        }
      ],
      "stateMutability": "nonpayable",
      "type": "function"
    },
    {
      "inputs": [
        {
          "internalType": "uint256",
          "name": "_groupId",
          "type": "uint256"
        }
      ],
      "name": "confirmGroup",
      "outputs": [],
      "stateMutability": "nonpayable",
      "type": "function"
    },
    {
      "inputs": [
        {
          "internalType": "uint256",
          "name": "_groupId",
          "type": "uint256"
        }
      ],
      "name": "getGroup",
      "outputs": [
        {
          "components": [
            {
              "internalType": "uint256",
              "name": "id",
              "type": "uint256"
            },
            {
              "internalType": "string",
              "name": "name",
              "type": "string"
            },
            {
              "internalType": "address[]",
              "name": "members",
              "type": "address[]"
            },
            {
              "internalType": "uint256",
              "name": "threshold",
              "type": "uint256"
            },
            {
              "internalType": "address[]",
              "name": "confirmedBy",
              "type": "address[]"
            }
          ],
          "internalType": "struct MultiSigWallet.Group",
          "name": "",
          "type": "tuple"
        }
      ],
      "stateMutability": "view",
      "type": "function",
      "constant": true
    },
    {
      "inputs": [
        {
          "internalType": "uint256",
          "name": "_groupId",
          "type": "uint256"
        },
        {
          "internalType": "uint256",
          "name": "_certId",
          "type": "uint256"
        }
      ],
      "name": "isCertConfirmed",
      "outputs": [
        {
          "internalType": "bool",
          "name": "",
          "type": "bool"
        }
      ],
      "stateMutability": "view",
      "type": "function",
      "constant": true
    },
    {
      "inputs": [
        {
          "internalType": "uint256",
          "name": "_groupId",
          "type": "uint256"
        },
        {
          "internalType": "uint256",
          "name": "_batchId",
          "type": "uint256"
        }
      ],
      "name": "isBatchConfirmed",
      "outputs": [
        {
          "internalType": "bool",
          "name": "",
          "type": "bool"
        }
      ],
      "stateMutability": "view",
      "type": "function",
      "constant": true
    },
    {
      "inputs": [
        {
          "internalType": "uint256",
          "name": "_groupId",
          "type": "uint256"
        },
        {
          "components": [
            {
              "internalType": "uint256",
              "name": "id",
              "type": "uint256"
            },
            {
              "internalType": "address",
              "name": "schoolId",
              "type": "address"
            },
            {
              "internalType": "string",
              "name": "regNo",
              "type": "string"
            },
            {
              "internalType": "uint256",
              "name": "batchId",
              "type": "uint256"
            },
            {
              "internalType": "string",
              "name": "conferredOn",
              "type": "string"
            },
            {
              "internalType": "string",
              "name": "dateOfBirth",
              "type": "string"
            },
            {
              "internalType": "string",
              "name": "yearOfGraduation",
              "type": "string"
            },
            {
              "internalType": "string",
              "name": "majorIn",
              "type": "string"
            },
            {
              "internalType": "string",
              "name": "degreeOf",
              "type": "string"
            },
            {
              "internalType": "string",
              "name": "degreeClassification",
              "type": "string"
            },
            {
              "internalType": "string",
              "name": "modeOfStudy",
              "type": "string"
            },
            {
              "internalType": "string",
              "name": "createdIn",
              "type": "string"
            },
            {
              "internalType": "string",
              "name": "createdAt",
              "type": "string"
            },
            {
              "internalType": "address[]",
              "name": "issuers",
              "type": "address[]"
            }
          ],
          "internalType": "struct Cert",
          "name": "_cert",
          "type": "tuple"
        }
      ],
      "name": "submitCert",
      "outputs": [
        {
          "internalType": "uint256",
          "name": "",
          "type": "uint256"
        }
      ],
      "stateMutability": "nonpayable",
      "type": "function"
    },
    {
      "inputs": [
        {
          "internalType": "uint256",
          "name": "_groupId",
          "type": "uint256"
        },
        {
          "components": [
            {
              "internalType": "uint256",
              "name": "id",
              "type": "uint256"
            },
            {
              "internalType": "string",
              "name": "name",
              "type": "string"
            }
          ],
          "internalType": "struct MultiSigWallet.Batch",
          "name": "_batch",
          "type": "tuple"
        },
        {
          "components": [
            {
              "internalType": "uint256",
              "name": "id",
              "type": "uint256"
            },
            {
              "internalType": "address",
              "name": "schoolId",
              "type": "address"
            },
            {
              "internalType": "string",
              "name": "regNo",
              "type": "string"
            },
            {
              "internalType": "uint256",
              "name": "batchId",
              "type": "uint256"
            },
            {
              "internalType": "string",
              "name": "conferredOn",
              "type": "string"
            },
            {
              "internalType": "string",
              "name": "dateOfBirth",
              "type": "string"
            },
            {
              "internalType": "string",
              "name": "yearOfGraduation",
              "type": "string"
            },
            {
              "internalType": "string",
              "name": "majorIn",
              "type": "string"
            },
            {
              "internalType": "string",
              "name": "degreeOf",
              "type": "string"
            },
            {
              "internalType": "string",
              "name": "degreeClassification",
              "type": "string"
            },
            {
              "internalType": "string",
              "name": "modeOfStudy",
              "type": "string"
            },
            {
              "internalType": "string",
              "name": "createdIn",
              "type": "string"
            },
            {
              "internalType": "string",
              "name": "createdAt",
              "type": "string"
            },
            {
              "internalType": "address[]",
              "name": "issuers",
              "type": "address[]"
            }
          ],
          "internalType": "struct Cert[]",
          "name": "_certs",
          "type": "tuple[]"
        }
      ],
      "name": "submitBatch",
      "outputs": [
        {
          "internalType": "uint256",
          "name": "",
          "type": "uint256"
        }
      ],
      "stateMutability": "nonpayable",
      "type": "function"
    },
    {
      "inputs": [
        {
          "internalType": "uint256",
          "name": "_groupId",
          "type": "uint256"
        },
        {
          "internalType": "uint256",
          "name": "_certId",
          "type": "uint256"
        }
      ],
      "name": "confirmCert",
      "outputs": [],
      "stateMutability": "nonpayable",
      "type": "function"
    },
    {
      "inputs": [
        {
          "internalType": "uint256",
          "name": "_groupId",
          "type": "uint256"
        },
        {
          "internalType": "uint256",
          "name": "_batchId",
          "type": "uint256"
        }
      ],
      "name": "confirmBatch",
      "outputs": [],
      "stateMutability": "nonpayable",
      "type": "function"
    }
  ],
  "bytecode": "0x60806040526000600c556000600d556000600e553480156200002057600080fd5b5060405162005b5c38038062005b5c83398181016040528101906200004691906200058b565b60008351116200005557600080fd5b600082116200006357600080fd5b82518211156200007257600080fd5b83600190805190602001906200008a92919062000134565b508260029080519060200190620000a3929190620001c5565b5081600381905550806000806101000a81548173ffffffffffffffffffffffffffffffffffffffff021916908373ffffffffffffffffffffffffffffffffffffffff1602179055507fa3c3c713368877193c2424d165fa22a1f3fcb383cf273be9c287d3cb847152e38484848460405162000122949392919062000788565b60405180910390a15050505062000848565b828054620001429062000812565b90600052602060002090601f016020900481019282620001665760008555620001b2565b82601f106200018157805160ff1916838001178555620001b2565b82800160010185558215620001b2579182015b82811115620001b157825182559160200191906001019062000194565b5b509050620001c1919062000254565b5090565b82805482825590600052602060002090810192821562000241579160200282015b82811115620002405782518260006101000a81548173ffffffffffffffffffffffffffffffffffffffff021916908373ffffffffffffffffffffffffffffffffffffffff16021790555091602001919060010190620001e6565b5b50905062000250919062000254565b5090565b5b808211156200026f57600081600090555060010162000255565b5090565b6000604051905090565b600080fd5b600080fd5b600080fd5b600080fd5b6000601f19601f8301169050919050565b7f4e487b7100000000000000000000000000000000000000000000000000000000600052604160045260246000fd5b620002dc8262000291565b810181811067ffffffffffffffff82111715620002fe57620002fd620002a2565b5b80604052505050565b60006200031362000273565b9050620003218282620002d1565b919050565b600067ffffffffffffffff821115620003445762000343620002a2565b5b6200034f8262000291565b9050602081019050919050565b60005b838110156200037c5780820151818401526020810190506200035f565b838111156200038c576000848401525b50505050565b6000620003a9620003a38462000326565b62000307565b905082815260208101848484011115620003c857620003c76200028c565b5b620003d58482856200035c565b509392505050565b600082601f830112620003f557620003f462000287565b5b81516200040784826020860162000392565b91505092915050565b600067ffffffffffffffff8211156200042e576200042d620002a2565b5b602082029050602081019050919050565b600080fd5b600073ffffffffffffffffffffffffffffffffffffffff82169050919050565b6000620004718262000444565b9050919050565b620004838162000464565b81146200048f57600080fd5b50565b600081519050620004a38162000478565b92915050565b6000620004c0620004ba8462000410565b62000307565b90508083825260208201905060208402830185811115620004e657620004e56200043f565b5b835b81811015620005135780620004fe888262000492565b845260208401935050602081019050620004e8565b5050509392505050565b600082601f83011262000535576200053462000287565b5b815162000547848260208601620004a9565b91505092915050565b6000819050919050565b620005658162000550565b81146200057157600080fd5b50565b60008151905062000585816200055a565b92915050565b60008060008060808587031215620005a857620005a76200027d565b5b600085015167ffffffffffffffff811115620005c957620005c862000282565b5b620005d787828801620003dd565b945050602085015167ffffffffffffffff811115620005fb57620005fa62000282565b5b62000609878288016200051d565b93505060406200061c8782880162000574565b92505060606200062f8782880162000492565b91505092959194509250565b600081519050919050565b600082825260208201905092915050565b600062000664826200063b565b62000670818562000646565b9350620006828185602086016200035c565b6200068d8162000291565b840191505092915050565b600081519050919050565b600082825260208201905092915050565b6000819050602082019050919050565b620006cf8162000464565b82525050565b6000620006e38383620006c4565b60208301905092915050565b6000602082019050919050565b6000620007098262000698565b620007158185620006a3565b93506200072283620006b4565b8060005b83811015620007595781516200073d8882620006d5565b97506200074a83620006ef565b92505060018101905062000726565b5085935050505092915050565b620007718162000550565b82525050565b620007828162000464565b82525050565b60006080820190508181036000830152620007a4818762000657565b90508181036020830152620007ba8186620006fc565b9050620007cb604083018562000766565b620007da606083018462000777565b95945050505050565b7f4e487b7100000000000000000000000000000000000000000000000000000000600052602260045260246000fd5b600060028204905060018216806200082b57607f821691505b60208210811415620008425762000841620007e3565b5b50919050565b61530480620008586000396000f3fe6080604052600436106100a05760003560e01c80635da1546b116100645780635da1546b1461024c578063963c6eff14610289578063a230c524146102b2578063ceb60654146102ef578063dc595dc41461032c578063ded10a6a14610355576100ea565b8063018c890a1461012f57806323f44c061461016c5780632650b005146101a95780633e0aad1d146101e657806345dfb29414610223576100ea565b366100ea5760003411156100e8577fe1fffcc4923d04b559f4d29a8bfc6cda04eb5b0d3c460751c2402c5c5cc9109c33346040516100df929190613d76565b60405180910390a15b005b600034111561012d577fe1fffcc4923d04b559f4d29a8bfc6cda04eb5b0d3c460751c2402c5c5cc9109c3334604051610124929190613d76565b60405180910390a15b005b34801561013b57600080fd5b5061015660048036038101906101519190613ddf565b610392565b6040516101639190613e3a565b60405180910390f35b34801561017857600080fd5b50610193600480360381019061018e919061431b565b6103cb565b6040516101a09190614377565b60405180910390f35b3480156101b557600080fd5b506101d060048036038101906101cb9190614392565b610633565b6040516101dd9190613e3a565b60405180910390f35b3480156101f257600080fd5b5061020d60048036038101906102089190613ddf565b610732565b60405161021a9190613e3a565b60405180910390f35b34801561022f57600080fd5b5061024a600480360381019061024591906143d2565b61076b565b005b34801561025857600080fd5b50610273600480360381019061026e91906143ff565b610a48565b6040516102809190614377565b60405180910390f35b34801561029557600080fd5b506102b060048036038101906102ab9190613ddf565b610c71565b005b3480156102be57600080fd5b506102d960048036038101906102d4919061448a565b6114b4565b6040516102e69190613e3a565b60405180910390f35b3480156102fb57600080fd5b50610316600480360381019061031191906143d2565b611563565b6040516103239190614690565b60405180910390f35b34801561033857600080fd5b50610353600480360381019061034e9190613ddf565b611752565b005b34801561036157600080fd5b5061037c600480360381019061037791906147ff565b6120c9565b6040516103899190614377565b60405180910390f35b60008061039f84846124a1565b905060008151905060046000868152602001908152602001600020600301548110159250505092915050565b6000826103d781612621565b6103e057600080fd5b6103ea3382610633565b6103f357600080fd5b600c6000815480929190610406906148b9565b919050558360000181815250508260066000856000015181526020019081526020016000206000820151816000015560208201518160010160006101000a81548173ffffffffffffffffffffffffffffffffffffffff021916908373ffffffffffffffffffffffffffffffffffffffff1602179055506040820151816002019080519060200190610498929190613aee565b506060820151816003015560808201518160040190805190602001906104bf929190613aee565b5060a08201518160050190805190602001906104dc929190613aee565b5060c08201518160060190805190602001906104f9929190613aee565b5060e0820151816007019080519060200190610516929190613aee565b50610100820151816008019080519060200190610534929190613aee565b50610120820151816009019080519060200190610552929190613aee565b5061014082015181600a019080519060200190610570929190613aee565b5061016082015181600b01908051906020019061058e929190613aee565b5061018082015181600c0190805190602001906105ac929190613aee565b506101a082015181600d0190805190602001906105ca929190613b74565b509050507f2c1eb38735aaf2ed4270015880b7cd8604f23422f77d9ee57d732823019ab5ef3384600001518560400151866060015160405161060f949392919061494c565b60405180910390a1610625848460000151610c71565b826000015191505092915050565b6000806004600084815260200190815260200160002060020180549050141561065f576000905061072c565b60005b6004600084815260200190815260200160002060020180549050811015610726578373ffffffffffffffffffffffffffffffffffffffff166004600085815260200190815260200160002060020182815481106106c2576106c1614998565b5b9060005260206000200160009054906101000a900473ffffffffffffffffffffffffffffffffffffffff1673ffffffffffffffffffffffffffffffffffffffff16141561071357600191505061072c565b808061071e906148b9565b915050610662565b50600090505b92915050565b60008061073f8484612703565b905060008151905060046000868152602001908152602001600020600301548110159250505092915050565b610774336114b4565b61077d57600080fd5b6000151561078a82612621565b15151461079657600080fd5b60006004600083815260200190815260200160002060040180548060200260200160405190810160405280929190818152602001828054801561082e57602002820191906000526020600020905b8160009054906101000a900473ffffffffffffffffffffffffffffffffffffffff1673ffffffffffffffffffffffffffffffffffffffff16815260200190600101908083116107e4575b505050505090506000805b825181101561090c573373ffffffffffffffffffffffffffffffffffffffff1683828151811061086c5761086b614998565b5b602002602001015173ffffffffffffffffffffffffffffffffffffffff16141561089c57600061089b57600080fd5b5b600073ffffffffffffffffffffffffffffffffffffffff168382815181106108c7576108c6614998565b5b602002602001015173ffffffffffffffffffffffffffffffffffffffff16146108f95781806108f5906148b9565b9250505b8080610904906148b9565b915050610839565b503360046000858152602001908152602001600020600401828154811061093657610935614998565b5b9060005260206000200160006101000a81548173ffffffffffffffffffffffffffffffffffffffff021916908373ffffffffffffffffffffffffffffffffffffffff1602179055507f40212d9d89b8b595d3e8beccd8d17412912ffefafb3f51257d1953e11571f90433846040516109af929190613d76565b60405180910390a16109c083612621565b15610a43577ff310f10bdd8e03d060d72e9cc4ff7cb137a11f2a168f021b8a77bc8ac577e37a8360046000868152602001908152602001600020600101600460008781526020019081526020016000206002016004600088815260200190815260200160002060030154604051610a3a9493929190614bba565b60405180910390a15b505050565b6000610a53336114b4565b610a5c57600080fd5b6000835111610a6a57600080fd5b60008211610a7757600080fd5b8251821115610a8557600080fd5b6000600e6000815480929190610a9a906148b9565b91905055905060006040518060a0016040528083815260200187815260200186815260200185815260200160028054905067ffffffffffffffff811115610ae457610ae3613e6b565b5b604051908082528060200260200182016040528015610b125781602001602082028036833780820191505090505b508152509050338160800151600081518110610b3157610b30614998565b5b602002602001019073ffffffffffffffffffffffffffffffffffffffff16908173ffffffffffffffffffffffffffffffffffffffff16815250508060046000848152602001908152602001600020600082015181600001556020820151816001019080519060200190610ba5929190613aee565b506040820151816002019080519060200190610bc2929190613b74565b50606082015181600301556080820151816004019080519060200190610be9929190613b74565b509050507f27efe2927956a250c8a9a9e3d43c2fdea8859582d25981ad6139be4e6a4262733383888888604051610c24959493929190614c6b565b60405180910390a17f40212d9d89b8b595d3e8beccd8d17412912ffefafb3f51257d1953e11571f9043383604051610c5d929190613d76565b60405180910390a181925050509392505050565b81610c7b81612621565b610c8457600080fd5b610c8e3382610633565b610c9757600080fd5b6000151560086000858152602001908152602001600020600084815260200190815260200160002060003373ffffffffffffffffffffffffffffffffffffffff1673ffffffffffffffffffffffffffffffffffffffff16815260200190815260200160002060009054906101000a900460ff16151514610d1657600080fd5b600160086000858152602001908152602001600020600084815260200190815260200160002060003373ffffffffffffffffffffffffffffffffffffffff1673ffffffffffffffffffffffffffffffffffffffff16815260200190815260200160002060006101000a81548160ff021916908315150217905550600060066000848152602001908152602001600020604051806101c0016040529081600082015481526020016001820160009054906101000a900473ffffffffffffffffffffffffffffffffffffffff1673ffffffffffffffffffffffffffffffffffffffff1673ffffffffffffffffffffffffffffffffffffffff168152602001600282018054610e21906149f6565b80601f0160208091040260200160405190810160405280929190818152602001828054610e4d906149f6565b8015610e9a5780601f10610e6f57610100808354040283529160200191610e9a565b820191906000526020600020905b815481529060010190602001808311610e7d57829003601f168201915b5050505050815260200160038201548152602001600482018054610ebd906149f6565b80601f0160208091040260200160405190810160405280929190818152602001828054610ee9906149f6565b8015610f365780601f10610f0b57610100808354040283529160200191610f36565b820191906000526020600020905b815481529060010190602001808311610f1957829003601f168201915b50505050508152602001600582018054610f4f906149f6565b80601f0160208091040260200160405190810160405280929190818152602001828054610f7b906149f6565b8015610fc85780601f10610f9d57610100808354040283529160200191610fc8565b820191906000526020600020905b815481529060010190602001808311610fab57829003601f168201915b50505050508152602001600682018054610fe1906149f6565b80601f016020809104026020016040519081016040528092919081815260200182805461100d906149f6565b801561105a5780601f1061102f5761010080835404028352916020019161105a565b820191906000526020600020905b81548152906001019060200180831161103d57829003601f168201915b50505050508152602001600782018054611073906149f6565b80601f016020809104026020016040519081016040528092919081815260200182805461109f906149f6565b80156110ec5780601f106110c1576101008083540402835291602001916110ec565b820191906000526020600020905b8154815290600101906020018083116110cf57829003601f168201915b50505050508152602001600882018054611105906149f6565b80601f0160208091040260200160405190810160405280929190818152602001828054611131906149f6565b801561117e5780601f106111535761010080835404028352916020019161117e565b820191906000526020600020905b81548152906001019060200180831161116157829003601f168201915b50505050508152602001600982018054611197906149f6565b80601f01602080910402602001604051908101604052809291908181526020018280546111c3906149f6565b80156112105780601f106111e557610100808354040283529160200191611210565b820191906000526020600020905b8154815290600101906020018083116111f357829003601f168201915b50505050508152602001600a82018054611229906149f6565b80601f0160208091040260200160405190810160405280929190818152602001828054611255906149f6565b80156112a25780601f10611277576101008083540402835291602001916112a2565b820191906000526020600020905b81548152906001019060200180831161128557829003601f168201915b50505050508152602001600b820180546112bb906149f6565b80601f01602080910402602001604051908101604052809291908181526020018280546112e7906149f6565b80156113345780601f1061130957610100808354040283529160200191611334565b820191906000526020600020905b81548152906001019060200180831161131757829003601f168201915b50505050508152602001600c8201805461134d906149f6565b80601f0160208091040260200160405190810160405280929190818152602001828054611379906149f6565b80156113c65780601f1061139b576101008083540402835291602001916113c6565b820191906000526020600020905b8154815290600101906020018083116113a957829003601f168201915b50505050508152602001600d820180548060200260200160405190810160405280929190818152602001828054801561145457602002820191906000526020600020905b8160009054906101000a900473ffffffffffffffffffffffffffffffffffffffff1673ffffffffffffffffffffffffffffffffffffffff168152602001906001019080831161140a575b50505050508152505090507fd23e0e1cf7efd56afba725e60b9d313a14602a143f2c6ea2c780aead0107b5e333848360400151846060015160405161149c949392919061494c565b60405180910390a16114ae8484612883565b50505050565b600080600090505b600280549050811015611558578273ffffffffffffffffffffffffffffffffffffffff16600282815481106114f4576114f3614998565b5b9060005260206000200160009054906101000a900473ffffffffffffffffffffffffffffffffffffffff1673ffffffffffffffffffffffffffffffffffffffff16141561154557600191505061155e565b8080611550906148b9565b9150506114bc565b50600090505b919050565b61156b613bfe565b600460008381526020019081526020016000206040518060a0016040529081600082015481526020016001820180546115a3906149f6565b80601f01602080910402602001604051908101604052809291908181526020018280546115cf906149f6565b801561161c5780601f106115f15761010080835404028352916020019161161c565b820191906000526020600020905b8154815290600101906020018083116115ff57829003601f168201915b50505050508152602001600282018054806020026020016040519081016040528092919081815260200182805480156116aa57602002820191906000526020600020905b8160009054906101000a900473ffffffffffffffffffffffffffffffffffffffff1673ffffffffffffffffffffffffffffffffffffffff1681526020019060010190808311611660575b50505050508152602001600382015481526020016004820180548060200260200160405190810160405280929190818152602001828054801561174257602002820191906000526020600020905b8160009054906101000a900473ffffffffffffffffffffffffffffffffffffffff1673ffffffffffffffffffffffffffffffffffffffff16815260200190600101908083116116f8575b5050505050815250509050919050565b8161175c81612621565b61176557600080fd5b61176f3382610633565b61177857600080fd5b60001515600b6000858152602001908152602001600020600084815260200190815260200160002060003373ffffffffffffffffffffffffffffffffffffffff1673ffffffffffffffffffffffffffffffffffffffff16815260200190815260200160002060009054906101000a900460ff161515146117f757600080fd5b6001600b6000858152602001908152602001600020600084815260200190815260200160002060003373ffffffffffffffffffffffffffffffffffffffff1673ffffffffffffffffffffffffffffffffffffffff16815260200190815260200160002060006101000a81548160ff02191690831515021790555060005b60096000848152602001908152602001600020805490508110156120695760006009600085815260200190815260200160002082815481106118b9576118b8614998565b5b90600052602060002001549050600160086000878152602001908152602001600020600083815260200190815260200160002060003373ffffffffffffffffffffffffffffffffffffffff1673ffffffffffffffffffffffffffffffffffffffff16815260200190815260200160002060006101000a81548160ff021916908315150217905550600060066000838152602001908152602001600020604051806101c0016040529081600082015481526020016001820160009054906101000a900473ffffffffffffffffffffffffffffffffffffffff1673ffffffffffffffffffffffffffffffffffffffff1673ffffffffffffffffffffffffffffffffffffffff1681526020016002820180546119d1906149f6565b80601f01602080910402602001604051908101604052809291908181526020018280546119fd906149f6565b8015611a4a5780601f10611a1f57610100808354040283529160200191611a4a565b820191906000526020600020905b815481529060010190602001808311611a2d57829003601f168201915b5050505050815260200160038201548152602001600482018054611a6d906149f6565b80601f0160208091040260200160405190810160405280929190818152602001828054611a99906149f6565b8015611ae65780601f10611abb57610100808354040283529160200191611ae6565b820191906000526020600020905b815481529060010190602001808311611ac957829003601f168201915b50505050508152602001600582018054611aff906149f6565b80601f0160208091040260200160405190810160405280929190818152602001828054611b2b906149f6565b8015611b785780601f10611b4d57610100808354040283529160200191611b78565b820191906000526020600020905b815481529060010190602001808311611b5b57829003601f168201915b50505050508152602001600682018054611b91906149f6565b80601f0160208091040260200160405190810160405280929190818152602001828054611bbd906149f6565b8015611c0a5780601f10611bdf57610100808354040283529160200191611c0a565b820191906000526020600020905b815481529060010190602001808311611bed57829003601f168201915b50505050508152602001600782018054611c23906149f6565b80601f0160208091040260200160405190810160405280929190818152602001828054611c4f906149f6565b8015611c9c5780601f10611c7157610100808354040283529160200191611c9c565b820191906000526020600020905b815481529060010190602001808311611c7f57829003601f168201915b50505050508152602001600882018054611cb5906149f6565b80601f0160208091040260200160405190810160405280929190818152602001828054611ce1906149f6565b8015611d2e5780601f10611d0357610100808354040283529160200191611d2e565b820191906000526020600020905b815481529060010190602001808311611d1157829003601f168201915b50505050508152602001600982018054611d47906149f6565b80601f0160208091040260200160405190810160405280929190818152602001828054611d73906149f6565b8015611dc05780601f10611d9557610100808354040283529160200191611dc0565b820191906000526020600020905b815481529060010190602001808311611da357829003601f168201915b50505050508152602001600a82018054611dd9906149f6565b80601f0160208091040260200160405190810160405280929190818152602001828054611e05906149f6565b8015611e525780601f10611e2757610100808354040283529160200191611e52565b820191906000526020600020905b815481529060010190602001808311611e3557829003601f168201915b50505050508152602001600b82018054611e6b906149f6565b80601f0160208091040260200160405190810160405280929190818152602001828054611e97906149f6565b8015611ee45780601f10611eb957610100808354040283529160200191611ee4565b820191906000526020600020905b815481529060010190602001808311611ec757829003601f168201915b50505050508152602001600c82018054611efd906149f6565b80601f0160208091040260200160405190810160405280929190818152602001828054611f29906149f6565b8015611f765780601f10611f4b57610100808354040283529160200191611f76565b820191906000526020600020905b815481529060010190602001808311611f5957829003601f168201915b50505050508152602001600d820180548060200260200160405190810160405280929190818152602001828054801561200457602002820191906000526020600020905b8160009054906101000a900473ffffffffffffffffffffffffffffffffffffffff1673ffffffffffffffffffffffffffffffffffffffff1681526020019060010190808311611fba575b50505050508152505090507fd23e0e1cf7efd56afba725e60b9d313a14602a143f2c6ea2c780aead0107b5e333838360400151846060015160405161204c949392919061494c565b60405180910390a150508080612061906148b9565b915050611874565b507fb4997c2bafa0c10ba6e58f9474692ad01d1e224db968ff6d6ffe99d2a95912263383600560008681526020019081526020016000206001016040516120b293929190614ccc565b60405180910390a16120c483836130f4565b505050565b6000836120d581612621565b6120de57600080fd5b6120e83382610633565b6120f157600080fd5b6000600d6000815480929190612106906148b9565b919050559050808560000181815250508460056000838152602001908152602001600020600082015181600001556020820151816001019080519060200190612150929190613aee565b50905050835167ffffffffffffffff81111561216f5761216e613e6b565b5b60405190808252806020026020018201604052801561219d5781602001602082028036833780820191505090505b506009600083815260200190815260200160002090805190602001906121c4929190613c2d565b5060005b845181101561244757600c60008154809291906121e4906148b9565b919050558582815181106121fb576121fa614998565b5b6020026020010151600001818152505060008582815181106122205761221f614998565b5b602002602001015160000151905085828151811061224157612240614998565b5b6020026020010151600660008381526020019081526020016000206000820151816000015560208201518160010160006101000a81548173ffffffffffffffffffffffffffffffffffffffff021916908373ffffffffffffffffffffffffffffffffffffffff16021790555060408201518160020190805190602001906122c9929190613aee565b506060820151816003015560808201518160040190805190602001906122f0929190613aee565b5060a082015181600501908051906020019061230d929190613aee565b5060c082015181600601908051906020019061232a929190613aee565b5060e0820151816007019080519060200190612347929190613aee565b50610100820151816008019080519060200190612365929190613aee565b50610120820151816009019080519060200190612383929190613aee565b5061014082015181600a0190805190602001906123a1929190613aee565b5061016082015181600b0190805190602001906123bf929190613aee565b5061018082015181600c0190805190602001906123dd929190613aee565b506101a082015181600d0190805190602001906123fb929190613b74565b509050508060096000858152602001908152602001600020838154811061242557612424614998565b5b906000526020600020018190555050808061243f906148b9565b9150506121c8565b507f6ab8bdf97fa19b1f1f13509cd9bf281ef953777730e699ea4498cf5eb4fde6ad338783886020015188604051612483959493929190614f40565b60405180910390a16124958682611752565b80925050509392505050565b6060806000805b60028054905081101561261557600b600087815260200190815260200160002060008681526020019081526020016000206000600283815481106124ef576124ee614998565b5b9060005260206000200160009054906101000a900473ffffffffffffffffffffffffffffffffffffffff1673ffffffffffffffffffffffffffffffffffffffff1673ffffffffffffffffffffffffffffffffffffffff16815260200190815260200160002060009054906101000a900460ff1615612602576002818154811061257b5761257a614998565b5b9060005260206000200160009054906101000a900473ffffffffffffffffffffffffffffffffffffffff168383815181106125b9576125b8614998565b5b602002602001019073ffffffffffffffffffffffffffffffffffffffff16908173ffffffffffffffffffffffffffffffffffffffff168152505081806125fe906148b9565b9250505b808061260d906148b9565b9150506124a8565b50819250505092915050565b6000806000905060005b60046000858152602001908152602001600020600401805490508110156126f457600073ffffffffffffffffffffffffffffffffffffffff1660046000868152602001908152602001600020600401828154811061268c5761268b614998565b5b9060005260206000200160009054906101000a900473ffffffffffffffffffffffffffffffffffffffff1673ffffffffffffffffffffffffffffffffffffffff16146126e15781806126dd906148b9565b9250505b80806126ec906148b9565b91505061262b565b50600354811015915050919050565b6060806000805b6002805490508110156128775760086000878152602001908152602001600020600086815260200190815260200160002060006002838154811061275157612750614998565b5b9060005260206000200160009054906101000a900473ffffffffffffffffffffffffffffffffffffffff1673ffffffffffffffffffffffffffffffffffffffff1673ffffffffffffffffffffffffffffffffffffffff16815260200190815260200160002060009054906101000a900460ff161561286457600281815481106127dd576127dc614998565b5b9060005260206000200160009054906101000a900473ffffffffffffffffffffffffffffffffffffffff1683838151811061281b5761281a614998565b5b602002602001019073ffffffffffffffffffffffffffffffffffffffff16908173ffffffffffffffffffffffffffffffffffffffff16815250508180612860906148b9565b9250505b808061286f906148b9565b91505061270a565b50819250505092915050565b8161288d81612621565b61289657600080fd5b6128a03382610633565b6128a957600080fd5b600015156007600084815260200190815260200160002060009054906101000a900460ff161515146128da57600080fd5b6128e48383610732565b6128ed57600080fd5b6128f78383612703565b60066000848152602001908152602001600020600d019080519060200190612920929190613b74565b50600060066000848152602001908152602001600020604051806101c0016040529081600082015481526020016001820160009054906101000a900473ffffffffffffffffffffffffffffffffffffffff1673ffffffffffffffffffffffffffffffffffffffff1673ffffffffffffffffffffffffffffffffffffffff1681526020016002820180546129b2906149f6565b80601f01602080910402602001604051908101604052809291908181526020018280546129de906149f6565b8015612a2b5780601f10612a0057610100808354040283529160200191612a2b565b820191906000526020600020905b815481529060010190602001808311612a0e57829003601f168201915b5050505050815260200160038201548152602001600482018054612a4e906149f6565b80601f0160208091040260200160405190810160405280929190818152602001828054612a7a906149f6565b8015612ac75780601f10612a9c57610100808354040283529160200191612ac7565b820191906000526020600020905b815481529060010190602001808311612aaa57829003601f168201915b50505050508152602001600582018054612ae0906149f6565b80601f0160208091040260200160405190810160405280929190818152602001828054612b0c906149f6565b8015612b595780601f10612b2e57610100808354040283529160200191612b59565b820191906000526020600020905b815481529060010190602001808311612b3c57829003601f168201915b50505050508152602001600682018054612b72906149f6565b80601f0160208091040260200160405190810160405280929190818152602001828054612b9e906149f6565b8015612beb5780601f10612bc057610100808354040283529160200191612beb565b820191906000526020600020905b815481529060010190602001808311612bce57829003601f168201915b50505050508152602001600782018054612c04906149f6565b80601f0160208091040260200160405190810160405280929190818152602001828054612c30906149f6565b8015612c7d5780601f10612c5257610100808354040283529160200191612c7d565b820191906000526020600020905b815481529060010190602001808311612c6057829003601f168201915b50505050508152602001600882018054612c96906149f6565b80601f0160208091040260200160405190810160405280929190818152602001828054612cc2906149f6565b8015612d0f5780601f10612ce457610100808354040283529160200191612d0f565b820191906000526020600020905b815481529060010190602001808311612cf257829003601f168201915b50505050508152602001600982018054612d28906149f6565b80601f0160208091040260200160405190810160405280929190818152602001828054612d54906149f6565b8015612da15780601f10612d7657610100808354040283529160200191612da1565b820191906000526020600020905b815481529060010190602001808311612d8457829003601f168201915b50505050508152602001600a82018054612dba906149f6565b80601f0160208091040260200160405190810160405280929190818152602001828054612de6906149f6565b8015612e335780601f10612e0857610100808354040283529160200191612e33565b820191906000526020600020905b815481529060010190602001808311612e1657829003601f168201915b50505050508152602001600b82018054612e4c906149f6565b80601f0160208091040260200160405190810160405280929190818152602001828054612e78906149f6565b8015612ec55780601f10612e9a57610100808354040283529160200191612ec5565b820191906000526020600020905b815481529060010190602001808311612ea857829003601f168201915b50505050508152602001600c82018054612ede906149f6565b80601f0160208091040260200160405190810160405280929190818152602001828054612f0a906149f6565b8015612f575780601f10612f2c57610100808354040283529160200191612f57565b820191906000526020600020905b815481529060010190602001808311612f3a57829003601f168201915b50505050508152602001600d8201805480602002602001604051908101604052809291908181526020018280548015612fe557602002820191906000526020600020905b8160009054906101000a900473ffffffffffffffffffffffffffffffffffffffff1673ffffffffffffffffffffffffffffffffffffffff1681526020019060010190808311612f9b575b505050505081525050905060008054906101000a900473ffffffffffffffffffffffffffffffffffffffff1673ffffffffffffffffffffffffffffffffffffffff1663bc8f726b826040518263ffffffff1660e01b81526004016130499190615115565b600060405180830381600087803b15801561306357600080fd5b505af1158015613077573d6000803e3d6000fd5b5050505060016007600085815260200190815260200160002060006101000a81548160ff0219169083151502179055507f1013de973c1173b6d761402a6463eedb8295298d126c27395b046cb522cbe4638160000151826040015183606001516040516130e693929190615137565b60405180910390a150505050565b816130fe81612621565b61310757600080fd5b6131113382610633565b61311a57600080fd5b60001515600a600084815260200190815260200160002060009054906101000a900460ff1615151461314b57600080fd5b6131558383610392565b61315e57600080fd5b600061316a84846124a1565b905060006009600085815260200190815260200160002080549050905060008167ffffffffffffffff8111156131a3576131a2613e6b565b5b6040519080825280602002602001820160405280156131dc57816020015b6131c9613c7a565b8152602001906001900390816131c15790505b50905060005b8281101561394657600060096000888152602001908152602001600020828154811061321157613210614998565b5b906000526020600020015490508460066000838152602001908152602001600020600d019080519060200190613248929190613b74565b5060066000828152602001908152602001600020604051806101c0016040529081600082015481526020016001820160009054906101000a900473ffffffffffffffffffffffffffffffffffffffff1673ffffffffffffffffffffffffffffffffffffffff1673ffffffffffffffffffffffffffffffffffffffff1681526020016002820180546132d8906149f6565b80601f0160208091040260200160405190810160405280929190818152602001828054613304906149f6565b80156133515780601f1061332657610100808354040283529160200191613351565b820191906000526020600020905b81548152906001019060200180831161333457829003601f168201915b5050505050815260200160038201548152602001600482018054613374906149f6565b80601f01602080910402602001604051908101604052809291908181526020018280546133a0906149f6565b80156133ed5780601f106133c2576101008083540402835291602001916133ed565b820191906000526020600020905b8154815290600101906020018083116133d057829003601f168201915b50505050508152602001600582018054613406906149f6565b80601f0160208091040260200160405190810160405280929190818152602001828054613432906149f6565b801561347f5780601f106134545761010080835404028352916020019161347f565b820191906000526020600020905b81548152906001019060200180831161346257829003601f168201915b50505050508152602001600682018054613498906149f6565b80601f01602080910402602001604051908101604052809291908181526020018280546134c4906149f6565b80156135115780601f106134e657610100808354040283529160200191613511565b820191906000526020600020905b8154815290600101906020018083116134f457829003601f168201915b5050505050815260200160078201805461352a906149f6565b80601f0160208091040260200160405190810160405280929190818152602001828054613556906149f6565b80156135a35780601f10613578576101008083540402835291602001916135a3565b820191906000526020600020905b81548152906001019060200180831161358657829003601f168201915b505050505081526020016008820180546135bc906149f6565b80601f01602080910402602001604051908101604052809291908181526020018280546135e8906149f6565b80156136355780601f1061360a57610100808354040283529160200191613635565b820191906000526020600020905b81548152906001019060200180831161361857829003601f168201915b5050505050815260200160098201805461364e906149f6565b80601f016020809104026020016040519081016040528092919081815260200182805461367a906149f6565b80156136c75780601f1061369c576101008083540402835291602001916136c7565b820191906000526020600020905b8154815290600101906020018083116136aa57829003601f168201915b50505050508152602001600a820180546136e0906149f6565b80601f016020809104026020016040519081016040528092919081815260200182805461370c906149f6565b80156137595780601f1061372e57610100808354040283529160200191613759565b820191906000526020600020905b81548152906001019060200180831161373c57829003601f168201915b50505050508152602001600b82018054613772906149f6565b80601f016020809104026020016040519081016040528092919081815260200182805461379e906149f6565b80156137eb5780601f106137c0576101008083540402835291602001916137eb565b820191906000526020600020905b8154815290600101906020018083116137ce57829003601f168201915b50505050508152602001600c82018054613804906149f6565b80601f0160208091040260200160405190810160405280929190818152602001828054613830906149f6565b801561387d5780601f106138525761010080835404028352916020019161387d565b820191906000526020600020905b81548152906001019060200180831161386057829003601f168201915b50505050508152602001600d820180548060200260200160405190810160405280929190818152602001828054801561390b57602002820191906000526020600020905b8160009054906101000a900473ffffffffffffffffffffffffffffffffffffffff1673ffffffffffffffffffffffffffffffffffffffff16815260200190600101908083116138c1575b50505050508152505083838151811061392757613926614998565b5b602002602001018190525050808061393e906148b9565b9150506131e2565b5060008054906101000a900473ffffffffffffffffffffffffffffffffffffffff1673ffffffffffffffffffffffffffffffffffffffff166353e9cfef826040518263ffffffff1660e01b81526004016139a09190615175565b600060405180830381600087803b1580156139ba57600080fd5b505af11580156139ce573d6000803e3d6000fd5b505050506001600a600087815260200190815260200160002060006101000a81548160ff02191690831515021790555060005b82811015613a83576000828281518110613a1e57613a1d614998565b5b602002602001015190507f1013de973c1173b6d761402a6463eedb8295298d126c27395b046cb522cbe463816000015182604001518360600151604051613a6793929190615137565b60405180910390a1508080613a7b906148b9565b915050613a01565b507f0a1c6b555d341d04847ed94a92dd7f44f1941346a8dbeee33cda4d8b77a98c1e856005600088815260200190815260200160002060010160096000898152602001908152602001600020604051613ade93929190615289565b60405180910390a1505050505050565b828054613afa906149f6565b90600052602060002090601f016020900481019282613b1c5760008555613b63565b82601f10613b3557805160ff1916838001178555613b63565b82800160010185558215613b63579182015b82811115613b62578251825591602001919060010190613b47565b5b509050613b709190613cff565b5090565b828054828255906000526020600020908101928215613bed579160200282015b82811115613bec5782518260006101000a81548173ffffffffffffffffffffffffffffffffffffffff021916908373ffffffffffffffffffffffffffffffffffffffff16021790555091602001919060010190613b94565b5b509050613bfa9190613cff565b5090565b6040518060a0016040528060008152602001606081526020016060815260200160008152602001606081525090565b828054828255906000526020600020908101928215613c69579160200282015b82811115613c68578251825591602001919060010190613c4d565b5b509050613c769190613cff565b5090565b604051806101c0016040528060008152602001600073ffffffffffffffffffffffffffffffffffffffff1681526020016060815260200160008152602001606081526020016060815260200160608152602001606081526020016060815260200160608152602001606081526020016060815260200160608152602001606081525090565b5b80821115613d18576000816000905550600101613d00565b5090565b600073ffffffffffffffffffffffffffffffffffffffff82169050919050565b6000613d4782613d1c565b9050919050565b613d5781613d3c565b82525050565b6000819050919050565b613d7081613d5d565b82525050565b6000604082019050613d8b6000830185613d4e565b613d986020830184613d67565b9392505050565b6000604051905090565b600080fd5b600080fd5b613dbc81613d5d565b8114613dc757600080fd5b50565b600081359050613dd981613db3565b92915050565b60008060408385031215613df657613df5613da9565b5b6000613e0485828601613dca565b9250506020613e1585828601613dca565b9150509250929050565b60008115159050919050565b613e3481613e1f565b82525050565b6000602082019050613e4f6000830184613e2b565b92915050565b600080fd5b6000601f19601f8301169050919050565b7f4e487b7100000000000000000000000000000000000000000000000000000000600052604160045260246000fd5b613ea382613e5a565b810181811067ffffffffffffffff82111715613ec257613ec1613e6b565b5b80604052505050565b6000613ed5613d9f565b9050613ee18282613e9a565b919050565b600080fd5b613ef481613d3c565b8114613eff57600080fd5b50565b600081359050613f1181613eeb565b92915050565b600080fd5b600080fd5b600067ffffffffffffffff821115613f3c57613f3b613e6b565b5b613f4582613e5a565b9050602081019050919050565b82818337600083830152505050565b6000613f74613f6f84613f21565b613ecb565b905082815260208101848484011115613f9057613f8f613f1c565b5b613f9b848285613f52565b509392505050565b600082601f830112613fb857613fb7613f17565b5b8135613fc8848260208601613f61565b91505092915050565b600067ffffffffffffffff821115613fec57613feb613e6b565b5b602082029050602081019050919050565b600080fd5b600061401561401084613fd1565b613ecb565b9050808382526020820190506020840283018581111561403857614037613ffd565b5b835b81811015614061578061404d8882613f02565b84526020840193505060208101905061403a565b5050509392505050565b600082601f8301126140805761407f613f17565b5b8135614090848260208601614002565b91505092915050565b60006101c082840312156140b0576140af613e55565b5b6140bb6101c0613ecb565b905060006140cb84828501613dca565b60008301525060206140df84828501613f02565b602083015250604082013567ffffffffffffffff81111561410357614102613ee6565b5b61410f84828501613fa3565b604083015250606061412384828501613dca565b606083015250608082013567ffffffffffffffff81111561414757614146613ee6565b5b61415384828501613fa3565b60808301525060a082013567ffffffffffffffff81111561417757614176613ee6565b5b61418384828501613fa3565b60a08301525060c082013567ffffffffffffffff8111156141a7576141a6613ee6565b5b6141b384828501613fa3565b60c08301525060e082013567ffffffffffffffff8111156141d7576141d6613ee6565b5b6141e384828501613fa3565b60e08301525061010082013567ffffffffffffffff81111561420857614207613ee6565b5b61421484828501613fa3565b6101008301525061012082013567ffffffffffffffff81111561423a57614239613ee6565b5b61424684828501613fa3565b6101208301525061014082013567ffffffffffffffff81111561426c5761426b613ee6565b5b61427884828501613fa3565b6101408301525061016082013567ffffffffffffffff81111561429e5761429d613ee6565b5b6142aa84828501613fa3565b6101608301525061018082013567ffffffffffffffff8111156142d0576142cf613ee6565b5b6142dc84828501613fa3565b610180830152506101a082013567ffffffffffffffff81111561430257614301613ee6565b5b61430e8482850161406b565b6101a08301525092915050565b6000806040838503121561433257614331613da9565b5b600061434085828601613dca565b925050602083013567ffffffffffffffff81111561436157614360613dae565b5b61436d85828601614099565b9150509250929050565b600060208201905061438c6000830184613d67565b92915050565b600080604083850312156143a9576143a8613da9565b5b60006143b785828601613f02565b92505060206143c885828601613dca565b9150509250929050565b6000602082840312156143e8576143e7613da9565b5b60006143f684828501613dca565b91505092915050565b60008060006060848603121561441857614417613da9565b5b600084013567ffffffffffffffff81111561443657614435613dae565b5b61444286828701613fa3565b935050602084013567ffffffffffffffff81111561446357614462613dae565b5b61446f8682870161406b565b925050604061448086828701613dca565b9150509250925092565b6000602082840312156144a05761449f613da9565b5b60006144ae84828501613f02565b91505092915050565b6144c081613d5d565b82525050565b600081519050919050565b600082825260208201905092915050565b60005b838110156145005780820151818401526020810190506144e5565b8381111561450f576000848401525b50505050565b6000614520826144c6565b61452a81856144d1565b935061453a8185602086016144e2565b61454381613e5a565b840191505092915050565b600081519050919050565b600082825260208201905092915050565b6000819050602082019050919050565b61458381613d3c565b82525050565b6000614595838361457a565b60208301905092915050565b6000602082019050919050565b60006145b98261454e565b6145c38185614559565b93506145ce8361456a565b8060005b838110156145ff5781516145e68882614589565b97506145f1836145a1565b9250506001810190506145d2565b5085935050505092915050565b600060a08301600083015161462460008601826144b7565b506020830151848203602086015261463c8282614515565b9150506040830151848203604086015261465682826145ae565b915050606083015161466b60608601826144b7565b506080830151848203608086015261468382826145ae565b9150508091505092915050565b600060208201905081810360008301526146aa818461460c565b905092915050565b6000604082840312156146c8576146c7613e55565b5b6146d26040613ecb565b905060006146e284828501613dca565b600083015250602082013567ffffffffffffffff81111561470657614705613ee6565b5b61471284828501613fa3565b60208301525092915050565b600067ffffffffffffffff82111561473957614738613e6b565b5b602082029050602081019050919050565b600061475d6147588461471e565b613ecb565b905080838252602082019050602084028301858111156147805761477f613ffd565b5b835b818110156147c757803567ffffffffffffffff8111156147a5576147a4613f17565b5b8086016147b28982614099565b85526020850194505050602081019050614782565b5050509392505050565b600082601f8301126147e6576147e5613f17565b5b81356147f684826020860161474a565b91505092915050565b60008060006060848603121561481857614817613da9565b5b600061482686828701613dca565b935050602084013567ffffffffffffffff81111561484757614846613dae565b5b614853868287016146b2565b925050604084013567ffffffffffffffff81111561487457614873613dae565b5b614880868287016147d1565b9150509250925092565b7f4e487b7100000000000000000000000000000000000000000000000000000000600052601160045260246000fd5b60006148c482613d5d565b91507fffffffffffffffffffffffffffffffffffffffffffffffffffffffffffffffff8214156148f7576148f661488a565b5b600182019050919050565b600082825260208201905092915050565b600061491e826144c6565b6149288185614902565b93506149388185602086016144e2565b61494181613e5a565b840191505092915050565b60006080820190506149616000830187613d4e565b61496e6020830186613d67565b81810360408301526149808185614913565b905061498f6060830184613d67565b95945050505050565b7f4e487b7100000000000000000000000000000000000000000000000000000000600052603260045260246000fd5b7f4e487b7100000000000000000000000000000000000000000000000000000000600052602260045260246000fd5b60006002820490506001821680614a0e57607f821691505b60208210811415614a2257614a216149c7565b5b50919050565b60008190508160005260206000209050919050565b60008154614a4a816149f6565b614a548186614902565b94506001821660008114614a6f5760018114614a8157614ab4565b60ff1983168652602086019350614ab4565b614a8a85614a28565b60005b83811015614aac57815481890152600182019150602081019050614a8d565b808801955050505b50505092915050565b600081549050919050565b600082825260208201905092915050565b60008190508160005260206000209050919050565b60008160001c9050919050565b600073ffffffffffffffffffffffffffffffffffffffff82169050919050565b6000614b2e614b2983614aee565b614afb565b9050919050565b6000614b418254614b1b565b9050919050565b6000600182019050919050565b6000614b6082614abd565b614b6a8185614ac8565b9350614b7583614ad9565b8060005b83811015614bad57614b8a82614b35565b614b948882614589565b9750614b9f83614b48565b925050600181019050614b79565b5085935050505092915050565b6000608082019050614bcf6000830187613d67565b8181036020830152614be18186614a3d565b90508181036040830152614bf58185614b55565b9050614c046060830184613d67565b95945050505050565b6000614c188261454e565b614c228185614ac8565b9350614c2d8361456a565b8060005b83811015614c5e578151614c458882614589565b9750614c50836145a1565b925050600181019050614c31565b5085935050505092915050565b600060a082019050614c806000830188613d4e565b614c8d6020830187613d67565b8181036040830152614c9f8186614913565b90508181036060830152614cb38185614c0d565b9050614cc26080830184613d67565b9695505050505050565b6000606082019050614ce16000830186613d4e565b614cee6020830185613d67565b8181036040830152614d008184614a3d565b9050949350505050565b600081519050919050565b600082825260208201905092915050565b6000819050602082019050919050565b60006101c083016000830151614d4f60008601826144b7565b506020830151614d62602086018261457a565b5060408301518482036040860152614d7a8282614515565b9150506060830151614d8f60608601826144b7565b5060808301518482036080860152614da78282614515565b91505060a083015184820360a0860152614dc18282614515565b91505060c083015184820360c0860152614ddb8282614515565b91505060e083015184820360e0860152614df58282614515565b915050610100830151848203610100860152614e118282614515565b915050610120830151848203610120860152614e2d8282614515565b915050610140830151848203610140860152614e498282614515565b915050610160830151848203610160860152614e658282614515565b915050610180830151848203610180860152614e818282614515565b9150506101a08301518482036101a0860152614e9d82826145ae565b9150508091505092915050565b6000614eb68383614d36565b905092915050565b6000602082019050919050565b6000614ed682614d0a565b614ee08185614d15565b935083602082028501614ef285614d26565b8060005b85811015614f2e5784840389528151614f0f8582614eaa565b9450614f1a83614ebe565b925060208a01995050600181019050614ef6565b50829750879550505050505092915050565b600060a082019050614f556000830188613d4e565b614f626020830187613d67565b614f6f6040830186613d67565b8181036060830152614f818185614913565b90508181036080830152614f958184614ecb565b90509695505050505050565b60006101c083016000830151614fba60008601826144b7565b506020830151614fcd602086018261457a565b5060408301518482036040860152614fe58282614515565b9150506060830151614ffa60608601826144b7565b50608083015184820360808601526150128282614515565b91505060a083015184820360a086015261502c8282614515565b91505060c083015184820360c08601526150468282614515565b91505060e083015184820360e08601526150608282614515565b91505061010083015184820361010086015261507c8282614515565b9150506101208301518482036101208601526150988282614515565b9150506101408301518482036101408601526150b48282614515565b9150506101608301518482036101608601526150d08282614515565b9150506101808301518482036101808601526150ec8282614515565b9150506101a08301518482036101a086015261510882826145ae565b9150508091505092915050565b6000602082019050818103600083015261512f8184614fa1565b905092915050565b600060608201905061514c6000830186613d67565b818103602083015261515e8185614913565b905061516d6040830184613d67565b949350505050565b6000602082019050818103600083015261518f8184614ecb565b905092915050565b600081549050919050565b600082825260208201905092915050565b60008190508160005260206000209050919050565b60006151d483836144b7565b60208301905092915050565b6000819050919050565b60006151fd6151f883614aee565b6151e0565b9050919050565b600061521082546151ea565b9050919050565b6000600182019050919050565b600061522f82615197565b61523981856151a2565b9350615244836151b3565b8060005b8381101561527c5761525982615204565b61526388826151c8565b975061526e83615217565b925050600181019050615248565b5085935050505092915050565b600060608201905061529e6000830186613d67565b81810360208301526152b08185614a3d565b905081810360408301526152c48184615224565b905094935050505056fea2646970667358221220bd0d318c37813c5eb5303530a39e510405a476bb62c95d9088c5df0551ef656764736f6c634300080a0033",
  "immutableReferences": {},
  "source": "// SPDX-License-Identifier: MIT\r\npragma solidity >=0.4.22 <0.9.0;\r\n\r\n\r\nstruct Cert {\r\n    uint id;\r\n    address schoolId;\r\n    string regNo;\r\n    uint batchId;\r\n    string conferredOn;\r\n    string dateOfBirth;\r\n    string yearOfGraduation;\r\n    string majorIn;\r\n    string degreeOf;\r\n    string degreeClassification;\r\n    string modeOfStudy;\r\n    string createdIn;\r\n    string createdAt;\r\n    address[] issuers;\r\n}\r\n\r\ninterface Certs {\r\n    function addCert(Cert memory _cert) external;\r\n    function addCerts(Cert[] memory _certs) external;\r\n}\r\n\r\ncontract MultiSigWallet {\r\n\r\n    struct Group {\r\n        uint id;\r\n        string name;\r\n        address[] members;\r\n        uint threshold;\r\n        address[] confirmedBy;\r\n    }\r\n\r\n    struct Batch {\r\n        uint id;\r\n        string name;\r\n    }\r\n\r\n    Certs holder;\r\n    string schoolName;\r\n    address[] members;\r\n    uint threshold;\r\n\r\n    mapping(uint => Group) groups;\r\n\r\n    mapping(uint => Batch) batches; // batchId => batchName\r\n    mapping(uint => Cert) certs; // certId => cert\r\n    mapping(uint => bool) certExecuted; // certId => executed\r\n    mapping(uint => mapping(uint => mapping(address => bool))) certConfirmed; // groupId => certId => member => confirmed\r\n\r\n    mapping(uint => uint[]) batchCerts; // batchId => [certIds]\r\n    mapping(uint => bool) batchExecuted; // batchId => executed\r\n    mapping(uint => mapping(uint => mapping(address => bool))) batchConfirmed; // groupId => batchId => member => confirmed\r\n\r\n    uint certCount = 0;\r\n    uint batchCount = 0;\r\n    uint groupCount = 0;\r\n\r\n    function isMember(address _member) public view returns (bool) {\r\n        for (uint i = 0; i < members.length; i++) {\r\n            if (members[i] == _member) {\r\n                return true;\r\n            }\r\n        }\r\n        return false;\r\n    }\r\n\r\n    function isMemberOfGroup(address _member, uint _groupId) public view returns (bool) {\r\n        if (groups[_groupId].members.length == 0) {\r\n            return false;\r\n        }\r\n        for (uint i = 0; i < groups[_groupId].members.length; i++) {\r\n            if (groups[_groupId].members[i] == _member) {\r\n                return true;\r\n            }\r\n        }\r\n        return false;\r\n    }\r\n\r\n    modifier onlyMembers {\r\n        require(isMember(msg.sender));\r\n        _;\r\n    }\r\n\r\n    modifier onlyGroup(uint _groupId) {\r\n        require(isGroupConfirmed(_groupId));\r\n        require(isMemberOfGroup(msg.sender, _groupId));\r\n        _;\r\n    }\r\n\r\n    event WalletActivated(\r\n        string schoolName,\r\n        address[] members,\r\n        uint threshold,\r\n        address certsAddress\r\n    );\r\n\r\n    event GroupPending(\r\n        address creator,\r\n        uint groupId,\r\n        string name,\r\n        address[] members,\r\n        uint threshold\r\n    );\r\n\r\n    event GroupConfirmed(\r\n        address confirmer,\r\n        uint groupId\r\n    );\r\n\r\n    event GroupAdded(\r\n        uint groupId,\r\n        string name,\r\n        address[] members,\r\n        uint threshold\r\n    );\r\n\r\n    event CertPending(\r\n        address creator,\r\n        uint certId,\r\n        string regNo,\r\n        uint batchId\r\n    );\r\n\r\n    event CertConfirmed(\r\n        address confirmer,\r\n        uint certId,\r\n        string regNo,\r\n        uint batchId\r\n    );\r\n\r\n    event CertAdded(\r\n        uint certId,\r\n        string regNo,\r\n        uint batchId\r\n    );\r\n\r\n    event BatchPending(\r\n        address creator,\r\n        uint groupId,\r\n        uint batchId,\r\n        string regNo,\r\n        Cert[] certs\r\n    );\r\n\r\n    event BatchConfirmed(\r\n        address confirmer,\r\n        uint batchId,\r\n        string regNo\r\n    );\r\n\r\n    event BatchAdded(\r\n        uint batchId,\r\n        string regNo,\r\n        uint[] certIds\r\n    );\r\n\r\n    event Deposit(address from, uint value);\r\n\r\n    fallback() external payable {\r\n        if (msg.value > 0) {\r\n            emit Deposit(msg.sender, msg.value);\r\n        }\r\n    }\r\n\r\n    receive() external payable {\r\n        if (msg.value > 0) {\r\n            emit Deposit(msg.sender, msg.value);\r\n        }\r\n    }\r\n\r\n    constructor(string memory _name, address[] memory _members, uint _threshold, address _address) {\r\n        require(_members.length > 0);\r\n        require(_threshold > 0);\r\n        require(_threshold <= _members.length);\r\n        schoolName = _name;\r\n        members = _members;\r\n        threshold = _threshold;\r\n        holder = Certs(_address);\r\n        emit WalletActivated(_name, _members, _threshold, _address);\r\n    }\r\n\r\n    function isGroupConfirmed(uint _groupId) private view returns (bool) {\r\n        uint confirmedCount = 0;\r\n        for (uint i = 0; i < groups[_groupId].confirmedBy.length; i++) {\r\n            if (groups[_groupId].confirmedBy[i] != address(0)) {\r\n                confirmedCount++;\r\n            }\r\n        }\r\n        return confirmedCount >= threshold;\r\n    }\r\n\r\n    function addGroup(string memory _name, address[] memory _members, uint _threshold) onlyMembers public returns (uint) {\r\n        require(_members.length > 0);\r\n        require(_threshold > 0);\r\n        require(_threshold <= _members.length);\r\n        uint groupId = groupCount++;\r\n        Group memory group = Group({\r\n            id: groupId,\r\n            name: _name,\r\n            members: _members,\r\n            threshold: _threshold,\r\n            confirmedBy: new address[](members.length)\r\n        });\r\n        group.confirmedBy[0] = msg.sender;\r\n        groups[groupId] = group;\r\n        emit GroupPending(msg.sender, groupId, _name, _members, _threshold);\r\n        emit GroupConfirmed(msg.sender, groupId);\r\n        return groupId;\r\n    }\r\n\r\n    function confirmGroup(uint _groupId) onlyMembers public {\r\n        require(isGroupConfirmed(_groupId) == false);\r\n        address[] memory groupConfirmers = groups[_groupId].confirmedBy;\r\n        uint confirmerCount = 0;\r\n        for (uint i = 0; i < groupConfirmers.length; i++) {\r\n            if (groupConfirmers[i] == msg.sender) {\r\n                require(false);\r\n            }\r\n            if (groupConfirmers[i] != address(0)) {\r\n                confirmerCount++;\r\n            }\r\n        }\r\n        groups[_groupId].confirmedBy[confirmerCount] = msg.sender;\r\n        emit GroupConfirmed(msg.sender, _groupId);\r\n        if (isGroupConfirmed(_groupId)) {\r\n            emit GroupAdded(\r\n                _groupId,\r\n                groups[_groupId].name,\r\n                groups[_groupId].members,\r\n                groups[_groupId].threshold\r\n            );\r\n        }\r\n    }\r\n\r\n    function getGroup(uint _groupId) public view returns (Group memory) {\r\n        return groups[_groupId];\r\n    }\r\n\r\n    function getCertConfirmers(uint _groupId, uint _certId) private view returns (address[] memory) {\r\n        address[] memory confirmers;\r\n        uint count = 0;\r\n        for (uint i = 0; i < members.length; i++) {\r\n            if (certConfirmed[_groupId][_certId][members[i]]) {\r\n                confirmers[count] = members[i];\r\n                count++;\r\n            }\r\n        }\r\n        return confirmers;\r\n    }\r\n\r\n    function getBatchConfirmers(uint _groupId, uint _batchId) private view returns (address[] memory) {\r\n        address[] memory confirmers;\r\n        uint count = 0;\r\n        for (uint i = 0; i < members.length; i++) {\r\n            if (batchConfirmed[_groupId][_batchId][members[i]]) {\r\n                confirmers[count] = members[i];\r\n                count++;\r\n            }\r\n        }\r\n        return confirmers;\r\n    }\r\n\r\n    function isCertConfirmed(uint _groupId, uint _certId) public view returns (bool) {\r\n        address[] memory confirmers = getCertConfirmers(_groupId, _certId);\r\n        uint count = confirmers.length;\r\n        return count >= groups[_groupId].threshold;\r\n    }\r\n\r\n    function isBatchConfirmed(uint _groupId, uint _batchId) public view returns (bool) {\r\n        address[] memory confirmers = getBatchConfirmers(_groupId, _batchId);\r\n        uint count = confirmers.length;\r\n        return count >= groups[_groupId].threshold;\r\n    }\r\n\r\n    function submitCert(uint _groupId, Cert memory _cert) onlyGroup(_groupId) public returns (uint) {\r\n        _cert.id = certCount++;\r\n        certs[_cert.id] = _cert;\r\n        emit CertPending(\r\n            msg.sender,\r\n            _cert.id,\r\n            _cert.regNo,\r\n            _cert.batchId\r\n        );\r\n        confirmCert(_groupId, _cert.id);\r\n        return _cert.id;\r\n    }\r\n\r\n    function submitBatch(uint _groupId, Batch memory _batch, Cert[] memory _certs) onlyGroup(_groupId) public returns (uint) {\r\n        uint batchId = batchCount++;\r\n        _batch.id = batchId;\r\n        batches[batchId] = _batch;\r\n        batchCerts[batchId] = new uint[](_certs.length);\r\n        for (uint i = 0; i < _certs.length; i++) {\r\n            _certs[i].id = certCount++;\r\n            uint certId = _certs[i].id;\r\n            certs[certId] = _certs[i];\r\n            batchCerts[batchId][i] = certId;\r\n        }\r\n        emit BatchPending(\r\n            msg.sender,\r\n            _groupId,\r\n            batchId,\r\n            _batch.name,\r\n            _certs\r\n        );\r\n        confirmBatch(_groupId, batchId);\r\n        return batchId;\r\n    }\r\n\r\n    function confirmCert(uint _groupId, uint _certId) onlyGroup(_groupId) public {\r\n        require(certConfirmed[_groupId][_certId][msg.sender] == false);\r\n        certConfirmed[_groupId][_certId][msg.sender] = true;\r\n        Cert memory cert = certs[_certId];\r\n        emit CertConfirmed(msg.sender, _certId, cert.regNo, cert.batchId);\r\n        executeCert(_groupId, _certId);\r\n    }\r\n\r\n    function confirmBatch(uint _groupId, uint _batchId) onlyGroup(_groupId) public {\r\n        require(batchConfirmed[_groupId][_batchId][msg.sender] == false);\r\n        batchConfirmed[_groupId][_batchId][msg.sender] = true;\r\n        for (uint i = 0; i < batchCerts[_batchId].length; i++) {\r\n            uint certId = batchCerts[_batchId][i];\r\n            certConfirmed[_groupId][certId][msg.sender] = true;\r\n            Cert memory cert = certs[certId];\r\n            emit CertConfirmed(msg.sender, certId, cert.regNo, cert.batchId);\r\n        }\r\n        emit BatchConfirmed(msg.sender, _batchId, batches[_batchId].name);\r\n        executeBatch(_groupId, _batchId);\r\n    }\r\n\r\n    function executeCert(uint _groupId, uint _certId) onlyGroup(_groupId) private {\r\n        require(certExecuted[_certId] == false);\r\n        require(isCertConfirmed(_groupId, _certId));\r\n        certs[_certId].issuers = getCertConfirmers(_groupId, _certId);\r\n        Cert memory cert = certs[_certId];\r\n        holder.addCert(cert);\r\n        certExecuted[_certId] = true;\r\n        emit CertAdded(\r\n            cert.id,\r\n            cert.regNo,\r\n            cert.batchId\r\n        );\r\n    }\r\n\r\n    function executeBatch(uint _groupId, uint _batchId) onlyGroup(_groupId) private {\r\n        require(batchExecuted[_batchId] == false);\r\n        require(isBatchConfirmed(_groupId, _batchId));\r\n        address[] memory confirmers = getBatchConfirmers(_groupId, _batchId);\r\n        uint currentCertCount = batchCerts[_batchId].length;\r\n        Cert[] memory currentCerts = new Cert[](currentCertCount);\r\n        for (uint i = 0; i < currentCertCount; i++) {\r\n            uint certId = batchCerts[_batchId][i];\r\n            certs[certId].issuers = confirmers;\r\n            currentCerts[i] = certs[certId];\r\n        }\r\n        holder.addCerts(currentCerts);\r\n        batchExecuted[_batchId] = true;\r\n        for (uint i = 0; i < currentCertCount; i++) {\r\n            Cert memory cert = currentCerts[i];\r\n            emit CertAdded(\r\n                cert.id,\r\n                cert.regNo,\r\n                cert.batchId\r\n            );\r\n        }\r\n        emit BatchAdded(\r\n            _batchId,\r\n            batches[_batchId].name,\r\n            batchCerts[_batchId]\r\n        );\r\n    }\r\n}",
  "sourcePath": "/home/vi/code/dcerts-manager/issuer-wallet/contracts/MultiSigWallet.sol",
  "compiler": {
    "name": "solc",
    "version": "0.8.10+commit.fc410830.Emscripten.clang"
  },
  "schemaVersion": "3.4.3",
  "updatedAt": "2022-01-31T04:33:11.597Z",
  "networkType": "ethereum",
  "devdoc": {
    "kind": "dev",
    "methods": {},
    "version": 1
  },
  "userdoc": {
    "kind": "user",
    "methods": {},
    "version": 1
  }
}