{
  "contractName": "MultiSigWallet",
  "abi": [
    {
      "inputs": [
        {
          "internalType": "string",
          "name": "_name",
          "type": "string"
        },
        {
          "internalType": "address[]",
          "name": "_members",
          "type": "address[]"
        },
        {
          "internalType": "uint256",
          "name": "_threshold",
          "type": "uint256"
        },
        {
          "internalType": "address",
          "name": "_address",
          "type": "address"
        }
      ],
      "stateMutability": "nonpayable",
      "type": "constructor"
    },
    {
      "anonymous": false,
      "inputs": [
        {
          "indexed": false,
          "internalType": "uint256",
          "name": "batchId",
          "type": "uint256"
        },
        {
          "indexed": false,
          "internalType": "string",
          "name": "regNo",
          "type": "string"
        },
        {
          "indexed": false,
          "internalType": "uint256[]",
          "name": "certIds",
          "type": "uint256[]"
        }
      ],
      "name": "BatchAdded",
      "type": "event"
    },
    {
      "anonymous": false,
      "inputs": [
        {
          "indexed": false,
          "internalType": "address",
          "name": "confirmer",
          "type": "address"
        },
        {
          "indexed": false,
          "internalType": "uint256",
          "name": "batchId",
          "type": "uint256"
        },
        {
          "indexed": false,
          "internalType": "string",
          "name": "regNo",
          "type": "string"
        }
      ],
      "name": "BatchConfirmed",
      "type": "event"
    },
    {
      "anonymous": false,
      "inputs": [
        {
          "indexed": false,
          "internalType": "address",
          "name": "creator",
          "type": "address"
        },
        {
          "indexed": false,
          "internalType": "uint256",
          "name": "groupId",
          "type": "uint256"
        },
        {
          "indexed": false,
          "internalType": "uint256",
          "name": "batchId",
          "type": "uint256"
        },
        {
          "indexed": false,
          "internalType": "string",
          "name": "regNo",
          "type": "string"
        },
        {
          "components": [
            {
              "internalType": "uint256",
              "name": "id",
              "type": "uint256"
            },
            {
              "internalType": "address",
              "name": "schoolId",
              "type": "address"
            },
            {
              "internalType": "string",
              "name": "regNo",
              "type": "string"
            },
            {
              "internalType": "uint256",
              "name": "batchId",
              "type": "uint256"
            },
            {
              "internalType": "string",
              "name": "conferredOn",
              "type": "string"
            },
            {
              "internalType": "string",
              "name": "dateOfBirth",
              "type": "string"
            },
            {
              "internalType": "string",
              "name": "yearOfGraduation",
              "type": "string"
            },
            {
              "internalType": "string",
              "name": "majorIn",
              "type": "string"
            },
            {
              "internalType": "string",
              "name": "degreeOf",
              "type": "string"
            },
            {
              "internalType": "string",
              "name": "degreeClassification",
              "type": "string"
            },
            {
              "internalType": "string",
              "name": "modeOfStudy",
              "type": "string"
            },
            {
              "internalType": "string",
              "name": "createdIn",
              "type": "string"
            },
            {
              "internalType": "string",
              "name": "createdAt",
              "type": "string"
            },
            {
              "internalType": "address[]",
              "name": "issuers",
              "type": "address[]"
            }
          ],
          "indexed": false,
          "internalType": "struct Cert[]",
          "name": "certs",
          "type": "tuple[]"
        }
      ],
      "name": "BatchPending",
      "type": "event"
    },
    {
      "anonymous": false,
      "inputs": [
        {
          "indexed": false,
          "internalType": "address",
          "name": "rejecter",
          "type": "address"
        },
        {
          "indexed": false,
          "internalType": "uint256",
          "name": "batchId",
          "type": "uint256"
        },
        {
          "indexed": false,
          "internalType": "string",
          "name": "regNo",
          "type": "string"
        }
      ],
      "name": "BatchRejected",
      "type": "event"
    },
    {
      "anonymous": false,
      "inputs": [
        {
          "indexed": false,
          "internalType": "uint256",
          "name": "batchId",
          "type": "uint256"
        }
      ],
      "name": "BatchRemoved",
      "type": "event"
    },
    {
      "anonymous": false,
      "inputs": [
        {
          "indexed": false,
          "internalType": "uint256",
          "name": "certId",
          "type": "uint256"
        },
        {
          "indexed": false,
          "internalType": "string",
          "name": "regNo",
          "type": "string"
        },
        {
          "indexed": false,
          "internalType": "uint256",
          "name": "batchId",
          "type": "uint256"
        }
      ],
      "name": "CertAdded",
      "type": "event"
    },
    {
      "anonymous": false,
      "inputs": [
        {
          "indexed": false,
          "internalType": "address",
          "name": "confirmer",
          "type": "address"
        },
        {
          "indexed": false,
          "internalType": "uint256",
          "name": "certId",
          "type": "uint256"
        },
        {
          "indexed": false,
          "internalType": "string",
          "name": "regNo",
          "type": "string"
        },
        {
          "indexed": false,
          "internalType": "uint256",
          "name": "batchId",
          "type": "uint256"
        }
      ],
      "name": "CertConfirmed",
      "type": "event"
    },
    {
      "anonymous": false,
      "inputs": [
        {
          "indexed": false,
          "internalType": "address",
          "name": "creator",
          "type": "address"
        },
        {
          "indexed": false,
          "internalType": "uint256",
          "name": "certId",
          "type": "uint256"
        },
        {
          "indexed": false,
          "internalType": "string",
          "name": "regNo",
          "type": "string"
        },
        {
          "indexed": false,
          "internalType": "uint256",
          "name": "batchId",
          "type": "uint256"
        }
      ],
      "name": "CertPending",
      "type": "event"
    },
    {
      "anonymous": false,
      "inputs": [
        {
          "indexed": false,
          "internalType": "address",
          "name": "rejecter",
          "type": "address"
        },
        {
          "indexed": false,
          "internalType": "uint256",
          "name": "certId",
          "type": "uint256"
        },
        {
          "indexed": false,
          "internalType": "string",
          "name": "regNo",
          "type": "string"
        },
        {
          "indexed": false,
          "internalType": "uint256",
          "name": "batchId",
          "type": "uint256"
        }
      ],
      "name": "CertRejected",
      "type": "event"
    },
    {
      "anonymous": false,
      "inputs": [
        {
          "indexed": false,
          "internalType": "uint256",
          "name": "certId",
          "type": "uint256"
        }
      ],
      "name": "CertRemoved",
      "type": "event"
    },
    {
      "anonymous": false,
      "inputs": [
        {
          "indexed": false,
          "internalType": "address",
          "name": "from",
          "type": "address"
        },
        {
          "indexed": false,
          "internalType": "uint256",
          "name": "value",
          "type": "uint256"
        }
      ],
      "name": "Deposit",
      "type": "event"
    },
    {
      "anonymous": false,
      "inputs": [
        {
          "indexed": false,
          "internalType": "uint256",
          "name": "groupId",
          "type": "uint256"
        },
        {
          "indexed": false,
          "internalType": "string",
          "name": "name",
          "type": "string"
        },
        {
          "indexed": false,
          "internalType": "address[]",
          "name": "members",
          "type": "address[]"
        },
        {
          "indexed": false,
          "internalType": "uint256",
          "name": "threshold",
          "type": "uint256"
        }
      ],
      "name": "GroupAdded",
      "type": "event"
    },
    {
      "anonymous": false,
      "inputs": [
        {
          "indexed": false,
          "internalType": "address",
          "name": "confirmer",
          "type": "address"
        },
        {
          "indexed": false,
          "internalType": "uint256",
          "name": "groupId",
          "type": "uint256"
        }
      ],
      "name": "GroupConfirmed",
      "type": "event"
    },
    {
      "anonymous": false,
      "inputs": [
        {
          "indexed": false,
          "internalType": "address",
          "name": "creator",
          "type": "address"
        },
        {
          "indexed": false,
          "internalType": "uint256",
          "name": "groupId",
          "type": "uint256"
        },
        {
          "indexed": false,
          "internalType": "string",
          "name": "name",
          "type": "string"
        },
        {
          "indexed": false,
          "internalType": "address[]",
          "name": "members",
          "type": "address[]"
        },
        {
          "indexed": false,
          "internalType": "uint256",
          "name": "threshold",
          "type": "uint256"
        }
      ],
      "name": "GroupPending",
      "type": "event"
    },
    {
      "anonymous": false,
      "inputs": [
        {
          "indexed": false,
          "internalType": "address",
          "name": "rejecter",
          "type": "address"
        },
        {
          "indexed": false,
          "internalType": "uint256",
          "name": "groupId",
          "type": "uint256"
        }
      ],
      "name": "GroupRejected",
      "type": "event"
    },
    {
      "anonymous": false,
      "inputs": [
        {
          "indexed": false,
          "internalType": "uint256",
          "name": "groupId",
          "type": "uint256"
        }
      ],
      "name": "GroupRemoved",
      "type": "event"
    },
    {
      "anonymous": false,
      "inputs": [
        {
          "indexed": false,
          "internalType": "string",
          "name": "schoolName",
          "type": "string"
        },
        {
          "indexed": false,
          "internalType": "address[]",
          "name": "members",
          "type": "address[]"
        },
        {
          "indexed": false,
          "internalType": "uint256",
          "name": "threshold",
          "type": "uint256"
        },
        {
          "indexed": false,
          "internalType": "address",
          "name": "certsAddress",
          "type": "address"
        }
      ],
      "name": "WalletActivated",
      "type": "event"
    },
    {
      "stateMutability": "payable",
      "type": "fallback",
      "payable": true
    },
    {
      "stateMutability": "payable",
      "type": "receive",
      "payable": true
    },
    {
      "inputs": [
        {
          "internalType": "address",
          "name": "_member",
          "type": "address"
        }
      ],
      "name": "isMember",
      "outputs": [
        {
          "internalType": "bool",
          "name": "",
          "type": "bool"
        }
      ],
      "stateMutability": "view",
      "type": "function",
      "constant": true
    },
    {
      "inputs": [
        {
          "internalType": "address",
          "name": "_member",
          "type": "address"
        },
        {
          "internalType": "uint256",
          "name": "_groupId",
          "type": "uint256"
        }
      ],
      "name": "isMemberOfGroup",
      "outputs": [
        {
          "internalType": "bool",
          "name": "",
          "type": "bool"
        }
      ],
      "stateMutability": "view",
      "type": "function",
      "constant": true
    },
    {
      "inputs": [
        {
          "internalType": "uint256",
          "name": "_groupId",
          "type": "uint256"
        },
        {
          "internalType": "address",
          "name": "_member",
          "type": "address"
        }
      ],
      "name": "isGroupConfirmedBy",
      "outputs": [
        {
          "internalType": "bool",
          "name": "",
          "type": "bool"
        }
      ],
      "stateMutability": "view",
      "type": "function",
      "constant": true
    },
    {
      "inputs": [
        {
          "internalType": "uint256",
          "name": "_groupId",
          "type": "uint256"
        },
        {
          "internalType": "address",
          "name": "_member",
          "type": "address"
        }
      ],
      "name": "isGroupRejectedBy",
      "outputs": [
        {
          "internalType": "bool",
          "name": "",
          "type": "bool"
        }
      ],
      "stateMutability": "view",
      "type": "function",
      "constant": true
    },
    {
      "inputs": [
        {
          "internalType": "string",
          "name": "_name",
          "type": "string"
        },
        {
          "internalType": "address[]",
          "name": "_members",
          "type": "address[]"
        },
        {
          "internalType": "uint256",
          "name": "_threshold",
          "type": "uint256"
        }
      ],
      "name": "addGroup",
      "outputs": [
        {
          "internalType": "uint256",
          "name": "",
          "type": "uint256"
        }
      ],
      "stateMutability": "nonpayable",
      "type": "function"
    },
    {
      "inputs": [
        {
          "internalType": "uint256",
          "name": "_groupId",
          "type": "uint256"
        }
      ],
      "name": "confirmGroup",
      "outputs": [],
      "stateMutability": "nonpayable",
      "type": "function"
    },
    {
      "inputs": [
        {
          "internalType": "uint256",
          "name": "_groupId",
          "type": "uint256"
        }
      ],
      "name": "rejectGroup",
      "outputs": [],
      "stateMutability": "nonpayable",
      "type": "function"
    },
    {
      "inputs": [
        {
          "internalType": "uint256",
          "name": "_groupId",
          "type": "uint256"
        }
      ],
      "name": "getGroup",
      "outputs": [
        {
          "components": [
            {
              "internalType": "uint256",
              "name": "id",
              "type": "uint256"
            },
            {
              "internalType": "string",
              "name": "name",
              "type": "string"
            },
            {
              "internalType": "address[]",
              "name": "members",
              "type": "address[]"
            },
            {
              "internalType": "uint256",
              "name": "threshold",
              "type": "uint256"
            },
            {
              "internalType": "address[]",
              "name": "confirmedBy",
              "type": "address[]"
            },
            {
              "internalType": "address[]",
              "name": "rejectedBy",
              "type": "address[]"
            }
          ],
          "internalType": "struct MultiSigWallet.Group",
          "name": "",
          "type": "tuple"
        }
      ],
      "stateMutability": "view",
      "type": "function",
      "constant": true
    },
    {
      "inputs": [
        {
          "internalType": "uint256",
          "name": "_groupId",
          "type": "uint256"
        },
        {
          "internalType": "uint256",
          "name": "_certId",
          "type": "uint256"
        }
      ],
      "name": "isCertConfirmed",
      "outputs": [
        {
          "internalType": "bool",
          "name": "",
          "type": "bool"
        }
      ],
      "stateMutability": "view",
      "type": "function",
      "constant": true
    },
    {
      "inputs": [
        {
          "internalType": "uint256",
          "name": "_groupId",
          "type": "uint256"
        },
        {
          "internalType": "uint256",
          "name": "_batchId",
          "type": "uint256"
        }
      ],
      "name": "isBatchConfirmed",
      "outputs": [
        {
          "internalType": "bool",
          "name": "",
          "type": "bool"
        }
      ],
      "stateMutability": "view",
      "type": "function",
      "constant": true
    },
    {
      "inputs": [
        {
          "internalType": "uint256",
          "name": "_groupId",
          "type": "uint256"
        },
        {
          "components": [
            {
              "internalType": "uint256",
              "name": "id",
              "type": "uint256"
            },
            {
              "internalType": "address",
              "name": "schoolId",
              "type": "address"
            },
            {
              "internalType": "string",
              "name": "regNo",
              "type": "string"
            },
            {
              "internalType": "uint256",
              "name": "batchId",
              "type": "uint256"
            },
            {
              "internalType": "string",
              "name": "conferredOn",
              "type": "string"
            },
            {
              "internalType": "string",
              "name": "dateOfBirth",
              "type": "string"
            },
            {
              "internalType": "string",
              "name": "yearOfGraduation",
              "type": "string"
            },
            {
              "internalType": "string",
              "name": "majorIn",
              "type": "string"
            },
            {
              "internalType": "string",
              "name": "degreeOf",
              "type": "string"
            },
            {
              "internalType": "string",
              "name": "degreeClassification",
              "type": "string"
            },
            {
              "internalType": "string",
              "name": "modeOfStudy",
              "type": "string"
            },
            {
              "internalType": "string",
              "name": "createdIn",
              "type": "string"
            },
            {
              "internalType": "string",
              "name": "createdAt",
              "type": "string"
            },
            {
              "internalType": "address[]",
              "name": "issuers",
              "type": "address[]"
            }
          ],
          "internalType": "struct Cert",
          "name": "_cert",
          "type": "tuple"
        }
      ],
      "name": "submitCert",
      "outputs": [
        {
          "internalType": "uint256",
          "name": "",
          "type": "uint256"
        }
      ],
      "stateMutability": "nonpayable",
      "type": "function"
    },
    {
      "inputs": [
        {
          "internalType": "uint256",
          "name": "_groupId",
          "type": "uint256"
        },
        {
          "components": [
            {
              "internalType": "uint256",
              "name": "id",
              "type": "uint256"
            },
            {
              "internalType": "string",
              "name": "name",
              "type": "string"
            }
          ],
          "internalType": "struct MultiSigWallet.Batch",
          "name": "_batch",
          "type": "tuple"
        },
        {
          "components": [
            {
              "internalType": "uint256",
              "name": "id",
              "type": "uint256"
            },
            {
              "internalType": "address",
              "name": "schoolId",
              "type": "address"
            },
            {
              "internalType": "string",
              "name": "regNo",
              "type": "string"
            },
            {
              "internalType": "uint256",
              "name": "batchId",
              "type": "uint256"
            },
            {
              "internalType": "string",
              "name": "conferredOn",
              "type": "string"
            },
            {
              "internalType": "string",
              "name": "dateOfBirth",
              "type": "string"
            },
            {
              "internalType": "string",
              "name": "yearOfGraduation",
              "type": "string"
            },
            {
              "internalType": "string",
              "name": "majorIn",
              "type": "string"
            },
            {
              "internalType": "string",
              "name": "degreeOf",
              "type": "string"
            },
            {
              "internalType": "string",
              "name": "degreeClassification",
              "type": "string"
            },
            {
              "internalType": "string",
              "name": "modeOfStudy",
              "type": "string"
            },
            {
              "internalType": "string",
              "name": "createdIn",
              "type": "string"
            },
            {
              "internalType": "string",
              "name": "createdAt",
              "type": "string"
            },
            {
              "internalType": "address[]",
              "name": "issuers",
              "type": "address[]"
            }
          ],
          "internalType": "struct Cert[]",
          "name": "_certs",
          "type": "tuple[]"
        }
      ],
      "name": "submitBatch",
      "outputs": [
        {
          "internalType": "uint256",
          "name": "",
          "type": "uint256"
        }
      ],
      "stateMutability": "nonpayable",
      "type": "function"
    },
    {
      "inputs": [
        {
          "internalType": "uint256",
          "name": "_groupId",
          "type": "uint256"
        },
        {
          "internalType": "uint256",
          "name": "_certId",
          "type": "uint256"
        }
      ],
      "name": "confirmCert",
      "outputs": [],
      "stateMutability": "nonpayable",
      "type": "function"
    },
    {
      "inputs": [
        {
          "internalType": "uint256",
          "name": "_groupId",
          "type": "uint256"
        },
        {
          "internalType": "uint256",
          "name": "_batchId",
          "type": "uint256"
        }
      ],
      "name": "confirmBatch",
      "outputs": [],
      "stateMutability": "nonpayable",
      "type": "function"
    }
  ],
  "bytecode": "0x60806040526000600c556000600d556000600e553480156200002057600080fd5b50604051620063c4380380620063c483398181016040528101906200004691906200058b565b60008351116200005557600080fd5b600082116200006357600080fd5b82518211156200007257600080fd5b83600190805190602001906200008a92919062000134565b508260029080519060200190620000a3929190620001c5565b5081600381905550806000806101000a81548173ffffffffffffffffffffffffffffffffffffffff021916908373ffffffffffffffffffffffffffffffffffffffff1602179055507fa3c3c713368877193c2424d165fa22a1f3fcb383cf273be9c287d3cb847152e38484848460405162000122949392919062000788565b60405180910390a15050505062000848565b828054620001429062000812565b90600052602060002090601f016020900481019282620001665760008555620001b2565b82601f106200018157805160ff1916838001178555620001b2565b82800160010185558215620001b2579182015b82811115620001b157825182559160200191906001019062000194565b5b509050620001c1919062000254565b5090565b82805482825590600052602060002090810192821562000241579160200282015b82811115620002405782518260006101000a81548173ffffffffffffffffffffffffffffffffffffffff021916908373ffffffffffffffffffffffffffffffffffffffff16021790555091602001919060010190620001e6565b5b50905062000250919062000254565b5090565b5b808211156200026f57600081600090555060010162000255565b5090565b6000604051905090565b600080fd5b600080fd5b600080fd5b600080fd5b6000601f19601f8301169050919050565b7f4e487b7100000000000000000000000000000000000000000000000000000000600052604160045260246000fd5b620002dc8262000291565b810181811067ffffffffffffffff82111715620002fe57620002fd620002a2565b5b80604052505050565b60006200031362000273565b9050620003218282620002d1565b919050565b600067ffffffffffffffff821115620003445762000343620002a2565b5b6200034f8262000291565b9050602081019050919050565b60005b838110156200037c5780820151818401526020810190506200035f565b838111156200038c576000848401525b50505050565b6000620003a9620003a38462000326565b62000307565b905082815260208101848484011115620003c857620003c76200028c565b5b620003d58482856200035c565b509392505050565b600082601f830112620003f557620003f462000287565b5b81516200040784826020860162000392565b91505092915050565b600067ffffffffffffffff8211156200042e576200042d620002a2565b5b602082029050602081019050919050565b600080fd5b600073ffffffffffffffffffffffffffffffffffffffff82169050919050565b6000620004718262000444565b9050919050565b620004838162000464565b81146200048f57600080fd5b50565b600081519050620004a38162000478565b92915050565b6000620004c0620004ba8462000410565b62000307565b90508083825260208201905060208402830185811115620004e657620004e56200043f565b5b835b81811015620005135780620004fe888262000492565b845260208401935050602081019050620004e8565b5050509392505050565b600082601f83011262000535576200053462000287565b5b815162000547848260208601620004a9565b91505092915050565b6000819050919050565b620005658162000550565b81146200057157600080fd5b50565b60008151905062000585816200055a565b92915050565b60008060008060808587031215620005a857620005a76200027d565b5b600085015167ffffffffffffffff811115620005c957620005c862000282565b5b620005d787828801620003dd565b945050602085015167ffffffffffffffff811115620005fb57620005fa62000282565b5b62000609878288016200051d565b93505060406200061c8782880162000574565b92505060606200062f8782880162000492565b91505092959194509250565b600081519050919050565b600082825260208201905092915050565b600062000664826200063b565b62000670818562000646565b9350620006828185602086016200035c565b6200068d8162000291565b840191505092915050565b600081519050919050565b600082825260208201905092915050565b6000819050602082019050919050565b620006cf8162000464565b82525050565b6000620006e38383620006c4565b60208301905092915050565b6000602082019050919050565b6000620007098262000698565b620007158185620006a3565b93506200072283620006b4565b8060005b83811015620007595781516200073d8882620006d5565b97506200074a83620006ef565b92505060018101905062000726565b5085935050505092915050565b620007718162000550565b82525050565b620007828162000464565b82525050565b60006080820190508181036000830152620007a4818762000657565b90508181036020830152620007ba8186620006fc565b9050620007cb604083018562000766565b620007da606083018462000777565b95945050505050565b7f4e487b7100000000000000000000000000000000000000000000000000000000600052602260045260246000fd5b600060028204905060018216806200082b57607f821691505b60208210811415620008425762000841620007e3565b5b50919050565b615b6c80620008586000396000f3fe6080604052600436106100e15760003560e01c8063963c6eff1161007f578063ca61b30111610059578063ca61b301146103aa578063ceb60654146103d3578063dc595dc414610410578063ded10a6a146104395761012b565b8063963c6eff146103075780639d93702414610330578063a230c5241461036d5761012b565b80632650b005116100bb5780632650b005146102275780633e0aad1d1461026457806345dfb294146102a15780635da1546b146102ca5761012b565b8063018c890a146101705780631faef1bc146101ad57806323f44c06146101ea5761012b565b3661012b576000341115610129577fe1fffcc4923d04b559f4d29a8bfc6cda04eb5b0d3c460751c2402c5c5cc9109c3334604051610120929190614584565b60405180910390a15b005b600034111561016e577fe1fffcc4923d04b559f4d29a8bfc6cda04eb5b0d3c460751c2402c5c5cc9109c3334604051610165929190614584565b60405180910390a15b005b34801561017c57600080fd5b50610197600480360381019061019291906145ed565b610476565b6040516101a49190614648565b60405180910390f35b3480156101b957600080fd5b506101d460048036038101906101cf919061468f565b6104af565b6040516101e19190614648565b60405180910390f35b3480156101f657600080fd5b50610211600480360381019061020c9190614b69565b610587565b60405161021e9190614bc5565b60405180910390f35b34801561023357600080fd5b5061024e60048036038101906102499190614be0565b610808565b60405161025b9190614648565b60405180910390f35b34801561027057600080fd5b5061028b600480360381019061028691906145ed565b610907565b6040516102989190614648565b60405180910390f35b3480156102ad57600080fd5b506102c860048036038101906102c39190614c20565b610940565b005b3480156102d657600080fd5b506102f160048036038101906102ec9190614c4d565b610c50565b6040516102fe9190614bc5565b60405180910390f35b34801561031357600080fd5b5061032e600480360381019061032991906145ed565b610ee9565b005b34801561033c57600080fd5b506103576004803603810190610352919061468f565b611745565b6040516103649190614648565b60405180910390f35b34801561037957600080fd5b50610394600480360381019061038f9190614cd8565b61181d565b6040516103a19190614648565b60405180910390f35b3480156103b657600080fd5b506103d160048036038101906103cc9190614c20565b6118cc565b005b3480156103df57600080fd5b506103fa60048036038101906103f59190614c20565b611b96565b6040516104079190614ef8565b60405180910390f35b34801561041c57600080fd5b50610437600480360381019061043291906145ed565b611e13565b005b34801561044557600080fd5b50610460600480360381019061045b9190615067565b6127a3565b60405161046d9190614bc5565b60405180910390f35b6000806104838484612b94565b905060008151905060046000868152602001908152602001600020600301548110159250505092915050565b600080600090505b600460008581526020019081526020016000206004018054905081101561057b578273ffffffffffffffffffffffffffffffffffffffff16600460008681526020019081526020016000206004018281548110610517576105166150f2565b5b9060005260206000200160009054906101000a900473ffffffffffffffffffffffffffffffffffffffff1673ffffffffffffffffffffffffffffffffffffffff161415610568576001915050610581565b808061057390615150565b9150506104b7565b50600090505b92915050565b6000826000151561059782612d14565b1515146105a357600080fd5b6105ac81612df6565b6105b557600080fd5b6105bf3382610808565b6105c857600080fd5b600c60008154809291906105db90615150565b919050558360000181815250508260066000856000015181526020019081526020016000206000820151816000015560208201518160010160006101000a81548173ffffffffffffffffffffffffffffffffffffffff021916908373ffffffffffffffffffffffffffffffffffffffff160217905550604082015181600201908051906020019061066d9291906142f5565b506060820151816003015560808201518160040190805190602001906106949291906142f5565b5060a08201518160050190805190602001906106b19291906142f5565b5060c08201518160060190805190602001906106ce9291906142f5565b5060e08201518160070190805190602001906106eb9291906142f5565b506101008201518160080190805190602001906107099291906142f5565b506101208201518160090190805190602001906107279291906142f5565b5061014082015181600a0190805190602001906107459291906142f5565b5061016082015181600b0190805190602001906107639291906142f5565b5061018082015181600c0190805190602001906107819291906142f5565b506101a082015181600d01908051906020019061079f92919061437b565b509050507f2c1eb38735aaf2ed4270015880b7cd8604f23422f77d9ee57d732823019ab5ef338460000151856040015186606001516040516107e494939291906151e3565b60405180910390a16107fa848460000151610ee9565b826000015191505092915050565b600080600460008481526020019081526020016000206002018054905014156108345760009050610901565b60005b60046000848152602001908152602001600020600201805490508110156108fb578373ffffffffffffffffffffffffffffffffffffffff16600460008581526020019081526020016000206002018281548110610897576108966150f2565b5b9060005260206000200160009054906101000a900473ffffffffffffffffffffffffffffffffffffffff1673ffffffffffffffffffffffffffffffffffffffff1614156108e8576001915050610901565b80806108f390615150565b915050610837565b50600090505b92915050565b6000806109148484612ed8565b905060008151905060046000868152602001908152602001600020600301548110159250505092915050565b6109493361181d565b61095257600080fd5b6000151561095f82612d14565b15151461096b57600080fd5b6000151561097882612df6565b15151461098457600080fd5b600015156109928233611745565b15151461099e57600080fd5b600060046000838152602001908152602001600020600401805480602002602001604051908101604052809291908181526020018280548015610a3657602002820191906000526020600020905b8160009054906101000a900473ffffffffffffffffffffffffffffffffffffffff1673ffffffffffffffffffffffffffffffffffffffff16815260200190600101908083116109ec575b505050505090506000805b8251811015610b14573373ffffffffffffffffffffffffffffffffffffffff16838281518110610a7457610a736150f2565b5b602002602001015173ffffffffffffffffffffffffffffffffffffffff161415610aa4576000610aa357600080fd5b5b600073ffffffffffffffffffffffffffffffffffffffff16838281518110610acf57610ace6150f2565b5b602002602001015173ffffffffffffffffffffffffffffffffffffffff1614610b01578180610afd90615150565b9250505b8080610b0c90615150565b915050610a41565b5033600460008581526020019081526020016000206004018281548110610b3e57610b3d6150f2565b5b9060005260206000200160006101000a81548173ffffffffffffffffffffffffffffffffffffffff021916908373ffffffffffffffffffffffffffffffffffffffff1602179055507f40212d9d89b8b595d3e8beccd8d17412912ffefafb3f51257d1953e11571f9043384604051610bb7929190614584565b60405180910390a1610bc883612df6565b15610c4b577ff310f10bdd8e03d060d72e9cc4ff7cb137a11f2a168f021b8a77bc8ac577e37a8360046000868152602001908152602001600020600101600460008781526020019081526020016000206002016004600088815260200190815260200160002060030154604051610c429493929190615422565b60405180910390a15b505050565b6000610c5b3361181d565b610c6457600080fd5b6000835111610c7257600080fd5b60008211610c7f57600080fd5b8251821115610c8d57600080fd5b6000600e6000815480929190610ca290615150565b91905055905060006040518060c0016040528083815260200187815260200186815260200185815260200160028054905067ffffffffffffffff811115610cec57610ceb6146e5565b5b604051908082528060200260200182016040528015610d1a5781602001602082028036833780820191505090505b50815260200160028054905067ffffffffffffffff811115610d3f57610d3e6146e5565b5b604051908082528060200260200182016040528015610d6d5781602001602082028036833780820191505090505b508152509050338160800151600081518110610d8c57610d8b6150f2565b5b602002602001019073ffffffffffffffffffffffffffffffffffffffff16908173ffffffffffffffffffffffffffffffffffffffff16815250508060046000848152602001908152602001600020600082015181600001556020820151816001019080519060200190610e009291906142f5565b506040820151816002019080519060200190610e1d92919061437b565b50606082015181600301556080820151816004019080519060200190610e4492919061437b565b5060a0820151816005019080519060200190610e6192919061437b565b509050507f27efe2927956a250c8a9a9e3d43c2fdea8859582d25981ad6139be4e6a4262733383888888604051610e9c9594939291906154d3565b60405180910390a17f40212d9d89b8b595d3e8beccd8d17412912ffefafb3f51257d1953e11571f9043383604051610ed5929190614584565b60405180910390a181925050509392505050565b8160001515610ef782612d14565b151514610f0357600080fd5b610f0c81612df6565b610f1557600080fd5b610f1f3382610808565b610f2857600080fd5b6000151560086000858152602001908152602001600020600084815260200190815260200160002060003373ffffffffffffffffffffffffffffffffffffffff1673ffffffffffffffffffffffffffffffffffffffff16815260200190815260200160002060009054906101000a900460ff16151514610fa757600080fd5b600160086000858152602001908152602001600020600084815260200190815260200160002060003373ffffffffffffffffffffffffffffffffffffffff1673ffffffffffffffffffffffffffffffffffffffff16815260200190815260200160002060006101000a81548160ff021916908315150217905550600060066000848152602001908152602001600020604051806101c0016040529081600082015481526020016001820160009054906101000a900473ffffffffffffffffffffffffffffffffffffffff1673ffffffffffffffffffffffffffffffffffffffff1673ffffffffffffffffffffffffffffffffffffffff1681526020016002820180546110b29061525e565b80601f01602080910402602001604051908101604052809291908181526020018280546110de9061525e565b801561112b5780601f106111005761010080835404028352916020019161112b565b820191906000526020600020905b81548152906001019060200180831161110e57829003601f168201915b505050505081526020016003820154815260200160048201805461114e9061525e565b80601f016020809104026020016040519081016040528092919081815260200182805461117a9061525e565b80156111c75780601f1061119c576101008083540402835291602001916111c7565b820191906000526020600020905b8154815290600101906020018083116111aa57829003601f168201915b505050505081526020016005820180546111e09061525e565b80601f016020809104026020016040519081016040528092919081815260200182805461120c9061525e565b80156112595780601f1061122e57610100808354040283529160200191611259565b820191906000526020600020905b81548152906001019060200180831161123c57829003601f168201915b505050505081526020016006820180546112729061525e565b80601f016020809104026020016040519081016040528092919081815260200182805461129e9061525e565b80156112eb5780601f106112c0576101008083540402835291602001916112eb565b820191906000526020600020905b8154815290600101906020018083116112ce57829003601f168201915b505050505081526020016007820180546113049061525e565b80601f01602080910402602001604051908101604052809291908181526020018280546113309061525e565b801561137d5780601f106113525761010080835404028352916020019161137d565b820191906000526020600020905b81548152906001019060200180831161136057829003601f168201915b505050505081526020016008820180546113969061525e565b80601f01602080910402602001604051908101604052809291908181526020018280546113c29061525e565b801561140f5780601f106113e45761010080835404028352916020019161140f565b820191906000526020600020905b8154815290600101906020018083116113f257829003601f168201915b505050505081526020016009820180546114289061525e565b80601f01602080910402602001604051908101604052809291908181526020018280546114549061525e565b80156114a15780601f10611476576101008083540402835291602001916114a1565b820191906000526020600020905b81548152906001019060200180831161148457829003601f168201915b50505050508152602001600a820180546114ba9061525e565b80601f01602080910402602001604051908101604052809291908181526020018280546114e69061525e565b80156115335780601f1061150857610100808354040283529160200191611533565b820191906000526020600020905b81548152906001019060200180831161151657829003601f168201915b50505050508152602001600b8201805461154c9061525e565b80601f01602080910402602001604051908101604052809291908181526020018280546115789061525e565b80156115c55780601f1061159a576101008083540402835291602001916115c5565b820191906000526020600020905b8154815290600101906020018083116115a857829003601f168201915b50505050508152602001600c820180546115de9061525e565b80601f016020809104026020016040519081016040528092919081815260200182805461160a9061525e565b80156116575780601f1061162c57610100808354040283529160200191611657565b820191906000526020600020905b81548152906001019060200180831161163a57829003601f168201915b50505050508152602001600d82018054806020026020016040519081016040528092919081815260200182805480156116e557602002820191906000526020600020905b8160009054906101000a900473ffffffffffffffffffffffffffffffffffffffff1673ffffffffffffffffffffffffffffffffffffffff168152602001906001019080831161169b575b50505050508152505090507fd23e0e1cf7efd56afba725e60b9d313a14602a143f2c6ea2c780aead0107b5e333848360400151846060015160405161172d94939291906151e3565b60405180910390a161173f8484613058565b50505050565b600080600090505b6004600085815260200190815260200160002060050180549050811015611811578273ffffffffffffffffffffffffffffffffffffffff166004600086815260200190815260200160002060050182815481106117ad576117ac6150f2565b5b9060005260206000200160009054906101000a900473ffffffffffffffffffffffffffffffffffffffff1673ffffffffffffffffffffffffffffffffffffffff1614156117fe576001915050611817565b808061180990615150565b91505061174d565b50600090505b92915050565b600080600090505b6002805490508110156118c1578273ffffffffffffffffffffffffffffffffffffffff166002828154811061185d5761185c6150f2565b5b9060005260206000200160009054906101000a900473ffffffffffffffffffffffffffffffffffffffff1673ffffffffffffffffffffffffffffffffffffffff1614156118ae5760019150506118c7565b80806118b990615150565b915050611825565b50600090505b919050565b6118d53361181d565b6118de57600080fd5b600015156118eb82612df6565b1515146118f757600080fd5b6000151561190482612d14565b15151461191057600080fd5b6000151561191e82336104af565b15151461192a57600080fd5b6000600460008381526020019081526020016000206005018054806020026020016040519081016040528092919081815260200182805480156119c257602002820191906000526020600020905b8160009054906101000a900473ffffffffffffffffffffffffffffffffffffffff1673ffffffffffffffffffffffffffffffffffffffff1681526020019060010190808311611978575b505050505090506000805b8251811015611aa0573373ffffffffffffffffffffffffffffffffffffffff16838281518110611a00576119ff6150f2565b5b602002602001015173ffffffffffffffffffffffffffffffffffffffff161415611a30576000611a2f57600080fd5b5b600073ffffffffffffffffffffffffffffffffffffffff16838281518110611a5b57611a5a6150f2565b5b602002602001015173ffffffffffffffffffffffffffffffffffffffff1614611a8d578180611a8990615150565b9250505b8080611a9890615150565b9150506119cd565b5033600460008581526020019081526020016000206005018281548110611aca57611ac96150f2565b5b9060005260206000200160006101000a81548173ffffffffffffffffffffffffffffffffffffffff021916908373ffffffffffffffffffffffffffffffffffffffff1602179055507f8967c070a7dc13f025001bc9fdc38565793425413e963114bb0ddeac3998c6cc3384604051611b43929190614584565b60405180910390a1611b5483612d14565b15611b91577ffd132ec9e11063907001f1b4412752c57b09723015bc730bdf82d825476b8f3583604051611b889190614bc5565b60405180910390a15b505050565b611b9e614405565b600460008381526020019081526020016000206040518060c001604052908160008201548152602001600182018054611bd69061525e565b80601f0160208091040260200160405190810160405280929190818152602001828054611c029061525e565b8015611c4f5780601f10611c2457610100808354040283529160200191611c4f565b820191906000526020600020905b815481529060010190602001808311611c3257829003601f168201915b5050505050815260200160028201805480602002602001604051908101604052809291908181526020018280548015611cdd57602002820191906000526020600020905b8160009054906101000a900473ffffffffffffffffffffffffffffffffffffffff1673ffffffffffffffffffffffffffffffffffffffff1681526020019060010190808311611c93575b505050505081526020016003820154815260200160048201805480602002602001604051908101604052809291908181526020018280548015611d7557602002820191906000526020600020905b8160009054906101000a900473ffffffffffffffffffffffffffffffffffffffff1673ffffffffffffffffffffffffffffffffffffffff1681526020019060010190808311611d2b575b5050505050815260200160058201805480602002602001604051908101604052809291908181526020018280548015611e0357602002820191906000526020600020905b8160009054906101000a900473ffffffffffffffffffffffffffffffffffffffff1673ffffffffffffffffffffffffffffffffffffffff1681526020019060010190808311611db9575b5050505050815250509050919050565b8160001515611e2182612d14565b151514611e2d57600080fd5b611e3681612df6565b611e3f57600080fd5b611e493382610808565b611e5257600080fd5b60001515600b6000858152602001908152602001600020600084815260200190815260200160002060003373ffffffffffffffffffffffffffffffffffffffff1673ffffffffffffffffffffffffffffffffffffffff16815260200190815260200160002060009054906101000a900460ff16151514611ed157600080fd5b6001600b6000858152602001908152602001600020600084815260200190815260200160002060003373ffffffffffffffffffffffffffffffffffffffff1673ffffffffffffffffffffffffffffffffffffffff16815260200190815260200160002060006101000a81548160ff02191690831515021790555060005b6009600084815260200190815260200160002080549050811015612743576000600960008581526020019081526020016000208281548110611f9357611f926150f2565b5b90600052602060002001549050600160086000878152602001908152602001600020600083815260200190815260200160002060003373ffffffffffffffffffffffffffffffffffffffff1673ffffffffffffffffffffffffffffffffffffffff16815260200190815260200160002060006101000a81548160ff021916908315150217905550600060066000838152602001908152602001600020604051806101c0016040529081600082015481526020016001820160009054906101000a900473ffffffffffffffffffffffffffffffffffffffff1673ffffffffffffffffffffffffffffffffffffffff1673ffffffffffffffffffffffffffffffffffffffff1681526020016002820180546120ab9061525e565b80601f01602080910402602001604051908101604052809291908181526020018280546120d79061525e565b80156121245780601f106120f957610100808354040283529160200191612124565b820191906000526020600020905b81548152906001019060200180831161210757829003601f168201915b50505050508152602001600382015481526020016004820180546121479061525e565b80601f01602080910402602001604051908101604052809291908181526020018280546121739061525e565b80156121c05780601f10612195576101008083540402835291602001916121c0565b820191906000526020600020905b8154815290600101906020018083116121a357829003601f168201915b505050505081526020016005820180546121d99061525e565b80601f01602080910402602001604051908101604052809291908181526020018280546122059061525e565b80156122525780601f1061222757610100808354040283529160200191612252565b820191906000526020600020905b81548152906001019060200180831161223557829003601f168201915b5050505050815260200160068201805461226b9061525e565b80601f01602080910402602001604051908101604052809291908181526020018280546122979061525e565b80156122e45780601f106122b9576101008083540402835291602001916122e4565b820191906000526020600020905b8154815290600101906020018083116122c757829003601f168201915b505050505081526020016007820180546122fd9061525e565b80601f01602080910402602001604051908101604052809291908181526020018280546123299061525e565b80156123765780601f1061234b57610100808354040283529160200191612376565b820191906000526020600020905b81548152906001019060200180831161235957829003601f168201915b5050505050815260200160088201805461238f9061525e565b80601f01602080910402602001604051908101604052809291908181526020018280546123bb9061525e565b80156124085780601f106123dd57610100808354040283529160200191612408565b820191906000526020600020905b8154815290600101906020018083116123eb57829003601f168201915b505050505081526020016009820180546124219061525e565b80601f016020809104026020016040519081016040528092919081815260200182805461244d9061525e565b801561249a5780601f1061246f5761010080835404028352916020019161249a565b820191906000526020600020905b81548152906001019060200180831161247d57829003601f168201915b50505050508152602001600a820180546124b39061525e565b80601f01602080910402602001604051908101604052809291908181526020018280546124df9061525e565b801561252c5780601f106125015761010080835404028352916020019161252c565b820191906000526020600020905b81548152906001019060200180831161250f57829003601f168201915b50505050508152602001600b820180546125459061525e565b80601f01602080910402602001604051908101604052809291908181526020018280546125719061525e565b80156125be5780601f10612593576101008083540402835291602001916125be565b820191906000526020600020905b8154815290600101906020018083116125a157829003601f168201915b50505050508152602001600c820180546125d79061525e565b80601f01602080910402602001604051908101604052809291908181526020018280546126039061525e565b80156126505780601f1061262557610100808354040283529160200191612650565b820191906000526020600020905b81548152906001019060200180831161263357829003601f168201915b50505050508152602001600d82018054806020026020016040519081016040528092919081815260200182805480156126de57602002820191906000526020600020905b8160009054906101000a900473ffffffffffffffffffffffffffffffffffffffff1673ffffffffffffffffffffffffffffffffffffffff1681526020019060010190808311612694575b50505050508152505090507fd23e0e1cf7efd56afba725e60b9d313a14602a143f2c6ea2c780aead0107b5e333838360400151846060015160405161272694939291906151e3565b60405180910390a15050808061273b90615150565b915050611f4e565b507fb4997c2bafa0c10ba6e58f9474692ad01d1e224db968ff6d6ffe99d2a959122633836005600086815260200190815260200160002060010160405161278c93929190615534565b60405180910390a161279e83836138e2565b505050565b600083600015156127b382612d14565b1515146127bf57600080fd5b6127c881612df6565b6127d157600080fd5b6127db3382610808565b6127e457600080fd5b6000600d60008154809291906127f990615150565b9190505590508085600001818152505084600560008381526020019081526020016000206000820151816000015560208201518160010190805190602001906128439291906142f5565b50905050835167ffffffffffffffff811115612862576128616146e5565b5b6040519080825280602002602001820160405280156128905781602001602082028036833780820191505090505b506009600083815260200190815260200160002090805190602001906128b792919061443b565b5060005b8451811015612b3a57600c60008154809291906128d790615150565b919050558582815181106128ee576128ed6150f2565b5b602002602001015160000181815250506000858281518110612913576129126150f2565b5b6020026020010151600001519050858281518110612934576129336150f2565b5b6020026020010151600660008381526020019081526020016000206000820151816000015560208201518160010160006101000a81548173ffffffffffffffffffffffffffffffffffffffff021916908373ffffffffffffffffffffffffffffffffffffffff16021790555060408201518160020190805190602001906129bc9291906142f5565b506060820151816003015560808201518160040190805190602001906129e39291906142f5565b5060a0820151816005019080519060200190612a009291906142f5565b5060c0820151816006019080519060200190612a1d9291906142f5565b5060e0820151816007019080519060200190612a3a9291906142f5565b50610100820151816008019080519060200190612a589291906142f5565b50610120820151816009019080519060200190612a769291906142f5565b5061014082015181600a019080519060200190612a949291906142f5565b5061016082015181600b019080519060200190612ab29291906142f5565b5061018082015181600c019080519060200190612ad09291906142f5565b506101a082015181600d019080519060200190612aee92919061437b565b5090505080600960008581526020019081526020016000208381548110612b1857612b176150f2565b5b9060005260206000200181905550508080612b3290615150565b9150506128bb565b507f6ab8bdf97fa19b1f1f13509cd9bf281ef953777730e699ea4498cf5eb4fde6ad338783886020015188604051612b769594939291906157a8565b60405180910390a1612b888682611e13565b80925050509392505050565b6060806000805b600280549050811015612d0857600b60008781526020019081526020016000206000868152602001908152602001600020600060028381548110612be257612be16150f2565b5b9060005260206000200160009054906101000a900473ffffffffffffffffffffffffffffffffffffffff1673ffffffffffffffffffffffffffffffffffffffff1673ffffffffffffffffffffffffffffffffffffffff16815260200190815260200160002060009054906101000a900460ff1615612cf55760028181548110612c6e57612c6d6150f2565b5b9060005260206000200160009054906101000a900473ffffffffffffffffffffffffffffffffffffffff16838381518110612cac57612cab6150f2565b5b602002602001019073ffffffffffffffffffffffffffffffffffffffff16908173ffffffffffffffffffffffffffffffffffffffff16815250508180612cf190615150565b9250505b8080612d0090615150565b915050612b9b565b50819250505092915050565b6000806000905060005b6004600085815260200190815260200160002060050180549050811015612de757600073ffffffffffffffffffffffffffffffffffffffff16600460008681526020019081526020016000206005018281548110612d7f57612d7e6150f2565b5b9060005260206000200160009054906101000a900473ffffffffffffffffffffffffffffffffffffffff1673ffffffffffffffffffffffffffffffffffffffff1614612dd4578180612dd090615150565b9250505b8080612ddf90615150565b915050612d1e565b50600354811015915050919050565b6000806000905060005b6004600085815260200190815260200160002060040180549050811015612ec957600073ffffffffffffffffffffffffffffffffffffffff16600460008681526020019081526020016000206004018281548110612e6157612e606150f2565b5b9060005260206000200160009054906101000a900473ffffffffffffffffffffffffffffffffffffffff1673ffffffffffffffffffffffffffffffffffffffff1614612eb6578180612eb290615150565b9250505b8080612ec190615150565b915050612e00565b50600354811015915050919050565b6060806000805b60028054905081101561304c57600860008781526020019081526020016000206000868152602001908152602001600020600060028381548110612f2657612f256150f2565b5b9060005260206000200160009054906101000a900473ffffffffffffffffffffffffffffffffffffffff1673ffffffffffffffffffffffffffffffffffffffff1673ffffffffffffffffffffffffffffffffffffffff16815260200190815260200160002060009054906101000a900460ff16156130395760028181548110612fb257612fb16150f2565b5b9060005260206000200160009054906101000a900473ffffffffffffffffffffffffffffffffffffffff16838381518110612ff057612fef6150f2565b5b602002602001019073ffffffffffffffffffffffffffffffffffffffff16908173ffffffffffffffffffffffffffffffffffffffff1681525050818061303590615150565b9250505b808061304490615150565b915050612edf565b50819250505092915050565b816000151561306682612d14565b15151461307257600080fd5b61307b81612df6565b61308457600080fd5b61308e3382610808565b61309757600080fd5b600015156007600084815260200190815260200160002060009054906101000a900460ff161515146130c857600080fd5b6130d28383610907565b6130db57600080fd5b6130e58383612ed8565b60066000848152602001908152602001600020600d01908051906020019061310e92919061437b565b50600060066000848152602001908152602001600020604051806101c0016040529081600082015481526020016001820160009054906101000a900473ffffffffffffffffffffffffffffffffffffffff1673ffffffffffffffffffffffffffffffffffffffff1673ffffffffffffffffffffffffffffffffffffffff1681526020016002820180546131a09061525e565b80601f01602080910402602001604051908101604052809291908181526020018280546131cc9061525e565b80156132195780601f106131ee57610100808354040283529160200191613219565b820191906000526020600020905b8154815290600101906020018083116131fc57829003601f168201915b505050505081526020016003820154815260200160048201805461323c9061525e565b80601f01602080910402602001604051908101604052809291908181526020018280546132689061525e565b80156132b55780601f1061328a576101008083540402835291602001916132b5565b820191906000526020600020905b81548152906001019060200180831161329857829003601f168201915b505050505081526020016005820180546132ce9061525e565b80601f01602080910402602001604051908101604052809291908181526020018280546132fa9061525e565b80156133475780601f1061331c57610100808354040283529160200191613347565b820191906000526020600020905b81548152906001019060200180831161332a57829003601f168201915b505050505081526020016006820180546133609061525e565b80601f016020809104026020016040519081016040528092919081815260200182805461338c9061525e565b80156133d95780601f106133ae576101008083540402835291602001916133d9565b820191906000526020600020905b8154815290600101906020018083116133bc57829003601f168201915b505050505081526020016007820180546133f29061525e565b80601f016020809104026020016040519081016040528092919081815260200182805461341e9061525e565b801561346b5780601f106134405761010080835404028352916020019161346b565b820191906000526020600020905b81548152906001019060200180831161344e57829003601f168201915b505050505081526020016008820180546134849061525e565b80601f01602080910402602001604051908101604052809291908181526020018280546134b09061525e565b80156134fd5780601f106134d2576101008083540402835291602001916134fd565b820191906000526020600020905b8154815290600101906020018083116134e057829003601f168201915b505050505081526020016009820180546135169061525e565b80601f01602080910402602001604051908101604052809291908181526020018280546135429061525e565b801561358f5780601f106135645761010080835404028352916020019161358f565b820191906000526020600020905b81548152906001019060200180831161357257829003601f168201915b50505050508152602001600a820180546135a89061525e565b80601f01602080910402602001604051908101604052809291908181526020018280546135d49061525e565b80156136215780601f106135f657610100808354040283529160200191613621565b820191906000526020600020905b81548152906001019060200180831161360457829003601f168201915b50505050508152602001600b8201805461363a9061525e565b80601f01602080910402602001604051908101604052809291908181526020018280546136669061525e565b80156136b35780601f10613688576101008083540402835291602001916136b3565b820191906000526020600020905b81548152906001019060200180831161369657829003601f168201915b50505050508152602001600c820180546136cc9061525e565b80601f01602080910402602001604051908101604052809291908181526020018280546136f89061525e565b80156137455780601f1061371a57610100808354040283529160200191613745565b820191906000526020600020905b81548152906001019060200180831161372857829003601f168201915b50505050508152602001600d82018054806020026020016040519081016040528092919081815260200182805480156137d357602002820191906000526020600020905b8160009054906101000a900473ffffffffffffffffffffffffffffffffffffffff1673ffffffffffffffffffffffffffffffffffffffff1681526020019060010190808311613789575b505050505081525050905060008054906101000a900473ffffffffffffffffffffffffffffffffffffffff1673ffffffffffffffffffffffffffffffffffffffff1663bc8f726b826040518263ffffffff1660e01b8152600401613837919061597d565b600060405180830381600087803b15801561385157600080fd5b505af1158015613865573d6000803e3d6000fd5b5050505060016007600085815260200190815260200160002060006101000a81548160ff0219169083151502179055507f1013de973c1173b6d761402a6463eedb8295298d126c27395b046cb522cbe4638160000151826040015183606001516040516138d49392919061599f565b60405180910390a150505050565b81600015156138f082612d14565b1515146138fc57600080fd5b61390581612df6565b61390e57600080fd5b6139183382610808565b61392157600080fd5b60001515600a600084815260200190815260200160002060009054906101000a900460ff1615151461395257600080fd5b61395c8383610476565b61396557600080fd5b60006139718484612b94565b905060006009600085815260200190815260200160002080549050905060008167ffffffffffffffff8111156139aa576139a96146e5565b5b6040519080825280602002602001820160405280156139e357816020015b6139d0614488565b8152602001906001900390816139c85790505b50905060005b8281101561414d576000600960008881526020019081526020016000208281548110613a1857613a176150f2565b5b906000526020600020015490508460066000838152602001908152602001600020600d019080519060200190613a4f92919061437b565b5060066000828152602001908152602001600020604051806101c0016040529081600082015481526020016001820160009054906101000a900473ffffffffffffffffffffffffffffffffffffffff1673ffffffffffffffffffffffffffffffffffffffff1673ffffffffffffffffffffffffffffffffffffffff168152602001600282018054613adf9061525e565b80601f0160208091040260200160405190810160405280929190818152602001828054613b0b9061525e565b8015613b585780601f10613b2d57610100808354040283529160200191613b58565b820191906000526020600020905b815481529060010190602001808311613b3b57829003601f168201915b5050505050815260200160038201548152602001600482018054613b7b9061525e565b80601f0160208091040260200160405190810160405280929190818152602001828054613ba79061525e565b8015613bf45780601f10613bc957610100808354040283529160200191613bf4565b820191906000526020600020905b815481529060010190602001808311613bd757829003601f168201915b50505050508152602001600582018054613c0d9061525e565b80601f0160208091040260200160405190810160405280929190818152602001828054613c399061525e565b8015613c865780601f10613c5b57610100808354040283529160200191613c86565b820191906000526020600020905b815481529060010190602001808311613c6957829003601f168201915b50505050508152602001600682018054613c9f9061525e565b80601f0160208091040260200160405190810160405280929190818152602001828054613ccb9061525e565b8015613d185780601f10613ced57610100808354040283529160200191613d18565b820191906000526020600020905b815481529060010190602001808311613cfb57829003601f168201915b50505050508152602001600782018054613d319061525e565b80601f0160208091040260200160405190810160405280929190818152602001828054613d5d9061525e565b8015613daa5780601f10613d7f57610100808354040283529160200191613daa565b820191906000526020600020905b815481529060010190602001808311613d8d57829003601f168201915b50505050508152602001600882018054613dc39061525e565b80601f0160208091040260200160405190810160405280929190818152602001828054613def9061525e565b8015613e3c5780601f10613e1157610100808354040283529160200191613e3c565b820191906000526020600020905b815481529060010190602001808311613e1f57829003601f168201915b50505050508152602001600982018054613e559061525e565b80601f0160208091040260200160405190810160405280929190818152602001828054613e819061525e565b8015613ece5780601f10613ea357610100808354040283529160200191613ece565b820191906000526020600020905b815481529060010190602001808311613eb157829003601f168201915b50505050508152602001600a82018054613ee79061525e565b80601f0160208091040260200160405190810160405280929190818152602001828054613f139061525e565b8015613f605780601f10613f3557610100808354040283529160200191613f60565b820191906000526020600020905b815481529060010190602001808311613f4357829003601f168201915b50505050508152602001600b82018054613f799061525e565b80601f0160208091040260200160405190810160405280929190818152602001828054613fa59061525e565b8015613ff25780601f10613fc757610100808354040283529160200191613ff2565b820191906000526020600020905b815481529060010190602001808311613fd557829003601f168201915b50505050508152602001600c8201805461400b9061525e565b80601f01602080910402602001604051908101604052809291908181526020018280546140379061525e565b80156140845780601f1061405957610100808354040283529160200191614084565b820191906000526020600020905b81548152906001019060200180831161406757829003601f168201915b50505050508152602001600d820180548060200260200160405190810160405280929190818152602001828054801561411257602002820191906000526020600020905b8160009054906101000a900473ffffffffffffffffffffffffffffffffffffffff1673ffffffffffffffffffffffffffffffffffffffff16815260200190600101908083116140c8575b50505050508152505083838151811061412e5761412d6150f2565b5b602002602001018190525050808061414590615150565b9150506139e9565b5060008054906101000a900473ffffffffffffffffffffffffffffffffffffffff1673ffffffffffffffffffffffffffffffffffffffff166353e9cfef826040518263ffffffff1660e01b81526004016141a791906159dd565b600060405180830381600087803b1580156141c157600080fd5b505af11580156141d5573d6000803e3d6000fd5b505050506001600a600087815260200190815260200160002060006101000a81548160ff02191690831515021790555060005b8281101561428a576000828281518110614225576142246150f2565b5b602002602001015190507f1013de973c1173b6d761402a6463eedb8295298d126c27395b046cb522cbe46381600001518260400151836060015160405161426e9392919061599f565b60405180910390a150808061428290615150565b915050614208565b507f0a1c6b555d341d04847ed94a92dd7f44f1941346a8dbeee33cda4d8b77a98c1e8560056000888152602001908152602001600020600101600960008981526020019081526020016000206040516142e593929190615af1565b60405180910390a1505050505050565b8280546143019061525e565b90600052602060002090601f016020900481019282614323576000855561436a565b82601f1061433c57805160ff191683800117855561436a565b8280016001018555821561436a579182015b8281111561436957825182559160200191906001019061434e565b5b509050614377919061450d565b5090565b8280548282559060005260206000209081019282156143f4579160200282015b828111156143f35782518260006101000a81548173ffffffffffffffffffffffffffffffffffffffff021916908373ffffffffffffffffffffffffffffffffffffffff1602179055509160200191906001019061439b565b5b509050614401919061450d565b5090565b6040518060c001604052806000815260200160608152602001606081526020016000815260200160608152602001606081525090565b828054828255906000526020600020908101928215614477579160200282015b8281111561447657825182559160200191906001019061445b565b5b509050614484919061450d565b5090565b604051806101c0016040528060008152602001600073ffffffffffffffffffffffffffffffffffffffff1681526020016060815260200160008152602001606081526020016060815260200160608152602001606081526020016060815260200160608152602001606081526020016060815260200160608152602001606081525090565b5b8082111561452657600081600090555060010161450e565b5090565b600073ffffffffffffffffffffffffffffffffffffffff82169050919050565b60006145558261452a565b9050919050565b6145658161454a565b82525050565b6000819050919050565b61457e8161456b565b82525050565b6000604082019050614599600083018561455c565b6145a66020830184614575565b9392505050565b6000604051905090565b600080fd5b600080fd5b6145ca8161456b565b81146145d557600080fd5b50565b6000813590506145e7816145c1565b92915050565b60008060408385031215614604576146036145b7565b5b6000614612858286016145d8565b9250506020614623858286016145d8565b9150509250929050565b60008115159050919050565b6146428161462d565b82525050565b600060208201905061465d6000830184614639565b92915050565b61466c8161454a565b811461467757600080fd5b50565b60008135905061468981614663565b92915050565b600080604083850312156146a6576146a56145b7565b5b60006146b4858286016145d8565b92505060206146c58582860161467a565b9150509250929050565b600080fd5b6000601f19601f8301169050919050565b7f4e487b7100000000000000000000000000000000000000000000000000000000600052604160045260246000fd5b61471d826146d4565b810181811067ffffffffffffffff8211171561473c5761473b6146e5565b5b80604052505050565b600061474f6145ad565b905061475b8282614714565b919050565b600080fd5b600080fd5b600080fd5b600067ffffffffffffffff82111561478a576147896146e5565b5b614793826146d4565b9050602081019050919050565b82818337600083830152505050565b60006147c26147bd8461476f565b614745565b9050828152602081018484840111156147de576147dd61476a565b5b6147e98482856147a0565b509392505050565b600082601f83011261480657614805614765565b5b81356148168482602086016147af565b91505092915050565b600067ffffffffffffffff82111561483a576148396146e5565b5b602082029050602081019050919050565b600080fd5b600061486361485e8461481f565b614745565b905080838252602082019050602084028301858111156148865761488561484b565b5b835b818110156148af578061489b888261467a565b845260208401935050602081019050614888565b5050509392505050565b600082601f8301126148ce576148cd614765565b5b81356148de848260208601614850565b91505092915050565b60006101c082840312156148fe576148fd6146cf565b5b6149096101c0614745565b90506000614919848285016145d8565b600083015250602061492d8482850161467a565b602083015250604082013567ffffffffffffffff81111561495157614950614760565b5b61495d848285016147f1565b6040830152506060614971848285016145d8565b606083015250608082013567ffffffffffffffff81111561499557614994614760565b5b6149a1848285016147f1565b60808301525060a082013567ffffffffffffffff8111156149c5576149c4614760565b5b6149d1848285016147f1565b60a08301525060c082013567ffffffffffffffff8111156149f5576149f4614760565b5b614a01848285016147f1565b60c08301525060e082013567ffffffffffffffff811115614a2557614a24614760565b5b614a31848285016147f1565b60e08301525061010082013567ffffffffffffffff811115614a5657614a55614760565b5b614a62848285016147f1565b6101008301525061012082013567ffffffffffffffff811115614a8857614a87614760565b5b614a94848285016147f1565b6101208301525061014082013567ffffffffffffffff811115614aba57614ab9614760565b5b614ac6848285016147f1565b6101408301525061016082013567ffffffffffffffff811115614aec57614aeb614760565b5b614af8848285016147f1565b6101608301525061018082013567ffffffffffffffff811115614b1e57614b1d614760565b5b614b2a848285016147f1565b610180830152506101a082013567ffffffffffffffff811115614b5057614b4f614760565b5b614b5c848285016148b9565b6101a08301525092915050565b60008060408385031215614b8057614b7f6145b7565b5b6000614b8e858286016145d8565b925050602083013567ffffffffffffffff811115614baf57614bae6145bc565b5b614bbb858286016148e7565b9150509250929050565b6000602082019050614bda6000830184614575565b92915050565b60008060408385031215614bf757614bf66145b7565b5b6000614c058582860161467a565b9250506020614c16858286016145d8565b9150509250929050565b600060208284031215614c3657614c356145b7565b5b6000614c44848285016145d8565b91505092915050565b600080600060608486031215614c6657614c656145b7565b5b600084013567ffffffffffffffff811115614c8457614c836145bc565b5b614c90868287016147f1565b935050602084013567ffffffffffffffff811115614cb157614cb06145bc565b5b614cbd868287016148b9565b9250506040614cce868287016145d8565b9150509250925092565b600060208284031215614cee57614ced6145b7565b5b6000614cfc8482850161467a565b91505092915050565b614d0e8161456b565b82525050565b600081519050919050565b600082825260208201905092915050565b60005b83811015614d4e578082015181840152602081019050614d33565b83811115614d5d576000848401525b50505050565b6000614d6e82614d14565b614d788185614d1f565b9350614d88818560208601614d30565b614d91816146d4565b840191505092915050565b600081519050919050565b600082825260208201905092915050565b6000819050602082019050919050565b614dd18161454a565b82525050565b6000614de38383614dc8565b60208301905092915050565b6000602082019050919050565b6000614e0782614d9c565b614e118185614da7565b9350614e1c83614db8565b8060005b83811015614e4d578151614e348882614dd7565b9750614e3f83614def565b925050600181019050614e20565b5085935050505092915050565b600060c083016000830151614e726000860182614d05565b5060208301518482036020860152614e8a8282614d63565b91505060408301518482036040860152614ea48282614dfc565b9150506060830151614eb96060860182614d05565b5060808301518482036080860152614ed18282614dfc565b91505060a083015184820360a0860152614eeb8282614dfc565b9150508091505092915050565b60006020820190508181036000830152614f128184614e5a565b905092915050565b600060408284031215614f3057614f2f6146cf565b5b614f3a6040614745565b90506000614f4a848285016145d8565b600083015250602082013567ffffffffffffffff811115614f6e57614f6d614760565b5b614f7a848285016147f1565b60208301525092915050565b600067ffffffffffffffff821115614fa157614fa06146e5565b5b602082029050602081019050919050565b6000614fc5614fc084614f86565b614745565b90508083825260208201905060208402830185811115614fe857614fe761484b565b5b835b8181101561502f57803567ffffffffffffffff81111561500d5761500c614765565b5b80860161501a89826148e7565b85526020850194505050602081019050614fea565b5050509392505050565b600082601f83011261504e5761504d614765565b5b813561505e848260208601614fb2565b91505092915050565b6000806000606084860312156150805761507f6145b7565b5b600061508e868287016145d8565b935050602084013567ffffffffffffffff8111156150af576150ae6145bc565b5b6150bb86828701614f1a565b925050604084013567ffffffffffffffff8111156150dc576150db6145bc565b5b6150e886828701615039565b9150509250925092565b7f4e487b7100000000000000000000000000000000000000000000000000000000600052603260045260246000fd5b7f4e487b7100000000000000000000000000000000000000000000000000000000600052601160045260246000fd5b600061515b8261456b565b91507fffffffffffffffffffffffffffffffffffffffffffffffffffffffffffffffff82141561518e5761518d615121565b5b600182019050919050565b600082825260208201905092915050565b60006151b582614d14565b6151bf8185615199565b93506151cf818560208601614d30565b6151d8816146d4565b840191505092915050565b60006080820190506151f8600083018761455c565b6152056020830186614575565b818103604083015261521781856151aa565b90506152266060830184614575565b95945050505050565b7f4e487b7100000000000000000000000000000000000000000000000000000000600052602260045260246000fd5b6000600282049050600182168061527657607f821691505b6020821081141561528a5761528961522f565b5b50919050565b60008190508160005260206000209050919050565b600081546152b28161525e565b6152bc8186615199565b945060018216600081146152d757600181146152e95761531c565b60ff198316865260208601935061531c565b6152f285615290565b60005b83811015615314578154818901526001820191506020810190506152f5565b808801955050505b50505092915050565b600081549050919050565b600082825260208201905092915050565b60008190508160005260206000209050919050565b60008160001c9050919050565b600073ffffffffffffffffffffffffffffffffffffffff82169050919050565b600061539661539183615356565b615363565b9050919050565b60006153a98254615383565b9050919050565b6000600182019050919050565b60006153c882615325565b6153d28185615330565b93506153dd83615341565b8060005b83811015615415576153f28261539d565b6153fc8882614dd7565b9750615407836153b0565b9250506001810190506153e1565b5085935050505092915050565b60006080820190506154376000830187614575565b818103602083015261544981866152a5565b9050818103604083015261545d81856153bd565b905061546c6060830184614575565b95945050505050565b600061548082614d9c565b61548a8185615330565b935061549583614db8565b8060005b838110156154c65781516154ad8882614dd7565b97506154b883614def565b925050600181019050615499565b5085935050505092915050565b600060a0820190506154e8600083018861455c565b6154f56020830187614575565b818103604083015261550781866151aa565b9050818103606083015261551b8185615475565b905061552a6080830184614575565b9695505050505050565b6000606082019050615549600083018661455c565b6155566020830185614575565b818103604083015261556881846152a5565b9050949350505050565b600081519050919050565b600082825260208201905092915050565b6000819050602082019050919050565b60006101c0830160008301516155b76000860182614d05565b5060208301516155ca6020860182614dc8565b50604083015184820360408601526155e28282614d63565b91505060608301516155f76060860182614d05565b506080830151848203608086015261560f8282614d63565b91505060a083015184820360a08601526156298282614d63565b91505060c083015184820360c08601526156438282614d63565b91505060e083015184820360e086015261565d8282614d63565b9150506101008301518482036101008601526156798282614d63565b9150506101208301518482036101208601526156958282614d63565b9150506101408301518482036101408601526156b18282614d63565b9150506101608301518482036101608601526156cd8282614d63565b9150506101808301518482036101808601526156e98282614d63565b9150506101a08301518482036101a08601526157058282614dfc565b9150508091505092915050565b600061571e838361559e565b905092915050565b6000602082019050919050565b600061573e82615572565b615748818561557d565b93508360208202850161575a8561558e565b8060005b8581101561579657848403895281516157778582615712565b945061578283615726565b925060208a0199505060018101905061575e565b50829750879550505050505092915050565b600060a0820190506157bd600083018861455c565b6157ca6020830187614575565b6157d76040830186614575565b81810360608301526157e981856151aa565b905081810360808301526157fd8184615733565b90509695505050505050565b60006101c0830160008301516158226000860182614d05565b5060208301516158356020860182614dc8565b506040830151848203604086015261584d8282614d63565b91505060608301516158626060860182614d05565b506080830151848203608086015261587a8282614d63565b91505060a083015184820360a08601526158948282614d63565b91505060c083015184820360c08601526158ae8282614d63565b91505060e083015184820360e08601526158c88282614d63565b9150506101008301518482036101008601526158e48282614d63565b9150506101208301518482036101208601526159008282614d63565b91505061014083015184820361014086015261591c8282614d63565b9150506101608301518482036101608601526159388282614d63565b9150506101808301518482036101808601526159548282614d63565b9150506101a08301518482036101a08601526159708282614dfc565b9150508091505092915050565b600060208201905081810360008301526159978184615809565b905092915050565b60006060820190506159b46000830186614575565b81810360208301526159c681856151aa565b90506159d56040830184614575565b949350505050565b600060208201905081810360008301526159f78184615733565b905092915050565b600081549050919050565b600082825260208201905092915050565b60008190508160005260206000209050919050565b6000615a3c8383614d05565b60208301905092915050565b6000819050919050565b6000615a65615a6083615356565b615a48565b9050919050565b6000615a788254615a52565b9050919050565b6000600182019050919050565b6000615a97826159ff565b615aa18185615a0a565b9350615aac83615a1b565b8060005b83811015615ae457615ac182615a6c565b615acb8882615a30565b9750615ad683615a7f565b925050600181019050615ab0565b5085935050505092915050565b6000606082019050615b066000830186614575565b8181036020830152615b1881856152a5565b90508181036040830152615b2c8184615a8c565b905094935050505056fea264697066735822122067d71b205f14fb4ec9b8cd7cceafa69373513b74d99607727acabe30056b304764736f6c634300080a0033",
  "immutableReferences": {},
  "source": "// SPDX-License-Identifier: MIT\r\npragma solidity >=0.4.22 <0.9.0;\r\n\r\n\r\nstruct Cert {\r\n    uint id;\r\n    address schoolId;\r\n    string regNo;\r\n    uint batchId;\r\n    string conferredOn;\r\n    string dateOfBirth;\r\n    string yearOfGraduation;\r\n    string majorIn;\r\n    string degreeOf;\r\n    string degreeClassification;\r\n    string modeOfStudy;\r\n    string createdIn;\r\n    string createdAt;\r\n    address[] issuers;\r\n}\r\n\r\ninterface Certs {\r\n    function addCert(Cert memory _cert) external;\r\n    function addCerts(Cert[] memory _certs) external;\r\n}\r\n\r\ncontract MultiSigWallet {\r\n\r\n    struct Group {\r\n        uint id;\r\n        string name;\r\n        address[] members;\r\n        uint threshold;\r\n        address[] confirmedBy;\r\n        address[] rejectedBy;\r\n    }\r\n\r\n    struct Batch {\r\n        uint id;\r\n        string name;\r\n    }\r\n\r\n    Certs holder;\r\n    string schoolName;\r\n    address[] members;\r\n    uint threshold;\r\n\r\n    mapping(uint => Group) groups;\r\n\r\n    mapping(uint => Batch) batches; // batchId => batchName\r\n    mapping(uint => Cert) certs; // certId => cert\r\n    mapping(uint => bool) certExecuted; // certId => executed\r\n    mapping(uint => mapping(uint => mapping(address => bool))) certConfirmed; // groupId => certId => member => confirmed\r\n\r\n    mapping(uint => uint[]) batchCerts; // batchId => [certIds]\r\n    mapping(uint => bool) batchExecuted; // batchId => executed\r\n    mapping(uint => mapping(uint => mapping(address => bool))) batchConfirmed; // groupId => batchId => member => confirmed\r\n\r\n    uint certCount = 0;\r\n    uint batchCount = 0;\r\n    uint groupCount = 0;\r\n\r\n    function isMember(address _member) public view returns (bool) {\r\n        for (uint i = 0; i < members.length; i++) {\r\n            if (members[i] == _member) {\r\n                return true;\r\n            }\r\n        }\r\n        return false;\r\n    }\r\n\r\n    function isMemberOfGroup(address _member, uint _groupId) public view returns (bool) {\r\n        if (groups[_groupId].members.length == 0) {\r\n            return false;\r\n        }\r\n        for (uint i = 0; i < groups[_groupId].members.length; i++) {\r\n            if (groups[_groupId].members[i] == _member) {\r\n                return true;\r\n            }\r\n        }\r\n        return false;\r\n    }\r\n\r\n    modifier onlyMembers {\r\n        require(isMember(msg.sender));\r\n        _;\r\n    }\r\n\r\n    modifier onlyGroup(uint _groupId) {\r\n        require(isGroupRejected(_groupId) == false);\r\n        require(isGroupConfirmed(_groupId));\r\n        require(isMemberOfGroup(msg.sender, _groupId));\r\n        _;\r\n    }\r\n\r\n    event WalletActivated(\r\n        string schoolName,\r\n        address[] members,\r\n        uint threshold,\r\n        address certsAddress\r\n    );\r\n\r\n    event GroupPending(\r\n        address creator,\r\n        uint groupId,\r\n        string name,\r\n        address[] members,\r\n        uint threshold\r\n    );\r\n\r\n    event GroupConfirmed(\r\n        address confirmer,\r\n        uint groupId\r\n    );\r\n\r\n    event GroupRejected(\r\n        address rejecter,\r\n        uint groupId\r\n    );\r\n\r\n    event GroupAdded(\r\n        uint groupId,\r\n        string name,\r\n        address[] members,\r\n        uint threshold\r\n    );\r\n\r\n    event GroupRemoved(\r\n        uint groupId\r\n    );\r\n\r\n    event CertPending(\r\n        address creator,\r\n        uint certId,\r\n        string regNo,\r\n        uint batchId\r\n    );\r\n\r\n    event CertConfirmed(\r\n        address confirmer,\r\n        uint certId,\r\n        string regNo,\r\n        uint batchId\r\n    );\r\n\r\n    event CertRejected(\r\n        address rejecter,\r\n        uint certId,\r\n        string regNo,\r\n        uint batchId\r\n    );\r\n\r\n    event CertAdded(\r\n        uint certId,\r\n        string regNo,\r\n        uint batchId\r\n    );\r\n\r\n    event CertRemoved(\r\n        uint certId\r\n    );\r\n\r\n    event BatchPending(\r\n        address creator,\r\n        uint groupId,\r\n        uint batchId,\r\n        string regNo,\r\n        Cert[] certs\r\n    );\r\n\r\n    event BatchConfirmed(\r\n        address confirmer,\r\n        uint batchId,\r\n        string regNo\r\n    );\r\n\r\n    event BatchRejected(\r\n        address rejecter,\r\n        uint batchId,\r\n        string regNo\r\n    );\r\n\r\n    event BatchAdded(\r\n        uint batchId,\r\n        string regNo,\r\n        uint[] certIds\r\n    );\r\n\r\n    event BatchRemoved(\r\n        uint batchId\r\n    );\r\n\r\n    event Deposit(address from, uint value);\r\n\r\n    fallback() external payable {\r\n        if (msg.value > 0) {\r\n            emit Deposit(msg.sender, msg.value);\r\n        }\r\n    }\r\n\r\n    receive() external payable {\r\n        if (msg.value > 0) {\r\n            emit Deposit(msg.sender, msg.value);\r\n        }\r\n    }\r\n\r\n    constructor(string memory _name, address[] memory _members, uint _threshold, address _address) {\r\n        require(_members.length > 0);\r\n        require(_threshold > 0);\r\n        require(_threshold <= _members.length);\r\n        schoolName = _name;\r\n        members = _members;\r\n        threshold = _threshold;\r\n        holder = Certs(_address);\r\n        emit WalletActivated(_name, _members, _threshold, _address);\r\n    }\r\n\r\n    function isGroupConfirmedBy(uint _groupId, address _member) public view returns (bool) {\r\n        for (uint i = 0; i < groups[_groupId].confirmedBy.length; i++) {\r\n            if (groups[_groupId].confirmedBy[i] == _member) {\r\n                return true;\r\n            }\r\n        }\r\n        return false;\r\n    }\r\n\r\n    function isGroupRejectedBy(uint _groupId, address _member) public view returns (bool) {\r\n        for (uint i = 0; i < groups[_groupId].rejectedBy.length; i++) {\r\n            if (groups[_groupId].rejectedBy[i] == _member) {\r\n                return true;\r\n            }\r\n        }\r\n        return false;\r\n    }\r\n\r\n    function isGroupConfirmed(uint _groupId) private view returns (bool) {\r\n        uint confirmedCount = 0;\r\n        for (uint i = 0; i < groups[_groupId].confirmedBy.length; i++) {\r\n            if (groups[_groupId].confirmedBy[i] != address(0)) {\r\n                confirmedCount++;\r\n            }\r\n        }\r\n        return confirmedCount >= threshold;\r\n    }\r\n\r\n    function isGroupRejected(uint _groupId) private view returns (bool) {\r\n        uint rejectedCount = 0;\r\n        for (uint i = 0; i < groups[_groupId].rejectedBy.length; i++) {\r\n            if (groups[_groupId].rejectedBy[i] != address(0)) {\r\n                rejectedCount++;\r\n            }\r\n        }\r\n        return rejectedCount >= threshold;\r\n    }\r\n\r\n    function addGroup(string memory _name, address[] memory _members, uint _threshold) onlyMembers public returns (uint) {\r\n        require(_members.length > 0);\r\n        require(_threshold > 0);\r\n        require(_threshold <= _members.length);\r\n        uint groupId = groupCount++;\r\n        Group memory group = Group({\r\n            id: groupId,\r\n            name: _name,\r\n            members: _members,\r\n            threshold: _threshold,\r\n            confirmedBy: new address[](members.length),\r\n            rejectedBy: new address[](members.length)\r\n        });\r\n        group.confirmedBy[0] = msg.sender;\r\n        groups[groupId] = group;\r\n        emit GroupPending(msg.sender, groupId, _name, _members, _threshold);\r\n        emit GroupConfirmed(msg.sender, groupId);\r\n        return groupId;\r\n    }\r\n\r\n    function confirmGroup(uint _groupId) onlyMembers public {\r\n        require(isGroupRejected(_groupId) == false);\r\n        require(isGroupConfirmed(_groupId) == false);\r\n        require(isGroupRejectedBy(_groupId, msg.sender) == false);\r\n        address[] memory groupConfirmers = groups[_groupId].confirmedBy;\r\n        uint confirmerCount = 0;\r\n        for (uint i = 0; i < groupConfirmers.length; i++) {\r\n            if (groupConfirmers[i] == msg.sender) {\r\n                require(false);\r\n            }\r\n            if (groupConfirmers[i] != address(0)) {\r\n                confirmerCount++;\r\n            }\r\n        }\r\n        groups[_groupId].confirmedBy[confirmerCount] = msg.sender;\r\n        emit GroupConfirmed(msg.sender, _groupId);\r\n        if (isGroupConfirmed(_groupId)) {\r\n            emit GroupAdded(\r\n                _groupId,\r\n                groups[_groupId].name,\r\n                groups[_groupId].members,\r\n                groups[_groupId].threshold\r\n            );\r\n        }\r\n    }\r\n\r\n    function rejectGroup(uint _groupId) onlyMembers public {\r\n        require(isGroupConfirmed(_groupId) == false);\r\n        require(isGroupRejected(_groupId) == false);\r\n        require(isGroupConfirmedBy(_groupId, msg.sender) == false);\r\n        address[] memory groupRejecters = groups[_groupId].rejectedBy;\r\n        uint rejecterCount = 0;\r\n        for (uint i = 0; i < groupRejecters.length; i++) {\r\n            if (groupRejecters[i] == msg.sender) {\r\n                require(false);\r\n            }\r\n            if (groupRejecters[i] != address(0)) {\r\n                rejecterCount++;\r\n            }\r\n        }\r\n        groups[_groupId].rejectedBy[rejecterCount] = msg.sender;\r\n        emit GroupRejected(msg.sender, _groupId);\r\n        if (isGroupRejected(_groupId)) {\r\n            emit GroupRemoved(_groupId);\r\n        }\r\n    }\r\n\r\n    function getGroup(uint _groupId) public view returns (Group memory) {\r\n        return groups[_groupId];\r\n    }\r\n\r\n    function getCertConfirmers(uint _groupId, uint _certId) private view returns (address[] memory) {\r\n        address[] memory confirmers;\r\n        uint count = 0;\r\n        for (uint i = 0; i < members.length; i++) {\r\n            if (certConfirmed[_groupId][_certId][members[i]]) {\r\n                confirmers[count] = members[i];\r\n                count++;\r\n            }\r\n        }\r\n        return confirmers;\r\n    }\r\n\r\n    function getBatchConfirmers(uint _groupId, uint _batchId) private view returns (address[] memory) {\r\n        address[] memory confirmers;\r\n        uint count = 0;\r\n        for (uint i = 0; i < members.length; i++) {\r\n            if (batchConfirmed[_groupId][_batchId][members[i]]) {\r\n                confirmers[count] = members[i];\r\n                count++;\r\n            }\r\n        }\r\n        return confirmers;\r\n    }\r\n\r\n    function isCertConfirmed(uint _groupId, uint _certId) public view returns (bool) {\r\n        address[] memory confirmers = getCertConfirmers(_groupId, _certId);\r\n        uint count = confirmers.length;\r\n        return count >= groups[_groupId].threshold;\r\n    }\r\n\r\n    function isBatchConfirmed(uint _groupId, uint _batchId) public view returns (bool) {\r\n        address[] memory confirmers = getBatchConfirmers(_groupId, _batchId);\r\n        uint count = confirmers.length;\r\n        return count >= groups[_groupId].threshold;\r\n    }\r\n\r\n    function submitCert(uint _groupId, Cert memory _cert) onlyGroup(_groupId) public returns (uint) {\r\n        _cert.id = certCount++;\r\n        certs[_cert.id] = _cert;\r\n        emit CertPending(\r\n            msg.sender,\r\n            _cert.id,\r\n            _cert.regNo,\r\n            _cert.batchId\r\n        );\r\n        confirmCert(_groupId, _cert.id);\r\n        return _cert.id;\r\n    }\r\n\r\n    function submitBatch(uint _groupId, Batch memory _batch, Cert[] memory _certs) onlyGroup(_groupId) public returns (uint) {\r\n        uint batchId = batchCount++;\r\n        _batch.id = batchId;\r\n        batches[batchId] = _batch;\r\n        batchCerts[batchId] = new uint[](_certs.length);\r\n        for (uint i = 0; i < _certs.length; i++) {\r\n            _certs[i].id = certCount++;\r\n            uint certId = _certs[i].id;\r\n            certs[certId] = _certs[i];\r\n            batchCerts[batchId][i] = certId;\r\n        }\r\n        emit BatchPending(\r\n            msg.sender,\r\n            _groupId,\r\n            batchId,\r\n            _batch.name,\r\n            _certs\r\n        );\r\n        confirmBatch(_groupId, batchId);\r\n        return batchId;\r\n    }\r\n\r\n    function confirmCert(uint _groupId, uint _certId) onlyGroup(_groupId) public {\r\n        require(certConfirmed[_groupId][_certId][msg.sender] == false);\r\n        certConfirmed[_groupId][_certId][msg.sender] = true;\r\n        Cert memory cert = certs[_certId];\r\n        emit CertConfirmed(msg.sender, _certId, cert.regNo, cert.batchId);\r\n        executeCert(_groupId, _certId);\r\n    }\r\n\r\n    function confirmBatch(uint _groupId, uint _batchId) onlyGroup(_groupId) public {\r\n        require(batchConfirmed[_groupId][_batchId][msg.sender] == false);\r\n        batchConfirmed[_groupId][_batchId][msg.sender] = true;\r\n        for (uint i = 0; i < batchCerts[_batchId].length; i++) {\r\n            uint certId = batchCerts[_batchId][i];\r\n            certConfirmed[_groupId][certId][msg.sender] = true;\r\n            Cert memory cert = certs[certId];\r\n            emit CertConfirmed(msg.sender, certId, cert.regNo, cert.batchId);\r\n        }\r\n        emit BatchConfirmed(msg.sender, _batchId, batches[_batchId].name);\r\n        executeBatch(_groupId, _batchId);\r\n    }\r\n\r\n    function executeCert(uint _groupId, uint _certId) onlyGroup(_groupId) private {\r\n        require(certExecuted[_certId] == false);\r\n        require(isCertConfirmed(_groupId, _certId));\r\n        certs[_certId].issuers = getCertConfirmers(_groupId, _certId);\r\n        Cert memory cert = certs[_certId];\r\n        holder.addCert(cert);\r\n        certExecuted[_certId] = true;\r\n        emit CertAdded(\r\n            cert.id,\r\n            cert.regNo,\r\n            cert.batchId\r\n        );\r\n    }\r\n\r\n    function executeBatch(uint _groupId, uint _batchId) onlyGroup(_groupId) private {\r\n        require(batchExecuted[_batchId] == false);\r\n        require(isBatchConfirmed(_groupId, _batchId));\r\n        address[] memory confirmers = getBatchConfirmers(_groupId, _batchId);\r\n        uint currentCertCount = batchCerts[_batchId].length;\r\n        Cert[] memory currentCerts = new Cert[](currentCertCount);\r\n        for (uint i = 0; i < currentCertCount; i++) {\r\n            uint certId = batchCerts[_batchId][i];\r\n            certs[certId].issuers = confirmers;\r\n            currentCerts[i] = certs[certId];\r\n        }\r\n        holder.addCerts(currentCerts);\r\n        batchExecuted[_batchId] = true;\r\n        for (uint i = 0; i < currentCertCount; i++) {\r\n            Cert memory cert = currentCerts[i];\r\n            emit CertAdded(\r\n                cert.id,\r\n                cert.regNo,\r\n                cert.batchId\r\n            );\r\n        }\r\n        emit BatchAdded(\r\n            _batchId,\r\n            batches[_batchId].name,\r\n            batchCerts[_batchId]\r\n        );\r\n    }\r\n}",
  "sourcePath": "/home/vi/code/dcerts-manager/issuer-wallet/contracts/MultiSigWallet.sol",
  "compiler": {
    "name": "solc",
    "version": "0.8.10+commit.fc410830.Emscripten.clang"
  },
  "schemaVersion": "3.4.3",
  "updatedAt": "2022-02-02T10:28:51.945Z",
  "networkType": "ethereum",
  "devdoc": {
    "kind": "dev",
    "methods": {},
    "version": 1
  },
  "userdoc": {
    "kind": "user",
    "methods": {},
    "version": 1
  }
}