{
  "contractName": "MultiSigWallet",
  "abi": [
    {
      "inputs": [
        {
          "internalType": "string",
          "name": "_name",
          "type": "string"
        },
        {
          "internalType": "address[]",
          "name": "_members",
          "type": "address[]"
        },
        {
          "internalType": "uint256",
          "name": "_threshold",
          "type": "uint256"
        },
        {
          "internalType": "address",
          "name": "_address",
          "type": "address"
        }
      ],
      "stateMutability": "nonpayable",
      "type": "constructor"
    },
    {
      "anonymous": false,
      "inputs": [
        {
          "indexed": false,
          "internalType": "uint256",
          "name": "batchId",
          "type": "uint256"
        },
        {
          "indexed": false,
          "internalType": "uint256[]",
          "name": "certIds",
          "type": "uint256[]"
        }
      ],
      "name": "BatchAdded",
      "type": "event"
    },
    {
      "anonymous": false,
      "inputs": [
        {
          "indexed": false,
          "internalType": "address",
          "name": "confirmer",
          "type": "address"
        },
        {
          "indexed": false,
          "internalType": "uint256",
          "name": "batchId",
          "type": "uint256"
        }
      ],
      "name": "BatchConfirmed",
      "type": "event"
    },
    {
      "anonymous": false,
      "inputs": [
        {
          "indexed": false,
          "internalType": "address",
          "name": "creator",
          "type": "address"
        },
        {
          "indexed": false,
          "internalType": "uint256",
          "name": "batchId",
          "type": "uint256"
        },
        {
          "indexed": false,
          "internalType": "uint256[]",
          "name": "certIds",
          "type": "uint256[]"
        }
      ],
      "name": "BatchPending",
      "type": "event"
    },
    {
      "anonymous": false,
      "inputs": [
        {
          "indexed": false,
          "internalType": "uint256",
          "name": "certId",
          "type": "uint256"
        },
        {
          "indexed": false,
          "internalType": "address",
          "name": "schoolId",
          "type": "address"
        },
        {
          "indexed": false,
          "internalType": "string",
          "name": "studentId",
          "type": "string"
        },
        {
          "indexed": false,
          "internalType": "string",
          "name": "subjectId",
          "type": "string"
        },
        {
          "indexed": false,
          "internalType": "string",
          "name": "semester",
          "type": "string"
        },
        {
          "indexed": false,
          "internalType": "string",
          "name": "grade",
          "type": "string"
        },
        {
          "indexed": false,
          "internalType": "string",
          "name": "gradeType",
          "type": "string"
        },
        {
          "indexed": false,
          "internalType": "uint256",
          "name": "batchId",
          "type": "uint256"
        }
      ],
      "name": "CertAdded",
      "type": "event"
    },
    {
      "anonymous": false,
      "inputs": [
        {
          "indexed": false,
          "internalType": "address",
          "name": "confirmer",
          "type": "address"
        },
        {
          "indexed": false,
          "internalType": "uint256",
          "name": "certId",
          "type": "uint256"
        }
      ],
      "name": "CertConfirmed",
      "type": "event"
    },
    {
      "anonymous": false,
      "inputs": [
        {
          "indexed": false,
          "internalType": "address",
          "name": "creator",
          "type": "address"
        },
        {
          "indexed": false,
          "internalType": "uint256",
          "name": "certId",
          "type": "uint256"
        },
        {
          "indexed": false,
          "internalType": "address",
          "name": "schoolId",
          "type": "address"
        },
        {
          "indexed": false,
          "internalType": "string",
          "name": "studentId",
          "type": "string"
        },
        {
          "indexed": false,
          "internalType": "string",
          "name": "subjectId",
          "type": "string"
        },
        {
          "indexed": false,
          "internalType": "string",
          "name": "semester",
          "type": "string"
        },
        {
          "indexed": false,
          "internalType": "string",
          "name": "grade",
          "type": "string"
        },
        {
          "indexed": false,
          "internalType": "string",
          "name": "gradeType",
          "type": "string"
        },
        {
          "indexed": false,
          "internalType": "uint256",
          "name": "batchId",
          "type": "uint256"
        }
      ],
      "name": "CertPending",
      "type": "event"
    },
    {
      "anonymous": false,
      "inputs": [
        {
          "indexed": false,
          "internalType": "address",
          "name": "from",
          "type": "address"
        },
        {
          "indexed": false,
          "internalType": "uint256",
          "name": "value",
          "type": "uint256"
        }
      ],
      "name": "Deposit",
      "type": "event"
    },
    {
      "anonymous": false,
      "inputs": [
        {
          "indexed": false,
          "internalType": "uint256",
          "name": "groupId",
          "type": "uint256"
        },
        {
          "indexed": false,
          "internalType": "string",
          "name": "name",
          "type": "string"
        },
        {
          "indexed": false,
          "internalType": "address[]",
          "name": "members",
          "type": "address[]"
        },
        {
          "indexed": false,
          "internalType": "uint256",
          "name": "threshold",
          "type": "uint256"
        }
      ],
      "name": "GroupAdded",
      "type": "event"
    },
    {
      "anonymous": false,
      "inputs": [
        {
          "indexed": false,
          "internalType": "address",
          "name": "confirmer",
          "type": "address"
        },
        {
          "indexed": false,
          "internalType": "uint256",
          "name": "groupId",
          "type": "uint256"
        }
      ],
      "name": "GroupConfirmed",
      "type": "event"
    },
    {
      "anonymous": false,
      "inputs": [
        {
          "indexed": false,
          "internalType": "address",
          "name": "creator",
          "type": "address"
        },
        {
          "indexed": false,
          "internalType": "uint256",
          "name": "groupId",
          "type": "uint256"
        },
        {
          "indexed": false,
          "internalType": "string",
          "name": "name",
          "type": "string"
        },
        {
          "indexed": false,
          "internalType": "address[]",
          "name": "members",
          "type": "address[]"
        },
        {
          "indexed": false,
          "internalType": "uint256",
          "name": "threshold",
          "type": "uint256"
        }
      ],
      "name": "GroupPending",
      "type": "event"
    },
    {
      "anonymous": false,
      "inputs": [
        {
          "indexed": false,
          "internalType": "string",
          "name": "schoolName",
          "type": "string"
        },
        {
          "indexed": false,
          "internalType": "address[]",
          "name": "members",
          "type": "address[]"
        },
        {
          "indexed": false,
          "internalType": "uint256",
          "name": "threshold",
          "type": "uint256"
        },
        {
          "indexed": false,
          "internalType": "address",
          "name": "certsAddress",
          "type": "address"
        }
      ],
      "name": "WalletActivated",
      "type": "event"
    },
    {
      "stateMutability": "payable",
      "type": "fallback",
      "payable": true
    },
    {
      "stateMutability": "payable",
      "type": "receive",
      "payable": true
    },
    {
      "inputs": [
        {
          "internalType": "address",
          "name": "_member",
          "type": "address"
        }
      ],
      "name": "isMember",
      "outputs": [
        {
          "internalType": "bool",
          "name": "",
          "type": "bool"
        }
      ],
      "stateMutability": "view",
      "type": "function",
      "constant": true
    },
    {
      "inputs": [
        {
          "internalType": "address",
          "name": "_member",
          "type": "address"
        },
        {
          "internalType": "uint256",
          "name": "_groupId",
          "type": "uint256"
        }
      ],
      "name": "isMemberOfGroup",
      "outputs": [
        {
          "internalType": "bool",
          "name": "",
          "type": "bool"
        }
      ],
      "stateMutability": "view",
      "type": "function",
      "constant": true
    },
    {
      "inputs": [
        {
          "internalType": "string",
          "name": "_name",
          "type": "string"
        },
        {
          "internalType": "address[]",
          "name": "_members",
          "type": "address[]"
        },
        {
          "internalType": "uint256",
          "name": "_threshold",
          "type": "uint256"
        }
      ],
      "name": "addGroup",
      "outputs": [
        {
          "internalType": "uint256",
          "name": "",
          "type": "uint256"
        }
      ],
      "stateMutability": "nonpayable",
      "type": "function"
    },
    {
      "inputs": [
        {
          "internalType": "uint256",
          "name": "_groupId",
          "type": "uint256"
        }
      ],
      "name": "confirmGroup",
      "outputs": [],
      "stateMutability": "nonpayable",
      "type": "function"
    },
    {
      "inputs": [
        {
          "internalType": "uint256",
          "name": "_groupId",
          "type": "uint256"
        }
      ],
      "name": "getGroup",
      "outputs": [
        {
          "components": [
            {
              "internalType": "uint256",
              "name": "id",
              "type": "uint256"
            },
            {
              "internalType": "string",
              "name": "name",
              "type": "string"
            },
            {
              "internalType": "address[]",
              "name": "members",
              "type": "address[]"
            },
            {
              "internalType": "uint256",
              "name": "threshold",
              "type": "uint256"
            },
            {
              "internalType": "address[]",
              "name": "confirmedBy",
              "type": "address[]"
            }
          ],
          "internalType": "struct MultiSigWallet.Group",
          "name": "",
          "type": "tuple"
        }
      ],
      "stateMutability": "view",
      "type": "function",
      "constant": true
    },
    {
      "inputs": [
        {
          "internalType": "uint256",
          "name": "_groupId",
          "type": "uint256"
        },
        {
          "internalType": "uint256",
          "name": "_certId",
          "type": "uint256"
        }
      ],
      "name": "isCertConfirmed",
      "outputs": [
        {
          "internalType": "bool",
          "name": "",
          "type": "bool"
        }
      ],
      "stateMutability": "view",
      "type": "function",
      "constant": true
    },
    {
      "inputs": [
        {
          "internalType": "uint256",
          "name": "_groupId",
          "type": "uint256"
        },
        {
          "internalType": "uint256",
          "name": "_batchId",
          "type": "uint256"
        }
      ],
      "name": "isBatchConfirmed",
      "outputs": [
        {
          "internalType": "bool",
          "name": "",
          "type": "bool"
        }
      ],
      "stateMutability": "view",
      "type": "function",
      "constant": true
    },
    {
      "inputs": [
        {
          "internalType": "uint256",
          "name": "_groupId",
          "type": "uint256"
        },
        {
          "components": [
            {
              "internalType": "uint256",
              "name": "id",
              "type": "uint256"
            },
            {
              "internalType": "address",
              "name": "schoolId",
              "type": "address"
            },
            {
              "internalType": "string",
              "name": "studentId",
              "type": "string"
            },
            {
              "internalType": "string",
              "name": "subjectId",
              "type": "string"
            },
            {
              "internalType": "address[]",
              "name": "issuers",
              "type": "address[]"
            },
            {
              "internalType": "string",
              "name": "semester",
              "type": "string"
            },
            {
              "internalType": "string",
              "name": "grade",
              "type": "string"
            },
            {
              "internalType": "string",
              "name": "gradeType",
              "type": "string"
            },
            {
              "internalType": "uint256",
              "name": "batchId",
              "type": "uint256"
            }
          ],
          "internalType": "struct Cert",
          "name": "_cert",
          "type": "tuple"
        }
      ],
      "name": "submitCert",
      "outputs": [
        {
          "internalType": "uint256",
          "name": "",
          "type": "uint256"
        }
      ],
      "stateMutability": "nonpayable",
      "type": "function"
    },
    {
      "inputs": [
        {
          "internalType": "uint256",
          "name": "_groupId",
          "type": "uint256"
        },
        {
          "components": [
            {
              "internalType": "uint256",
              "name": "id",
              "type": "uint256"
            },
            {
              "internalType": "address",
              "name": "schoolId",
              "type": "address"
            },
            {
              "internalType": "string",
              "name": "studentId",
              "type": "string"
            },
            {
              "internalType": "string",
              "name": "subjectId",
              "type": "string"
            },
            {
              "internalType": "address[]",
              "name": "issuers",
              "type": "address[]"
            },
            {
              "internalType": "string",
              "name": "semester",
              "type": "string"
            },
            {
              "internalType": "string",
              "name": "grade",
              "type": "string"
            },
            {
              "internalType": "string",
              "name": "gradeType",
              "type": "string"
            },
            {
              "internalType": "uint256",
              "name": "batchId",
              "type": "uint256"
            }
          ],
          "internalType": "struct Cert[]",
          "name": "_certs",
          "type": "tuple[]"
        }
      ],
      "name": "submitBatch",
      "outputs": [
        {
          "internalType": "uint256",
          "name": "",
          "type": "uint256"
        }
      ],
      "stateMutability": "nonpayable",
      "type": "function"
    },
    {
      "inputs": [
        {
          "internalType": "uint256",
          "name": "_groupId",
          "type": "uint256"
        },
        {
          "internalType": "uint256",
          "name": "_certId",
          "type": "uint256"
        }
      ],
      "name": "confirmCert",
      "outputs": [],
      "stateMutability": "nonpayable",
      "type": "function"
    },
    {
      "inputs": [
        {
          "internalType": "uint256",
          "name": "_groupId",
          "type": "uint256"
        },
        {
          "internalType": "uint256",
          "name": "_batchId",
          "type": "uint256"
        }
      ],
      "name": "confirmBatch",
      "outputs": [],
      "stateMutability": "nonpayable",
      "type": "function"
    }
  ],
  "bytecode": "0x60806040526000600b556000600c553480156200001b57600080fd5b50604051620043e7380380620043e7833981810160405281019062000041919062000586565b60008351116200005057600080fd5b600082116200005e57600080fd5b82518211156200006d57600080fd5b8360019080519060200190620000859291906200012f565b5082600290805190602001906200009e929190620001c0565b5081600381905550806000806101000a81548173ffffffffffffffffffffffffffffffffffffffff021916908373ffffffffffffffffffffffffffffffffffffffff1602179055507fa3c3c713368877193c2424d165fa22a1f3fcb383cf273be9c287d3cb847152e3848484846040516200011d949392919062000783565b60405180910390a15050505062000843565b8280546200013d906200080d565b90600052602060002090601f016020900481019282620001615760008555620001ad565b82601f106200017c57805160ff1916838001178555620001ad565b82800160010185558215620001ad579182015b82811115620001ac5782518255916020019190600101906200018f565b5b509050620001bc91906200024f565b5090565b8280548282559060005260206000209081019282156200023c579160200282015b828111156200023b5782518260006101000a81548173ffffffffffffffffffffffffffffffffffffffff021916908373ffffffffffffffffffffffffffffffffffffffff16021790555091602001919060010190620001e1565b5b5090506200024b91906200024f565b5090565b5b808211156200026a57600081600090555060010162000250565b5090565b6000604051905090565b600080fd5b600080fd5b600080fd5b600080fd5b6000601f19601f8301169050919050565b7f4e487b7100000000000000000000000000000000000000000000000000000000600052604160045260246000fd5b620002d7826200028c565b810181811067ffffffffffffffff82111715620002f957620002f86200029d565b5b80604052505050565b60006200030e6200026e565b90506200031c8282620002cc565b919050565b600067ffffffffffffffff8211156200033f576200033e6200029d565b5b6200034a826200028c565b9050602081019050919050565b60005b83811015620003775780820151818401526020810190506200035a565b8381111562000387576000848401525b50505050565b6000620003a46200039e8462000321565b62000302565b905082815260208101848484011115620003c357620003c262000287565b5b620003d084828562000357565b509392505050565b600082601f830112620003f057620003ef62000282565b5b8151620004028482602086016200038d565b91505092915050565b600067ffffffffffffffff8211156200042957620004286200029d565b5b602082029050602081019050919050565b600080fd5b600073ffffffffffffffffffffffffffffffffffffffff82169050919050565b60006200046c826200043f565b9050919050565b6200047e816200045f565b81146200048a57600080fd5b50565b6000815190506200049e8162000473565b92915050565b6000620004bb620004b5846200040b565b62000302565b90508083825260208201905060208402830185811115620004e157620004e06200043a565b5b835b818110156200050e5780620004f988826200048d565b845260208401935050602081019050620004e3565b5050509392505050565b600082601f83011262000530576200052f62000282565b5b815162000542848260208601620004a4565b91505092915050565b6000819050919050565b62000560816200054b565b81146200056c57600080fd5b50565b600081519050620005808162000555565b92915050565b60008060008060808587031215620005a357620005a262000278565b5b600085015167ffffffffffffffff811115620005c457620005c36200027d565b5b620005d287828801620003d8565b945050602085015167ffffffffffffffff811115620005f657620005f56200027d565b5b620006048782880162000518565b935050604062000617878288016200056f565b92505060606200062a878288016200048d565b91505092959194509250565b600081519050919050565b600082825260208201905092915050565b60006200065f8262000636565b6200066b818562000641565b93506200067d81856020860162000357565b62000688816200028c565b840191505092915050565b600081519050919050565b600082825260208201905092915050565b6000819050602082019050919050565b620006ca816200045f565b82525050565b6000620006de8383620006bf565b60208301905092915050565b6000602082019050919050565b6000620007048262000693565b6200071081856200069e565b93506200071d83620006af565b8060005b8381101562000754578151620007388882620006d0565b97506200074583620006ea565b92505060018101905062000721565b5085935050505092915050565b6200076c816200054b565b82525050565b6200077d816200045f565b82525050565b600060808201905081810360008301526200079f818762000652565b90508181036020830152620007b58186620006f7565b9050620007c6604083018562000761565b620007d5606083018462000772565b95945050505050565b7f4e487b7100000000000000000000000000000000000000000000000000000000600052602260045260246000fd5b600060028204905060018216806200082657607f821691505b602082108114156200083d576200083c620007de565b5b50919050565b613b9480620008536000396000f3fe6080604052600436106100a05760003560e01c80635da1546b116100645780635da1546b1461024c578063963c6eff14610289578063a230c524146102b2578063ceb60654146102ef578063dc595dc41461032c578063e52b0bcd14610355576100ea565b8063018c890a1461012f5780632650b0051461016c5780632d381edc146101a95780633e0aad1d146101e657806345dfb29414610223576100ea565b366100ea5760003411156100e8577fe1fffcc4923d04b559f4d29a8bfc6cda04eb5b0d3c460751c2402c5c5cc9109c33346040516100df929190612862565b60405180910390a15b005b600034111561012d577fe1fffcc4923d04b559f4d29a8bfc6cda04eb5b0d3c460751c2402c5c5cc9109c3334604051610124929190612862565b60405180910390a15b005b34801561013b57600080fd5b50610156600480360381019061015191906128cb565b610392565b6040516101639190612926565b60405180910390f35b34801561017857600080fd5b50610193600480360381019061018e919061296d565b6103cb565b6040516101a09190612926565b60405180910390f35b3480156101b557600080fd5b506101d060048036038101906101cb9190612e2e565b6104ca565b6040516101dd9190612e8a565b60405180910390f35b3480156101f257600080fd5b5061020d600480360381019061020891906128cb565b610793565b60405161021a9190612926565b60405180910390f35b34801561022f57600080fd5b5061024a60048036038101906102459190612ea5565b6107cc565b005b34801561025857600080fd5b50610273600480360381019061026e9190612ed2565b610aa9565b6040516102809190612e8a565b60405180910390f35b34801561029557600080fd5b506102b060048036038101906102ab91906128cb565b610cd2565b005b3480156102be57600080fd5b506102d960048036038101906102d49190612f5d565b610e39565b6040516102e69190612926565b60405180910390f35b3480156102fb57600080fd5b5061031660048036038101906103119190612ea5565b610ee8565b6040516103239190613163565b60405180910390f35b34801561033857600080fd5b50610353600480360381019061034e91906128cb565b6110d7565b005b34801561036157600080fd5b5061037c60048036038101906103779190613185565b61135b565b6040516103899190612e8a565b60405180910390f35b60008061039f848461152c565b905060008151905060046000868152602001908152602001600020600301548110159250505092915050565b600080600460008481526020019081526020016000206002018054905014156103f757600090506104c4565b60005b60046000848152602001908152602001600020600201805490508110156104be578373ffffffffffffffffffffffffffffffffffffffff1660046000858152602001908152602001600020600201828154811061045a576104596131e1565b5b9060005260206000200160009054906101000a900473ffffffffffffffffffffffffffffffffffffffff1673ffffffffffffffffffffffffffffffffffffffff1614156104ab5760019150506104c4565b80806104b69061323f565b9150506103fa565b50600090505b92915050565b6000826104d6816116ac565b6104df57600080fd5b6104e933826103cb565b6104f257600080fd5b6000600b60008154809291906105079061323f565b919050559050835167ffffffffffffffff811115610528576105276129c3565b5b6040519080825280602002602001820160405280156105565781602001602082028036833780820191505090505b5060086000838152602001908152602001600020908051906020019061057d9291906125fd565b5060005b845181101561073057600085828151811061059f5761059e6131e1565b5b60200260200101516000015190508582815181106105c0576105bf6131e1565b5b6020026020010151600560008381526020019081526020016000206000820151816000015560208201518160010160006101000a81548173ffffffffffffffffffffffffffffffffffffffff021916908373ffffffffffffffffffffffffffffffffffffffff160217905550604082015181600201908051906020019061064892919061264a565b50606082015181600301908051906020019061066592919061264a565b5060808201518160040190805190602001906106829291906126d0565b5060a082015181600501908051906020019061069f92919061264a565b5060c08201518160060190805190602001906106bc92919061264a565b5060e08201518160070190805190602001906106d992919061264a565b5061010082015181600801559050508060086000858152602001908152602001600020838154811061070e5761070d6131e1565b5b90600052602060002001819055505080806107289061323f565b915050610581565b507f630333f4aaa81bb38574f4d6c8010c72299a4da179064a21b56ece1d2e03f5dd33826008600085815260200190815260200160002060405161077693929190613387565b60405180910390a161078885826110d7565b809250505092915050565b6000806107a0848461178e565b905060008151905060046000868152602001908152602001600020600301548110159250505092915050565b6107d533610e39565b6107de57600080fd5b600015156107eb826116ac565b1515146107f757600080fd5b60006004600083815260200190815260200160002060040180548060200260200160405190810160405280929190818152602001828054801561088f57602002820191906000526020600020905b8160009054906101000a900473ffffffffffffffffffffffffffffffffffffffff1673ffffffffffffffffffffffffffffffffffffffff1681526020019060010190808311610845575b505050505090506000805b825181101561096d573373ffffffffffffffffffffffffffffffffffffffff168382815181106108cd576108cc6131e1565b5b602002602001015173ffffffffffffffffffffffffffffffffffffffff1614156108fd5760006108fc57600080fd5b5b600073ffffffffffffffffffffffffffffffffffffffff16838281518110610928576109276131e1565b5b602002602001015173ffffffffffffffffffffffffffffffffffffffff161461095a5781806109569061323f565b9250505b80806109659061323f565b91505061089a565b5033600460008581526020019081526020016000206004018281548110610997576109966131e1565b5b9060005260206000200160006101000a81548173ffffffffffffffffffffffffffffffffffffffff021916908373ffffffffffffffffffffffffffffffffffffffff1602179055507f40212d9d89b8b595d3e8beccd8d17412912ffefafb3f51257d1953e11571f9043384604051610a10929190612862565b60405180910390a1610a21836116ac565b15610aa4577ff310f10bdd8e03d060d72e9cc4ff7cb137a11f2a168f021b8a77bc8ac577e37a8360046000868152602001908152602001600020600101600460008781526020019081526020016000206002016004600088815260200190815260200160002060030154604051610a9b94939291906135bc565b60405180910390a15b505050565b6000610ab433610e39565b610abd57600080fd5b6000835111610acb57600080fd5b60008211610ad857600080fd5b8251821115610ae657600080fd5b6000600c6000815480929190610afb9061323f565b91905055905060006040518060a0016040528083815260200187815260200186815260200185815260200160028054905067ffffffffffffffff811115610b4557610b446129c3565b5b604051908082528060200260200182016040528015610b735781602001602082028036833780820191505090505b508152509050338160800151600081518110610b9257610b916131e1565b5b602002602001019073ffffffffffffffffffffffffffffffffffffffff16908173ffffffffffffffffffffffffffffffffffffffff16815250508060046000848152602001908152602001600020600082015181600001556020820151816001019080519060200190610c0692919061264a565b506040820151816002019080519060200190610c239291906126d0565b50606082015181600301556080820151816004019080519060200190610c4a9291906126d0565b509050507f27efe2927956a250c8a9a9e3d43c2fdea8859582d25981ad6139be4e6a4262733383888888604051610c859594939291906136a6565b60405180910390a17f40212d9d89b8b595d3e8beccd8d17412912ffefafb3f51257d1953e11571f9043383604051610cbe929190612862565b60405180910390a181925050509392505050565b81610cdc816116ac565b610ce557600080fd5b610cef33826103cb565b610cf857600080fd5b6000151560076000858152602001908152602001600020600084815260200190815260200160002060003373ffffffffffffffffffffffffffffffffffffffff1673ffffffffffffffffffffffffffffffffffffffff16815260200190815260200160002060009054906101000a900460ff16151514610d7757600080fd5b600160076000858152602001908152602001600020600084815260200190815260200160002060003373ffffffffffffffffffffffffffffffffffffffff1673ffffffffffffffffffffffffffffffffffffffff16815260200190815260200160002060006101000a81548160ff0219169083151502179055507fdb4c18c6330144ac69190ae22c093ee67b6b5427be568026f0e999f1903d28623383604051610e22929190612862565b60405180910390a1610e34838361190e565b505050565b600080600090505b600280549050811015610edd578273ffffffffffffffffffffffffffffffffffffffff1660028281548110610e7957610e786131e1565b5b9060005260206000200160009054906101000a900473ffffffffffffffffffffffffffffffffffffffff1673ffffffffffffffffffffffffffffffffffffffff161415610eca576001915050610ee3565b8080610ed59061323f565b915050610e41565b50600090505b919050565b610ef061275a565b600460008381526020019081526020016000206040518060a001604052908160008201548152602001600182018054610f28906133f4565b80601f0160208091040260200160405190810160405280929190818152602001828054610f54906133f4565b8015610fa15780601f10610f7657610100808354040283529160200191610fa1565b820191906000526020600020905b815481529060010190602001808311610f8457829003601f168201915b505050505081526020016002820180548060200260200160405190810160405280929190818152602001828054801561102f57602002820191906000526020600020905b8160009054906101000a900473ffffffffffffffffffffffffffffffffffffffff1673ffffffffffffffffffffffffffffffffffffffff1681526020019060010190808311610fe5575b5050505050815260200160038201548152602001600482018054806020026020016040519081016040528092919081815260200182805480156110c757602002820191906000526020600020905b8160009054906101000a900473ffffffffffffffffffffffffffffffffffffffff1673ffffffffffffffffffffffffffffffffffffffff168152602001906001019080831161107d575b5050505050815250509050919050565b816110e1816116ac565b6110ea57600080fd5b6110f433826103cb565b6110fd57600080fd5b60001515600a6000858152602001908152602001600020600084815260200190815260200160002060003373ffffffffffffffffffffffffffffffffffffffff1673ffffffffffffffffffffffffffffffffffffffff16815260200190815260200160002060009054906101000a900460ff1615151461117c57600080fd5b6001600a6000858152602001908152602001600020600084815260200190815260200160002060003373ffffffffffffffffffffffffffffffffffffffff1673ffffffffffffffffffffffffffffffffffffffff16815260200190815260200160002060006101000a81548160ff02191690831515021790555060005b600860008481526020019081526020016000208054905081101561131257600060086000858152602001908152602001600020828154811061123e5761123d6131e1565b5b90600052602060002001549050600160076000878152602001908152602001600020600083815260200190815260200160002060003373ffffffffffffffffffffffffffffffffffffffff1673ffffffffffffffffffffffffffffffffffffffff16815260200190815260200160002060006101000a81548160ff0219169083151502179055507fdb4c18c6330144ac69190ae22c093ee67b6b5427be568026f0e999f1903d286233826040516112f6929190612862565b60405180910390a150808061130a9061323f565b9150506111f9565b507f740142560d3de320dade4304fa969e81237e4cb90e15f367c2f340a464f687c63383604051611344929190612862565b60405180910390a16113568383611ec4565b505050565b600082611367816116ac565b61137057600080fd5b61137a33826103cb565b61138357600080fd5b8260056000856000015181526020019081526020016000206000820151816000015560208201518160010160006101000a81548173ffffffffffffffffffffffffffffffffffffffff021916908373ffffffffffffffffffffffffffffffffffffffff160217905550604082015181600201908051906020019061140892919061264a565b50606082015181600301908051906020019061142592919061264a565b5060808201518160040190805190602001906114429291906126d0565b5060a082015181600501908051906020019061145f92919061264a565b5060c082015181600601908051906020019061147c92919061264a565b5060e082015181600701908051906020019061149992919061264a565b5061010082015181600801559050507f4873141f96aa21df0c9aef8e00c668d83fa841996b4dd75908ca2b1a9b51fcfa3384600001518560200151866040015187606001518860a001518960c001518a60e001518b610100015160405161150899989796959493929190613707565b60405180910390a161151e848460000151610cd2565b826000015191505092915050565b6060806000805b6002805490508110156116a057600a6000878152602001908152602001600020600086815260200190815260200160002060006002838154811061157a576115796131e1565b5b9060005260206000200160009054906101000a900473ffffffffffffffffffffffffffffffffffffffff1673ffffffffffffffffffffffffffffffffffffffff1673ffffffffffffffffffffffffffffffffffffffff16815260200190815260200160002060009054906101000a900460ff161561168d5760028181548110611606576116056131e1565b5b9060005260206000200160009054906101000a900473ffffffffffffffffffffffffffffffffffffffff16838381518110611644576116436131e1565b5b602002602001019073ffffffffffffffffffffffffffffffffffffffff16908173ffffffffffffffffffffffffffffffffffffffff168152505081806116899061323f565b9250505b80806116989061323f565b915050611533565b50819250505092915050565b6000806000905060005b600460008581526020019081526020016000206004018054905081101561177f57600073ffffffffffffffffffffffffffffffffffffffff16600460008681526020019081526020016000206004018281548110611717576117166131e1565b5b9060005260206000200160009054906101000a900473ffffffffffffffffffffffffffffffffffffffff1673ffffffffffffffffffffffffffffffffffffffff161461176c5781806117689061323f565b9250505b80806117779061323f565b9150506116b6565b50600354811015915050919050565b6060806000805b600280549050811015611902576007600087815260200190815260200160002060008681526020019081526020016000206000600283815481106117dc576117db6131e1565b5b9060005260206000200160009054906101000a900473ffffffffffffffffffffffffffffffffffffffff1673ffffffffffffffffffffffffffffffffffffffff1673ffffffffffffffffffffffffffffffffffffffff16815260200190815260200160002060009054906101000a900460ff16156118ef5760028181548110611868576118676131e1565b5b9060005260206000200160009054906101000a900473ffffffffffffffffffffffffffffffffffffffff168383815181106118a6576118a56131e1565b5b602002602001019073ffffffffffffffffffffffffffffffffffffffff16908173ffffffffffffffffffffffffffffffffffffffff168152505081806118eb9061323f565b9250505b80806118fa9061323f565b915050611795565b50819250505092915050565b81611918816116ac565b61192157600080fd5b61192b33826103cb565b61193457600080fd5b600015156006600084815260200190815260200160002060009054906101000a900460ff1615151461196557600080fd5b61196f8383610793565b61197857600080fd5b611982838361178e565b6005600084815260200190815260200160002060040190805190602001906119ab9291906126d0565b5060006005600084815260200190815260200160002060405180610120016040529081600082015481526020016001820160009054906101000a900473ffffffffffffffffffffffffffffffffffffffff1673ffffffffffffffffffffffffffffffffffffffff1673ffffffffffffffffffffffffffffffffffffffff168152602001600282018054611a3d906133f4565b80601f0160208091040260200160405190810160405280929190818152602001828054611a69906133f4565b8015611ab65780601f10611a8b57610100808354040283529160200191611ab6565b820191906000526020600020905b815481529060010190602001808311611a9957829003601f168201915b50505050508152602001600382018054611acf906133f4565b80601f0160208091040260200160405190810160405280929190818152602001828054611afb906133f4565b8015611b485780601f10611b1d57610100808354040283529160200191611b48565b820191906000526020600020905b815481529060010190602001808311611b2b57829003601f168201915b5050505050815260200160048201805480602002602001604051908101604052809291908181526020018280548015611bd657602002820191906000526020600020905b8160009054906101000a900473ffffffffffffffffffffffffffffffffffffffff1673ffffffffffffffffffffffffffffffffffffffff1681526020019060010190808311611b8c575b50505050508152602001600582018054611bef906133f4565b80601f0160208091040260200160405190810160405280929190818152602001828054611c1b906133f4565b8015611c685780601f10611c3d57610100808354040283529160200191611c68565b820191906000526020600020905b815481529060010190602001808311611c4b57829003601f168201915b50505050508152602001600682018054611c81906133f4565b80601f0160208091040260200160405190810160405280929190818152602001828054611cad906133f4565b8015611cfa5780601f10611ccf57610100808354040283529160200191611cfa565b820191906000526020600020905b815481529060010190602001808311611cdd57829003601f168201915b50505050508152602001600782018054611d13906133f4565b80601f0160208091040260200160405190810160405280929190818152602001828054611d3f906133f4565b8015611d8c5780601f10611d6157610100808354040283529160200191611d8c565b820191906000526020600020905b815481529060010190602001808311611d6f57829003601f168201915b50505050508152602001600882015481525050905060008054906101000a900473ffffffffffffffffffffffffffffffffffffffff1673ffffffffffffffffffffffffffffffffffffffff166317ad2566826040518263ffffffff1660e01b8152600401611dfa919061389f565b600060405180830381600087803b158015611e1457600080fd5b505af1158015611e28573d6000803e3d6000fd5b5050505060016006600085815260200190815260200160002060006101000a81548160ff0219169083151502179055507f012fe3d3ca255015a52721402d10577d852b821c22e21458ffb15d4510e6ee5981600001518260200151836040015184606001518560a001518660c001518760e00151886101000151604051611eb69897969594939291906138c1565b60405180910390a150505050565b81611ece816116ac565b611ed757600080fd5b611ee133826103cb565b611eea57600080fd5b600015156009600084815260200190815260200160002060009054906101000a900460ff16151514611f1b57600080fd5b611f258383610392565b611f2e57600080fd5b6000611f3a848461152c565b90506000600860008581526020019081526020016000208054905067ffffffffffffffff811115611f6e57611f6d6129c3565b5b604051908082528060200260200182016040528015611fa757816020015b611f94612789565b815260200190600190039081611f8c5790505b50905060005b600860008681526020019081526020016000208054905081101561244d576000600860008781526020019081526020016000208281548110611ff257611ff16131e1565b5b90600052602060002001549050836005600083815260200190815260200160002060040190805190602001906120299291906126d0565b506005600082815260200190815260200160002060405180610120016040529081600082015481526020016001820160009054906101000a900473ffffffffffffffffffffffffffffffffffffffff1673ffffffffffffffffffffffffffffffffffffffff1673ffffffffffffffffffffffffffffffffffffffff1681526020016002820180546120b9906133f4565b80601f01602080910402602001604051908101604052809291908181526020018280546120e5906133f4565b80156121325780601f1061210757610100808354040283529160200191612132565b820191906000526020600020905b81548152906001019060200180831161211557829003601f168201915b5050505050815260200160038201805461214b906133f4565b80601f0160208091040260200160405190810160405280929190818152602001828054612177906133f4565b80156121c45780601f10612199576101008083540402835291602001916121c4565b820191906000526020600020905b8154815290600101906020018083116121a757829003601f168201915b505050505081526020016004820180548060200260200160405190810160405280929190818152602001828054801561225257602002820191906000526020600020905b8160009054906101000a900473ffffffffffffffffffffffffffffffffffffffff1673ffffffffffffffffffffffffffffffffffffffff1681526020019060010190808311612208575b5050505050815260200160058201805461226b906133f4565b80601f0160208091040260200160405190810160405280929190818152602001828054612297906133f4565b80156122e45780601f106122b9576101008083540402835291602001916122e4565b820191906000526020600020905b8154815290600101906020018083116122c757829003601f168201915b505050505081526020016006820180546122fd906133f4565b80601f0160208091040260200160405190810160405280929190818152602001828054612329906133f4565b80156123765780601f1061234b57610100808354040283529160200191612376565b820191906000526020600020905b81548152906001019060200180831161235957829003601f168201915b5050505050815260200160078201805461238f906133f4565b80601f01602080910402602001604051908101604052809291908181526020018280546123bb906133f4565b80156124085780601f106123dd57610100808354040283529160200191612408565b820191906000526020600020905b8154815290600101906020018083116123eb57829003601f168201915b5050505050815260200160088201548152505083838151811061242e5761242d6131e1565b5b60200260200101819052505080806124459061323f565b915050611fad565b5060008054906101000a900473ffffffffffffffffffffffffffffffffffffffff1673ffffffffffffffffffffffffffffffffffffffff1663cb6f5efe826040518263ffffffff1660e01b81526004016124a79190613b0c565b600060405180830381600087803b1580156124c157600080fd5b505af11580156124d5573d6000803e3d6000fd5b5050505060016009600086815260200190815260200160002060006101000a81548160ff02191690831515021790555060005b81518110156125aa576000828281518110612526576125256131e1565b5b602002602001015190507f012fe3d3ca255015a52721402d10577d852b821c22e21458ffb15d4510e6ee5981600001518260200151836040015184606001518560a001518660c001518760e0015188610100015160405161258e9897969594939291906138c1565b60405180910390a15080806125a29061323f565b915050612508565b507fe47cac1314b5cc61524399d90ee5c2a07026dd8d02aa2293817f2120275d163984600860008781526020019081526020016000206040516125ee929190613b2e565b60405180910390a15050505050565b828054828255906000526020600020908101928215612639579160200282015b8281111561263857825182559160200191906001019061261d565b5b50905061264691906127eb565b5090565b828054612656906133f4565b90600052602060002090601f01602090048101928261267857600085556126bf565b82601f1061269157805160ff19168380011785556126bf565b828001600101855582156126bf579182015b828111156126be5782518255916020019190600101906126a3565b5b5090506126cc91906127eb565b5090565b828054828255906000526020600020908101928215612749579160200282015b828111156127485782518260006101000a81548173ffffffffffffffffffffffffffffffffffffffff021916908373ffffffffffffffffffffffffffffffffffffffff160217905550916020019190600101906126f0565b5b50905061275691906127eb565b5090565b6040518060a0016040528060008152602001606081526020016060815260200160008152602001606081525090565b60405180610120016040528060008152602001600073ffffffffffffffffffffffffffffffffffffffff168152602001606081526020016060815260200160608152602001606081526020016060815260200160608152602001600081525090565b5b808211156128045760008160009055506001016127ec565b5090565b600073ffffffffffffffffffffffffffffffffffffffff82169050919050565b600061283382612808565b9050919050565b61284381612828565b82525050565b6000819050919050565b61285c81612849565b82525050565b6000604082019050612877600083018561283a565b6128846020830184612853565b9392505050565b6000604051905090565b600080fd5b600080fd5b6128a881612849565b81146128b357600080fd5b50565b6000813590506128c58161289f565b92915050565b600080604083850312156128e2576128e1612895565b5b60006128f0858286016128b6565b9250506020612901858286016128b6565b9150509250929050565b60008115159050919050565b6129208161290b565b82525050565b600060208201905061293b6000830184612917565b92915050565b61294a81612828565b811461295557600080fd5b50565b60008135905061296781612941565b92915050565b6000806040838503121561298457612983612895565b5b600061299285828601612958565b92505060206129a3858286016128b6565b9150509250929050565b600080fd5b6000601f19601f8301169050919050565b7f4e487b7100000000000000000000000000000000000000000000000000000000600052604160045260246000fd5b6129fb826129b2565b810181811067ffffffffffffffff82111715612a1a57612a196129c3565b5b80604052505050565b6000612a2d61288b565b9050612a3982826129f2565b919050565b600067ffffffffffffffff821115612a5957612a586129c3565b5b602082029050602081019050919050565b600080fd5b600080fd5b600080fd5b600080fd5b600067ffffffffffffffff821115612a9957612a986129c3565b5b612aa2826129b2565b9050602081019050919050565b82818337600083830152505050565b6000612ad1612acc84612a7e565b612a23565b905082815260208101848484011115612aed57612aec612a79565b5b612af8848285612aaf565b509392505050565b600082601f830112612b1557612b146129ad565b5b8135612b25848260208601612abe565b91505092915050565b600067ffffffffffffffff821115612b4957612b486129c3565b5b602082029050602081019050919050565b6000612b6d612b6884612b2e565b612a23565b90508083825260208201905060208402830185811115612b9057612b8f612a6a565b5b835b81811015612bb95780612ba58882612958565b845260208401935050602081019050612b92565b5050509392505050565b600082601f830112612bd857612bd76129ad565b5b8135612be8848260208601612b5a565b91505092915050565b60006101208284031215612c0857612c07612a6f565b5b612c13610120612a23565b90506000612c23848285016128b6565b6000830152506020612c3784828501612958565b602083015250604082013567ffffffffffffffff811115612c5b57612c5a612a74565b5b612c6784828501612b00565b604083015250606082013567ffffffffffffffff811115612c8b57612c8a612a74565b5b612c9784828501612b00565b606083015250608082013567ffffffffffffffff811115612cbb57612cba612a74565b5b612cc784828501612bc3565b60808301525060a082013567ffffffffffffffff811115612ceb57612cea612a74565b5b612cf784828501612b00565b60a08301525060c082013567ffffffffffffffff811115612d1b57612d1a612a74565b5b612d2784828501612b00565b60c08301525060e082013567ffffffffffffffff811115612d4b57612d4a612a74565b5b612d5784828501612b00565b60e083015250610100612d6c848285016128b6565b6101008301525092915050565b6000612d8c612d8784612a3e565b612a23565b90508083825260208201905060208402830185811115612daf57612dae612a6a565b5b835b81811015612df657803567ffffffffffffffff811115612dd457612dd36129ad565b5b808601612de18982612bf1565b85526020850194505050602081019050612db1565b5050509392505050565b600082601f830112612e1557612e146129ad565b5b8135612e25848260208601612d79565b91505092915050565b60008060408385031215612e4557612e44612895565b5b6000612e53858286016128b6565b925050602083013567ffffffffffffffff811115612e7457612e7361289a565b5b612e8085828601612e00565b9150509250929050565b6000602082019050612e9f6000830184612853565b92915050565b600060208284031215612ebb57612eba612895565b5b6000612ec9848285016128b6565b91505092915050565b600080600060608486031215612eeb57612eea612895565b5b600084013567ffffffffffffffff811115612f0957612f0861289a565b5b612f1586828701612b00565b935050602084013567ffffffffffffffff811115612f3657612f3561289a565b5b612f4286828701612bc3565b9250506040612f53868287016128b6565b9150509250925092565b600060208284031215612f7357612f72612895565b5b6000612f8184828501612958565b91505092915050565b612f9381612849565b82525050565b600081519050919050565b600082825260208201905092915050565b60005b83811015612fd3578082015181840152602081019050612fb8565b83811115612fe2576000848401525b50505050565b6000612ff382612f99565b612ffd8185612fa4565b935061300d818560208601612fb5565b613016816129b2565b840191505092915050565b600081519050919050565b600082825260208201905092915050565b6000819050602082019050919050565b61305681612828565b82525050565b6000613068838361304d565b60208301905092915050565b6000602082019050919050565b600061308c82613021565b613096818561302c565b93506130a18361303d565b8060005b838110156130d25781516130b9888261305c565b97506130c483613074565b9250506001810190506130a5565b5085935050505092915050565b600060a0830160008301516130f76000860182612f8a565b506020830151848203602086015261310f8282612fe8565b915050604083015184820360408601526131298282613081565b915050606083015161313e6060860182612f8a565b50608083015184820360808601526131568282613081565b9150508091505092915050565b6000602082019050818103600083015261317d81846130df565b905092915050565b6000806040838503121561319c5761319b612895565b5b60006131aa858286016128b6565b925050602083013567ffffffffffffffff8111156131cb576131ca61289a565b5b6131d785828601612bf1565b9150509250929050565b7f4e487b7100000000000000000000000000000000000000000000000000000000600052603260045260246000fd5b7f4e487b7100000000000000000000000000000000000000000000000000000000600052601160045260246000fd5b600061324a82612849565b91507fffffffffffffffffffffffffffffffffffffffffffffffffffffffffffffffff82141561327d5761327c613210565b5b600182019050919050565b600081549050919050565b600082825260208201905092915050565b60008190508160005260206000209050919050565b60006132c58383612f8a565b60208301905092915050565b60008160001c9050919050565b6000819050919050565b60006132fb6132f6836132d1565b6132de565b9050919050565b600061330e82546132e8565b9050919050565b6000600182019050919050565b600061332d82613288565b6133378185613293565b9350613342836132a4565b8060005b8381101561337a5761335782613302565b61336188826132b9565b975061336c83613315565b925050600181019050613346565b5085935050505092915050565b600060608201905061339c600083018661283a565b6133a96020830185612853565b81810360408301526133bb8184613322565b9050949350505050565b7f4e487b7100000000000000000000000000000000000000000000000000000000600052602260045260246000fd5b6000600282049050600182168061340c57607f821691505b602082108114156134205761341f6133c5565b5b50919050565b600082825260208201905092915050565b60008190508160005260206000209050919050565b60008154613459816133f4565b6134638186613426565b9450600182166000811461347e5760018114613490576134c3565b60ff19831686526020860193506134c3565b61349985613437565b60005b838110156134bb5781548189015260018201915060208101905061349c565b808801955050505b50505092915050565b600081549050919050565b600082825260208201905092915050565b60008190508160005260206000209050919050565b600073ffffffffffffffffffffffffffffffffffffffff82169050919050565b600061353061352b836132d1565b6134fd565b9050919050565b6000613543825461351d565b9050919050565b6000600182019050919050565b6000613562826134cc565b61356c81856134d7565b9350613577836134e8565b8060005b838110156135af5761358c82613537565b613596888261305c565b97506135a18361354a565b92505060018101905061357b565b5085935050505092915050565b60006080820190506135d16000830187612853565b81810360208301526135e3818661344c565b905081810360408301526135f78185613557565b90506136066060830184612853565b95945050505050565b600061361a82612f99565b6136248185613426565b9350613634818560208601612fb5565b61363d816129b2565b840191505092915050565b600061365382613021565b61365d81856134d7565b93506136688361303d565b8060005b83811015613699578151613680888261305c565b975061368b83613074565b92505060018101905061366c565b5085935050505092915050565b600060a0820190506136bb600083018861283a565b6136c86020830187612853565b81810360408301526136da818661360f565b905081810360608301526136ee8185613648565b90506136fd6080830184612853565b9695505050505050565b60006101208201905061371d600083018c61283a565b61372a602083018b612853565b613737604083018a61283a565b8181036060830152613749818961360f565b9050818103608083015261375d818861360f565b905081810360a0830152613771818761360f565b905081810360c0830152613785818661360f565b905081810360e0830152613799818561360f565b90506137a9610100830184612853565b9a9950505050505050505050565b6000610120830160008301516137d06000860182612f8a565b5060208301516137e3602086018261304d565b50604083015184820360408601526137fb8282612fe8565b915050606083015184820360608601526138158282612fe8565b9150506080830151848203608086015261382f8282613081565b91505060a083015184820360a08601526138498282612fe8565b91505060c083015184820360c08601526138638282612fe8565b91505060e083015184820360e086015261387d8282612fe8565b915050610100830151613894610100860182612f8a565b508091505092915050565b600060208201905081810360008301526138b981846137b7565b905092915050565b6000610100820190506138d7600083018b612853565b6138e4602083018a61283a565b81810360408301526138f6818961360f565b9050818103606083015261390a818861360f565b9050818103608083015261391e818761360f565b905081810360a0830152613932818661360f565b905081810360c0830152613946818561360f565b905061395560e0830184612853565b9998505050505050505050565b600081519050919050565b600082825260208201905092915050565b6000819050602082019050919050565b6000610120830160008301516139a76000860182612f8a565b5060208301516139ba602086018261304d565b50604083015184820360408601526139d28282612fe8565b915050606083015184820360608601526139ec8282612fe8565b91505060808301518482036080860152613a068282613081565b91505060a083015184820360a0860152613a208282612fe8565b91505060c083015184820360c0860152613a3a8282612fe8565b91505060e083015184820360e0860152613a548282612fe8565b915050610100830151613a6b610100860182612f8a565b508091505092915050565b6000613a82838361398e565b905092915050565b6000602082019050919050565b6000613aa282613962565b613aac818561396d565b935083602082028501613abe8561397e565b8060005b85811015613afa5784840389528151613adb8582613a76565b9450613ae683613a8a565b925060208a01995050600181019050613ac2565b50829750879550505050505092915050565b60006020820190508181036000830152613b268184613a97565b905092915050565b6000604082019050613b436000830185612853565b8181036020830152613b558184613322565b9050939250505056fea2646970667358221220425709de71ffc498aa3d2380b46fdc52896bf0a7797cd6ddb47b1b194587550f64736f6c634300080a0033",
  "immutableReferences": {},
  "source": "// SPDX-License-Identifier: MIT\r\npragma solidity >=0.4.22 <0.9.0;\r\n\r\n\r\nstruct Cert {\r\n    uint id;\r\n    address schoolId;\r\n    string studentId;\r\n    string subjectId;\r\n    address[] issuers;\r\n    string semester;\r\n    string grade;\r\n    string gradeType;\r\n    uint batchId;\r\n}\r\n\r\ninterface Certs {\r\n    function addCert(Cert memory _cert) external;\r\n    function addCerts(Cert[] memory _certs) external;\r\n}\r\n\r\ncontract MultiSigWallet {\r\n\r\n    struct Group {\r\n        uint id;\r\n        string name;\r\n        address[] members;\r\n        uint threshold;\r\n        address[] confirmedBy;\r\n    }\r\n\r\n    Certs holder;\r\n    string schoolName;\r\n    address[] members;\r\n    uint threshold;\r\n\r\n    mapping(uint => Group) groups;\r\n\r\n    mapping(uint => Cert) certs; // certId => cert\r\n    mapping(uint => bool) certExecuted; // certId => executed\r\n    mapping(uint => mapping(uint => mapping(address => bool))) certConfirmed; // groupId => certId => member => confirmed\r\n\r\n    mapping(uint => uint[]) batches; // batchId => [certIds]\r\n    mapping(uint => bool) batchExecuted; // batchId => executed\r\n    mapping(uint => mapping(uint => mapping(address => bool))) batchConfirmed; // groupId => batchId => member => confirmed\r\n\r\n    uint batchCount = 0;\r\n    uint groupCount = 0;\r\n\r\n    function isMember(address _member) public view returns (bool) {\r\n        for (uint i = 0; i < members.length; i++) {\r\n            if (members[i] == _member) {\r\n                return true;\r\n            }\r\n        }\r\n        return false;\r\n    }\r\n\r\n    function isMemberOfGroup(address _member, uint _groupId) public view returns (bool) {\r\n        if (groups[_groupId].members.length == 0) {\r\n            return false;\r\n        }\r\n        for (uint i = 0; i < groups[_groupId].members.length; i++) {\r\n            if (groups[_groupId].members[i] == _member) {\r\n                return true;\r\n            }\r\n        }\r\n        return false;\r\n    }\r\n\r\n    modifier onlyMembers {\r\n        require(isMember(msg.sender));\r\n        _;\r\n    }\r\n\r\n    modifier onlyGroup(uint _groupId) {\r\n        require(isGroupConfirmed(_groupId));\r\n        require(isMemberOfGroup(msg.sender, _groupId));\r\n        _;\r\n    }\r\n\r\n    event WalletActivated(\r\n        string schoolName,\r\n        address[] members,\r\n        uint threshold,\r\n        address certsAddress\r\n    );\r\n\r\n    event GroupPending(\r\n        address creator,\r\n        uint groupId,\r\n        string name,\r\n        address[] members,\r\n        uint threshold\r\n    );\r\n\r\n    event GroupConfirmed(\r\n        address confirmer,\r\n        uint groupId\r\n    );\r\n\r\n    event GroupAdded(\r\n        uint groupId,\r\n        string name,\r\n        address[] members,\r\n        uint threshold\r\n    );\r\n\r\n    event CertPending(\r\n        address creator,\r\n        uint certId,\r\n        address schoolId,\r\n        string studentId,\r\n        string subjectId,\r\n        string semester,\r\n        string grade,\r\n        string gradeType,\r\n        uint batchId\r\n    );\r\n\r\n    event CertConfirmed(\r\n        address confirmer,\r\n        uint certId\r\n    );\r\n\r\n    event CertAdded(\r\n        uint certId,\r\n        address schoolId,\r\n        string studentId,\r\n        string subjectId,\r\n        string semester,\r\n        string grade,\r\n        string gradeType,\r\n        uint batchId\r\n    );\r\n\r\n    event BatchPending(\r\n        address creator,\r\n        uint batchId,\r\n        uint[] certIds\r\n    );\r\n\r\n    event BatchConfirmed(\r\n        address confirmer,\r\n        uint batchId\r\n    );\r\n\r\n    event BatchAdded(\r\n        uint batchId,\r\n        uint[] certIds\r\n    );\r\n\r\n    event Deposit(address from, uint value);\r\n\r\n    fallback() external payable {\r\n        if (msg.value > 0) {\r\n            emit Deposit(msg.sender, msg.value);\r\n        }\r\n    }\r\n\r\n    receive() external payable {\r\n        if (msg.value > 0) {\r\n            emit Deposit(msg.sender, msg.value);\r\n        }\r\n    }\r\n\r\n    constructor(string memory _name, address[] memory _members, uint _threshold, address _address) {\r\n        require(_members.length > 0);\r\n        require(_threshold > 0);\r\n        require(_threshold <= _members.length);\r\n        schoolName = _name;\r\n        members = _members;\r\n        threshold = _threshold;\r\n        holder = Certs(_address);\r\n        emit WalletActivated(_name, _members, _threshold, _address);\r\n    }\r\n\r\n    function isGroupConfirmed(uint _groupId) private view returns (bool) {\r\n        uint confirmedCount = 0;\r\n        for (uint i = 0; i < groups[_groupId].confirmedBy.length; i++) {\r\n            if (groups[_groupId].confirmedBy[i] != address(0)) {\r\n                confirmedCount++;\r\n            }\r\n        }\r\n        return confirmedCount >= threshold;\r\n    }\r\n\r\n    function addGroup(string memory _name, address[] memory _members, uint _threshold) onlyMembers public returns (uint) {\r\n        require(_members.length > 0);\r\n        require(_threshold > 0);\r\n        require(_threshold <= _members.length);\r\n        uint groupId = groupCount++;\r\n        Group memory group = Group({\r\n            id: groupId,\r\n            name: _name,\r\n            members: _members,\r\n            threshold: _threshold,\r\n            confirmedBy: new address[](members.length)\r\n        });\r\n        group.confirmedBy[0] = msg.sender;\r\n        groups[groupId] = group;\r\n        emit GroupPending(msg.sender, groupId, _name, _members, _threshold);\r\n        emit GroupConfirmed(msg.sender, groupId);\r\n        return groupId;\r\n    }\r\n\r\n    function confirmGroup(uint _groupId) onlyMembers public {\r\n        require(isGroupConfirmed(_groupId) == false);\r\n        address[] memory groupConfirmers = groups[_groupId].confirmedBy;\r\n        uint confirmerCount = 0;\r\n        for (uint i = 0; i < groupConfirmers.length; i++) {\r\n            if (groupConfirmers[i] == msg.sender) {\r\n                require(false);\r\n            }\r\n            if (groupConfirmers[i] != address(0)) {\r\n                confirmerCount++;\r\n            }\r\n        }\r\n        groups[_groupId].confirmedBy[confirmerCount] = msg.sender;\r\n        emit GroupConfirmed(msg.sender, _groupId);\r\n        if (isGroupConfirmed(_groupId)) {\r\n            emit GroupAdded(\r\n                _groupId,\r\n                groups[_groupId].name,\r\n                groups[_groupId].members,\r\n                groups[_groupId].threshold\r\n            );\r\n        }\r\n    }\r\n\r\n    function getGroup(uint _groupId) public view returns (Group memory) {\r\n        return groups[_groupId];\r\n    }\r\n\r\n    function getCertConfirmers(uint _groupId, uint _certId) private view returns (address[] memory) {\r\n        address[] memory confirmers;\r\n        uint count = 0;\r\n        for (uint i = 0; i < members.length; i++) {\r\n            if (certConfirmed[_groupId][_certId][members[i]]) {\r\n                confirmers[count] = members[i];\r\n                count++;\r\n            }\r\n        }\r\n        return confirmers;\r\n    }\r\n\r\n    function getBatchConfirmers(uint _groupId, uint _batchId) private view returns (address[] memory) {\r\n        address[] memory confirmers;\r\n        uint count = 0;\r\n        for (uint i = 0; i < members.length; i++) {\r\n            if (batchConfirmed[_groupId][_batchId][members[i]]) {\r\n                confirmers[count] = members[i];\r\n                count++;\r\n            }\r\n        }\r\n        return confirmers;\r\n    }\r\n\r\n    function isCertConfirmed(uint _groupId, uint _certId) public view returns (bool) {\r\n        address[] memory confirmers = getCertConfirmers(_groupId, _certId);\r\n        uint count = confirmers.length;\r\n        return count >= groups[_groupId].threshold;\r\n    }\r\n\r\n    function isBatchConfirmed(uint _groupId, uint _batchId) public view returns (bool) {\r\n        address[] memory confirmers = getBatchConfirmers(_groupId, _batchId);\r\n        uint count = confirmers.length;\r\n        return count >= groups[_groupId].threshold;\r\n    }\r\n\r\n    function submitCert(uint _groupId, Cert memory _cert) onlyGroup(_groupId) public returns (uint) {\r\n        certs[_cert.id] = _cert;\r\n        emit CertPending(\r\n            msg.sender,\r\n            _cert.id,\r\n            _cert.schoolId,\r\n            _cert.studentId,\r\n            _cert.subjectId,\r\n            _cert.semester,\r\n            _cert.grade,\r\n            _cert.gradeType,\r\n            _cert.batchId\r\n        );\r\n        confirmCert(_groupId, _cert.id);\r\n        return _cert.id;\r\n    }\r\n\r\n    function submitBatch(uint _groupId, Cert[] memory _certs) onlyGroup(_groupId) public returns (uint) {\r\n        uint batchId = batchCount++;\r\n        batches[batchId] = new uint[](_certs.length);\r\n        for (uint i = 0; i < _certs.length; i++) {\r\n            uint certId = _certs[i].id;\r\n            certs[certId] = _certs[i];\r\n            batches[batchId][i] = certId;\r\n        }\r\n        emit BatchPending(\r\n            msg.sender,\r\n            batchId,\r\n            batches[batchId]\r\n        );\r\n        confirmBatch(_groupId, batchId);\r\n        return batchId;\r\n    }\r\n\r\n    function confirmCert(uint _groupId, uint _certId) onlyGroup(_groupId) public {\r\n        require(certConfirmed[_groupId][_certId][msg.sender] == false);\r\n        certConfirmed[_groupId][_certId][msg.sender] = true;\r\n        emit CertConfirmed(msg.sender, _certId);\r\n        executeCert(_groupId, _certId);\r\n    }\r\n\r\n    function confirmBatch(uint _groupId, uint _batchId) onlyGroup(_groupId) public {\r\n        require(batchConfirmed[_groupId][_batchId][msg.sender] == false);\r\n        batchConfirmed[_groupId][_batchId][msg.sender] = true;\r\n        for (uint i = 0; i < batches[_batchId].length; i++) {\r\n            uint certId = batches[_batchId][i];\r\n            certConfirmed[_groupId][certId][msg.sender] = true;\r\n            emit CertConfirmed(msg.sender, certId);\r\n        }\r\n        emit BatchConfirmed(msg.sender, _batchId);\r\n        executeBatch(_groupId, _batchId);\r\n    }\r\n\r\n    function executeCert(uint _groupId, uint _certId) onlyGroup(_groupId) private {\r\n        require(certExecuted[_certId] == false);\r\n        require(isCertConfirmed(_groupId, _certId));\r\n        certs[_certId].issuers = getCertConfirmers(_groupId, _certId);\r\n        Cert memory cert = certs[_certId];\r\n        holder.addCert(cert);\r\n        certExecuted[_certId] = true;\r\n        emit CertAdded(\r\n            cert.id,\r\n            cert.schoolId,\r\n            cert.studentId,\r\n            cert.subjectId,\r\n            cert.semester,\r\n            cert.grade,\r\n            cert.gradeType,\r\n            cert.batchId\r\n        );\r\n    }\r\n\r\n    function executeBatch(uint _groupId, uint _batchId) onlyGroup(_groupId) private {\r\n        require(batchExecuted[_batchId] == false);\r\n        require(isBatchConfirmed(_groupId, _batchId));\r\n        address[] memory confirmers = getBatchConfirmers(_groupId, _batchId);\r\n        Cert[] memory batchCerts = new Cert[](batches[_batchId].length);\r\n        for (uint i = 0; i < batches[_batchId].length; i++) {\r\n            uint certId = batches[_batchId][i];\r\n            certs[certId].issuers = confirmers;\r\n            batchCerts[i] = certs[certId];\r\n        }\r\n        holder.addCerts(batchCerts);\r\n        batchExecuted[_batchId] = true;\r\n        for (uint i = 0; i < batchCerts.length; i++) {\r\n            Cert memory cert = batchCerts[i];\r\n            emit CertAdded(\r\n                cert.id,\r\n                cert.schoolId,\r\n                cert.studentId,\r\n                cert.subjectId,\r\n                cert.semester,\r\n                cert.grade,\r\n                cert.gradeType,\r\n                cert.batchId\r\n            );\r\n        }\r\n        emit BatchAdded(\r\n            _batchId,\r\n            batches[_batchId]\r\n        );\r\n    }\r\n}",
  "sourcePath": "/home/vi/code/dcerts-manager/issuer-wallet/contracts/MultiSigWallet.sol",
  "compiler": {
    "name": "solc",
    "version": "0.8.10+commit.fc410830.Emscripten.clang"
  },
  "schemaVersion": "3.4.3",
  "updatedAt": "2022-01-21T16:51:20.038Z",
  "networkType": "ethereum",
  "devdoc": {
    "kind": "dev",
    "methods": {},
    "version": 1
  },
  "userdoc": {
    "kind": "user",
    "methods": {},
    "version": 1
  }
}