{
  "contractName": "MultiSigWallet",
  "abi": [
    {
      "inputs": [
        {
          "internalType": "string",
          "name": "_name",
          "type": "string"
        },
        {
          "internalType": "address[]",
          "name": "_members",
          "type": "address[]"
        },
        {
          "internalType": "uint256",
          "name": "_threshold",
          "type": "uint256"
        },
        {
          "internalType": "address",
          "name": "_address",
          "type": "address"
        }
      ],
      "stateMutability": "nonpayable",
      "type": "constructor"
    },
    {
      "anonymous": false,
      "inputs": [
        {
          "indexed": false,
          "internalType": "uint256",
          "name": "batchId",
          "type": "uint256"
        },
        {
          "indexed": false,
          "internalType": "string",
          "name": "regNo",
          "type": "string"
        },
        {
          "indexed": false,
          "internalType": "uint256[]",
          "name": "certIds",
          "type": "uint256[]"
        }
      ],
      "name": "BatchAdded",
      "type": "event"
    },
    {
      "anonymous": false,
      "inputs": [
        {
          "indexed": false,
          "internalType": "address",
          "name": "confirmer",
          "type": "address"
        },
        {
          "indexed": false,
          "internalType": "uint256",
          "name": "batchId",
          "type": "uint256"
        },
        {
          "indexed": false,
          "internalType": "string",
          "name": "regNo",
          "type": "string"
        }
      ],
      "name": "BatchConfirmed",
      "type": "event"
    },
    {
      "anonymous": false,
      "inputs": [
        {
          "indexed": false,
          "internalType": "address",
          "name": "creator",
          "type": "address"
        },
        {
          "indexed": false,
          "internalType": "uint256",
          "name": "groupId",
          "type": "uint256"
        },
        {
          "indexed": false,
          "internalType": "uint256",
          "name": "batchId",
          "type": "uint256"
        },
        {
          "indexed": false,
          "internalType": "string",
          "name": "regNo",
          "type": "string"
        },
        {
          "components": [
            {
              "internalType": "uint256",
              "name": "id",
              "type": "uint256"
            },
            {
              "internalType": "address",
              "name": "schoolId",
              "type": "address"
            },
            {
              "internalType": "string",
              "name": "regNo",
              "type": "string"
            },
            {
              "internalType": "uint256",
              "name": "batchId",
              "type": "uint256"
            },
            {
              "internalType": "string",
              "name": "batchRegNo",
              "type": "string"
            },
            {
              "internalType": "string",
              "name": "conferredOn",
              "type": "string"
            },
            {
              "internalType": "string",
              "name": "dateOfBirth",
              "type": "string"
            },
            {
              "internalType": "string",
              "name": "yearOfGraduation",
              "type": "string"
            },
            {
              "internalType": "string",
              "name": "majorIn",
              "type": "string"
            },
            {
              "internalType": "string",
              "name": "degreeOf",
              "type": "string"
            },
            {
              "internalType": "string",
              "name": "degreeClassification",
              "type": "string"
            },
            {
              "internalType": "string",
              "name": "modeOfStudy",
              "type": "string"
            },
            {
              "internalType": "string",
              "name": "createdIn",
              "type": "string"
            },
            {
              "internalType": "string",
              "name": "createdAt",
              "type": "string"
            },
            {
              "internalType": "address[]",
              "name": "issuers",
              "type": "address[]"
            }
          ],
          "indexed": false,
          "internalType": "struct Cert[]",
          "name": "certs",
          "type": "tuple[]"
        }
      ],
      "name": "BatchPending",
      "type": "event"
    },
    {
      "anonymous": false,
      "inputs": [
        {
          "indexed": false,
          "internalType": "address",
          "name": "rejecter",
          "type": "address"
        },
        {
          "indexed": false,
          "internalType": "uint256",
          "name": "batchId",
          "type": "uint256"
        },
        {
          "indexed": false,
          "internalType": "string",
          "name": "regNo",
          "type": "string"
        }
      ],
      "name": "BatchRejected",
      "type": "event"
    },
    {
      "anonymous": false,
      "inputs": [
        {
          "indexed": false,
          "internalType": "uint256",
          "name": "batchId",
          "type": "uint256"
        }
      ],
      "name": "BatchRemoved",
      "type": "event"
    },
    {
      "anonymous": false,
      "inputs": [
        {
          "indexed": false,
          "internalType": "uint256",
          "name": "certId",
          "type": "uint256"
        },
        {
          "indexed": false,
          "internalType": "string",
          "name": "regNo",
          "type": "string"
        },
        {
          "indexed": false,
          "internalType": "uint256",
          "name": "batchId",
          "type": "uint256"
        }
      ],
      "name": "CertAdded",
      "type": "event"
    },
    {
      "anonymous": false,
      "inputs": [
        {
          "indexed": false,
          "internalType": "address",
          "name": "confirmer",
          "type": "address"
        },
        {
          "indexed": false,
          "internalType": "uint256",
          "name": "certId",
          "type": "uint256"
        },
        {
          "indexed": false,
          "internalType": "string",
          "name": "regNo",
          "type": "string"
        },
        {
          "indexed": false,
          "internalType": "uint256",
          "name": "batchId",
          "type": "uint256"
        }
      ],
      "name": "CertConfirmed",
      "type": "event"
    },
    {
      "anonymous": false,
      "inputs": [
        {
          "indexed": false,
          "internalType": "address",
          "name": "creator",
          "type": "address"
        },
        {
          "indexed": false,
          "internalType": "uint256",
          "name": "certId",
          "type": "uint256"
        },
        {
          "indexed": false,
          "internalType": "string",
          "name": "regNo",
          "type": "string"
        },
        {
          "indexed": false,
          "internalType": "uint256",
          "name": "batchId",
          "type": "uint256"
        }
      ],
      "name": "CertPending",
      "type": "event"
    },
    {
      "anonymous": false,
      "inputs": [
        {
          "indexed": false,
          "internalType": "address",
          "name": "rejecter",
          "type": "address"
        },
        {
          "indexed": false,
          "internalType": "uint256",
          "name": "certId",
          "type": "uint256"
        },
        {
          "indexed": false,
          "internalType": "string",
          "name": "regNo",
          "type": "string"
        },
        {
          "indexed": false,
          "internalType": "uint256",
          "name": "batchId",
          "type": "uint256"
        }
      ],
      "name": "CertRejected",
      "type": "event"
    },
    {
      "anonymous": false,
      "inputs": [
        {
          "indexed": false,
          "internalType": "uint256",
          "name": "certId",
          "type": "uint256"
        }
      ],
      "name": "CertRemoved",
      "type": "event"
    },
    {
      "anonymous": false,
      "inputs": [
        {
          "indexed": false,
          "internalType": "address",
          "name": "from",
          "type": "address"
        },
        {
          "indexed": false,
          "internalType": "uint256",
          "name": "value",
          "type": "uint256"
        }
      ],
      "name": "Deposit",
      "type": "event"
    },
    {
      "anonymous": false,
      "inputs": [
        {
          "indexed": false,
          "internalType": "uint256",
          "name": "groupId",
          "type": "uint256"
        },
        {
          "indexed": false,
          "internalType": "string",
          "name": "name",
          "type": "string"
        },
        {
          "indexed": false,
          "internalType": "address[]",
          "name": "members",
          "type": "address[]"
        },
        {
          "indexed": false,
          "internalType": "uint256",
          "name": "threshold",
          "type": "uint256"
        }
      ],
      "name": "GroupAdded",
      "type": "event"
    },
    {
      "anonymous": false,
      "inputs": [
        {
          "indexed": false,
          "internalType": "address",
          "name": "confirmer",
          "type": "address"
        },
        {
          "indexed": false,
          "internalType": "uint256",
          "name": "groupId",
          "type": "uint256"
        }
      ],
      "name": "GroupConfirmed",
      "type": "event"
    },
    {
      "anonymous": false,
      "inputs": [
        {
          "indexed": false,
          "internalType": "address",
          "name": "creator",
          "type": "address"
        },
        {
          "indexed": false,
          "internalType": "uint256",
          "name": "groupId",
          "type": "uint256"
        },
        {
          "indexed": false,
          "internalType": "string",
          "name": "name",
          "type": "string"
        },
        {
          "indexed": false,
          "internalType": "address[]",
          "name": "members",
          "type": "address[]"
        },
        {
          "indexed": false,
          "internalType": "uint256",
          "name": "threshold",
          "type": "uint256"
        }
      ],
      "name": "GroupPending",
      "type": "event"
    },
    {
      "anonymous": false,
      "inputs": [
        {
          "indexed": false,
          "internalType": "address",
          "name": "rejecter",
          "type": "address"
        },
        {
          "indexed": false,
          "internalType": "uint256",
          "name": "groupId",
          "type": "uint256"
        }
      ],
      "name": "GroupRejected",
      "type": "event"
    },
    {
      "anonymous": false,
      "inputs": [
        {
          "indexed": false,
          "internalType": "uint256",
          "name": "groupId",
          "type": "uint256"
        }
      ],
      "name": "GroupRemoved",
      "type": "event"
    },
    {
      "anonymous": false,
      "inputs": [
        {
          "indexed": false,
          "internalType": "string",
          "name": "schoolName",
          "type": "string"
        },
        {
          "indexed": false,
          "internalType": "address[]",
          "name": "members",
          "type": "address[]"
        },
        {
          "indexed": false,
          "internalType": "uint256",
          "name": "threshold",
          "type": "uint256"
        },
        {
          "indexed": false,
          "internalType": "address",
          "name": "certsAddress",
          "type": "address"
        }
      ],
      "name": "WalletActivated",
      "type": "event"
    },
    {
      "stateMutability": "payable",
      "type": "fallback",
      "payable": true
    },
    {
      "stateMutability": "payable",
      "type": "receive",
      "payable": true
    },
    {
      "inputs": [
        {
          "internalType": "address",
          "name": "_member",
          "type": "address"
        }
      ],
      "name": "isMember",
      "outputs": [
        {
          "internalType": "bool",
          "name": "",
          "type": "bool"
        }
      ],
      "stateMutability": "view",
      "type": "function",
      "constant": true
    },
    {
      "inputs": [
        {
          "internalType": "address",
          "name": "_member",
          "type": "address"
        },
        {
          "internalType": "uint256",
          "name": "_groupId",
          "type": "uint256"
        }
      ],
      "name": "isMemberOfGroup",
      "outputs": [
        {
          "internalType": "bool",
          "name": "",
          "type": "bool"
        }
      ],
      "stateMutability": "view",
      "type": "function",
      "constant": true
    },
    {
      "inputs": [
        {
          "internalType": "uint256",
          "name": "_groupId",
          "type": "uint256"
        },
        {
          "internalType": "address",
          "name": "_member",
          "type": "address"
        }
      ],
      "name": "isGroupConfirmedBy",
      "outputs": [
        {
          "internalType": "bool",
          "name": "",
          "type": "bool"
        }
      ],
      "stateMutability": "view",
      "type": "function",
      "constant": true
    },
    {
      "inputs": [
        {
          "internalType": "uint256",
          "name": "_groupId",
          "type": "uint256"
        },
        {
          "internalType": "address",
          "name": "_member",
          "type": "address"
        }
      ],
      "name": "isGroupRejectedBy",
      "outputs": [
        {
          "internalType": "bool",
          "name": "",
          "type": "bool"
        }
      ],
      "stateMutability": "view",
      "type": "function",
      "constant": true
    },
    {
      "inputs": [
        {
          "internalType": "uint256",
          "name": "_groupId",
          "type": "uint256"
        }
      ],
      "name": "isGroupConfirmed",
      "outputs": [
        {
          "internalType": "bool",
          "name": "",
          "type": "bool"
        }
      ],
      "stateMutability": "view",
      "type": "function",
      "constant": true
    },
    {
      "inputs": [
        {
          "internalType": "uint256",
          "name": "_groupId",
          "type": "uint256"
        }
      ],
      "name": "isGroupRejected",
      "outputs": [
        {
          "internalType": "bool",
          "name": "",
          "type": "bool"
        }
      ],
      "stateMutability": "view",
      "type": "function",
      "constant": true
    },
    {
      "inputs": [
        {
          "internalType": "string",
          "name": "_name",
          "type": "string"
        },
        {
          "internalType": "address[]",
          "name": "_members",
          "type": "address[]"
        },
        {
          "internalType": "uint256",
          "name": "_threshold",
          "type": "uint256"
        }
      ],
      "name": "addGroup",
      "outputs": [
        {
          "internalType": "uint256",
          "name": "",
          "type": "uint256"
        }
      ],
      "stateMutability": "nonpayable",
      "type": "function"
    },
    {
      "inputs": [
        {
          "internalType": "uint256",
          "name": "_groupId",
          "type": "uint256"
        }
      ],
      "name": "confirmGroup",
      "outputs": [],
      "stateMutability": "nonpayable",
      "type": "function"
    },
    {
      "inputs": [
        {
          "internalType": "uint256",
          "name": "_groupId",
          "type": "uint256"
        }
      ],
      "name": "rejectGroup",
      "outputs": [],
      "stateMutability": "nonpayable",
      "type": "function"
    },
    {
      "inputs": [
        {
          "internalType": "uint256",
          "name": "_groupId",
          "type": "uint256"
        }
      ],
      "name": "getGroup",
      "outputs": [
        {
          "components": [
            {
              "internalType": "uint256",
              "name": "id",
              "type": "uint256"
            },
            {
              "internalType": "string",
              "name": "name",
              "type": "string"
            },
            {
              "internalType": "address[]",
              "name": "members",
              "type": "address[]"
            },
            {
              "internalType": "uint256",
              "name": "threshold",
              "type": "uint256"
            },
            {
              "internalType": "address[]",
              "name": "confirmedBy",
              "type": "address[]"
            },
            {
              "internalType": "address[]",
              "name": "rejectedBy",
              "type": "address[]"
            }
          ],
          "internalType": "struct MultiSigWallet.Group",
          "name": "",
          "type": "tuple"
        }
      ],
      "stateMutability": "view",
      "type": "function",
      "constant": true
    },
    {
      "inputs": [
        {
          "internalType": "uint256",
          "name": "_groupId",
          "type": "uint256"
        },
        {
          "internalType": "uint256",
          "name": "_batchId",
          "type": "uint256"
        }
      ],
      "name": "isBatchConfirmed",
      "outputs": [
        {
          "internalType": "bool",
          "name": "",
          "type": "bool"
        }
      ],
      "stateMutability": "view",
      "type": "function",
      "constant": true
    },
    {
      "inputs": [
        {
          "internalType": "uint256",
          "name": "_groupId",
          "type": "uint256"
        },
        {
          "internalType": "string",
          "name": "_batchName",
          "type": "string"
        },
        {
          "components": [
            {
              "internalType": "uint256",
              "name": "id",
              "type": "uint256"
            },
            {
              "internalType": "address",
              "name": "schoolId",
              "type": "address"
            },
            {
              "internalType": "string",
              "name": "regNo",
              "type": "string"
            },
            {
              "internalType": "uint256",
              "name": "batchId",
              "type": "uint256"
            },
            {
              "internalType": "string",
              "name": "batchRegNo",
              "type": "string"
            },
            {
              "internalType": "string",
              "name": "conferredOn",
              "type": "string"
            },
            {
              "internalType": "string",
              "name": "dateOfBirth",
              "type": "string"
            },
            {
              "internalType": "string",
              "name": "yearOfGraduation",
              "type": "string"
            },
            {
              "internalType": "string",
              "name": "majorIn",
              "type": "string"
            },
            {
              "internalType": "string",
              "name": "degreeOf",
              "type": "string"
            },
            {
              "internalType": "string",
              "name": "degreeClassification",
              "type": "string"
            },
            {
              "internalType": "string",
              "name": "modeOfStudy",
              "type": "string"
            },
            {
              "internalType": "string",
              "name": "createdIn",
              "type": "string"
            },
            {
              "internalType": "string",
              "name": "createdAt",
              "type": "string"
            },
            {
              "internalType": "address[]",
              "name": "issuers",
              "type": "address[]"
            }
          ],
          "internalType": "struct Cert[]",
          "name": "_certs",
          "type": "tuple[]"
        }
      ],
      "name": "submitBatch",
      "outputs": [
        {
          "internalType": "uint256",
          "name": "",
          "type": "uint256"
        }
      ],
      "stateMutability": "nonpayable",
      "type": "function"
    },
    {
      "inputs": [
        {
          "internalType": "uint256",
          "name": "_groupId",
          "type": "uint256"
        },
        {
          "internalType": "uint256",
          "name": "_batchId",
          "type": "uint256"
        }
      ],
      "name": "confirmBatch",
      "outputs": [],
      "stateMutability": "nonpayable",
      "type": "function"
    }
  ],
  "bytecode": "0x60806040526000600c556000600d556000600e553480156200002057600080fd5b5060405162004fa338038062004fa383398181016040528101906200004691906200058b565b60008351116200005557600080fd5b600082116200006357600080fd5b82518211156200007257600080fd5b83600190805190602001906200008a92919062000134565b508260029080519060200190620000a3929190620001c5565b5081600381905550806000806101000a81548173ffffffffffffffffffffffffffffffffffffffff021916908373ffffffffffffffffffffffffffffffffffffffff1602179055507fa3c3c713368877193c2424d165fa22a1f3fcb383cf273be9c287d3cb847152e38484848460405162000122949392919062000788565b60405180910390a15050505062000848565b828054620001429062000812565b90600052602060002090601f016020900481019282620001665760008555620001b2565b82601f106200018157805160ff1916838001178555620001b2565b82800160010185558215620001b2579182015b82811115620001b157825182559160200191906001019062000194565b5b509050620001c1919062000254565b5090565b82805482825590600052602060002090810192821562000241579160200282015b82811115620002405782518260006101000a81548173ffffffffffffffffffffffffffffffffffffffff021916908373ffffffffffffffffffffffffffffffffffffffff16021790555091602001919060010190620001e6565b5b50905062000250919062000254565b5090565b5b808211156200026f57600081600090555060010162000255565b5090565b6000604051905090565b600080fd5b600080fd5b600080fd5b600080fd5b6000601f19601f8301169050919050565b7f4e487b7100000000000000000000000000000000000000000000000000000000600052604160045260246000fd5b620002dc8262000291565b810181811067ffffffffffffffff82111715620002fe57620002fd620002a2565b5b80604052505050565b60006200031362000273565b9050620003218282620002d1565b919050565b600067ffffffffffffffff821115620003445762000343620002a2565b5b6200034f8262000291565b9050602081019050919050565b60005b838110156200037c5780820151818401526020810190506200035f565b838111156200038c576000848401525b50505050565b6000620003a9620003a38462000326565b62000307565b905082815260208101848484011115620003c857620003c76200028c565b5b620003d58482856200035c565b509392505050565b600082601f830112620003f557620003f462000287565b5b81516200040784826020860162000392565b91505092915050565b600067ffffffffffffffff8211156200042e576200042d620002a2565b5b602082029050602081019050919050565b600080fd5b600073ffffffffffffffffffffffffffffffffffffffff82169050919050565b6000620004718262000444565b9050919050565b620004838162000464565b81146200048f57600080fd5b50565b600081519050620004a38162000478565b92915050565b6000620004c0620004ba8462000410565b62000307565b90508083825260208201905060208402830185811115620004e657620004e56200043f565b5b835b81811015620005135780620004fe888262000492565b845260208401935050602081019050620004e8565b5050509392505050565b600082601f83011262000535576200053462000287565b5b815162000547848260208601620004a9565b91505092915050565b6000819050919050565b620005658162000550565b81146200057157600080fd5b50565b60008151905062000585816200055a565b92915050565b60008060008060808587031215620005a857620005a76200027d565b5b600085015167ffffffffffffffff811115620005c957620005c862000282565b5b620005d787828801620003dd565b945050602085015167ffffffffffffffff811115620005fb57620005fa62000282565b5b62000609878288016200051d565b93505060406200061c8782880162000574565b92505060606200062f8782880162000492565b91505092959194509250565b600081519050919050565b600082825260208201905092915050565b600062000664826200063b565b62000670818562000646565b9350620006828185602086016200035c565b6200068d8162000291565b840191505092915050565b600081519050919050565b600082825260208201905092915050565b6000819050602082019050919050565b620006cf8162000464565b82525050565b6000620006e38383620006c4565b60208301905092915050565b6000602082019050919050565b6000620007098262000698565b620007158185620006a3565b93506200072283620006b4565b8060005b83811015620007595781516200073d8882620006d5565b97506200074a83620006ef565b92505060018101905062000726565b5085935050505092915050565b620007718162000550565b82525050565b620007828162000464565b82525050565b60006080820190508181036000830152620007a4818762000657565b90508181036020830152620007ba8186620006fc565b9050620007cb604083018562000766565b620007da606083018462000777565b95945050505050565b7f4e487b7100000000000000000000000000000000000000000000000000000000600052602260045260246000fd5b600060028204905060018216806200082b57607f821691505b60208210811415620008425762000841620007e3565b5b50919050565b61474b80620008586000396000f3fe6080604052600436106100c65760003560e01c8063a230c5241161007f578063cd698c9f11610059578063cd698c9f14610352578063ceb606541461038f578063dc595dc4146103cc578063e36c3998146103f557610110565b8063a230c524146102af578063b5ba9bf9146102ec578063ca61b3011461032957610110565b8063018c890a146101555780631faef1bc146101925780632650b005146101cf57806345dfb2941461020c5780635da1546b146102355780639d9370241461027257610110565b3661011057600034111561010e577fe1fffcc4923d04b559f4d29a8bfc6cda04eb5b0d3c460751c2402c5c5cc9109c3334604051610105929190613373565b60405180910390a15b005b6000341115610153577fe1fffcc4923d04b559f4d29a8bfc6cda04eb5b0d3c460751c2402c5c5cc9109c333460405161014a929190613373565b60405180910390a15b005b34801561016157600080fd5b5061017c600480360381019061017791906133dc565b610432565b6040516101899190613437565b60405180910390f35b34801561019e57600080fd5b506101b960048036038101906101b4919061347e565b6104e3565b6040516101c69190613437565b60405180910390f35b3480156101db57600080fd5b506101f660048036038101906101f191906134be565b6105bb565b6040516102039190613437565b60405180910390f35b34801561021857600080fd5b50610233600480360381019061022e91906134fe565b6106ba565b005b34801561024157600080fd5b5061025c60048036038101906102579190613739565b6109ca565b60405161026991906137c4565b60405180910390f35b34801561027e57600080fd5b506102996004803603810190610294919061347e565b610c63565b6040516102a69190613437565b60405180910390f35b3480156102bb57600080fd5b506102d660048036038101906102d191906137df565b610d3b565b6040516102e39190613437565b60405180910390f35b3480156102f857600080fd5b50610313600480360381019061030e91906134fe565b610dea565b6040516103209190613437565b60405180910390f35b34801561033557600080fd5b50610350600480360381019061034b91906134fe565b610ecc565b005b34801561035e57600080fd5b5061037960048036038101906103749190613bab565b611196565b60405161038691906137c4565b60405180910390f35b34801561039b57600080fd5b506103b660048036038101906103b191906134fe565b6116cb565b6040516103c39190613e29565b60405180910390f35b3480156103d857600080fd5b506103f360048036038101906103ee91906133dc565b611948565b005b34801561040157600080fd5b5061041c600480360381019061041791906134fe565b612361565b6040516104299190613437565b60405180910390f35b60008061043f8484612443565b90506000805b82518110156104be57600073ffffffffffffffffffffffffffffffffffffffff1683828151811061047957610478613e4b565b5b602002602001015173ffffffffffffffffffffffffffffffffffffffff16146104ab5781806104a790613ea9565b9250505b80806104b690613ea9565b915050610445565b5060046000868152602001908152602001600020600301548110159250505092915050565b600080600090505b60046000858152602001908152602001600020600401805490508110156105af578273ffffffffffffffffffffffffffffffffffffffff1660046000868152602001908152602001600020600401828154811061054b5761054a613e4b565b5b9060005260206000200160009054906101000a900473ffffffffffffffffffffffffffffffffffffffff1673ffffffffffffffffffffffffffffffffffffffff16141561059c5760019150506105b5565b80806105a790613ea9565b9150506104eb565b50600090505b92915050565b600080600460008481526020019081526020016000206002018054905014156105e757600090506106b4565b60005b60046000848152602001908152602001600020600201805490508110156106ae578373ffffffffffffffffffffffffffffffffffffffff1660046000858152602001908152602001600020600201828154811061064a57610649613e4b565b5b9060005260206000200160009054906101000a900473ffffffffffffffffffffffffffffffffffffffff1673ffffffffffffffffffffffffffffffffffffffff16141561069b5760019150506106b4565b80806106a690613ea9565b9150506105ea565b50600090505b92915050565b6106c333610d3b565b6106cc57600080fd5b600015156106d982612361565b1515146106e557600080fd5b600015156106f282610dea565b1515146106fe57600080fd5b6000151561070c8233610c63565b15151461071857600080fd5b6000600460008381526020019081526020016000206004018054806020026020016040519081016040528092919081815260200182805480156107b057602002820191906000526020600020905b8160009054906101000a900473ffffffffffffffffffffffffffffffffffffffff1673ffffffffffffffffffffffffffffffffffffffff1681526020019060010190808311610766575b505050505090506000805b825181101561088e573373ffffffffffffffffffffffffffffffffffffffff168382815181106107ee576107ed613e4b565b5b602002602001015173ffffffffffffffffffffffffffffffffffffffff16141561081e57600061081d57600080fd5b5b600073ffffffffffffffffffffffffffffffffffffffff1683828151811061084957610848613e4b565b5b602002602001015173ffffffffffffffffffffffffffffffffffffffff161461087b57818061087790613ea9565b9250505b808061088690613ea9565b9150506107bb565b50336004600085815260200190815260200160002060040182815481106108b8576108b7613e4b565b5b9060005260206000200160006101000a81548173ffffffffffffffffffffffffffffffffffffffff021916908373ffffffffffffffffffffffffffffffffffffffff1602179055507f40212d9d89b8b595d3e8beccd8d17412912ffefafb3f51257d1953e11571f9043384604051610931929190613373565b60405180910390a161094283610dea565b156109c5577ff310f10bdd8e03d060d72e9cc4ff7cb137a11f2a168f021b8a77bc8ac577e37a83600460008681526020019081526020016000206001016004600087815260200190815260200160002060020160046000888152602001908152602001600020600301546040516109bc94939291906140f6565b60405180910390a15b505050565b60006109d533610d3b565b6109de57600080fd5b60008351116109ec57600080fd5b600082116109f957600080fd5b8251821115610a0757600080fd5b6000600e6000815480929190610a1c90613ea9565b91905055905060006040518060c0016040528083815260200187815260200186815260200185815260200160028054905067ffffffffffffffff811115610a6657610a65613546565b5b604051908082528060200260200182016040528015610a945781602001602082028036833780820191505090505b50815260200160028054905067ffffffffffffffff811115610ab957610ab8613546565b5b604051908082528060200260200182016040528015610ae75781602001602082028036833780820191505090505b508152509050338160800151600081518110610b0657610b05613e4b565b5b602002602001019073ffffffffffffffffffffffffffffffffffffffff16908173ffffffffffffffffffffffffffffffffffffffff16815250508060046000848152602001908152602001600020600082015181600001556020820151816001019080519060200190610b7a9291906130dd565b506040820151816002019080519060200190610b97929190613163565b50606082015181600301556080820151816004019080519060200190610bbe929190613163565b5060a0820151816005019080519060200190610bdb929190613163565b509050507f27efe2927956a250c8a9a9e3d43c2fdea8859582d25981ad6139be4e6a4262733383888888604051610c169594939291906141e0565b60405180910390a17f40212d9d89b8b595d3e8beccd8d17412912ffefafb3f51257d1953e11571f9043383604051610c4f929190613373565b60405180910390a181925050509392505050565b600080600090505b6004600085815260200190815260200160002060050180549050811015610d2f578273ffffffffffffffffffffffffffffffffffffffff16600460008681526020019081526020016000206005018281548110610ccb57610cca613e4b565b5b9060005260206000200160009054906101000a900473ffffffffffffffffffffffffffffffffffffffff1673ffffffffffffffffffffffffffffffffffffffff161415610d1c576001915050610d35565b8080610d2790613ea9565b915050610c6b565b50600090505b92915050565b600080600090505b600280549050811015610ddf578273ffffffffffffffffffffffffffffffffffffffff1660028281548110610d7b57610d7a613e4b565b5b9060005260206000200160009054906101000a900473ffffffffffffffffffffffffffffffffffffffff1673ffffffffffffffffffffffffffffffffffffffff161415610dcc576001915050610de5565b8080610dd790613ea9565b915050610d43565b50600090505b919050565b6000806000905060005b6004600085815260200190815260200160002060040180549050811015610ebd57600073ffffffffffffffffffffffffffffffffffffffff16600460008681526020019081526020016000206004018281548110610e5557610e54613e4b565b5b9060005260206000200160009054906101000a900473ffffffffffffffffffffffffffffffffffffffff1673ffffffffffffffffffffffffffffffffffffffff1614610eaa578180610ea690613ea9565b9250505b8080610eb590613ea9565b915050610df4565b50600354811015915050919050565b610ed533610d3b565b610ede57600080fd5b60001515610eeb82610dea565b151514610ef757600080fd5b60001515610f0482612361565b151514610f1057600080fd5b60001515610f1e82336104e3565b151514610f2a57600080fd5b600060046000838152602001908152602001600020600501805480602002602001604051908101604052809291908181526020018280548015610fc257602002820191906000526020600020905b8160009054906101000a900473ffffffffffffffffffffffffffffffffffffffff1673ffffffffffffffffffffffffffffffffffffffff1681526020019060010190808311610f78575b505050505090506000805b82518110156110a0573373ffffffffffffffffffffffffffffffffffffffff1683828151811061100057610fff613e4b565b5b602002602001015173ffffffffffffffffffffffffffffffffffffffff16141561103057600061102f57600080fd5b5b600073ffffffffffffffffffffffffffffffffffffffff1683828151811061105b5761105a613e4b565b5b602002602001015173ffffffffffffffffffffffffffffffffffffffff161461108d57818061108990613ea9565b9250505b808061109890613ea9565b915050610fcd565b50336004600085815260200190815260200160002060050182815481106110ca576110c9613e4b565b5b9060005260206000200160006101000a81548173ffffffffffffffffffffffffffffffffffffffff021916908373ffffffffffffffffffffffffffffffffffffffff1602179055507f8967c070a7dc13f025001bc9fdc38565793425413e963114bb0ddeac3998c6cc3384604051611143929190613373565b60405180910390a161115483612361565b15611191577ffd132ec9e11063907001f1b4412752c57b09723015bc730bdf82d825476b8f358360405161118891906137c4565b60405180910390a15b505050565b6000836111a281610dea565b6111ab57600080fd5b6111b533826105bb565b6111be57600080fd5b6000600d60008154809291906111d390613ea9565b919050559050604051806040016040528082815260200186815250600560008381526020019081526020016000206000820151816000015560208201518160010190805190602001906112279291906130dd565b50905050835167ffffffffffffffff81111561124657611245613546565b5b6040519080825280602002602001820160405280156112745781602001602082028036833780820191505090505b5060096000838152602001908152602001600020908051906020019061129b9291906131ed565b5060005b84518110156115ea576000600c60008154809291906112bd90613ea9565b919050559050808683815181106112d7576112d6613e4b565b5b60200260200101516000018181525050828683815181106112fb576112fa613e4b565b5b602002602001015160600181815250508686838151811061131f5761131e613e4b565b5b602002602001015160800181905250600460008981526020019081526020016000206002018054905067ffffffffffffffff81111561136157611360613546565b5b60405190808252806020026020018201604052801561138f5781602001602082028036833780820191505090505b508683815181106113a3576113a2613e4b565b5b60200260200101516101c001819052508582815181106113c6576113c5613e4b565b5b6020026020010151600660008381526020019081526020016000206000820151816000015560208201518160010160006101000a81548173ffffffffffffffffffffffffffffffffffffffff021916908373ffffffffffffffffffffffffffffffffffffffff160217905550604082015181600201908051906020019061144e9291906130dd565b506060820151816003015560808201518160040190805190602001906114759291906130dd565b5060a08201518160050190805190602001906114929291906130dd565b5060c08201518160060190805190602001906114af9291906130dd565b5060e08201518160070190805190602001906114cc9291906130dd565b506101008201518160080190805190602001906114ea9291906130dd565b506101208201518160090190805190602001906115089291906130dd565b5061014082015181600a0190805190602001906115269291906130dd565b5061016082015181600b0190805190602001906115449291906130dd565b5061018082015181600c0190805190602001906115629291906130dd565b506101a082015181600d0190805190602001906115809291906130dd565b506101c082015181600e01908051906020019061159e929190613163565b50905050806009600085815260200190815260200160002083815481106115c8576115c7613e4b565b5b90600052602060002001819055505080806115e290613ea9565b91505061129f565b5060008054906101000a900473ffffffffffffffffffffffffffffffffffffffff1673ffffffffffffffffffffffffffffffffffffffff1663e93731ec856040518263ffffffff1660e01b81526004016116449190614493565b600060405180830381600087803b15801561165e57600080fd5b505af1158015611672573d6000803e3d6000fd5b505050507f7ccc83e09914cac7f4bdec0f35389d40d993ef4605a2a31e187a685efa74916a33878388886040516116ad9594939291906144b5565b60405180910390a16116bf8682611948565b80925050509392505050565b6116d361323a565b600460008381526020019081526020016000206040518060c00160405290816000820154815260200160018201805461170b90613f21565b80601f016020809104026020016040519081016040528092919081815260200182805461173790613f21565b80156117845780601f1061175957610100808354040283529160200191611784565b820191906000526020600020905b81548152906001019060200180831161176757829003601f168201915b505050505081526020016002820180548060200260200160405190810160405280929190818152602001828054801561181257602002820191906000526020600020905b8160009054906101000a900473ffffffffffffffffffffffffffffffffffffffff1673ffffffffffffffffffffffffffffffffffffffff16815260200190600101908083116117c8575b5050505050815260200160038201548152602001600482018054806020026020016040519081016040528092919081815260200182805480156118aa57602002820191906000526020600020905b8160009054906101000a900473ffffffffffffffffffffffffffffffffffffffff1673ffffffffffffffffffffffffffffffffffffffff1681526020019060010190808311611860575b505050505081526020016005820180548060200260200160405190810160405280929190818152602001828054801561193857602002820191906000526020600020905b8160009054906101000a900473ffffffffffffffffffffffffffffffffffffffff1673ffffffffffffffffffffffffffffffffffffffff16815260200190600101908083116118ee575b5050505050815250509050919050565b8161195281610dea565b61195b57600080fd5b61196533826105bb565b61196e57600080fd5b60001515600b6000858152602001908152602001600020600084815260200190815260200160002060003373ffffffffffffffffffffffffffffffffffffffff1673ffffffffffffffffffffffffffffffffffffffff16815260200190815260200160002060009054906101000a900460ff161515146119ed57600080fd5b6001600b6000858152602001908152602001600020600084815260200190815260200160002060003373ffffffffffffffffffffffffffffffffffffffff1673ffffffffffffffffffffffffffffffffffffffff16815260200190815260200160002060006101000a81548160ff02191690831515021790555060005b60096000848152602001908152602001600020805490508110156122f1576000600960008581526020019081526020016000208281548110611aaf57611aae613e4b565b5b90600052602060002001549050600160086000878152602001908152602001600020600083815260200190815260200160002060003373ffffffffffffffffffffffffffffffffffffffff1673ffffffffffffffffffffffffffffffffffffffff16815260200190815260200160002060006101000a81548160ff021916908315150217905550600060066000838152602001908152602001600020604051806101e0016040529081600082015481526020016001820160009054906101000a900473ffffffffffffffffffffffffffffffffffffffff1673ffffffffffffffffffffffffffffffffffffffff1673ffffffffffffffffffffffffffffffffffffffff168152602001600282018054611bc790613f21565b80601f0160208091040260200160405190810160405280929190818152602001828054611bf390613f21565b8015611c405780601f10611c1557610100808354040283529160200191611c40565b820191906000526020600020905b815481529060010190602001808311611c2357829003601f168201915b5050505050815260200160038201548152602001600482018054611c6390613f21565b80601f0160208091040260200160405190810160405280929190818152602001828054611c8f90613f21565b8015611cdc5780601f10611cb157610100808354040283529160200191611cdc565b820191906000526020600020905b815481529060010190602001808311611cbf57829003601f168201915b50505050508152602001600582018054611cf590613f21565b80601f0160208091040260200160405190810160405280929190818152602001828054611d2190613f21565b8015611d6e5780601f10611d4357610100808354040283529160200191611d6e565b820191906000526020600020905b815481529060010190602001808311611d5157829003601f168201915b50505050508152602001600682018054611d8790613f21565b80601f0160208091040260200160405190810160405280929190818152602001828054611db390613f21565b8015611e005780601f10611dd557610100808354040283529160200191611e00565b820191906000526020600020905b815481529060010190602001808311611de357829003601f168201915b50505050508152602001600782018054611e1990613f21565b80601f0160208091040260200160405190810160405280929190818152602001828054611e4590613f21565b8015611e925780601f10611e6757610100808354040283529160200191611e92565b820191906000526020600020905b815481529060010190602001808311611e7557829003601f168201915b50505050508152602001600882018054611eab90613f21565b80601f0160208091040260200160405190810160405280929190818152602001828054611ed790613f21565b8015611f245780601f10611ef957610100808354040283529160200191611f24565b820191906000526020600020905b815481529060010190602001808311611f0757829003601f168201915b50505050508152602001600982018054611f3d90613f21565b80601f0160208091040260200160405190810160405280929190818152602001828054611f6990613f21565b8015611fb65780601f10611f8b57610100808354040283529160200191611fb6565b820191906000526020600020905b815481529060010190602001808311611f9957829003601f168201915b50505050508152602001600a82018054611fcf90613f21565b80601f0160208091040260200160405190810160405280929190818152602001828054611ffb90613f21565b80156120485780601f1061201d57610100808354040283529160200191612048565b820191906000526020600020905b81548152906001019060200180831161202b57829003601f168201915b50505050508152602001600b8201805461206190613f21565b80601f016020809104026020016040519081016040528092919081815260200182805461208d90613f21565b80156120da5780601f106120af576101008083540402835291602001916120da565b820191906000526020600020905b8154815290600101906020018083116120bd57829003601f168201915b50505050508152602001600c820180546120f390613f21565b80601f016020809104026020016040519081016040528092919081815260200182805461211f90613f21565b801561216c5780601f106121415761010080835404028352916020019161216c565b820191906000526020600020905b81548152906001019060200180831161214f57829003601f168201915b50505050508152602001600d8201805461218590613f21565b80601f01602080910402602001604051908101604052809291908181526020018280546121b190613f21565b80156121fe5780601f106121d3576101008083540402835291602001916121fe565b820191906000526020600020905b8154815290600101906020018083116121e157829003601f168201915b50505050508152602001600e820180548060200260200160405190810160405280929190818152602001828054801561228c57602002820191906000526020600020905b8160009054906101000a900473ffffffffffffffffffffffffffffffffffffffff1673ffffffffffffffffffffffffffffffffffffffff1681526020019060010190808311612242575b50505050508152505090507fd23e0e1cf7efd56afba725e60b9d313a14602a143f2c6ea2c780aead0107b5e33383836040015184606001516040516122d49493929190614516565b60405180910390a1505080806122e990613ea9565b915050611a6a565b507fb4997c2bafa0c10ba6e58f9474692ad01d1e224db968ff6d6ffe99d2a959122633836005600086815260200190815260200160002060010160405161233a93929190614562565b60405180910390a161234c8383610432565b1561235c5761235b8383612664565b5b505050565b6000806000905060005b600460008581526020019081526020016000206005018054905081101561243457600073ffffffffffffffffffffffffffffffffffffffff166004600086815260200190815260200160002060050182815481106123cc576123cb613e4b565b5b9060005260206000200160009054906101000a900473ffffffffffffffffffffffffffffffffffffffff1673ffffffffffffffffffffffffffffffffffffffff161461242157818061241d90613ea9565b9250505b808061242c90613ea9565b91505061236b565b50600354811015915050919050565b60606000600460008581526020019081526020016000206002018054806020026020016040519081016040528092919081815260200182805480156124dd57602002820191906000526020600020905b8160009054906101000a900473ffffffffffffffffffffffffffffffffffffffff1673ffffffffffffffffffffffffffffffffffffffff1681526020019060010190808311612493575b505050505090506000815167ffffffffffffffff81111561250157612500613546565b5b60405190808252806020026020018201604052801561252f5781602001602082028036833780820191505090505b5090506000805b835181101561265757600b60008881526020019081526020016000206000878152602001908152602001600020600085838151811061257857612577613e4b565b5b602002602001015173ffffffffffffffffffffffffffffffffffffffff1673ffffffffffffffffffffffffffffffffffffffff16815260200190815260200160002060009054906101000a900460ff1615612644578381815181106125e0576125df613e4b565b5b60200260200101518383815181106125fb576125fa613e4b565b5b602002602001019073ffffffffffffffffffffffffffffffffffffffff16908173ffffffffffffffffffffffffffffffffffffffff1681525050818061264090613ea9565b9250505b808061264f90613ea9565b915050612536565b5081935050505092915050565b8161266e81610dea565b61267757600080fd5b61268133826105bb565b61268a57600080fd5b60001515600a600084815260200190815260200160002060009054906101000a900460ff161515146126bb57600080fd5b60006126c78484612443565b905060006009600085815260200190815260200160002080549050905060008167ffffffffffffffff811115612700576126ff613546565b5b60405190808252806020026020018201604052801561273957816020015b612726613270565b81526020019060019003908161271e5790505b50905060005b82811015612f3557600060096000888152602001908152602001600020828154811061276e5761276d613e4b565b5b906000526020600020015490508460066000838152602001908152602001600020600e0190805190602001906127a5929190613163565b5060066000828152602001908152602001600020604051806101e0016040529081600082015481526020016001820160009054906101000a900473ffffffffffffffffffffffffffffffffffffffff1673ffffffffffffffffffffffffffffffffffffffff1673ffffffffffffffffffffffffffffffffffffffff16815260200160028201805461283590613f21565b80601f016020809104026020016040519081016040528092919081815260200182805461286190613f21565b80156128ae5780601f10612883576101008083540402835291602001916128ae565b820191906000526020600020905b81548152906001019060200180831161289157829003601f168201915b50505050508152602001600382015481526020016004820180546128d190613f21565b80601f01602080910402602001604051908101604052809291908181526020018280546128fd90613f21565b801561294a5780601f1061291f5761010080835404028352916020019161294a565b820191906000526020600020905b81548152906001019060200180831161292d57829003601f168201915b5050505050815260200160058201805461296390613f21565b80601f016020809104026020016040519081016040528092919081815260200182805461298f90613f21565b80156129dc5780601f106129b1576101008083540402835291602001916129dc565b820191906000526020600020905b8154815290600101906020018083116129bf57829003601f168201915b505050505081526020016006820180546129f590613f21565b80601f0160208091040260200160405190810160405280929190818152602001828054612a2190613f21565b8015612a6e5780601f10612a4357610100808354040283529160200191612a6e565b820191906000526020600020905b815481529060010190602001808311612a5157829003601f168201915b50505050508152602001600782018054612a8790613f21565b80601f0160208091040260200160405190810160405280929190818152602001828054612ab390613f21565b8015612b005780601f10612ad557610100808354040283529160200191612b00565b820191906000526020600020905b815481529060010190602001808311612ae357829003601f168201915b50505050508152602001600882018054612b1990613f21565b80601f0160208091040260200160405190810160405280929190818152602001828054612b4590613f21565b8015612b925780601f10612b6757610100808354040283529160200191612b92565b820191906000526020600020905b815481529060010190602001808311612b7557829003601f168201915b50505050508152602001600982018054612bab90613f21565b80601f0160208091040260200160405190810160405280929190818152602001828054612bd790613f21565b8015612c245780601f10612bf957610100808354040283529160200191612c24565b820191906000526020600020905b815481529060010190602001808311612c0757829003601f168201915b50505050508152602001600a82018054612c3d90613f21565b80601f0160208091040260200160405190810160405280929190818152602001828054612c6990613f21565b8015612cb65780601f10612c8b57610100808354040283529160200191612cb6565b820191906000526020600020905b815481529060010190602001808311612c9957829003601f168201915b50505050508152602001600b82018054612ccf90613f21565b80601f0160208091040260200160405190810160405280929190818152602001828054612cfb90613f21565b8015612d485780601f10612d1d57610100808354040283529160200191612d48565b820191906000526020600020905b815481529060010190602001808311612d2b57829003601f168201915b50505050508152602001600c82018054612d6190613f21565b80601f0160208091040260200160405190810160405280929190818152602001828054612d8d90613f21565b8015612dda5780601f10612daf57610100808354040283529160200191612dda565b820191906000526020600020905b815481529060010190602001808311612dbd57829003601f168201915b50505050508152602001600d82018054612df390613f21565b80601f0160208091040260200160405190810160405280929190818152602001828054612e1f90613f21565b8015612e6c5780601f10612e4157610100808354040283529160200191612e6c565b820191906000526020600020905b815481529060010190602001808311612e4f57829003601f168201915b50505050508152602001600e8201805480602002602001604051908101604052809291908181526020018280548015612efa57602002820191906000526020600020905b8160009054906101000a900473ffffffffffffffffffffffffffffffffffffffff1673ffffffffffffffffffffffffffffffffffffffff1681526020019060010190808311612eb0575b505050505081525050838381518110612f1657612f15613e4b565b5b6020026020010181905250508080612f2d90613ea9565b91505061273f565b5060008054906101000a900473ffffffffffffffffffffffffffffffffffffffff1673ffffffffffffffffffffffffffffffffffffffff1663e93731ec826040518263ffffffff1660e01b8152600401612f8f9190614493565b600060405180830381600087803b158015612fa957600080fd5b505af1158015612fbd573d6000803e3d6000fd5b505050506001600a600087815260200190815260200160002060006101000a81548160ff02191690831515021790555060005b8281101561307257600082828151811061300d5761300c613e4b565b5b602002602001015190507f1013de973c1173b6d761402a6463eedb8295298d126c27395b046cb522cbe463816000015182604001518360600151604051613056939291906145a0565b60405180910390a150808061306a90613ea9565b915050612ff0565b507f0a1c6b555d341d04847ed94a92dd7f44f1941346a8dbeee33cda4d8b77a98c1e8560056000888152602001908152602001600020600101600960008981526020019081526020016000206040516130cd939291906146d0565b60405180910390a1505050505050565b8280546130e990613f21565b90600052602060002090601f01602090048101928261310b5760008555613152565b82601f1061312457805160ff1916838001178555613152565b82800160010185558215613152579182015b82811115613151578251825591602001919060010190613136565b5b50905061315f91906132fc565b5090565b8280548282559060005260206000209081019282156131dc579160200282015b828111156131db5782518260006101000a81548173ffffffffffffffffffffffffffffffffffffffff021916908373ffffffffffffffffffffffffffffffffffffffff16021790555091602001919060010190613183565b5b5090506131e991906132fc565b5090565b828054828255906000526020600020908101928215613229579160200282015b8281111561322857825182559160200191906001019061320d565b5b50905061323691906132fc565b5090565b6040518060c001604052806000815260200160608152602001606081526020016000815260200160608152602001606081525090565b604051806101e0016040528060008152602001600073ffffffffffffffffffffffffffffffffffffffff168152602001606081526020016000815260200160608152602001606081526020016060815260200160608152602001606081526020016060815260200160608152602001606081526020016060815260200160608152602001606081525090565b5b808211156133155760008160009055506001016132fd565b5090565b600073ffffffffffffffffffffffffffffffffffffffff82169050919050565b600061334482613319565b9050919050565b61335481613339565b82525050565b6000819050919050565b61336d8161335a565b82525050565b6000604082019050613388600083018561334b565b6133956020830184613364565b9392505050565b6000604051905090565b600080fd5b600080fd5b6133b98161335a565b81146133c457600080fd5b50565b6000813590506133d6816133b0565b92915050565b600080604083850312156133f3576133f26133a6565b5b6000613401858286016133c7565b9250506020613412858286016133c7565b9150509250929050565b60008115159050919050565b6134318161341c565b82525050565b600060208201905061344c6000830184613428565b92915050565b61345b81613339565b811461346657600080fd5b50565b60008135905061347881613452565b92915050565b60008060408385031215613495576134946133a6565b5b60006134a3858286016133c7565b92505060206134b485828601613469565b9150509250929050565b600080604083850312156134d5576134d46133a6565b5b60006134e385828601613469565b92505060206134f4858286016133c7565b9150509250929050565b600060208284031215613514576135136133a6565b5b6000613522848285016133c7565b91505092915050565b600080fd5b600080fd5b6000601f19601f8301169050919050565b7f4e487b7100000000000000000000000000000000000000000000000000000000600052604160045260246000fd5b61357e82613535565b810181811067ffffffffffffffff8211171561359d5761359c613546565b5b80604052505050565b60006135b061339c565b90506135bc8282613575565b919050565b600067ffffffffffffffff8211156135dc576135db613546565b5b6135e582613535565b9050602081019050919050565b82818337600083830152505050565b600061361461360f846135c1565b6135a6565b9050828152602081018484840111156136305761362f613530565b5b61363b8482856135f2565b509392505050565b600082601f8301126136585761365761352b565b5b8135613668848260208601613601565b91505092915050565b600067ffffffffffffffff82111561368c5761368b613546565b5b602082029050602081019050919050565b600080fd5b60006136b56136b084613671565b6135a6565b905080838252602082019050602084028301858111156136d8576136d761369d565b5b835b8181101561370157806136ed8882613469565b8452602084019350506020810190506136da565b5050509392505050565b600082601f8301126137205761371f61352b565b5b81356137308482602086016136a2565b91505092915050565b600080600060608486031215613752576137516133a6565b5b600084013567ffffffffffffffff8111156137705761376f6133ab565b5b61377c86828701613643565b935050602084013567ffffffffffffffff81111561379d5761379c6133ab565b5b6137a98682870161370b565b92505060406137ba868287016133c7565b9150509250925092565b60006020820190506137d96000830184613364565b92915050565b6000602082840312156137f5576137f46133a6565b5b600061380384828501613469565b91505092915050565b600067ffffffffffffffff82111561382757613826613546565b5b602082029050602081019050919050565b600080fd5b600080fd5b60006101e0828403121561385957613858613838565b5b6138646101e06135a6565b90506000613874848285016133c7565b600083015250602061388884828501613469565b602083015250604082013567ffffffffffffffff8111156138ac576138ab61383d565b5b6138b884828501613643565b60408301525060606138cc848285016133c7565b606083015250608082013567ffffffffffffffff8111156138f0576138ef61383d565b5b6138fc84828501613643565b60808301525060a082013567ffffffffffffffff8111156139205761391f61383d565b5b61392c84828501613643565b60a08301525060c082013567ffffffffffffffff8111156139505761394f61383d565b5b61395c84828501613643565b60c08301525060e082013567ffffffffffffffff8111156139805761397f61383d565b5b61398c84828501613643565b60e08301525061010082013567ffffffffffffffff8111156139b1576139b061383d565b5b6139bd84828501613643565b6101008301525061012082013567ffffffffffffffff8111156139e3576139e261383d565b5b6139ef84828501613643565b6101208301525061014082013567ffffffffffffffff811115613a1557613a1461383d565b5b613a2184828501613643565b6101408301525061016082013567ffffffffffffffff811115613a4757613a4661383d565b5b613a5384828501613643565b6101608301525061018082013567ffffffffffffffff811115613a7957613a7861383d565b5b613a8584828501613643565b610180830152506101a082013567ffffffffffffffff811115613aab57613aaa61383d565b5b613ab784828501613643565b6101a0830152506101c082013567ffffffffffffffff811115613add57613adc61383d565b5b613ae98482850161370b565b6101c08301525092915050565b6000613b09613b048461380c565b6135a6565b90508083825260208201905060208402830185811115613b2c57613b2b61369d565b5b835b81811015613b7357803567ffffffffffffffff811115613b5157613b5061352b565b5b808601613b5e8982613842565b85526020850194505050602081019050613b2e565b5050509392505050565b600082601f830112613b9257613b9161352b565b5b8135613ba2848260208601613af6565b91505092915050565b600080600060608486031215613bc457613bc36133a6565b5b6000613bd2868287016133c7565b935050602084013567ffffffffffffffff811115613bf357613bf26133ab565b5b613bff86828701613643565b925050604084013567ffffffffffffffff811115613c2057613c1f6133ab565b5b613c2c86828701613b7d565b9150509250925092565b613c3f8161335a565b82525050565b600081519050919050565b600082825260208201905092915050565b60005b83811015613c7f578082015181840152602081019050613c64565b83811115613c8e576000848401525b50505050565b6000613c9f82613c45565b613ca98185613c50565b9350613cb9818560208601613c61565b613cc281613535565b840191505092915050565b600081519050919050565b600082825260208201905092915050565b6000819050602082019050919050565b613d0281613339565b82525050565b6000613d148383613cf9565b60208301905092915050565b6000602082019050919050565b6000613d3882613ccd565b613d428185613cd8565b9350613d4d83613ce9565b8060005b83811015613d7e578151613d658882613d08565b9750613d7083613d20565b925050600181019050613d51565b5085935050505092915050565b600060c083016000830151613da36000860182613c36565b5060208301518482036020860152613dbb8282613c94565b91505060408301518482036040860152613dd58282613d2d565b9150506060830151613dea6060860182613c36565b5060808301518482036080860152613e028282613d2d565b91505060a083015184820360a0860152613e1c8282613d2d565b9150508091505092915050565b60006020820190508181036000830152613e438184613d8b565b905092915050565b7f4e487b7100000000000000000000000000000000000000000000000000000000600052603260045260246000fd5b7f4e487b7100000000000000000000000000000000000000000000000000000000600052601160045260246000fd5b6000613eb48261335a565b91507fffffffffffffffffffffffffffffffffffffffffffffffffffffffffffffffff821415613ee757613ee6613e7a565b5b600182019050919050565b7f4e487b7100000000000000000000000000000000000000000000000000000000600052602260045260246000fd5b60006002820490506001821680613f3957607f821691505b60208210811415613f4d57613f4c613ef2565b5b50919050565b600082825260208201905092915050565b60008190508160005260206000209050919050565b60008154613f8681613f21565b613f908186613f53565b94506001821660008114613fab5760018114613fbd57613ff0565b60ff1983168652602086019350613ff0565b613fc685613f64565b60005b83811015613fe857815481890152600182019150602081019050613fc9565b808801955050505b50505092915050565b600081549050919050565b600082825260208201905092915050565b60008190508160005260206000209050919050565b60008160001c9050919050565b600073ffffffffffffffffffffffffffffffffffffffff82169050919050565b600061406a6140658361402a565b614037565b9050919050565b600061407d8254614057565b9050919050565b6000600182019050919050565b600061409c82613ff9565b6140a68185614004565b93506140b183614015565b8060005b838110156140e9576140c682614071565b6140d08882613d08565b97506140db83614084565b9250506001810190506140b5565b5085935050505092915050565b600060808201905061410b6000830187613364565b818103602083015261411d8186613f79565b905081810360408301526141318185614091565b90506141406060830184613364565b95945050505050565b600061415482613c45565b61415e8185613f53565b935061416e818560208601613c61565b61417781613535565b840191505092915050565b600061418d82613ccd565b6141978185614004565b93506141a283613ce9565b8060005b838110156141d35781516141ba8882613d08565b97506141c583613d20565b9250506001810190506141a6565b5085935050505092915050565b600060a0820190506141f5600083018861334b565b6142026020830187613364565b81810360408301526142148186614149565b905081810360608301526142288185614182565b90506142376080830184613364565b9695505050505050565b600081519050919050565b600082825260208201905092915050565b6000819050602082019050919050565b60006101e0830160008301516142866000860182613c36565b5060208301516142996020860182613cf9565b50604083015184820360408601526142b18282613c94565b91505060608301516142c66060860182613c36565b50608083015184820360808601526142de8282613c94565b91505060a083015184820360a08601526142f88282613c94565b91505060c083015184820360c08601526143128282613c94565b91505060e083015184820360e086015261432c8282613c94565b9150506101008301518482036101008601526143488282613c94565b9150506101208301518482036101208601526143648282613c94565b9150506101408301518482036101408601526143808282613c94565b91505061016083015184820361016086015261439c8282613c94565b9150506101808301518482036101808601526143b88282613c94565b9150506101a08301518482036101a08601526143d48282613c94565b9150506101c08301518482036101c08601526143f08282613d2d565b9150508091505092915050565b6000614409838361426d565b905092915050565b6000602082019050919050565b600061442982614241565b614433818561424c565b9350836020820285016144458561425d565b8060005b85811015614481578484038952815161446285826143fd565b945061446d83614411565b925060208a01995050600181019050614449565b50829750879550505050505092915050565b600060208201905081810360008301526144ad818461441e565b905092915050565b600060a0820190506144ca600083018861334b565b6144d76020830187613364565b6144e46040830186613364565b81810360608301526144f68185614149565b9050818103608083015261450a818461441e565b90509695505050505050565b600060808201905061452b600083018761334b565b6145386020830186613364565b818103604083015261454a8185614149565b90506145596060830184613364565b95945050505050565b6000606082019050614577600083018661334b565b6145846020830185613364565b81810360408301526145968184613f79565b9050949350505050565b60006060820190506145b56000830186613364565b81810360208301526145c78185614149565b90506145d66040830184613364565b949350505050565b600081549050919050565b600082825260208201905092915050565b60008190508160005260206000209050919050565b600061461b8383613c36565b60208301905092915050565b6000819050919050565b600061464461463f8361402a565b614627565b9050919050565b60006146578254614631565b9050919050565b6000600182019050919050565b6000614676826145de565b61468081856145e9565b935061468b836145fa565b8060005b838110156146c3576146a08261464b565b6146aa888261460f565b97506146b58361465e565b92505060018101905061468f565b5085935050505092915050565b60006060820190506146e56000830186613364565b81810360208301526146f78185613f79565b9050818103604083015261470b818461466b565b905094935050505056fea2646970667358221220c895e4d4657767034d243af2afa25d5191adc618f9dd856484fd45ba4e3a0ce964736f6c634300080a0033",
  "immutableReferences": {},
  "source": "// SPDX-License-Identifier: MIT\r\npragma solidity >=0.4.22 <0.9.0;\r\n\r\n\r\nstruct Cert {\r\n    uint id;\r\n    address schoolId;\r\n    string regNo;\r\n    uint batchId;\r\n    string batchRegNo;\r\n    string conferredOn;\r\n    string dateOfBirth;\r\n    string yearOfGraduation;\r\n    string majorIn;\r\n    string degreeOf;\r\n    string degreeClassification;\r\n    string modeOfStudy;\r\n    string createdIn;\r\n    string createdAt;\r\n    address[] issuers;\r\n}\r\n\r\ninterface Certs {\r\n    function addCert(Cert memory _cert) external;\r\n    function addCerts(Cert[] memory _certs) external;\r\n}\r\n\r\ncontract MultiSigWallet {\r\n\r\n    struct Group {\r\n        uint id;\r\n        string name;\r\n        address[] members;\r\n        uint threshold;\r\n        address[] confirmedBy;\r\n        address[] rejectedBy;\r\n    }\r\n\r\n    struct Batch {\r\n        uint id;\r\n        string name;\r\n    }\r\n\r\n    Certs holder;\r\n    string schoolName;\r\n    address[] members;\r\n    uint threshold;\r\n\r\n    mapping(uint => Group) groups;\r\n\r\n    mapping(uint => Batch) batches; // batchId => batch\r\n    mapping(uint => Cert) certs; // certId => cert\r\n    mapping(uint => bool) certExecuted; // certId => executed\r\n    mapping(uint => mapping(uint => mapping(address => bool))) certConfirmed; // groupId => certId => member => confirmed\r\n\r\n    mapping(uint => uint[]) batchCerts; // batchId => [certIds]\r\n    mapping(uint => bool) batchExecuted; // batchId => executed\r\n    mapping(uint => mapping(uint => mapping(address => bool))) batchConfirmed; // groupId => batchId => member => confirmed\r\n\r\n    uint certCount = 0;\r\n    uint batchCount = 0;\r\n    uint groupCount = 0;\r\n\r\n    function isMember(address _member) public view returns (bool) {\r\n        for (uint i = 0; i < members.length; i++) {\r\n            if (members[i] == _member) {\r\n                return true;\r\n            }\r\n        }\r\n        return false;\r\n    }\r\n\r\n    function isMemberOfGroup(address _member, uint _groupId) public view returns (bool) {\r\n        if (groups[_groupId].members.length == 0) {\r\n            return false;\r\n        }\r\n        for (uint i = 0; i < groups[_groupId].members.length; i++) {\r\n            if (groups[_groupId].members[i] == _member) {\r\n                return true;\r\n            }\r\n        }\r\n        return false;\r\n    }\r\n\r\n    modifier onlyMembers {\r\n        require(isMember(msg.sender));\r\n        _;\r\n    }\r\n\r\n    modifier onlyGroup(uint _groupId) {\r\n        require(isGroupConfirmed(_groupId));\r\n        require(isMemberOfGroup(msg.sender, _groupId));\r\n        _;\r\n    }\r\n\r\n    event WalletActivated(\r\n        string schoolName,\r\n        address[] members,\r\n        uint threshold,\r\n        address certsAddress\r\n    );\r\n\r\n    event GroupPending(\r\n        address creator,\r\n        uint groupId,\r\n        string name,\r\n        address[] members,\r\n        uint threshold\r\n    );\r\n\r\n    event GroupConfirmed(\r\n        address confirmer,\r\n        uint groupId\r\n    );\r\n\r\n    event GroupRejected(\r\n        address rejecter,\r\n        uint groupId\r\n    );\r\n\r\n    event GroupAdded(\r\n        uint groupId,\r\n        string name,\r\n        address[] members,\r\n        uint threshold\r\n    );\r\n\r\n    event GroupRemoved(\r\n        uint groupId\r\n    );\r\n\r\n    event CertPending(\r\n        address creator,\r\n        uint certId,\r\n        string regNo,\r\n        uint batchId\r\n    );\r\n\r\n    event CertConfirmed(\r\n        address confirmer,\r\n        uint certId,\r\n        string regNo,\r\n        uint batchId\r\n    );\r\n\r\n    event CertRejected(\r\n        address rejecter,\r\n        uint certId,\r\n        string regNo,\r\n        uint batchId\r\n    );\r\n\r\n    event CertAdded(\r\n        uint certId,\r\n        string regNo,\r\n        uint batchId\r\n    );\r\n\r\n    event CertRemoved(\r\n        uint certId\r\n    );\r\n\r\n    event BatchPending(\r\n        address creator,\r\n        uint groupId,\r\n        uint batchId,\r\n        string regNo,\r\n        Cert[] certs\r\n    );\r\n\r\n    event BatchConfirmed(\r\n        address confirmer,\r\n        uint batchId,\r\n        string regNo\r\n    );\r\n\r\n    event BatchRejected(\r\n        address rejecter,\r\n        uint batchId,\r\n        string regNo\r\n    );\r\n\r\n    event BatchAdded(\r\n        uint batchId,\r\n        string regNo,\r\n        uint[] certIds\r\n    );\r\n\r\n    event BatchRemoved(\r\n        uint batchId\r\n    );\r\n\r\n    event Deposit(address from, uint value);\r\n\r\n    fallback() external payable {\r\n        if (msg.value > 0) {\r\n            emit Deposit(msg.sender, msg.value);\r\n        }\r\n    }\r\n\r\n    receive() external payable {\r\n        if (msg.value > 0) {\r\n            emit Deposit(msg.sender, msg.value);\r\n        }\r\n    }\r\n\r\n    constructor(string memory _name, address[] memory _members, uint _threshold, address _address) {\r\n        require(_members.length > 0);\r\n        require(_threshold > 0);\r\n        require(_threshold <= _members.length);\r\n        schoolName = _name;\r\n        members = _members;\r\n        threshold = _threshold;\r\n        holder = Certs(_address);\r\n        emit WalletActivated(_name, _members, _threshold, _address);\r\n    }\r\n\r\n    function isGroupConfirmedBy(uint _groupId, address _member) public view returns (bool) {\r\n        for (uint i = 0; i < groups[_groupId].confirmedBy.length; i++) {\r\n            if (groups[_groupId].confirmedBy[i] == _member) {\r\n                return true;\r\n            }\r\n        }\r\n        return false;\r\n    }\r\n\r\n    function isGroupRejectedBy(uint _groupId, address _member) public view returns (bool) {\r\n        for (uint i = 0; i < groups[_groupId].rejectedBy.length; i++) {\r\n            if (groups[_groupId].rejectedBy[i] == _member) {\r\n                return true;\r\n            }\r\n        }\r\n        return false;\r\n    }\r\n\r\n    function isGroupConfirmed(uint _groupId) public view returns (bool) {\r\n        uint confirmedCount = 0;\r\n        for (uint i = 0; i < groups[_groupId].confirmedBy.length; i++) {\r\n            if (groups[_groupId].confirmedBy[i] != address(0)) {\r\n                confirmedCount++;\r\n            }\r\n        }\r\n        return confirmedCount >= threshold;\r\n    }\r\n\r\n    function isGroupRejected(uint _groupId) public view returns (bool) {\r\n        uint rejectedCount = 0;\r\n        for (uint i = 0; i < groups[_groupId].rejectedBy.length; i++) {\r\n            if (groups[_groupId].rejectedBy[i] != address(0)) {\r\n                rejectedCount++;\r\n            }\r\n        }\r\n        return rejectedCount >= threshold;\r\n    }\r\n\r\n    function addGroup(string memory _name, address[] memory _members, uint _threshold) onlyMembers public returns (uint) {\r\n        require(_members.length > 0);\r\n        require(_threshold > 0);\r\n        require(_threshold <= _members.length);\r\n        uint groupId = groupCount++;\r\n        Group memory group = Group({\r\n            id: groupId,\r\n            name: _name,\r\n            members: _members,\r\n            threshold: _threshold,\r\n            confirmedBy: new address[](members.length),\r\n            rejectedBy: new address[](members.length)\r\n        });\r\n        group.confirmedBy[0] = msg.sender;\r\n        groups[groupId] = group;\r\n        emit GroupPending(msg.sender, groupId, _name, _members, _threshold);\r\n        emit GroupConfirmed(msg.sender, groupId);\r\n        return groupId;\r\n    }\r\n\r\n    function confirmGroup(uint _groupId) onlyMembers public {\r\n        require(isGroupRejected(_groupId) == false);\r\n        require(isGroupConfirmed(_groupId) == false);\r\n        require(isGroupRejectedBy(_groupId, msg.sender) == false);\r\n        address[] memory groupConfirmers = groups[_groupId].confirmedBy;\r\n        uint confirmerCount = 0;\r\n        for (uint i = 0; i < groupConfirmers.length; i++) {\r\n            if (groupConfirmers[i] == msg.sender) {\r\n                require(false);\r\n            }\r\n            if (groupConfirmers[i] != address(0)) {\r\n                confirmerCount++;\r\n            }\r\n        }\r\n        groups[_groupId].confirmedBy[confirmerCount] = msg.sender;\r\n        emit GroupConfirmed(msg.sender, _groupId);\r\n        if (isGroupConfirmed(_groupId)) {\r\n            emit GroupAdded(\r\n                _groupId,\r\n                groups[_groupId].name,\r\n                groups[_groupId].members,\r\n                groups[_groupId].threshold\r\n            );\r\n        }\r\n    }\r\n\r\n    function rejectGroup(uint _groupId) onlyMembers public {\r\n        require(isGroupConfirmed(_groupId) == false);\r\n        require(isGroupRejected(_groupId) == false);\r\n        require(isGroupConfirmedBy(_groupId, msg.sender) == false);\r\n        address[] memory groupRejecters = groups[_groupId].rejectedBy;\r\n        uint rejecterCount = 0;\r\n        for (uint i = 0; i < groupRejecters.length; i++) {\r\n            if (groupRejecters[i] == msg.sender) {\r\n                require(false);\r\n            }\r\n            if (groupRejecters[i] != address(0)) {\r\n                rejecterCount++;\r\n            }\r\n        }\r\n        groups[_groupId].rejectedBy[rejecterCount] = msg.sender;\r\n        emit GroupRejected(msg.sender, _groupId);\r\n        if (isGroupRejected(_groupId)) {\r\n            emit GroupRemoved(_groupId);\r\n        }\r\n    }\r\n\r\n    function getGroup(uint _groupId) public view returns (Group memory) {\r\n        return groups[_groupId];\r\n    }\r\n\r\n    function getCertConfirmers(uint _groupId, uint _certId) private view returns (address[] memory) {\r\n        address[] memory groupMembers = groups[_groupId].members;\r\n        address[] memory confirmers = new address[](groupMembers.length);\r\n        uint count = 0;\r\n        for (uint i = 0; i < groupMembers.length; i++) {\r\n            if (certConfirmed[_groupId][_certId][groupMembers[i]]) {\r\n                confirmers[count] = groupMembers[i];\r\n                count++;\r\n            }\r\n        }\r\n        return confirmers;\r\n    }\r\n\r\n    function getBatchConfirmers(uint _groupId, uint _batchId) private view returns (address[] memory) {\r\n        address[] memory groupMembers = groups[_groupId].members;\r\n        address[] memory confirmers = new address[](groupMembers.length);\r\n        uint count = 0;\r\n        for (uint i = 0; i < groupMembers.length; i++) {\r\n            if (batchConfirmed[_groupId][_batchId][groupMembers[i]]) {\r\n                confirmers[count] = groupMembers[i];\r\n                count++;\r\n            }\r\n        }\r\n        return confirmers;\r\n    }\r\n\r\n    function isBatchConfirmed(uint _groupId, uint _batchId) public view returns (bool) {\r\n        address[] memory confirmers = getBatchConfirmers(_groupId, _batchId);\r\n        uint count = 0;\r\n        for (uint i = 0; i < confirmers.length; i++) {\r\n            if (confirmers[i] != address(0)) {\r\n                count++;\r\n            }\r\n        }\r\n        return count >= groups[_groupId].threshold;\r\n    }\r\n\r\n    function submitBatch(uint _groupId, string memory _batchName, Cert[] memory _certs) onlyGroup(_groupId) public returns (uint) {\r\n        uint batchId = batchCount++;\r\n        batches[batchId] = Batch({\r\n            id: batchId,\r\n            name: _batchName\r\n        });\r\n        batchCerts[batchId] = new uint[](_certs.length);\r\n        for (uint i = 0; i < _certs.length; i++) {\r\n            uint certId = certCount++;\r\n            _certs[i].id = certId;\r\n            _certs[i].batchId = batchId;\r\n            _certs[i].batchRegNo = _batchName;\r\n            _certs[i].issuers = new address[](groups[_groupId].members.length);\r\n            certs[certId] = _certs[i];\r\n            batchCerts[batchId][i] = certId;\r\n        }\r\n        holder.addCerts(_certs); // test\r\n        emit BatchPending(\r\n            msg.sender,\r\n            _groupId,\r\n            batchId,\r\n            _batchName,\r\n            _certs\r\n        );\r\n        confirmBatch(_groupId, batchId);\r\n        return batchId;\r\n    }\r\n\r\n    function confirmBatch(uint _groupId, uint _batchId) onlyGroup(_groupId) public {\r\n        require(batchConfirmed[_groupId][_batchId][msg.sender] == false);\r\n        batchConfirmed[_groupId][_batchId][msg.sender] = true;\r\n        for (uint i = 0; i < batchCerts[_batchId].length; i++) {\r\n            uint certId = batchCerts[_batchId][i];\r\n            certConfirmed[_groupId][certId][msg.sender] = true;\r\n            Cert memory cert = certs[certId];\r\n            emit CertConfirmed(msg.sender, certId, cert.regNo, cert.batchId);\r\n        }\r\n        emit BatchConfirmed(msg.sender, _batchId, batches[_batchId].name);\r\n        if (isBatchConfirmed(_groupId, _batchId)) {\r\n            executeBatch(_groupId, _batchId);\r\n        }\r\n    }\r\n\r\n    function executeBatch(uint _groupId, uint _batchId) onlyGroup(_groupId) private {\r\n        require(batchExecuted[_batchId] == false);\r\n        address[] memory confirmers = getBatchConfirmers(_groupId, _batchId);\r\n        uint currentCertCount = batchCerts[_batchId].length;\r\n        Cert[] memory currentCerts = new Cert[](currentCertCount);\r\n        for (uint i = 0; i < currentCertCount; i++) {\r\n            uint certId = batchCerts[_batchId][i];\r\n            certs[certId].issuers = confirmers;\r\n            currentCerts[i] = certs[certId];\r\n        }\r\n        holder.addCerts(currentCerts);\r\n        batchExecuted[_batchId] = true;\r\n        for (uint i = 0; i < currentCertCount; i++) {\r\n            Cert memory cert = currentCerts[i];\r\n            emit CertAdded(\r\n                cert.id,\r\n                cert.regNo,\r\n                cert.batchId\r\n            );\r\n        }\r\n        emit BatchAdded(\r\n            _batchId,\r\n            batches[_batchId].name,\r\n            batchCerts[_batchId]\r\n        );\r\n    }\r\n}",
  "sourcePath": "/home/vi/code/dcerts-manager/issuer-wallet/contracts/MultiSigWallet.sol",
  "compiler": {
    "name": "solc",
    "version": "0.8.10+commit.fc410830.Emscripten.clang"
  },
  "schemaVersion": "3.4.3",
  "updatedAt": "2022-02-08T09:43:10.352Z",
  "networkType": "ethereum",
  "devdoc": {
    "kind": "dev",
    "methods": {},
    "version": 1
  },
  "userdoc": {
    "kind": "user",
    "methods": {},
    "version": 1
  }
}