{
  "contractName": "MultiSigWallet",
  "abi": [
    {
      "inputs": [
        {
          "internalType": "string",
          "name": "_name",
          "type": "string"
        },
        {
          "internalType": "address[]",
          "name": "_members",
          "type": "address[]"
        },
        {
          "internalType": "uint256",
          "name": "_threshold",
          "type": "uint256"
        },
        {
          "internalType": "address",
          "name": "_address",
          "type": "address"
        }
      ],
      "stateMutability": "nonpayable",
      "type": "constructor"
    },
    {
      "anonymous": false,
      "inputs": [
        {
          "indexed": false,
          "internalType": "uint256",
          "name": "batchId",
          "type": "uint256"
        },
        {
          "indexed": false,
          "internalType": "string",
          "name": "regNo",
          "type": "string"
        },
        {
          "indexed": false,
          "internalType": "uint256[]",
          "name": "certIds",
          "type": "uint256[]"
        }
      ],
      "name": "BatchAdded",
      "type": "event"
    },
    {
      "anonymous": false,
      "inputs": [
        {
          "indexed": false,
          "internalType": "address",
          "name": "confirmer",
          "type": "address"
        },
        {
          "indexed": false,
          "internalType": "uint256",
          "name": "batchId",
          "type": "uint256"
        },
        {
          "indexed": false,
          "internalType": "string",
          "name": "regNo",
          "type": "string"
        }
      ],
      "name": "BatchConfirmed",
      "type": "event"
    },
    {
      "anonymous": false,
      "inputs": [
        {
          "indexed": false,
          "internalType": "address",
          "name": "creator",
          "type": "address"
        },
        {
          "indexed": false,
          "internalType": "uint256",
          "name": "groupId",
          "type": "uint256"
        },
        {
          "indexed": false,
          "internalType": "uint256",
          "name": "batchId",
          "type": "uint256"
        },
        {
          "indexed": false,
          "internalType": "string",
          "name": "regNo",
          "type": "string"
        },
        {
          "components": [
            {
              "internalType": "uint256",
              "name": "id",
              "type": "uint256"
            },
            {
              "internalType": "address",
              "name": "schoolId",
              "type": "address"
            },
            {
              "internalType": "string",
              "name": "regNo",
              "type": "string"
            },
            {
              "internalType": "uint256",
              "name": "batchId",
              "type": "uint256"
            },
            {
              "internalType": "string",
              "name": "batchRegNo",
              "type": "string"
            },
            {
              "internalType": "string",
              "name": "conferredOn",
              "type": "string"
            },
            {
              "internalType": "string",
              "name": "dateOfBirth",
              "type": "string"
            },
            {
              "internalType": "string",
              "name": "yearOfGraduation",
              "type": "string"
            },
            {
              "internalType": "string",
              "name": "majorIn",
              "type": "string"
            },
            {
              "internalType": "string",
              "name": "degreeOf",
              "type": "string"
            },
            {
              "internalType": "string",
              "name": "degreeClassification",
              "type": "string"
            },
            {
              "internalType": "string",
              "name": "modeOfStudy",
              "type": "string"
            },
            {
              "internalType": "string",
              "name": "createdIn",
              "type": "string"
            },
            {
              "internalType": "string",
              "name": "createdAt",
              "type": "string"
            },
            {
              "internalType": "address[]",
              "name": "issuers",
              "type": "address[]"
            }
          ],
          "indexed": false,
          "internalType": "struct Cert[]",
          "name": "certs",
          "type": "tuple[]"
        }
      ],
      "name": "BatchPending",
      "type": "event"
    },
    {
      "anonymous": false,
      "inputs": [
        {
          "indexed": false,
          "internalType": "address",
          "name": "rejecter",
          "type": "address"
        },
        {
          "indexed": false,
          "internalType": "uint256",
          "name": "batchId",
          "type": "uint256"
        },
        {
          "indexed": false,
          "internalType": "string",
          "name": "regNo",
          "type": "string"
        }
      ],
      "name": "BatchRejected",
      "type": "event"
    },
    {
      "anonymous": false,
      "inputs": [
        {
          "indexed": false,
          "internalType": "uint256",
          "name": "batchId",
          "type": "uint256"
        }
      ],
      "name": "BatchRemoved",
      "type": "event"
    },
    {
      "anonymous": false,
      "inputs": [
        {
          "indexed": false,
          "internalType": "uint256",
          "name": "certId",
          "type": "uint256"
        },
        {
          "indexed": false,
          "internalType": "string",
          "name": "regNo",
          "type": "string"
        },
        {
          "indexed": false,
          "internalType": "uint256",
          "name": "batchId",
          "type": "uint256"
        }
      ],
      "name": "CertAdded",
      "type": "event"
    },
    {
      "anonymous": false,
      "inputs": [
        {
          "indexed": false,
          "internalType": "address",
          "name": "confirmer",
          "type": "address"
        },
        {
          "indexed": false,
          "internalType": "uint256",
          "name": "certId",
          "type": "uint256"
        },
        {
          "indexed": false,
          "internalType": "string",
          "name": "regNo",
          "type": "string"
        },
        {
          "indexed": false,
          "internalType": "uint256",
          "name": "batchId",
          "type": "uint256"
        }
      ],
      "name": "CertConfirmed",
      "type": "event"
    },
    {
      "anonymous": false,
      "inputs": [
        {
          "indexed": false,
          "internalType": "address",
          "name": "creator",
          "type": "address"
        },
        {
          "indexed": false,
          "internalType": "uint256",
          "name": "certId",
          "type": "uint256"
        },
        {
          "indexed": false,
          "internalType": "string",
          "name": "regNo",
          "type": "string"
        },
        {
          "indexed": false,
          "internalType": "uint256",
          "name": "batchId",
          "type": "uint256"
        }
      ],
      "name": "CertPending",
      "type": "event"
    },
    {
      "anonymous": false,
      "inputs": [
        {
          "indexed": false,
          "internalType": "address",
          "name": "rejecter",
          "type": "address"
        },
        {
          "indexed": false,
          "internalType": "uint256",
          "name": "certId",
          "type": "uint256"
        },
        {
          "indexed": false,
          "internalType": "string",
          "name": "regNo",
          "type": "string"
        },
        {
          "indexed": false,
          "internalType": "uint256",
          "name": "batchId",
          "type": "uint256"
        }
      ],
      "name": "CertRejected",
      "type": "event"
    },
    {
      "anonymous": false,
      "inputs": [
        {
          "indexed": false,
          "internalType": "uint256",
          "name": "certId",
          "type": "uint256"
        }
      ],
      "name": "CertRemoved",
      "type": "event"
    },
    {
      "anonymous": false,
      "inputs": [
        {
          "indexed": false,
          "internalType": "address",
          "name": "from",
          "type": "address"
        },
        {
          "indexed": false,
          "internalType": "uint256",
          "name": "value",
          "type": "uint256"
        }
      ],
      "name": "Deposit",
      "type": "event"
    },
    {
      "anonymous": false,
      "inputs": [
        {
          "indexed": false,
          "internalType": "uint256",
          "name": "groupId",
          "type": "uint256"
        },
        {
          "indexed": false,
          "internalType": "string",
          "name": "name",
          "type": "string"
        },
        {
          "indexed": false,
          "internalType": "address[]",
          "name": "members",
          "type": "address[]"
        },
        {
          "indexed": false,
          "internalType": "uint256",
          "name": "threshold",
          "type": "uint256"
        }
      ],
      "name": "GroupAdded",
      "type": "event"
    },
    {
      "anonymous": false,
      "inputs": [
        {
          "indexed": false,
          "internalType": "address",
          "name": "confirmer",
          "type": "address"
        },
        {
          "indexed": false,
          "internalType": "uint256",
          "name": "groupId",
          "type": "uint256"
        }
      ],
      "name": "GroupConfirmed",
      "type": "event"
    },
    {
      "anonymous": false,
      "inputs": [
        {
          "indexed": false,
          "internalType": "address",
          "name": "creator",
          "type": "address"
        },
        {
          "indexed": false,
          "internalType": "uint256",
          "name": "groupId",
          "type": "uint256"
        },
        {
          "indexed": false,
          "internalType": "string",
          "name": "name",
          "type": "string"
        },
        {
          "indexed": false,
          "internalType": "address[]",
          "name": "members",
          "type": "address[]"
        },
        {
          "indexed": false,
          "internalType": "uint256",
          "name": "threshold",
          "type": "uint256"
        }
      ],
      "name": "GroupPending",
      "type": "event"
    },
    {
      "anonymous": false,
      "inputs": [
        {
          "indexed": false,
          "internalType": "address",
          "name": "rejecter",
          "type": "address"
        },
        {
          "indexed": false,
          "internalType": "uint256",
          "name": "groupId",
          "type": "uint256"
        }
      ],
      "name": "GroupRejected",
      "type": "event"
    },
    {
      "anonymous": false,
      "inputs": [
        {
          "indexed": false,
          "internalType": "uint256",
          "name": "groupId",
          "type": "uint256"
        }
      ],
      "name": "GroupRemoved",
      "type": "event"
    },
    {
      "anonymous": false,
      "inputs": [
        {
          "indexed": false,
          "internalType": "string",
          "name": "schoolName",
          "type": "string"
        },
        {
          "indexed": false,
          "internalType": "address[]",
          "name": "members",
          "type": "address[]"
        },
        {
          "indexed": false,
          "internalType": "uint256",
          "name": "threshold",
          "type": "uint256"
        },
        {
          "indexed": false,
          "internalType": "address",
          "name": "certsAddress",
          "type": "address"
        }
      ],
      "name": "WalletActivated",
      "type": "event"
    },
    {
      "stateMutability": "payable",
      "type": "fallback",
      "payable": true
    },
    {
      "stateMutability": "payable",
      "type": "receive",
      "payable": true
    },
    {
      "inputs": [
        {
          "internalType": "address",
          "name": "_member",
          "type": "address"
        }
      ],
      "name": "isMember",
      "outputs": [
        {
          "internalType": "bool",
          "name": "",
          "type": "bool"
        }
      ],
      "stateMutability": "view",
      "type": "function",
      "constant": true
    },
    {
      "inputs": [
        {
          "internalType": "address",
          "name": "_member",
          "type": "address"
        },
        {
          "internalType": "uint256",
          "name": "_groupId",
          "type": "uint256"
        }
      ],
      "name": "isMemberOfGroup",
      "outputs": [
        {
          "internalType": "bool",
          "name": "",
          "type": "bool"
        }
      ],
      "stateMutability": "view",
      "type": "function",
      "constant": true
    },
    {
      "inputs": [
        {
          "internalType": "uint256",
          "name": "_groupId",
          "type": "uint256"
        },
        {
          "internalType": "address",
          "name": "_member",
          "type": "address"
        }
      ],
      "name": "isGroupConfirmedBy",
      "outputs": [
        {
          "internalType": "bool",
          "name": "",
          "type": "bool"
        }
      ],
      "stateMutability": "view",
      "type": "function",
      "constant": true
    },
    {
      "inputs": [
        {
          "internalType": "uint256",
          "name": "_groupId",
          "type": "uint256"
        },
        {
          "internalType": "address",
          "name": "_member",
          "type": "address"
        }
      ],
      "name": "isGroupRejectedBy",
      "outputs": [
        {
          "internalType": "bool",
          "name": "",
          "type": "bool"
        }
      ],
      "stateMutability": "view",
      "type": "function",
      "constant": true
    },
    {
      "inputs": [
        {
          "internalType": "string",
          "name": "_name",
          "type": "string"
        },
        {
          "internalType": "address[]",
          "name": "_members",
          "type": "address[]"
        },
        {
          "internalType": "uint256",
          "name": "_threshold",
          "type": "uint256"
        }
      ],
      "name": "addGroup",
      "outputs": [
        {
          "internalType": "uint256",
          "name": "",
          "type": "uint256"
        }
      ],
      "stateMutability": "nonpayable",
      "type": "function"
    },
    {
      "inputs": [
        {
          "internalType": "uint256",
          "name": "_groupId",
          "type": "uint256"
        }
      ],
      "name": "confirmGroup",
      "outputs": [],
      "stateMutability": "nonpayable",
      "type": "function"
    },
    {
      "inputs": [
        {
          "internalType": "uint256",
          "name": "_groupId",
          "type": "uint256"
        }
      ],
      "name": "rejectGroup",
      "outputs": [],
      "stateMutability": "nonpayable",
      "type": "function"
    },
    {
      "inputs": [
        {
          "internalType": "uint256",
          "name": "_groupId",
          "type": "uint256"
        }
      ],
      "name": "getGroup",
      "outputs": [
        {
          "components": [
            {
              "internalType": "uint256",
              "name": "id",
              "type": "uint256"
            },
            {
              "internalType": "string",
              "name": "name",
              "type": "string"
            },
            {
              "internalType": "address[]",
              "name": "members",
              "type": "address[]"
            },
            {
              "internalType": "uint256",
              "name": "threshold",
              "type": "uint256"
            },
            {
              "internalType": "address[]",
              "name": "confirmedBy",
              "type": "address[]"
            },
            {
              "internalType": "address[]",
              "name": "rejectedBy",
              "type": "address[]"
            }
          ],
          "internalType": "struct MultiSigWallet.Group",
          "name": "",
          "type": "tuple"
        }
      ],
      "stateMutability": "view",
      "type": "function",
      "constant": true
    },
    {
      "inputs": [
        {
          "internalType": "uint256",
          "name": "_groupId",
          "type": "uint256"
        },
        {
          "internalType": "uint256",
          "name": "_certId",
          "type": "uint256"
        }
      ],
      "name": "isCertConfirmed",
      "outputs": [
        {
          "internalType": "bool",
          "name": "",
          "type": "bool"
        }
      ],
      "stateMutability": "view",
      "type": "function",
      "constant": true
    },
    {
      "inputs": [
        {
          "internalType": "uint256",
          "name": "_groupId",
          "type": "uint256"
        },
        {
          "internalType": "uint256",
          "name": "_batchId",
          "type": "uint256"
        }
      ],
      "name": "isBatchConfirmed",
      "outputs": [
        {
          "internalType": "bool",
          "name": "",
          "type": "bool"
        }
      ],
      "stateMutability": "view",
      "type": "function",
      "constant": true
    },
    {
      "inputs": [
        {
          "internalType": "uint256",
          "name": "_groupId",
          "type": "uint256"
        },
        {
          "components": [
            {
              "internalType": "uint256",
              "name": "id",
              "type": "uint256"
            },
            {
              "internalType": "address",
              "name": "schoolId",
              "type": "address"
            },
            {
              "internalType": "string",
              "name": "regNo",
              "type": "string"
            },
            {
              "internalType": "uint256",
              "name": "batchId",
              "type": "uint256"
            },
            {
              "internalType": "string",
              "name": "batchRegNo",
              "type": "string"
            },
            {
              "internalType": "string",
              "name": "conferredOn",
              "type": "string"
            },
            {
              "internalType": "string",
              "name": "dateOfBirth",
              "type": "string"
            },
            {
              "internalType": "string",
              "name": "yearOfGraduation",
              "type": "string"
            },
            {
              "internalType": "string",
              "name": "majorIn",
              "type": "string"
            },
            {
              "internalType": "string",
              "name": "degreeOf",
              "type": "string"
            },
            {
              "internalType": "string",
              "name": "degreeClassification",
              "type": "string"
            },
            {
              "internalType": "string",
              "name": "modeOfStudy",
              "type": "string"
            },
            {
              "internalType": "string",
              "name": "createdIn",
              "type": "string"
            },
            {
              "internalType": "string",
              "name": "createdAt",
              "type": "string"
            },
            {
              "internalType": "address[]",
              "name": "issuers",
              "type": "address[]"
            }
          ],
          "internalType": "struct Cert",
          "name": "_cert",
          "type": "tuple"
        }
      ],
      "name": "submitCert",
      "outputs": [
        {
          "internalType": "uint256",
          "name": "",
          "type": "uint256"
        }
      ],
      "stateMutability": "nonpayable",
      "type": "function"
    },
    {
      "inputs": [
        {
          "internalType": "uint256",
          "name": "_groupId",
          "type": "uint256"
        },
        {
          "internalType": "string",
          "name": "_batchName",
          "type": "string"
        },
        {
          "components": [
            {
              "internalType": "uint256",
              "name": "id",
              "type": "uint256"
            },
            {
              "internalType": "address",
              "name": "schoolId",
              "type": "address"
            },
            {
              "internalType": "string",
              "name": "regNo",
              "type": "string"
            },
            {
              "internalType": "uint256",
              "name": "batchId",
              "type": "uint256"
            },
            {
              "internalType": "string",
              "name": "batchRegNo",
              "type": "string"
            },
            {
              "internalType": "string",
              "name": "conferredOn",
              "type": "string"
            },
            {
              "internalType": "string",
              "name": "dateOfBirth",
              "type": "string"
            },
            {
              "internalType": "string",
              "name": "yearOfGraduation",
              "type": "string"
            },
            {
              "internalType": "string",
              "name": "majorIn",
              "type": "string"
            },
            {
              "internalType": "string",
              "name": "degreeOf",
              "type": "string"
            },
            {
              "internalType": "string",
              "name": "degreeClassification",
              "type": "string"
            },
            {
              "internalType": "string",
              "name": "modeOfStudy",
              "type": "string"
            },
            {
              "internalType": "string",
              "name": "createdIn",
              "type": "string"
            },
            {
              "internalType": "string",
              "name": "createdAt",
              "type": "string"
            },
            {
              "internalType": "address[]",
              "name": "issuers",
              "type": "address[]"
            }
          ],
          "internalType": "struct Cert[]",
          "name": "_certs",
          "type": "tuple[]"
        }
      ],
      "name": "submitBatch",
      "outputs": [
        {
          "internalType": "uint256",
          "name": "",
          "type": "uint256"
        }
      ],
      "stateMutability": "nonpayable",
      "type": "function"
    },
    {
      "inputs": [
        {
          "internalType": "uint256",
          "name": "_groupId",
          "type": "uint256"
        },
        {
          "internalType": "uint256",
          "name": "_certId",
          "type": "uint256"
        }
      ],
      "name": "confirmCert",
      "outputs": [],
      "stateMutability": "nonpayable",
      "type": "function"
    },
    {
      "inputs": [
        {
          "internalType": "uint256",
          "name": "_groupId",
          "type": "uint256"
        },
        {
          "internalType": "uint256",
          "name": "_batchId",
          "type": "uint256"
        }
      ],
      "name": "confirmBatch",
      "outputs": [],
      "stateMutability": "nonpayable",
      "type": "function"
    }
  ],
  "bytecode": "0x60806040526000600c556000600d556000600e553480156200002057600080fd5b50604051620066a0380380620066a083398181016040528101906200004691906200058b565b60008351116200005557600080fd5b600082116200006357600080fd5b82518211156200007257600080fd5b83600190805190602001906200008a92919062000134565b508260029080519060200190620000a3929190620001c5565b5081600381905550806000806101000a81548173ffffffffffffffffffffffffffffffffffffffff021916908373ffffffffffffffffffffffffffffffffffffffff1602179055507fa3c3c713368877193c2424d165fa22a1f3fcb383cf273be9c287d3cb847152e38484848460405162000122949392919062000788565b60405180910390a15050505062000848565b828054620001429062000812565b90600052602060002090601f016020900481019282620001665760008555620001b2565b82601f106200018157805160ff1916838001178555620001b2565b82800160010185558215620001b2579182015b82811115620001b157825182559160200191906001019062000194565b5b509050620001c1919062000254565b5090565b82805482825590600052602060002090810192821562000241579160200282015b82811115620002405782518260006101000a81548173ffffffffffffffffffffffffffffffffffffffff021916908373ffffffffffffffffffffffffffffffffffffffff16021790555091602001919060010190620001e6565b5b50905062000250919062000254565b5090565b5b808211156200026f57600081600090555060010162000255565b5090565b6000604051905090565b600080fd5b600080fd5b600080fd5b600080fd5b6000601f19601f8301169050919050565b7f4e487b7100000000000000000000000000000000000000000000000000000000600052604160045260246000fd5b620002dc8262000291565b810181811067ffffffffffffffff82111715620002fe57620002fd620002a2565b5b80604052505050565b60006200031362000273565b9050620003218282620002d1565b919050565b600067ffffffffffffffff821115620003445762000343620002a2565b5b6200034f8262000291565b9050602081019050919050565b60005b838110156200037c5780820151818401526020810190506200035f565b838111156200038c576000848401525b50505050565b6000620003a9620003a38462000326565b62000307565b905082815260208101848484011115620003c857620003c76200028c565b5b620003d58482856200035c565b509392505050565b600082601f830112620003f557620003f462000287565b5b81516200040784826020860162000392565b91505092915050565b600067ffffffffffffffff8211156200042e576200042d620002a2565b5b602082029050602081019050919050565b600080fd5b600073ffffffffffffffffffffffffffffffffffffffff82169050919050565b6000620004718262000444565b9050919050565b620004838162000464565b81146200048f57600080fd5b50565b600081519050620004a38162000478565b92915050565b6000620004c0620004ba8462000410565b62000307565b90508083825260208201905060208402830185811115620004e657620004e56200043f565b5b835b81811015620005135780620004fe888262000492565b845260208401935050602081019050620004e8565b5050509392505050565b600082601f83011262000535576200053462000287565b5b815162000547848260208601620004a9565b91505092915050565b6000819050919050565b620005658162000550565b81146200057157600080fd5b50565b60008151905062000585816200055a565b92915050565b60008060008060808587031215620005a857620005a76200027d565b5b600085015167ffffffffffffffff811115620005c957620005c862000282565b5b620005d787828801620003dd565b945050602085015167ffffffffffffffff811115620005fb57620005fa62000282565b5b62000609878288016200051d565b93505060406200061c8782880162000574565b92505060606200062f8782880162000492565b91505092959194509250565b600081519050919050565b600082825260208201905092915050565b600062000664826200063b565b62000670818562000646565b9350620006828185602086016200035c565b6200068d8162000291565b840191505092915050565b600081519050919050565b600082825260208201905092915050565b6000819050602082019050919050565b620006cf8162000464565b82525050565b6000620006e38383620006c4565b60208301905092915050565b6000602082019050919050565b6000620007098262000698565b620007158185620006a3565b93506200072283620006b4565b8060005b83811015620007595781516200073d8882620006d5565b97506200074a83620006ef565b92505060018101905062000726565b5085935050505092915050565b620007718162000550565b82525050565b620007828162000464565b82525050565b60006080820190508181036000830152620007a4818762000657565b90508181036020830152620007ba8186620006fc565b9050620007cb604083018562000766565b620007da606083018462000777565b95945050505050565b7f4e487b7100000000000000000000000000000000000000000000000000000000600052602260045260246000fd5b600060028204905060018216806200082b57607f821691505b60208210811415620008425762000841620007e3565b5b50919050565b615e4880620008586000396000f3fe6080604052600436106100e15760003560e01c80639d9370241161007f578063cd698c9f11610059578063cd698c9f14610396578063ceb60654146103d3578063dc595dc414610410578063f0417a64146104395761012b565b80639d937024146102f3578063a230c52414610330578063ca61b3011461036d5761012b565b80633e0aad1d116100bb5780633e0aad1d1461022757806345dfb294146102645780635da1546b1461028d578063963c6eff146102ca5761012b565b8063018c890a146101705780631faef1bc146101ad5780632650b005146101ea5761012b565b3661012b576000341115610129577fe1fffcc4923d04b559f4d29a8bfc6cda04eb5b0d3c460751c2402c5c5cc9109c3334604051610120929190614862565b60405180910390a15b005b600034111561016e577fe1fffcc4923d04b559f4d29a8bfc6cda04eb5b0d3c460751c2402c5c5cc9109c3334604051610165929190614862565b60405180910390a15b005b34801561017c57600080fd5b50610197600480360381019061019291906148cb565b610476565b6040516101a49190614926565b60405180910390f35b3480156101b957600080fd5b506101d460048036038101906101cf919061496d565b6104af565b6040516101e19190614926565b60405180910390f35b3480156101f657600080fd5b50610211600480360381019061020c91906149ad565b610587565b60405161021e9190614926565b60405180910390f35b34801561023357600080fd5b5061024e600480360381019061024991906148cb565b610686565b60405161025b9190614926565b60405180910390f35b34801561027057600080fd5b5061028b600480360381019061028691906149ed565b6106bf565b005b34801561029957600080fd5b506102b460048036038101906102af9190614c28565b6109cf565b6040516102c19190614cb3565b60405180910390f35b3480156102d657600080fd5b506102f160048036038101906102ec91906148cb565b610c68565b005b3480156102ff57600080fd5b5061031a6004803603810190610315919061496d565b611556565b6040516103279190614926565b60405180910390f35b34801561033c57600080fd5b5061035760048036038101906103529190614cce565b61162e565b6040516103649190614926565b60405180910390f35b34801561037957600080fd5b50610394600480360381019061038f91906149ed565b6116dd565b005b3480156103a257600080fd5b506103bd60048036038101906103b8919061509a565b6119a7565b6040516103ca9190614cb3565b60405180910390f35b3480156103df57600080fd5b506103fa60048036038101906103f591906149ed565b611e09565b6040516104079190615318565b60405180910390f35b34801561041c57600080fd5b50610437600480360381019061043291906148cb565b612086565b005b34801561044557600080fd5b50610460600480360381019061045b919061533a565b612aa8565b60405161046d9190614cb3565b60405180910390f35b6000806104838484612d47565b905060008151905060046000868152602001908152602001600020600301548110159250505092915050565b600080600090505b600460008581526020019081526020016000206004018054905081101561057b578273ffffffffffffffffffffffffffffffffffffffff1660046000868152602001908152602001600020600401828154811061051757610516615396565b5b9060005260206000200160009054906101000a900473ffffffffffffffffffffffffffffffffffffffff1673ffffffffffffffffffffffffffffffffffffffff161415610568576001915050610581565b8080610573906153f4565b9150506104b7565b50600090505b92915050565b600080600460008481526020019081526020016000206002018054905014156105b35760009050610680565b60005b600460008481526020019081526020016000206002018054905081101561067a578373ffffffffffffffffffffffffffffffffffffffff1660046000858152602001908152602001600020600201828154811061061657610615615396565b5b9060005260206000200160009054906101000a900473ffffffffffffffffffffffffffffffffffffffff1673ffffffffffffffffffffffffffffffffffffffff161415610667576001915050610680565b8080610672906153f4565b9150506105b6565b50600090505b92915050565b6000806106938484612ec7565b905060008151905060046000868152602001908152602001600020600301548110159250505092915050565b6106c83361162e565b6106d157600080fd5b600015156106de82613047565b1515146106ea57600080fd5b600015156106f782613129565b15151461070357600080fd5b600015156107118233611556565b15151461071d57600080fd5b6000600460008381526020019081526020016000206004018054806020026020016040519081016040528092919081815260200182805480156107b557602002820191906000526020600020905b8160009054906101000a900473ffffffffffffffffffffffffffffffffffffffff1673ffffffffffffffffffffffffffffffffffffffff168152602001906001019080831161076b575b505050505090506000805b8251811015610893573373ffffffffffffffffffffffffffffffffffffffff168382815181106107f3576107f2615396565b5b602002602001015173ffffffffffffffffffffffffffffffffffffffff16141561082357600061082257600080fd5b5b600073ffffffffffffffffffffffffffffffffffffffff1683828151811061084e5761084d615396565b5b602002602001015173ffffffffffffffffffffffffffffffffffffffff161461088057818061087c906153f4565b9250505b808061088b906153f4565b9150506107c0565b50336004600085815260200190815260200160002060040182815481106108bd576108bc615396565b5b9060005260206000200160006101000a81548173ffffffffffffffffffffffffffffffffffffffff021916908373ffffffffffffffffffffffffffffffffffffffff1602179055507f40212d9d89b8b595d3e8beccd8d17412912ffefafb3f51257d1953e11571f9043384604051610936929190614862565b60405180910390a161094783613129565b156109ca577ff310f10bdd8e03d060d72e9cc4ff7cb137a11f2a168f021b8a77bc8ac577e37a83600460008681526020019081526020016000206001016004600087815260200190815260200160002060020160046000888152602001908152602001600020600301546040516109c19493929190615641565b60405180910390a15b505050565b60006109da3361162e565b6109e357600080fd5b60008351116109f157600080fd5b600082116109fe57600080fd5b8251821115610a0c57600080fd5b6000600e6000815480929190610a21906153f4565b91905055905060006040518060c0016040528083815260200187815260200186815260200185815260200160028054905067ffffffffffffffff811115610a6b57610a6a614a35565b5b604051908082528060200260200182016040528015610a995781602001602082028036833780820191505090505b50815260200160028054905067ffffffffffffffff811115610abe57610abd614a35565b5b604051908082528060200260200182016040528015610aec5781602001602082028036833780820191505090505b508152509050338160800151600081518110610b0b57610b0a615396565b5b602002602001019073ffffffffffffffffffffffffffffffffffffffff16908173ffffffffffffffffffffffffffffffffffffffff16815250508060046000848152602001908152602001600020600082015181600001556020820151816001019080519060200190610b7f9291906145cc565b506040820151816002019080519060200190610b9c929190614652565b50606082015181600301556080820151816004019080519060200190610bc3929190614652565b5060a0820151816005019080519060200190610be0929190614652565b509050507f27efe2927956a250c8a9a9e3d43c2fdea8859582d25981ad6139be4e6a4262733383888888604051610c1b95949392919061572b565b60405180910390a17f40212d9d89b8b595d3e8beccd8d17412912ffefafb3f51257d1953e11571f9043383604051610c54929190614862565b60405180910390a181925050509392505050565b8160001515610c7682613047565b151514610c8257600080fd5b610c8b81613129565b610c9457600080fd5b610c9e3382610587565b610ca757600080fd5b6000151560086000858152602001908152602001600020600084815260200190815260200160002060003373ffffffffffffffffffffffffffffffffffffffff1673ffffffffffffffffffffffffffffffffffffffff16815260200190815260200160002060009054906101000a900460ff16151514610d2657600080fd5b600160086000858152602001908152602001600020600084815260200190815260200160002060003373ffffffffffffffffffffffffffffffffffffffff1673ffffffffffffffffffffffffffffffffffffffff16815260200190815260200160002060006101000a81548160ff021916908315150217905550600060066000848152602001908152602001600020604051806101e0016040529081600082015481526020016001820160009054906101000a900473ffffffffffffffffffffffffffffffffffffffff1673ffffffffffffffffffffffffffffffffffffffff1673ffffffffffffffffffffffffffffffffffffffff168152602001600282018054610e319061546c565b80601f0160208091040260200160405190810160405280929190818152602001828054610e5d9061546c565b8015610eaa5780601f10610e7f57610100808354040283529160200191610eaa565b820191906000526020600020905b815481529060010190602001808311610e8d57829003601f168201915b5050505050815260200160038201548152602001600482018054610ecd9061546c565b80601f0160208091040260200160405190810160405280929190818152602001828054610ef99061546c565b8015610f465780601f10610f1b57610100808354040283529160200191610f46565b820191906000526020600020905b815481529060010190602001808311610f2957829003601f168201915b50505050508152602001600582018054610f5f9061546c565b80601f0160208091040260200160405190810160405280929190818152602001828054610f8b9061546c565b8015610fd85780601f10610fad57610100808354040283529160200191610fd8565b820191906000526020600020905b815481529060010190602001808311610fbb57829003601f168201915b50505050508152602001600682018054610ff19061546c565b80601f016020809104026020016040519081016040528092919081815260200182805461101d9061546c565b801561106a5780601f1061103f5761010080835404028352916020019161106a565b820191906000526020600020905b81548152906001019060200180831161104d57829003601f168201915b505050505081526020016007820180546110839061546c565b80601f01602080910402602001604051908101604052809291908181526020018280546110af9061546c565b80156110fc5780601f106110d1576101008083540402835291602001916110fc565b820191906000526020600020905b8154815290600101906020018083116110df57829003601f168201915b505050505081526020016008820180546111159061546c565b80601f01602080910402602001604051908101604052809291908181526020018280546111419061546c565b801561118e5780601f106111635761010080835404028352916020019161118e565b820191906000526020600020905b81548152906001019060200180831161117157829003601f168201915b505050505081526020016009820180546111a79061546c565b80601f01602080910402602001604051908101604052809291908181526020018280546111d39061546c565b80156112205780601f106111f557610100808354040283529160200191611220565b820191906000526020600020905b81548152906001019060200180831161120357829003601f168201915b50505050508152602001600a820180546112399061546c565b80601f01602080910402602001604051908101604052809291908181526020018280546112659061546c565b80156112b25780601f10611287576101008083540402835291602001916112b2565b820191906000526020600020905b81548152906001019060200180831161129557829003601f168201915b50505050508152602001600b820180546112cb9061546c565b80601f01602080910402602001604051908101604052809291908181526020018280546112f79061546c565b80156113445780601f1061131957610100808354040283529160200191611344565b820191906000526020600020905b81548152906001019060200180831161132757829003601f168201915b50505050508152602001600c8201805461135d9061546c565b80601f01602080910402602001604051908101604052809291908181526020018280546113899061546c565b80156113d65780601f106113ab576101008083540402835291602001916113d6565b820191906000526020600020905b8154815290600101906020018083116113b957829003601f168201915b50505050508152602001600d820180546113ef9061546c565b80601f016020809104026020016040519081016040528092919081815260200182805461141b9061546c565b80156114685780601f1061143d57610100808354040283529160200191611468565b820191906000526020600020905b81548152906001019060200180831161144b57829003601f168201915b50505050508152602001600e82018054806020026020016040519081016040528092919081815260200182805480156114f657602002820191906000526020600020905b8160009054906101000a900473ffffffffffffffffffffffffffffffffffffffff1673ffffffffffffffffffffffffffffffffffffffff16815260200190600101908083116114ac575b50505050508152505090507fd23e0e1cf7efd56afba725e60b9d313a14602a143f2c6ea2c780aead0107b5e333848360400151846060015160405161153e949392919061578c565b60405180910390a1611550848461320b565b50505050565b600080600090505b6004600085815260200190815260200160002060050180549050811015611622578273ffffffffffffffffffffffffffffffffffffffff166004600086815260200190815260200160002060050182815481106115be576115bd615396565b5b9060005260206000200160009054906101000a900473ffffffffffffffffffffffffffffffffffffffff1673ffffffffffffffffffffffffffffffffffffffff16141561160f576001915050611628565b808061161a906153f4565b91505061155e565b50600090505b92915050565b600080600090505b6002805490508110156116d2578273ffffffffffffffffffffffffffffffffffffffff166002828154811061166e5761166d615396565b5b9060005260206000200160009054906101000a900473ffffffffffffffffffffffffffffffffffffffff1673ffffffffffffffffffffffffffffffffffffffff1614156116bf5760019150506116d8565b80806116ca906153f4565b915050611636565b50600090505b919050565b6116e63361162e565b6116ef57600080fd5b600015156116fc82613129565b15151461170857600080fd5b6000151561171582613047565b15151461172157600080fd5b6000151561172f82336104af565b15151461173b57600080fd5b6000600460008381526020019081526020016000206005018054806020026020016040519081016040528092919081815260200182805480156117d357602002820191906000526020600020905b8160009054906101000a900473ffffffffffffffffffffffffffffffffffffffff1673ffffffffffffffffffffffffffffffffffffffff1681526020019060010190808311611789575b505050505090506000805b82518110156118b1573373ffffffffffffffffffffffffffffffffffffffff1683828151811061181157611810615396565b5b602002602001015173ffffffffffffffffffffffffffffffffffffffff16141561184157600061184057600080fd5b5b600073ffffffffffffffffffffffffffffffffffffffff1683828151811061186c5761186b615396565b5b602002602001015173ffffffffffffffffffffffffffffffffffffffff161461189e57818061189a906153f4565b9250505b80806118a9906153f4565b9150506117de565b50336004600085815260200190815260200160002060050182815481106118db576118da615396565b5b9060005260206000200160006101000a81548173ffffffffffffffffffffffffffffffffffffffff021916908373ffffffffffffffffffffffffffffffffffffffff1602179055507f8967c070a7dc13f025001bc9fdc38565793425413e963114bb0ddeac3998c6cc3384604051611954929190614862565b60405180910390a161196583613047565b156119a2577ffd132ec9e11063907001f1b4412752c57b09723015bc730bdf82d825476b8f35836040516119999190614cb3565b60405180910390a15b505050565b600083600015156119b782613047565b1515146119c357600080fd5b6119cc81613129565b6119d557600080fd5b6119df3382610587565b6119e857600080fd5b6000600d60008154809291906119fd906153f4565b919050559050600060405180604001604052808381526020018781525090508060056000848152602001908152602001600020600082015181600001556020820151816001019080519060200190611a569291906145cc565b50905050845167ffffffffffffffff811115611a7557611a74614a35565b5b604051908082528060200260200182016040528015611aa35781602001602082028036833780820191505090505b50600960008481526020019081526020016000209080519060200190611aca9291906146dc565b5060005b8551811015611db257600c6000815480929190611aea906153f4565b91905055868281518110611b0157611b00615396565b5b6020026020010151600001818152505082868281518110611b2557611b24615396565b5b6020026020010151606001818152505086868281518110611b4957611b48615396565b5b6020026020010151608001819052506000868281518110611b6d57611b6c615396565b5b6020026020010151600001519050868281518110611b8e57611b8d615396565b5b6020026020010151600660008381526020019081526020016000206000820151816000015560208201518160010160006101000a81548173ffffffffffffffffffffffffffffffffffffffff021916908373ffffffffffffffffffffffffffffffffffffffff1602179055506040820151816002019080519060200190611c169291906145cc565b50606082015181600301556080820151816004019080519060200190611c3d9291906145cc565b5060a0820151816005019080519060200190611c5a9291906145cc565b5060c0820151816006019080519060200190611c779291906145cc565b5060e0820151816007019080519060200190611c949291906145cc565b50610100820151816008019080519060200190611cb29291906145cc565b50610120820151816009019080519060200190611cd09291906145cc565b5061014082015181600a019080519060200190611cee9291906145cc565b5061016082015181600b019080519060200190611d0c9291906145cc565b5061018082015181600c019080519060200190611d2a9291906145cc565b506101a082015181600d019080519060200190611d489291906145cc565b506101c082015181600e019080519060200190611d66929190614652565b5090505080600960008681526020019081526020016000208381548110611d9057611d8f615396565b5b9060005260206000200181905550508080611daa906153f4565b915050611ace565b507f7ccc83e09914cac7f4bdec0f35389d40d993ef4605a2a31e187a685efa74916a3388848989604051611dea959493929190615a2a565b60405180910390a1611dfc8783612086565b8193505050509392505050565b611e11614729565b600460008381526020019081526020016000206040518060c001604052908160008201548152602001600182018054611e499061546c565b80601f0160208091040260200160405190810160405280929190818152602001828054611e759061546c565b8015611ec25780601f10611e9757610100808354040283529160200191611ec2565b820191906000526020600020905b815481529060010190602001808311611ea557829003601f168201915b5050505050815260200160028201805480602002602001604051908101604052809291908181526020018280548015611f5057602002820191906000526020600020905b8160009054906101000a900473ffffffffffffffffffffffffffffffffffffffff1673ffffffffffffffffffffffffffffffffffffffff1681526020019060010190808311611f06575b505050505081526020016003820154815260200160048201805480602002602001604051908101604052809291908181526020018280548015611fe857602002820191906000526020600020905b8160009054906101000a900473ffffffffffffffffffffffffffffffffffffffff1673ffffffffffffffffffffffffffffffffffffffff1681526020019060010190808311611f9e575b505050505081526020016005820180548060200260200160405190810160405280929190818152602001828054801561207657602002820191906000526020600020905b8160009054906101000a900473ffffffffffffffffffffffffffffffffffffffff1673ffffffffffffffffffffffffffffffffffffffff168152602001906001019080831161202c575b5050505050815250509050919050565b816000151561209482613047565b1515146120a057600080fd5b6120a981613129565b6120b257600080fd5b6120bc3382610587565b6120c557600080fd5b60001515600b6000858152602001908152602001600020600084815260200190815260200160002060003373ffffffffffffffffffffffffffffffffffffffff1673ffffffffffffffffffffffffffffffffffffffff16815260200190815260200160002060009054906101000a900460ff1615151461214457600080fd5b6001600b6000858152602001908152602001600020600084815260200190815260200160002060003373ffffffffffffffffffffffffffffffffffffffff1673ffffffffffffffffffffffffffffffffffffffff16815260200190815260200160002060006101000a81548160ff02191690831515021790555060005b6009600084815260200190815260200160002080549050811015612a4857600060096000858152602001908152602001600020828154811061220657612205615396565b5b90600052602060002001549050600160086000878152602001908152602001600020600083815260200190815260200160002060003373ffffffffffffffffffffffffffffffffffffffff1673ffffffffffffffffffffffffffffffffffffffff16815260200190815260200160002060006101000a81548160ff021916908315150217905550600060066000838152602001908152602001600020604051806101e0016040529081600082015481526020016001820160009054906101000a900473ffffffffffffffffffffffffffffffffffffffff1673ffffffffffffffffffffffffffffffffffffffff1673ffffffffffffffffffffffffffffffffffffffff16815260200160028201805461231e9061546c565b80601f016020809104026020016040519081016040528092919081815260200182805461234a9061546c565b80156123975780601f1061236c57610100808354040283529160200191612397565b820191906000526020600020905b81548152906001019060200180831161237a57829003601f168201915b50505050508152602001600382015481526020016004820180546123ba9061546c565b80601f01602080910402602001604051908101604052809291908181526020018280546123e69061546c565b80156124335780601f1061240857610100808354040283529160200191612433565b820191906000526020600020905b81548152906001019060200180831161241657829003601f168201915b5050505050815260200160058201805461244c9061546c565b80601f01602080910402602001604051908101604052809291908181526020018280546124789061546c565b80156124c55780601f1061249a576101008083540402835291602001916124c5565b820191906000526020600020905b8154815290600101906020018083116124a857829003601f168201915b505050505081526020016006820180546124de9061546c565b80601f016020809104026020016040519081016040528092919081815260200182805461250a9061546c565b80156125575780601f1061252c57610100808354040283529160200191612557565b820191906000526020600020905b81548152906001019060200180831161253a57829003601f168201915b505050505081526020016007820180546125709061546c565b80601f016020809104026020016040519081016040528092919081815260200182805461259c9061546c565b80156125e95780601f106125be576101008083540402835291602001916125e9565b820191906000526020600020905b8154815290600101906020018083116125cc57829003601f168201915b505050505081526020016008820180546126029061546c565b80601f016020809104026020016040519081016040528092919081815260200182805461262e9061546c565b801561267b5780601f106126505761010080835404028352916020019161267b565b820191906000526020600020905b81548152906001019060200180831161265e57829003601f168201915b505050505081526020016009820180546126949061546c565b80601f01602080910402602001604051908101604052809291908181526020018280546126c09061546c565b801561270d5780601f106126e25761010080835404028352916020019161270d565b820191906000526020600020905b8154815290600101906020018083116126f057829003601f168201915b50505050508152602001600a820180546127269061546c565b80601f01602080910402602001604051908101604052809291908181526020018280546127529061546c565b801561279f5780601f106127745761010080835404028352916020019161279f565b820191906000526020600020905b81548152906001019060200180831161278257829003601f168201915b50505050508152602001600b820180546127b89061546c565b80601f01602080910402602001604051908101604052809291908181526020018280546127e49061546c565b80156128315780601f1061280657610100808354040283529160200191612831565b820191906000526020600020905b81548152906001019060200180831161281457829003601f168201915b50505050508152602001600c8201805461284a9061546c565b80601f01602080910402602001604051908101604052809291908181526020018280546128769061546c565b80156128c35780601f10612898576101008083540402835291602001916128c3565b820191906000526020600020905b8154815290600101906020018083116128a657829003601f168201915b50505050508152602001600d820180546128dc9061546c565b80601f01602080910402602001604051908101604052809291908181526020018280546129089061546c565b80156129555780601f1061292a57610100808354040283529160200191612955565b820191906000526020600020905b81548152906001019060200180831161293857829003601f168201915b50505050508152602001600e82018054806020026020016040519081016040528092919081815260200182805480156129e357602002820191906000526020600020905b8160009054906101000a900473ffffffffffffffffffffffffffffffffffffffff1673ffffffffffffffffffffffffffffffffffffffff1681526020019060010190808311612999575b50505050508152505090507fd23e0e1cf7efd56afba725e60b9d313a14602a143f2c6ea2c780aead0107b5e3338383604001518460600151604051612a2b949392919061578c565b60405180910390a150508080612a40906153f4565b9150506121c1565b507fb4997c2bafa0c10ba6e58f9474692ad01d1e224db968ff6d6ffe99d2a9591226338360056000868152602001908152602001600020600101604051612a9193929190615a8b565b60405180910390a1612aa38383613b27565b505050565b60008260001515612ab882613047565b151514612ac457600080fd5b612acd81613129565b612ad657600080fd5b612ae03382610587565b612ae957600080fd5b600c6000815480929190612afc906153f4565b919050558360000181815250508260066000856000015181526020019081526020016000206000820151816000015560208201518160010160006101000a81548173ffffffffffffffffffffffffffffffffffffffff021916908373ffffffffffffffffffffffffffffffffffffffff1602179055506040820151816002019080519060200190612b8e9291906145cc565b50606082015181600301556080820151816004019080519060200190612bb59291906145cc565b5060a0820151816005019080519060200190612bd29291906145cc565b5060c0820151816006019080519060200190612bef9291906145cc565b5060e0820151816007019080519060200190612c0c9291906145cc565b50610100820151816008019080519060200190612c2a9291906145cc565b50610120820151816009019080519060200190612c489291906145cc565b5061014082015181600a019080519060200190612c669291906145cc565b5061016082015181600b019080519060200190612c849291906145cc565b5061018082015181600c019080519060200190612ca29291906145cc565b506101a082015181600d019080519060200190612cc09291906145cc565b506101c082015181600e019080519060200190612cde929190614652565b509050507f2c1eb38735aaf2ed4270015880b7cd8604f23422f77d9ee57d732823019ab5ef33846000015185604001518660600151604051612d23949392919061578c565b60405180910390a1612d39848460000151610c68565b826000015191505092915050565b6060806000805b600280549050811015612ebb57600b60008781526020019081526020016000206000868152602001908152602001600020600060028381548110612d9557612d94615396565b5b9060005260206000200160009054906101000a900473ffffffffffffffffffffffffffffffffffffffff1673ffffffffffffffffffffffffffffffffffffffff1673ffffffffffffffffffffffffffffffffffffffff16815260200190815260200160002060009054906101000a900460ff1615612ea85760028181548110612e2157612e20615396565b5b9060005260206000200160009054906101000a900473ffffffffffffffffffffffffffffffffffffffff16838381518110612e5f57612e5e615396565b5b602002602001019073ffffffffffffffffffffffffffffffffffffffff16908173ffffffffffffffffffffffffffffffffffffffff16815250508180612ea4906153f4565b9250505b8080612eb3906153f4565b915050612d4e565b50819250505092915050565b6060806000805b60028054905081101561303b57600860008781526020019081526020016000206000868152602001908152602001600020600060028381548110612f1557612f14615396565b5b9060005260206000200160009054906101000a900473ffffffffffffffffffffffffffffffffffffffff1673ffffffffffffffffffffffffffffffffffffffff1673ffffffffffffffffffffffffffffffffffffffff16815260200190815260200160002060009054906101000a900460ff16156130285760028181548110612fa157612fa0615396565b5b9060005260206000200160009054906101000a900473ffffffffffffffffffffffffffffffffffffffff16838381518110612fdf57612fde615396565b5b602002602001019073ffffffffffffffffffffffffffffffffffffffff16908173ffffffffffffffffffffffffffffffffffffffff16815250508180613024906153f4565b9250505b8080613033906153f4565b915050612ece565b50819250505092915050565b6000806000905060005b600460008581526020019081526020016000206005018054905081101561311a57600073ffffffffffffffffffffffffffffffffffffffff166004600086815260200190815260200160002060050182815481106130b2576130b1615396565b5b9060005260206000200160009054906101000a900473ffffffffffffffffffffffffffffffffffffffff1673ffffffffffffffffffffffffffffffffffffffff1614613107578180613103906153f4565b9250505b8080613112906153f4565b915050613051565b50600354811015915050919050565b6000806000905060005b60046000858152602001908152602001600020600401805490508110156131fc57600073ffffffffffffffffffffffffffffffffffffffff1660046000868152602001908152602001600020600401828154811061319457613193615396565b5b9060005260206000200160009054906101000a900473ffffffffffffffffffffffffffffffffffffffff1673ffffffffffffffffffffffffffffffffffffffff16146131e95781806131e5906153f4565b9250505b80806131f4906153f4565b915050613133565b50600354811015915050919050565b816000151561321982613047565b15151461322557600080fd5b61322e81613129565b61323757600080fd5b6132413382610587565b61324a57600080fd5b600015156007600084815260200190815260200160002060009054906101000a900460ff1615151461327b57600080fd5b6132858383610686565b61328e57600080fd5b6132988383612ec7565b60066000848152602001908152602001600020600e0190805190602001906132c1929190614652565b50600060066000848152602001908152602001600020604051806101e0016040529081600082015481526020016001820160009054906101000a900473ffffffffffffffffffffffffffffffffffffffff1673ffffffffffffffffffffffffffffffffffffffff1673ffffffffffffffffffffffffffffffffffffffff1681526020016002820180546133539061546c565b80601f016020809104026020016040519081016040528092919081815260200182805461337f9061546c565b80156133cc5780601f106133a1576101008083540402835291602001916133cc565b820191906000526020600020905b8154815290600101906020018083116133af57829003601f168201915b50505050508152602001600382015481526020016004820180546133ef9061546c565b80601f016020809104026020016040519081016040528092919081815260200182805461341b9061546c565b80156134685780601f1061343d57610100808354040283529160200191613468565b820191906000526020600020905b81548152906001019060200180831161344b57829003601f168201915b505050505081526020016005820180546134819061546c565b80601f01602080910402602001604051908101604052809291908181526020018280546134ad9061546c565b80156134fa5780601f106134cf576101008083540402835291602001916134fa565b820191906000526020600020905b8154815290600101906020018083116134dd57829003601f168201915b505050505081526020016006820180546135139061546c565b80601f016020809104026020016040519081016040528092919081815260200182805461353f9061546c565b801561358c5780601f106135615761010080835404028352916020019161358c565b820191906000526020600020905b81548152906001019060200180831161356f57829003601f168201915b505050505081526020016007820180546135a59061546c565b80601f01602080910402602001604051908101604052809291908181526020018280546135d19061546c565b801561361e5780601f106135f35761010080835404028352916020019161361e565b820191906000526020600020905b81548152906001019060200180831161360157829003601f168201915b505050505081526020016008820180546136379061546c565b80601f01602080910402602001604051908101604052809291908181526020018280546136639061546c565b80156136b05780601f10613685576101008083540402835291602001916136b0565b820191906000526020600020905b81548152906001019060200180831161369357829003601f168201915b505050505081526020016009820180546136c99061546c565b80601f01602080910402602001604051908101604052809291908181526020018280546136f59061546c565b80156137425780601f1061371757610100808354040283529160200191613742565b820191906000526020600020905b81548152906001019060200180831161372557829003601f168201915b50505050508152602001600a8201805461375b9061546c565b80601f01602080910402602001604051908101604052809291908181526020018280546137879061546c565b80156137d45780601f106137a9576101008083540402835291602001916137d4565b820191906000526020600020905b8154815290600101906020018083116137b757829003601f168201915b50505050508152602001600b820180546137ed9061546c565b80601f01602080910402602001604051908101604052809291908181526020018280546138199061546c565b80156138665780601f1061383b57610100808354040283529160200191613866565b820191906000526020600020905b81548152906001019060200180831161384957829003601f168201915b50505050508152602001600c8201805461387f9061546c565b80601f01602080910402602001604051908101604052809291908181526020018280546138ab9061546c565b80156138f85780601f106138cd576101008083540402835291602001916138f8565b820191906000526020600020905b8154815290600101906020018083116138db57829003601f168201915b50505050508152602001600d820180546139119061546c565b80601f016020809104026020016040519081016040528092919081815260200182805461393d9061546c565b801561398a5780601f1061395f5761010080835404028352916020019161398a565b820191906000526020600020905b81548152906001019060200180831161396d57829003601f168201915b50505050508152602001600e8201805480602002602001604051908101604052809291908181526020018280548015613a1857602002820191906000526020600020905b8160009054906101000a900473ffffffffffffffffffffffffffffffffffffffff1673ffffffffffffffffffffffffffffffffffffffff16815260200190600101908083116139ce575b505050505081525050905060008054906101000a900473ffffffffffffffffffffffffffffffffffffffff1673ffffffffffffffffffffffffffffffffffffffff166303d49024826040518263ffffffff1660e01b8152600401613a7c9190615c59565b600060405180830381600087803b158015613a9657600080fd5b505af1158015613aaa573d6000803e3d6000fd5b5050505060016007600085815260200190815260200160002060006101000a81548160ff0219169083151502179055507f1013de973c1173b6d761402a6463eedb8295298d126c27395b046cb522cbe463816000015182604001518360600151604051613b1993929190615c7b565b60405180910390a150505050565b8160001515613b3582613047565b151514613b4157600080fd5b613b4a81613129565b613b5357600080fd5b613b5d3382610587565b613b6657600080fd5b60001515600a600084815260200190815260200160002060009054906101000a900460ff16151514613b9757600080fd5b613ba18383610476565b613baa57600080fd5b6000613bb68484612d47565b905060006009600085815260200190815260200160002080549050905060008167ffffffffffffffff811115613bef57613bee614a35565b5b604051908082528060200260200182016040528015613c2857816020015b613c1561475f565b815260200190600190039081613c0d5790505b50905060005b82811015614424576000600960008881526020019081526020016000208281548110613c5d57613c5c615396565b5b906000526020600020015490508460066000838152602001908152602001600020600e019080519060200190613c94929190614652565b5060066000828152602001908152602001600020604051806101e0016040529081600082015481526020016001820160009054906101000a900473ffffffffffffffffffffffffffffffffffffffff1673ffffffffffffffffffffffffffffffffffffffff1673ffffffffffffffffffffffffffffffffffffffff168152602001600282018054613d249061546c565b80601f0160208091040260200160405190810160405280929190818152602001828054613d509061546c565b8015613d9d5780601f10613d7257610100808354040283529160200191613d9d565b820191906000526020600020905b815481529060010190602001808311613d8057829003601f168201915b5050505050815260200160038201548152602001600482018054613dc09061546c565b80601f0160208091040260200160405190810160405280929190818152602001828054613dec9061546c565b8015613e395780601f10613e0e57610100808354040283529160200191613e39565b820191906000526020600020905b815481529060010190602001808311613e1c57829003601f168201915b50505050508152602001600582018054613e529061546c565b80601f0160208091040260200160405190810160405280929190818152602001828054613e7e9061546c565b8015613ecb5780601f10613ea057610100808354040283529160200191613ecb565b820191906000526020600020905b815481529060010190602001808311613eae57829003601f168201915b50505050508152602001600682018054613ee49061546c565b80601f0160208091040260200160405190810160405280929190818152602001828054613f109061546c565b8015613f5d5780601f10613f3257610100808354040283529160200191613f5d565b820191906000526020600020905b815481529060010190602001808311613f4057829003601f168201915b50505050508152602001600782018054613f769061546c565b80601f0160208091040260200160405190810160405280929190818152602001828054613fa29061546c565b8015613fef5780601f10613fc457610100808354040283529160200191613fef565b820191906000526020600020905b815481529060010190602001808311613fd257829003601f168201915b505050505081526020016008820180546140089061546c565b80601f01602080910402602001604051908101604052809291908181526020018280546140349061546c565b80156140815780601f1061405657610100808354040283529160200191614081565b820191906000526020600020905b81548152906001019060200180831161406457829003601f168201915b5050505050815260200160098201805461409a9061546c565b80601f01602080910402602001604051908101604052809291908181526020018280546140c69061546c565b80156141135780601f106140e857610100808354040283529160200191614113565b820191906000526020600020905b8154815290600101906020018083116140f657829003601f168201915b50505050508152602001600a8201805461412c9061546c565b80601f01602080910402602001604051908101604052809291908181526020018280546141589061546c565b80156141a55780601f1061417a576101008083540402835291602001916141a5565b820191906000526020600020905b81548152906001019060200180831161418857829003601f168201915b50505050508152602001600b820180546141be9061546c565b80601f01602080910402602001604051908101604052809291908181526020018280546141ea9061546c565b80156142375780601f1061420c57610100808354040283529160200191614237565b820191906000526020600020905b81548152906001019060200180831161421a57829003601f168201915b50505050508152602001600c820180546142509061546c565b80601f016020809104026020016040519081016040528092919081815260200182805461427c9061546c565b80156142c95780601f1061429e576101008083540402835291602001916142c9565b820191906000526020600020905b8154815290600101906020018083116142ac57829003601f168201915b50505050508152602001600d820180546142e29061546c565b80601f016020809104026020016040519081016040528092919081815260200182805461430e9061546c565b801561435b5780601f106143305761010080835404028352916020019161435b565b820191906000526020600020905b81548152906001019060200180831161433e57829003601f168201915b50505050508152602001600e82018054806020026020016040519081016040528092919081815260200182805480156143e957602002820191906000526020600020905b8160009054906101000a900473ffffffffffffffffffffffffffffffffffffffff1673ffffffffffffffffffffffffffffffffffffffff168152602001906001019080831161439f575b50505050508152505083838151811061440557614404615396565b5b602002602001018190525050808061441c906153f4565b915050613c2e565b5060008054906101000a900473ffffffffffffffffffffffffffffffffffffffff1673ffffffffffffffffffffffffffffffffffffffff1663e93731ec826040518263ffffffff1660e01b815260040161447e9190615cb9565b600060405180830381600087803b15801561449857600080fd5b505af11580156144ac573d6000803e3d6000fd5b505050506001600a600087815260200190815260200160002060006101000a81548160ff02191690831515021790555060005b828110156145615760008282815181106144fc576144fb615396565b5b602002602001015190507f1013de973c1173b6d761402a6463eedb8295298d126c27395b046cb522cbe46381600001518260400151836060015160405161454593929190615c7b565b60405180910390a1508080614559906153f4565b9150506144df565b507f0a1c6b555d341d04847ed94a92dd7f44f1941346a8dbeee33cda4d8b77a98c1e8560056000888152602001908152602001600020600101600960008981526020019081526020016000206040516145bc93929190615dcd565b60405180910390a1505050505050565b8280546145d89061546c565b90600052602060002090601f0160209004810192826145fa5760008555614641565b82601f1061461357805160ff1916838001178555614641565b82800160010185558215614641579182015b82811115614640578251825591602001919060010190614625565b5b50905061464e91906147eb565b5090565b8280548282559060005260206000209081019282156146cb579160200282015b828111156146ca5782518260006101000a81548173ffffffffffffffffffffffffffffffffffffffff021916908373ffffffffffffffffffffffffffffffffffffffff16021790555091602001919060010190614672565b5b5090506146d891906147eb565b5090565b828054828255906000526020600020908101928215614718579160200282015b828111156147175782518255916020019190600101906146fc565b5b50905061472591906147eb565b5090565b6040518060c001604052806000815260200160608152602001606081526020016000815260200160608152602001606081525090565b604051806101e0016040528060008152602001600073ffffffffffffffffffffffffffffffffffffffff168152602001606081526020016000815260200160608152602001606081526020016060815260200160608152602001606081526020016060815260200160608152602001606081526020016060815260200160608152602001606081525090565b5b808211156148045760008160009055506001016147ec565b5090565b600073ffffffffffffffffffffffffffffffffffffffff82169050919050565b600061483382614808565b9050919050565b61484381614828565b82525050565b6000819050919050565b61485c81614849565b82525050565b6000604082019050614877600083018561483a565b6148846020830184614853565b9392505050565b6000604051905090565b600080fd5b600080fd5b6148a881614849565b81146148b357600080fd5b50565b6000813590506148c58161489f565b92915050565b600080604083850312156148e2576148e1614895565b5b60006148f0858286016148b6565b9250506020614901858286016148b6565b9150509250929050565b60008115159050919050565b6149208161490b565b82525050565b600060208201905061493b6000830184614917565b92915050565b61494a81614828565b811461495557600080fd5b50565b60008135905061496781614941565b92915050565b6000806040838503121561498457614983614895565b5b6000614992858286016148b6565b92505060206149a385828601614958565b9150509250929050565b600080604083850312156149c4576149c3614895565b5b60006149d285828601614958565b92505060206149e3858286016148b6565b9150509250929050565b600060208284031215614a0357614a02614895565b5b6000614a11848285016148b6565b91505092915050565b600080fd5b600080fd5b6000601f19601f8301169050919050565b7f4e487b7100000000000000000000000000000000000000000000000000000000600052604160045260246000fd5b614a6d82614a24565b810181811067ffffffffffffffff82111715614a8c57614a8b614a35565b5b80604052505050565b6000614a9f61488b565b9050614aab8282614a64565b919050565b600067ffffffffffffffff821115614acb57614aca614a35565b5b614ad482614a24565b9050602081019050919050565b82818337600083830152505050565b6000614b03614afe84614ab0565b614a95565b905082815260208101848484011115614b1f57614b1e614a1f565b5b614b2a848285614ae1565b509392505050565b600082601f830112614b4757614b46614a1a565b5b8135614b57848260208601614af0565b91505092915050565b600067ffffffffffffffff821115614b7b57614b7a614a35565b5b602082029050602081019050919050565b600080fd5b6000614ba4614b9f84614b60565b614a95565b90508083825260208201905060208402830185811115614bc757614bc6614b8c565b5b835b81811015614bf05780614bdc8882614958565b845260208401935050602081019050614bc9565b5050509392505050565b600082601f830112614c0f57614c0e614a1a565b5b8135614c1f848260208601614b91565b91505092915050565b600080600060608486031215614c4157614c40614895565b5b600084013567ffffffffffffffff811115614c5f57614c5e61489a565b5b614c6b86828701614b32565b935050602084013567ffffffffffffffff811115614c8c57614c8b61489a565b5b614c9886828701614bfa565b9250506040614ca9868287016148b6565b9150509250925092565b6000602082019050614cc86000830184614853565b92915050565b600060208284031215614ce457614ce3614895565b5b6000614cf284828501614958565b91505092915050565b600067ffffffffffffffff821115614d1657614d15614a35565b5b602082029050602081019050919050565b600080fd5b600080fd5b60006101e08284031215614d4857614d47614d27565b5b614d536101e0614a95565b90506000614d63848285016148b6565b6000830152506020614d7784828501614958565b602083015250604082013567ffffffffffffffff811115614d9b57614d9a614d2c565b5b614da784828501614b32565b6040830152506060614dbb848285016148b6565b606083015250608082013567ffffffffffffffff811115614ddf57614dde614d2c565b5b614deb84828501614b32565b60808301525060a082013567ffffffffffffffff811115614e0f57614e0e614d2c565b5b614e1b84828501614b32565b60a08301525060c082013567ffffffffffffffff811115614e3f57614e3e614d2c565b5b614e4b84828501614b32565b60c08301525060e082013567ffffffffffffffff811115614e6f57614e6e614d2c565b5b614e7b84828501614b32565b60e08301525061010082013567ffffffffffffffff811115614ea057614e9f614d2c565b5b614eac84828501614b32565b6101008301525061012082013567ffffffffffffffff811115614ed257614ed1614d2c565b5b614ede84828501614b32565b6101208301525061014082013567ffffffffffffffff811115614f0457614f03614d2c565b5b614f1084828501614b32565b6101408301525061016082013567ffffffffffffffff811115614f3657614f35614d2c565b5b614f4284828501614b32565b6101608301525061018082013567ffffffffffffffff811115614f6857614f67614d2c565b5b614f7484828501614b32565b610180830152506101a082013567ffffffffffffffff811115614f9a57614f99614d2c565b5b614fa684828501614b32565b6101a0830152506101c082013567ffffffffffffffff811115614fcc57614fcb614d2c565b5b614fd884828501614bfa565b6101c08301525092915050565b6000614ff8614ff384614cfb565b614a95565b9050808382526020820190506020840283018581111561501b5761501a614b8c565b5b835b8181101561506257803567ffffffffffffffff8111156150405761503f614a1a565b5b80860161504d8982614d31565b8552602085019450505060208101905061501d565b5050509392505050565b600082601f83011261508157615080614a1a565b5b8135615091848260208601614fe5565b91505092915050565b6000806000606084860312156150b3576150b2614895565b5b60006150c1868287016148b6565b935050602084013567ffffffffffffffff8111156150e2576150e161489a565b5b6150ee86828701614b32565b925050604084013567ffffffffffffffff81111561510f5761510e61489a565b5b61511b8682870161506c565b9150509250925092565b61512e81614849565b82525050565b600081519050919050565b600082825260208201905092915050565b60005b8381101561516e578082015181840152602081019050615153565b8381111561517d576000848401525b50505050565b600061518e82615134565b615198818561513f565b93506151a8818560208601615150565b6151b181614a24565b840191505092915050565b600081519050919050565b600082825260208201905092915050565b6000819050602082019050919050565b6151f181614828565b82525050565b600061520383836151e8565b60208301905092915050565b6000602082019050919050565b6000615227826151bc565b61523181856151c7565b935061523c836151d8565b8060005b8381101561526d57815161525488826151f7565b975061525f8361520f565b925050600181019050615240565b5085935050505092915050565b600060c0830160008301516152926000860182615125565b50602083015184820360208601526152aa8282615183565b915050604083015184820360408601526152c4828261521c565b91505060608301516152d96060860182615125565b50608083015184820360808601526152f1828261521c565b91505060a083015184820360a086015261530b828261521c565b9150508091505092915050565b60006020820190508181036000830152615332818461527a565b905092915050565b6000806040838503121561535157615350614895565b5b600061535f858286016148b6565b925050602083013567ffffffffffffffff8111156153805761537f61489a565b5b61538c85828601614d31565b9150509250929050565b7f4e487b7100000000000000000000000000000000000000000000000000000000600052603260045260246000fd5b7f4e487b7100000000000000000000000000000000000000000000000000000000600052601160045260246000fd5b60006153ff82614849565b91507fffffffffffffffffffffffffffffffffffffffffffffffffffffffffffffffff821415615432576154316153c5565b5b600182019050919050565b7f4e487b7100000000000000000000000000000000000000000000000000000000600052602260045260246000fd5b6000600282049050600182168061548457607f821691505b602082108114156154985761549761543d565b5b50919050565b600082825260208201905092915050565b60008190508160005260206000209050919050565b600081546154d18161546c565b6154db818661549e565b945060018216600081146154f657600181146155085761553b565b60ff198316865260208601935061553b565b615511856154af565b60005b8381101561553357815481890152600182019150602081019050615514565b808801955050505b50505092915050565b600081549050919050565b600082825260208201905092915050565b60008190508160005260206000209050919050565b60008160001c9050919050565b600073ffffffffffffffffffffffffffffffffffffffff82169050919050565b60006155b56155b083615575565b615582565b9050919050565b60006155c882546155a2565b9050919050565b6000600182019050919050565b60006155e782615544565b6155f1818561554f565b93506155fc83615560565b8060005b8381101561563457615611826155bc565b61561b88826151f7565b9750615626836155cf565b925050600181019050615600565b5085935050505092915050565b60006080820190506156566000830187614853565b818103602083015261566881866154c4565b9050818103604083015261567c81856155dc565b905061568b6060830184614853565b95945050505050565b600061569f82615134565b6156a9818561549e565b93506156b9818560208601615150565b6156c281614a24565b840191505092915050565b60006156d8826151bc565b6156e2818561554f565b93506156ed836151d8565b8060005b8381101561571e57815161570588826151f7565b97506157108361520f565b9250506001810190506156f1565b5085935050505092915050565b600060a082019050615740600083018861483a565b61574d6020830187614853565b818103604083015261575f8186615694565b9050818103606083015261577381856156cd565b90506157826080830184614853565b9695505050505050565b60006080820190506157a1600083018761483a565b6157ae6020830186614853565b81810360408301526157c08185615694565b90506157cf6060830184614853565b95945050505050565b600081519050919050565b600082825260208201905092915050565b6000819050602082019050919050565b60006101e08301600083015161581d6000860182615125565b50602083015161583060208601826151e8565b50604083015184820360408601526158488282615183565b915050606083015161585d6060860182615125565b50608083015184820360808601526158758282615183565b91505060a083015184820360a086015261588f8282615183565b91505060c083015184820360c08601526158a98282615183565b91505060e083015184820360e08601526158c38282615183565b9150506101008301518482036101008601526158df8282615183565b9150506101208301518482036101208601526158fb8282615183565b9150506101408301518482036101408601526159178282615183565b9150506101608301518482036101608601526159338282615183565b91505061018083015184820361018086015261594f8282615183565b9150506101a08301518482036101a086015261596b8282615183565b9150506101c08301518482036101c0860152615987828261521c565b9150508091505092915050565b60006159a08383615804565b905092915050565b6000602082019050919050565b60006159c0826157d8565b6159ca81856157e3565b9350836020820285016159dc856157f4565b8060005b85811015615a1857848403895281516159f98582615994565b9450615a04836159a8565b925060208a019950506001810190506159e0565b50829750879550505050505092915050565b600060a082019050615a3f600083018861483a565b615a4c6020830187614853565b615a596040830186614853565b8181036060830152615a6b8185615694565b90508181036080830152615a7f81846159b5565b90509695505050505050565b6000606082019050615aa0600083018661483a565b615aad6020830185614853565b8181036040830152615abf81846154c4565b9050949350505050565b60006101e083016000830151615ae26000860182615125565b506020830151615af560208601826151e8565b5060408301518482036040860152615b0d8282615183565b9150506060830151615b226060860182615125565b5060808301518482036080860152615b3a8282615183565b91505060a083015184820360a0860152615b548282615183565b91505060c083015184820360c0860152615b6e8282615183565b91505060e083015184820360e0860152615b888282615183565b915050610100830151848203610100860152615ba48282615183565b915050610120830151848203610120860152615bc08282615183565b915050610140830151848203610140860152615bdc8282615183565b915050610160830151848203610160860152615bf88282615183565b915050610180830151848203610180860152615c148282615183565b9150506101a08301518482036101a0860152615c308282615183565b9150506101c08301518482036101c0860152615c4c828261521c565b9150508091505092915050565b60006020820190508181036000830152615c738184615ac9565b905092915050565b6000606082019050615c906000830186614853565b8181036020830152615ca28185615694565b9050615cb16040830184614853565b949350505050565b60006020820190508181036000830152615cd381846159b5565b905092915050565b600081549050919050565b600082825260208201905092915050565b60008190508160005260206000209050919050565b6000615d188383615125565b60208301905092915050565b6000819050919050565b6000615d41615d3c83615575565b615d24565b9050919050565b6000615d548254615d2e565b9050919050565b6000600182019050919050565b6000615d7382615cdb565b615d7d8185615ce6565b9350615d8883615cf7565b8060005b83811015615dc057615d9d82615d48565b615da78882615d0c565b9750615db283615d5b565b925050600181019050615d8c565b5085935050505092915050565b6000606082019050615de26000830186614853565b8181036020830152615df481856154c4565b90508181036040830152615e088184615d68565b905094935050505056fea26469706673582212209a1f60f3921ae5e6c6a6cfadccd0c020128cb7aa2af0537e58f1a25da756db1764736f6c634300080a0033",
  "immutableReferences": {},
  "source": "// SPDX-License-Identifier: MIT\r\npragma solidity >=0.4.22 <0.9.0;\r\n\r\n\r\nstruct Cert {\r\n    uint id;\r\n    address schoolId;\r\n    string regNo;\r\n    uint batchId;\r\n    string batchRegNo;\r\n    string conferredOn;\r\n    string dateOfBirth;\r\n    string yearOfGraduation;\r\n    string majorIn;\r\n    string degreeOf;\r\n    string degreeClassification;\r\n    string modeOfStudy;\r\n    string createdIn;\r\n    string createdAt;\r\n    address[] issuers;\r\n}\r\n\r\ninterface Certs {\r\n    function addCert(Cert memory _cert) external;\r\n    function addCerts(Cert[] memory _certs) external;\r\n}\r\n\r\ncontract MultiSigWallet {\r\n\r\n    struct Group {\r\n        uint id;\r\n        string name;\r\n        address[] members;\r\n        uint threshold;\r\n        address[] confirmedBy;\r\n        address[] rejectedBy;\r\n    }\r\n\r\n    struct Batch {\r\n        uint id;\r\n        string name;\r\n    }\r\n\r\n    Certs holder;\r\n    string schoolName;\r\n    address[] members;\r\n    uint threshold;\r\n\r\n    mapping(uint => Group) groups;\r\n\r\n    mapping(uint => Batch) batches; // batchId => batchName\r\n    mapping(uint => Cert) certs; // certId => cert\r\n    mapping(uint => bool) certExecuted; // certId => executed\r\n    mapping(uint => mapping(uint => mapping(address => bool))) certConfirmed; // groupId => certId => member => confirmed\r\n\r\n    mapping(uint => uint[]) batchCerts; // batchId => [certIds]\r\n    mapping(uint => bool) batchExecuted; // batchId => executed\r\n    mapping(uint => mapping(uint => mapping(address => bool))) batchConfirmed; // groupId => batchId => member => confirmed\r\n\r\n    uint certCount = 0;\r\n    uint batchCount = 0;\r\n    uint groupCount = 0;\r\n\r\n    function isMember(address _member) public view returns (bool) {\r\n        for (uint i = 0; i < members.length; i++) {\r\n            if (members[i] == _member) {\r\n                return true;\r\n            }\r\n        }\r\n        return false;\r\n    }\r\n\r\n    function isMemberOfGroup(address _member, uint _groupId) public view returns (bool) {\r\n        if (groups[_groupId].members.length == 0) {\r\n            return false;\r\n        }\r\n        for (uint i = 0; i < groups[_groupId].members.length; i++) {\r\n            if (groups[_groupId].members[i] == _member) {\r\n                return true;\r\n            }\r\n        }\r\n        return false;\r\n    }\r\n\r\n    modifier onlyMembers {\r\n        require(isMember(msg.sender));\r\n        _;\r\n    }\r\n\r\n    modifier onlyGroup(uint _groupId) {\r\n        require(isGroupRejected(_groupId) == false);\r\n        require(isGroupConfirmed(_groupId));\r\n        require(isMemberOfGroup(msg.sender, _groupId));\r\n        _;\r\n    }\r\n\r\n    event WalletActivated(\r\n        string schoolName,\r\n        address[] members,\r\n        uint threshold,\r\n        address certsAddress\r\n    );\r\n\r\n    event GroupPending(\r\n        address creator,\r\n        uint groupId,\r\n        string name,\r\n        address[] members,\r\n        uint threshold\r\n    );\r\n\r\n    event GroupConfirmed(\r\n        address confirmer,\r\n        uint groupId\r\n    );\r\n\r\n    event GroupRejected(\r\n        address rejecter,\r\n        uint groupId\r\n    );\r\n\r\n    event GroupAdded(\r\n        uint groupId,\r\n        string name,\r\n        address[] members,\r\n        uint threshold\r\n    );\r\n\r\n    event GroupRemoved(\r\n        uint groupId\r\n    );\r\n\r\n    event CertPending(\r\n        address creator,\r\n        uint certId,\r\n        string regNo,\r\n        uint batchId\r\n    );\r\n\r\n    event CertConfirmed(\r\n        address confirmer,\r\n        uint certId,\r\n        string regNo,\r\n        uint batchId\r\n    );\r\n\r\n    event CertRejected(\r\n        address rejecter,\r\n        uint certId,\r\n        string regNo,\r\n        uint batchId\r\n    );\r\n\r\n    event CertAdded(\r\n        uint certId,\r\n        string regNo,\r\n        uint batchId\r\n    );\r\n\r\n    event CertRemoved(\r\n        uint certId\r\n    );\r\n\r\n    event BatchPending(\r\n        address creator,\r\n        uint groupId,\r\n        uint batchId,\r\n        string regNo,\r\n        Cert[] certs\r\n    );\r\n\r\n    event BatchConfirmed(\r\n        address confirmer,\r\n        uint batchId,\r\n        string regNo\r\n    );\r\n\r\n    event BatchRejected(\r\n        address rejecter,\r\n        uint batchId,\r\n        string regNo\r\n    );\r\n\r\n    event BatchAdded(\r\n        uint batchId,\r\n        string regNo,\r\n        uint[] certIds\r\n    );\r\n\r\n    event BatchRemoved(\r\n        uint batchId\r\n    );\r\n\r\n    event Deposit(address from, uint value);\r\n\r\n    fallback() external payable {\r\n        if (msg.value > 0) {\r\n            emit Deposit(msg.sender, msg.value);\r\n        }\r\n    }\r\n\r\n    receive() external payable {\r\n        if (msg.value > 0) {\r\n            emit Deposit(msg.sender, msg.value);\r\n        }\r\n    }\r\n\r\n    constructor(string memory _name, address[] memory _members, uint _threshold, address _address) {\r\n        require(_members.length > 0);\r\n        require(_threshold > 0);\r\n        require(_threshold <= _members.length);\r\n        schoolName = _name;\r\n        members = _members;\r\n        threshold = _threshold;\r\n        holder = Certs(_address);\r\n        emit WalletActivated(_name, _members, _threshold, _address);\r\n    }\r\n\r\n    function isGroupConfirmedBy(uint _groupId, address _member) public view returns (bool) {\r\n        for (uint i = 0; i < groups[_groupId].confirmedBy.length; i++) {\r\n            if (groups[_groupId].confirmedBy[i] == _member) {\r\n                return true;\r\n            }\r\n        }\r\n        return false;\r\n    }\r\n\r\n    function isGroupRejectedBy(uint _groupId, address _member) public view returns (bool) {\r\n        for (uint i = 0; i < groups[_groupId].rejectedBy.length; i++) {\r\n            if (groups[_groupId].rejectedBy[i] == _member) {\r\n                return true;\r\n            }\r\n        }\r\n        return false;\r\n    }\r\n\r\n    function isGroupConfirmed(uint _groupId) private view returns (bool) {\r\n        uint confirmedCount = 0;\r\n        for (uint i = 0; i < groups[_groupId].confirmedBy.length; i++) {\r\n            if (groups[_groupId].confirmedBy[i] != address(0)) {\r\n                confirmedCount++;\r\n            }\r\n        }\r\n        return confirmedCount >= threshold;\r\n    }\r\n\r\n    function isGroupRejected(uint _groupId) private view returns (bool) {\r\n        uint rejectedCount = 0;\r\n        for (uint i = 0; i < groups[_groupId].rejectedBy.length; i++) {\r\n            if (groups[_groupId].rejectedBy[i] != address(0)) {\r\n                rejectedCount++;\r\n            }\r\n        }\r\n        return rejectedCount >= threshold;\r\n    }\r\n\r\n    function addGroup(string memory _name, address[] memory _members, uint _threshold) onlyMembers public returns (uint) {\r\n        require(_members.length > 0);\r\n        require(_threshold > 0);\r\n        require(_threshold <= _members.length);\r\n        uint groupId = groupCount++;\r\n        Group memory group = Group({\r\n            id: groupId,\r\n            name: _name,\r\n            members: _members,\r\n            threshold: _threshold,\r\n            confirmedBy: new address[](members.length),\r\n            rejectedBy: new address[](members.length)\r\n        });\r\n        group.confirmedBy[0] = msg.sender;\r\n        groups[groupId] = group;\r\n        emit GroupPending(msg.sender, groupId, _name, _members, _threshold);\r\n        emit GroupConfirmed(msg.sender, groupId);\r\n        return groupId;\r\n    }\r\n\r\n    function confirmGroup(uint _groupId) onlyMembers public {\r\n        require(isGroupRejected(_groupId) == false);\r\n        require(isGroupConfirmed(_groupId) == false);\r\n        require(isGroupRejectedBy(_groupId, msg.sender) == false);\r\n        address[] memory groupConfirmers = groups[_groupId].confirmedBy;\r\n        uint confirmerCount = 0;\r\n        for (uint i = 0; i < groupConfirmers.length; i++) {\r\n            if (groupConfirmers[i] == msg.sender) {\r\n                require(false);\r\n            }\r\n            if (groupConfirmers[i] != address(0)) {\r\n                confirmerCount++;\r\n            }\r\n        }\r\n        groups[_groupId].confirmedBy[confirmerCount] = msg.sender;\r\n        emit GroupConfirmed(msg.sender, _groupId);\r\n        if (isGroupConfirmed(_groupId)) {\r\n            emit GroupAdded(\r\n                _groupId,\r\n                groups[_groupId].name,\r\n                groups[_groupId].members,\r\n                groups[_groupId].threshold\r\n            );\r\n        }\r\n    }\r\n\r\n    function rejectGroup(uint _groupId) onlyMembers public {\r\n        require(isGroupConfirmed(_groupId) == false);\r\n        require(isGroupRejected(_groupId) == false);\r\n        require(isGroupConfirmedBy(_groupId, msg.sender) == false);\r\n        address[] memory groupRejecters = groups[_groupId].rejectedBy;\r\n        uint rejecterCount = 0;\r\n        for (uint i = 0; i < groupRejecters.length; i++) {\r\n            if (groupRejecters[i] == msg.sender) {\r\n                require(false);\r\n            }\r\n            if (groupRejecters[i] != address(0)) {\r\n                rejecterCount++;\r\n            }\r\n        }\r\n        groups[_groupId].rejectedBy[rejecterCount] = msg.sender;\r\n        emit GroupRejected(msg.sender, _groupId);\r\n        if (isGroupRejected(_groupId)) {\r\n            emit GroupRemoved(_groupId);\r\n        }\r\n    }\r\n\r\n    function getGroup(uint _groupId) public view returns (Group memory) {\r\n        return groups[_groupId];\r\n    }\r\n\r\n    function getCertConfirmers(uint _groupId, uint _certId) private view returns (address[] memory) {\r\n        address[] memory confirmers;\r\n        uint count = 0;\r\n        for (uint i = 0; i < members.length; i++) {\r\n            if (certConfirmed[_groupId][_certId][members[i]]) {\r\n                confirmers[count] = members[i];\r\n                count++;\r\n            }\r\n        }\r\n        return confirmers;\r\n    }\r\n\r\n    function getBatchConfirmers(uint _groupId, uint _batchId) private view returns (address[] memory) {\r\n        address[] memory confirmers;\r\n        uint count = 0;\r\n        for (uint i = 0; i < members.length; i++) {\r\n            if (batchConfirmed[_groupId][_batchId][members[i]]) {\r\n                confirmers[count] = members[i];\r\n                count++;\r\n            }\r\n        }\r\n        return confirmers;\r\n    }\r\n\r\n    function isCertConfirmed(uint _groupId, uint _certId) public view returns (bool) {\r\n        address[] memory confirmers = getCertConfirmers(_groupId, _certId);\r\n        uint count = confirmers.length;\r\n        return count >= groups[_groupId].threshold;\r\n    }\r\n\r\n    function isBatchConfirmed(uint _groupId, uint _batchId) public view returns (bool) {\r\n        address[] memory confirmers = getBatchConfirmers(_groupId, _batchId);\r\n        uint count = confirmers.length;\r\n        return count >= groups[_groupId].threshold;\r\n    }\r\n\r\n    function submitCert(uint _groupId, Cert memory _cert) onlyGroup(_groupId) public returns (uint) {\r\n        _cert.id = certCount++;\r\n        certs[_cert.id] = _cert;\r\n        emit CertPending(\r\n            msg.sender,\r\n            _cert.id,\r\n            _cert.regNo,\r\n            _cert.batchId\r\n        );\r\n        confirmCert(_groupId, _cert.id);\r\n        return _cert.id;\r\n    }\r\n\r\n    function submitBatch(uint _groupId, string memory _batchName, Cert[] memory _certs) onlyGroup(_groupId) public returns (uint) {\r\n        uint batchId = batchCount++;\r\n        Batch memory batch = Batch({\r\n            id: batchId,\r\n            name: _batchName\r\n        });\r\n        batches[batchId] = batch;\r\n        batchCerts[batchId] = new uint[](_certs.length);\r\n        for (uint i = 0; i < _certs.length; i++) {\r\n            _certs[i].id = certCount++;\r\n            _certs[i].batchId = batchId;\r\n            _certs[i].batchRegNo = _batchName;\r\n            uint certId = _certs[i].id;\r\n            certs[certId] = _certs[i];\r\n            batchCerts[batchId][i] = certId;\r\n        }\r\n        emit BatchPending(\r\n            msg.sender,\r\n            _groupId,\r\n            batchId,\r\n            _batchName,\r\n            _certs\r\n        );\r\n        confirmBatch(_groupId, batchId);\r\n        return batchId;\r\n    }\r\n\r\n    function confirmCert(uint _groupId, uint _certId) onlyGroup(_groupId) public {\r\n        require(certConfirmed[_groupId][_certId][msg.sender] == false);\r\n        certConfirmed[_groupId][_certId][msg.sender] = true;\r\n        Cert memory cert = certs[_certId];\r\n        emit CertConfirmed(msg.sender, _certId, cert.regNo, cert.batchId);\r\n        executeCert(_groupId, _certId);\r\n    }\r\n\r\n    function confirmBatch(uint _groupId, uint _batchId) onlyGroup(_groupId) public {\r\n        require(batchConfirmed[_groupId][_batchId][msg.sender] == false);\r\n        batchConfirmed[_groupId][_batchId][msg.sender] = true;\r\n        for (uint i = 0; i < batchCerts[_batchId].length; i++) {\r\n            uint certId = batchCerts[_batchId][i];\r\n            certConfirmed[_groupId][certId][msg.sender] = true;\r\n            Cert memory cert = certs[certId];\r\n            emit CertConfirmed(msg.sender, certId, cert.regNo, cert.batchId);\r\n        }\r\n        emit BatchConfirmed(msg.sender, _batchId, batches[_batchId].name);\r\n        executeBatch(_groupId, _batchId);\r\n    }\r\n\r\n    function executeCert(uint _groupId, uint _certId) onlyGroup(_groupId) private {\r\n        require(certExecuted[_certId] == false);\r\n        require(isCertConfirmed(_groupId, _certId));\r\n        certs[_certId].issuers = getCertConfirmers(_groupId, _certId);\r\n        Cert memory cert = certs[_certId];\r\n        holder.addCert(cert);\r\n        certExecuted[_certId] = true;\r\n        emit CertAdded(\r\n            cert.id,\r\n            cert.regNo,\r\n            cert.batchId\r\n        );\r\n    }\r\n\r\n    function executeBatch(uint _groupId, uint _batchId) onlyGroup(_groupId) private {\r\n        require(batchExecuted[_batchId] == false);\r\n        require(isBatchConfirmed(_groupId, _batchId));\r\n        address[] memory confirmers = getBatchConfirmers(_groupId, _batchId);\r\n        uint currentCertCount = batchCerts[_batchId].length;\r\n        Cert[] memory currentCerts = new Cert[](currentCertCount);\r\n        for (uint i = 0; i < currentCertCount; i++) {\r\n            uint certId = batchCerts[_batchId][i];\r\n            certs[certId].issuers = confirmers;\r\n            currentCerts[i] = certs[certId];\r\n        }\r\n        holder.addCerts(currentCerts);\r\n        batchExecuted[_batchId] = true;\r\n        for (uint i = 0; i < currentCertCount; i++) {\r\n            Cert memory cert = currentCerts[i];\r\n            emit CertAdded(\r\n                cert.id,\r\n                cert.regNo,\r\n                cert.batchId\r\n            );\r\n        }\r\n        emit BatchAdded(\r\n            _batchId,\r\n            batches[_batchId].name,\r\n            batchCerts[_batchId]\r\n        );\r\n    }\r\n}",
  "sourcePath": "/home/vi/code/dcerts-manager/issuer-wallet/contracts/MultiSigWallet.sol",
  "compiler": {
    "name": "solc",
    "version": "0.8.10+commit.fc410830.Emscripten.clang"
  },
  "schemaVersion": "3.4.3",
  "updatedAt": "2022-02-06T16:26:05.947Z",
  "networkType": "ethereum",
  "devdoc": {
    "kind": "dev",
    "methods": {},
    "version": 1
  },
  "userdoc": {
    "kind": "user",
    "methods": {},
    "version": 1
  }
}